:020000040800F2
:10000000C81500209D010008D9520008694E00085B
:10001000D552000879150008CD64000800000000E2
:100020000000000000000000000000002157000850
:100030007B25000800000000B55400085B5D000847
:10004000B7010008B7010008B7010008B7010008B0
:10005000B7010008B7010008B7010008B7010008A0
:10006000B7010008B7010008B7010008B701000890
:10007000B7010008B7010008B7010008B701000880
:10008000B7010008B7010008B7010008051600080D
:10009000E5150008F5150008B7010008B7010008CC
:1000A000B7010008B7010008B7010008B701000850
:1000B000B7010008355E0008B7010008B701000865
:1000C000B7010008B7010008B7010008B701000830
:1000D000B7010008B7010008B7010008B701000820
:1000E000B7010008B7010008B7010008B701000810
:1000F000B7010008B7010008B7010008B701000800
:10010000B7010008B7010008B7010008B7010008EF
:10011000B7010008B7010008B7010008B7010008DF
:10012000B701000851240008B7010008B701000812
:10013000B7010008B7010008B701000885160008DC
:100140006516000875160008B7010008B701000819
:10015000B701000861240008B70100089D6300088A
:10016000B7010008B7010008B7010008B70100088F
:10017000B7010008B7010008B7010008000000003F
:10018000B7010008B7010008DFF80CD000F084FBCD
:1001900000480047317D0008C81500200648804708
:1001A00006480047FEE7FEE7FEE7FEE7FEE7FEE75C
:1001B000FEE7FEE7FEE7FEE7215E00088901000892
:1001C0002DE9F05F0546002092469B46884606468C
:1001D000814640241BE0284641464746224600F01F
:1001E00053FA53465A46C01A914110D31146184645
:1001F000224600F03AFA2D1A67EB01084F462246D4
:100200000120002100F031FA17EB00094E41201EB9
:10021000A4F10104DFDC484631462A464346BDE8E6
:10022000F09F40EA01039B0703D009E008C9121FB1
:1002300008C0042AFAD203E011F8013B00F8013BA0
:10024000521EF9D27047D2B201E000F8012B491ECC
:10025000FBD270470022F6E710B513460A46044663
:100260001946FFF7F0FF204610BD2DE9FE4F8046EE
:1002700081EA0300C00F0C46009021F0004123F0FA
:100280000045B8EB0200A94105D240462146904600
:100290001C460B46024623F00040104347D0270D72
:1002A000C7F30A00C3F30A510290401A0190402894
:1002B0006BDAC3F3130040F4801B0098924620B120
:1002C0000023D2EB030A63EB0B0B01985946C0F1F4
:1002D0004002504600F0C9F906460D4650465946C0
:1002E000019A00F0E1F910EB08006141002487EA6F
:1002F000115284EAE7731A4340D0009A62B3019A1C
:10030000012A4FEA075215DC001B61EB02014FF096
:10031000004202EA0752CDE90042001C41F580117B
:1003200032462B4600F018FA03B0BDE8F08F404685
:100330002146F9E7001B61EB0201001C41F5801327
:1003400000185B412018A2F5001747EB030140EAB3
:10035000D570B6196D4111E06D084FEA360645EAD1
:10036000C0754FEA0752001B61EB0201001C41F50A
:10037000801149084FEA30000019514132462B469E
:1003800003B0BDE8F04F00F0D8B90098012240005A
:100390000023D0EB020263EBE073009821464FEAA2
:1003A000E074B8EB000061EB0401E9E783F000437F
:1003B0005BE781F0004158E72DE9FE4F81EA030435
:1003C00004F0004421F0004100944FF0000B23F0B2
:1003D000004350EA01045ED052EA03045BD0C3F349
:1003E0000A54C1F30A552C44A4F2F3340194A0FB3F
:1003F0000254C1F3130141F48011C3F3130343F416
:10040000801301FB024400FB034E840A970A44EA6E
:10041000815447EA8357A4FB076802958D0A05FBC0
:1004200007854FEA932C04FB0C542705029D4FEAE5
:10043000065847EA1637B5EB08056EEB070C870E32
:10044000920E47EA811742EA8312A7FB0201B6EB3C
:100450000B0164EB00042B0D43EA0C335E1844EBF4
:100460001C50DA465146E7FB0201C5F313044FEA7C
:100470000B3343EA14534FEA0432019C43EA060368
:10048000A4F10C040294009CCDE900B400F064F9DE
:1004900003B0BDE8F08F00200146F9E72DE9F04DEB
:1004A00081EA030404F0004B21F0004514464FF0AC
:1004B000000A23F0004150EA050220D054EA01026C
:1004C0001DD0C5F30A570246C5F31303C1F3130049
:1004D000C1F30A5640F4801543F48013A7EB0608D5
:1004E000101BD64608F2FD3873EB050002D308F165
:1004F000010801E092185B41B8F1000F03DA002017
:100500000146BDE8F08D00204FF480110646844678
:100510000EE0171B73EB050705D3121B63EB0503F6
:1005200006434CEA010C49084FEA300092185B413F
:1005300050EA0107EDD152EA030012D082EA04002A
:1005400083EA0501084305D0101BAB4106D2012206
:10055000002306E000224FF0004302E06FF00102AA
:1005600053101AEB06004CEB085110EB0A0041EB5C
:100570000B01BDE8F04D00F0E0B80EB5C10F80EA08
:10058000E0700844CA07002140F233438DE80E00B2
:100590000A460B4600F0E0F803B000BD70B5C1F3A9
:1005A0000A5201F000450024C1F3130140F2FF3369
:1005B00041F480119A4201DA002070BD40F23343C9
:1005C0009A42A2F2334203DC524200F05DF800E0AE
:1005D00090402C43F1D0404270BDC1F30A5210B597
:1005E000C1F3130140F2FF3341F480119A4201DA62
:1005F000002010BD40F233439A42A2F2334203DCA2
:10060000524200F041F810BD904010BD00F0004291
:1006100030F000400AD0C10D01F56071C0F3160042
:1006200042EA0151C20840071143704700200146C9
:10063000704701F0004330B421F0004150EA01025C
:1006400006D00A0DA2F56072C1F31301002A02DC84
:1006500030BC00207047440F44EAC104C100E018D8
:1006600030BC00EBC25000F031B8202A04DB203A45
:1006700000FA02F1002070479140C2F1200320FAF5
:1006800003F3194390407047202A04DB203A21FAF3
:1006900002F00021704721FA02F3D040C2F120029B
:1006A0009140084319467047202A06DBCB17203AB1
:1006B00041FA02F043EAE07306E041FA02F3D04067
:1006C000C2F1200291400843194670470029A8BF93
:1006D0007047401C490008BF20F00100704710B46B
:1006E000B0FA80FC00FA0CF050EA010404BF10BC20
:1006F000704749B1CCF1200421FA04F411FA0CF14D
:1007000018BF012121430843A3EB0C01CB1D4FEA85
:1007100000614FEA102042BF002010BC704700EB80
:10072000C35010440029A4BF10BC7047401C4900AE
:1007300008BF20F0010010BC704710B5141E73F103
:10074000000408DA401C41F1000192185B411A4391
:1007500001D120F0010010BD2DE9F04D92469B46DD
:1007600011B1B1FA81F202E0B0FA80F22032904683
:10077000FFF77BFF04460F4640EA0A0041EA0B01FF
:1007800053465A46084313D0114653EA010019D084
:10079000C8F140025046FFF777FF05460E46504627
:1007A00059464246FFF761FF084305D0012004E0A7
:1007B00020463946BDE8F08D0020054346EAE07644
:1007C0002C4337430A986305E40AA0EB0800002293
:1007D000FD0A44EA47540A3002D500200146E9E701
:1007E000010510196941DDE9084500196941BDE8B5
:1007F000F04DA2E72DE9F04D00231A461B1A8A415D
:1008000003DB00200146BDE8F08DC1F30A52C1F3BD
:10081000130141F480154FF0000BD10702D10018ED
:100820006D41521E0027044640F2FF11384601EB8D
:10083000620A3E468046024600204FF48011FFF7D0
:1008400023FFC2197141BB1846EB0100B4EB030C46
:1008500075EB000C04D3E41A65EB000517460E4651
:10086000241908F101006D4180463428E3DDF919AF
:1008700046EB0600091BA84103D24FF0FF32134696
:1008800001E0002213461BEB070046EB0A51BDE8CE
:10089000F04DFFF752BF0000064C074D06E0E06840
:1008A00040F0010394E8070098471034AC42F6D3B7
:1008B000FFF76EFCA0830008C08300080EB540F26D
:1008C000334102910021CDE900110A460B46FFF7A2
:1008D00043FF03B000BD70B58C1810F8015B15F034
:1008E000070301D110F8013B2A1106D110F8012BA2
:1008F00003E010F8016B01F8016B5B1EF9D12B07C7
:1009000005D40023521E0DD401F8013BFAE710F87C
:10091000013BCB1A921C03E013F8015B01F8015B69
:10092000521EF9D5A142D8D3002070BD70B52DED6F
:10093000108B044694ED070ADFEDFE0A20EE200A34
:1009400010EE105A9FEDFC0B06F0FAF8B0EE40DA0C
:10095000F0EE60DA2846FFF759FE41EC1E0B53EC2F
:100960001D2BFFF729FD41EC1B0B94ED050A10EE42
:10097000101A0846FFF74AFE41EC1C0B53EC1B2BE8
:10098000FFF773FC41EC1A0BFFF753FE08EE100A59
:100990009FEDE90B06F0D4F8B0EE40DAF0EE60DA45
:1009A0002846FFF733FE41EC1E0B53EC1D2BFFF7DF
:1009B00003FD41EC1B0B94ED050A10EE101A0846DE
:1009C000FFF724FE41EC1C0B53EC1B2BFFF7EEFC56
:1009D00041EC1A0BFFF72DFE08EE900A9FEDD60BA7
:1009E00006F012F9B0EE40DAF0EE60DA2846FFF7D2
:1009F0000DFE41EC1E0B53EC1D2BFFF7DDFC41EC13
:100A00001B0B94ED030A10EE101A0846FFF7FEFDCB
:100A100041EC1C0B53EC1B2BFFF727FC41EC1A0B92
:100A2000FFF707FE09EE100A9FEDC30B06F0ECF886
:100A3000B0EE40DAF0EE60DA2846FFF7E7FD41EC71
:100A40001E0B53EC1D2BFFF7B7FC41EC1B0B94ED79
:100A5000030A10EE101A0846FFF7D8FD41EC1C0BF4
:100A600053EC1B2BFFF7A2FC41EC1A0BFFF7E1FD47
:100A700009EE900A19EE900AFFF7C8FD41EC1E0B33
:100A800018EE900AFFF7C2FD41EC1F0BB0EE4E1AB4
:100A9000F0EE6E1AB0EE4F0AF0EE6F0A05F058FF56
:100AA000B0EE40DAF0EE60DA9FEDA50B53EC102BC0
:100AB00051EC1D0BFFF780FC41EC1C0B9FEDA20BD2
:100AC00053EC102BFFF7EAFC41EC1B0B9FEDA00B46
:100AD00053EC102BFFF7E2FC41EC1A0BFFF7A9FDDA
:100AE000A06219EE900AFFF791FD41EC1E0B18EE83
:100AF000100AFFF78BFD41EC1D0BB0EE4E1AF0EE25
:100B00006E1AB0EE4D0AF0EE6D0A05F021FFB0EE60
:100B100040FAF0EE60FA9FED8A0B53EC102B51EC8B
:100B20001F0BFFF749FC41EC1C0B9FED870B53ECAF
:100B3000102BFFF7B3FC41EC1B0B9FED850B53EC27
:100B4000102BFFF7ABFC41EC1A0BFFF772FDE064D2
:100B500019EE100AFFF75AFD41EC1E0B18EE100AB1
:100B6000FFF754FD41EC1F0BB0EE4E1AF0EE6E1A7B
:100B7000B0EE4F0AF0EE6F0A05F0EAFEB0EE40DA92
:100B8000F0EE60DA9FED6E0B53EC102B51EC1D0B69
:100B9000FFF712FC41EC1C0B9FED6B0B53EC102B81
:100BA000FFF77CFC41EC1B0B9FED690B53EC102B0A
:100BB000FFF774FC41EC1A0BFFF73BFD206719EEC1
:100BC000100AFFF723FD41EC1F0B18EE900AFFF708
:100BD0001DFD41EC1D0BB0EE4F1AF0EE6F1AB0EE9A
:100BE0004D0AF0EE6D0A05F0B3FEB0EE40CAF0EE2D
:100BF00060CA9FED530B53EC102B51EC1C0BFFF70D
:100C0000DBFB41EC1B0B9FED500B53EC102BFFF764
:100C100045FC41EC1A0B9FED4E0B53EC102BFFF7EC
:100C20003DFC41EC1E0BFFF704FD94210851F5EE4D
:100C3000C09AF1EE10FA23D1F5EEC08AF1EE10FA67
:100C400003DD9FED450A84ED0A0AF5EEC08AF1EE58
:100C500010FA03D29FED410A84ED0A0AB5EEC08A6C
:100C6000F1EE10FA03DD9FED3C0A84ED130AB5EEB8
:100C7000C08AF1EE10FA03D29FED380A84ED130A10
:100C8000B5EEC09AF1EE10FA23D1B5EEC08AF1EEBE
:100C900010FA03DD9FED300A84ED1C0AB5EEC08A20
:100CA000F1EE10FA03D29FED2D0A84ED1C0AF5EE49
:100CB000C08AF1EE10FA03DD9FED270A84ED250AC4
:100CC000F5EEC08AF1EE10FA03D29FED240A84ED0E
:100CD000250AF5EEC08AF1EE10FA23D1F5EEC09A9E
:100CE000F1EE10FA03DD9FED1E0A84ED0A0AF5EE1F
:100CF000C09AF1EE10FA03D29FED1A0A84ED0A0AA7
:100D0000B5EEC09AF1EE10FA03DD9FED150A84ED01
:100D1000250AB5EEC09AF1EE10FA03D29FED110A42
:100D200084ED250AB5EEC08AF1EE10FA3ED1F5EE5B
:100D3000C09A19E00000004200000080FB21E93F5A
:100D40000000000000FFBF4000000080FB210940C0
:100D5000000000000000004001F8FF4401F8FFC45B
:100D60000000000001F87F45F1EE10FA03DD1FEDF1
:100D7000040A84ED130AF5EEC09AF1EE10FA03D2DC
:100D80001FED080A84ED130AB5EEC09AF1EE10FAD1
:100D900003DD1FED0D0A84ED1C0AB5EEC09AF1EEDD
:100DA00010FA03D21FED110A84ED1C0AB0EE680A96
:100DB00004F0CCFFF0EE401AB0EE690A04F0C6FF72
:100DC00031EE800A10EE106A3046FFF71FFC41EC4E
:100DD0001B0BB0EE4B0AF0EE6B0A05F079FFB0EE9C
:100DE00040AAF0EE60AA51EC1A0BFFF722FCA063B8
:100DF000B0EE480A04F0AAFFF0EE401AB0EE690A1D
:100E000004F0A4FF31EE800A10EE106A3046FFF7BE
:100E1000FDFB41EC1B0BB0EE4B0AF0EE6B0A05F04C
:100E200057FFB0EE40AAF0EE60AA51EC1A0BFFF7A4
:100E300000FCE065B0EE480A04F088FFF0EE401ACE
:100E4000B0EE490A04F082FF31EE800A10EE106A1B
:100E50003046FFF7DBFB41EC1B0BB0EE4B0AF0EE2C
:100E60006B0A05F035FFB0EE40AAF0EE60AA51EC37
:100E70001A0BFFF7DEFB80210851B0EE680A04F080
:100E800065FFF0EE401AB0EE490A04F05FFF31EE64
:100E9000800A10EE106A3046FFF7B8FB41EC1B0BDE
:100EA000B0EE4B0AF0EE6B0A05F012FFB0EE40AA6E
:100EB000F0EE60AA51EC1A0BFFF7BBFBA42108511E
:100EC00094ED0E0ADFED120A20EE200A84ED0F0ADF
:100ED00094ED170AB1EE400ADFED0D0A20EE200A6C
:100EE00084ED180A94ED200AB1EE400ADFED080AFD
:100EF00020EE200A84ED210A94ED290ADFED040A90
:100F000020EE200A84ED2A0ABDEC108B70BD000093
:100F10004276F43F10B52DED0E8BB0EE408AF0EE28
:100F2000608AB0EE41EA18EE100AFFF76FFB41EC61
:100F30001C0B18EE900AFFF769FB41EC1D0BB0EE9D
:100F40004C1AF0EE6C1AB0EE4D0AF0EE6D0A05F098
:100F5000FFFCB0EE40BAF0EE60BA51EC1B0B81F032
:100F6000004141EC1A0B9FED090B53EC102BFFF7DE
:100F700095FA41EC190BFFF75CFB0649086008463F
:100F800090ED000ABDEC0E8B10BD00006F1283C007
:100F9000CA2109407800002090ED0B0A80ED0C0A70
:100FA00090ED140A80ED150A90ED1D0A80ED1E0AE1
:100FB00090ED260A80ED270A90ED0A0ADFED740A0B
:100FC00030EE600A80ED0B0A90ED130ADFED700A37
:100FD00030EE600A80ED140A90ED1C0ADFED6C0A19
:100FE00030EE600A80ED1D0A90ED250ADFED680AFB
:100FF00030EE600A80ED260A017A79B19FED650A2C
:1010000080ED0B0A9FED640A80ED140A9FED630AE0
:1010100080ED1D0A9FED620A80ED260A90ED0B0A15
:10102000DFED600AB4EEE00AF1EE10FA07DD90EDB4
:101030000B0ADFED5C0A30EE600A80ED0B0A90EDE2
:101040000B0AB5EEC00AF1EE10FA07D290ED0B0ACA
:10105000DFED540A30EE200A80ED0B0A90ED140A01
:10106000DFED500AB4EEE00AF1EE10FA07DD90ED84
:10107000140ADFED4C0A30EE600A80ED140A90EDA0
:10108000140AB5EEC00AF1EE10FA07D290ED140A78
:10109000DFED440A30EE200A80ED140A90ED1D0ABF
:1010A000DFED400AB4EEE00AF1EE10FA07DD90ED54
:1010B0001D0ADFED3C0A30EE600A80ED1D0A90ED5E
:1010C0001D0AB5EEC00AF1EE10FA07D290ED1D0A26
:1010D000DFED340A30EE200A80ED1D0A90ED260A7D
:1010E000DFED300AB4EEE00AF1EE10FA07DD90ED24
:1010F000260ADFED2C0A30EE600A80ED260A90ED1C
:10110000260AB5EEC00AF1EE10FA07D290ED260AD3
:10111000DFED240A30EE200A80ED260A90ED0F0A5A
:10112000BDEEC00AB8EEC00AF7EE000A20EE200AB3
:10113000BDEEC00A80ED100A90ED180ABDEEC00A9F
:10114000B8EEC00AF7EE000A20EE200ABDEEC00A93
:1011500080ED190A90ED210ABDEEC00AB8EEC00A72
:10116000F7EE000A20EE200ABDEEC00A80ED220A4A
:1011700090ED2A0ABDEEC00AB8EEC00AF7EE000AEA
:1011800020EE200ABDEEC00A80ED2B0A7047000059
:1011900000F8FF4400F89F4500F03F4500C07F4441
:1011A00000C07FC400F8FF4570B504460C2094FBD6
:1011B000F0F100FB1140002863D1D348007858B308
:1011C000D14890F84500012811D10021CE4880F87F
:1011D0004510014691F844000122002101F0CEF9AA
:1011E00005460823C94A2946C94800F0FBFAC94800
:1011F000D0ED080AB0EE600AC348B0F8400002B271
:10120000C148D0ED0B0AFDEEE00A10EE900A01B2E3
:10121000BE4804F0EDFA26E0BB4890F8450088B9D6
:101220000121B94880F84510014691F84400002298
:10123000114601F0A3F905460823B44A2946B448EB
:1012400000F0D0FAB348D0ED080AB0EE600AAE481C
:10125000D0ED0B0AFDEEE00A10EE900A01B200227A
:10126000AA4804F0C5FAA84991F8440003220021D5
:1012700001F084F905460823A44A2946A44800F051
:10128000B1FA0C2094FBF0F100FB1140032863D16C
:101290009D48007858B39C4890F86900012811D106
:1012A0000021994880F86910014691F868000122F0
:1012B000002101F063F905460823974A294694481E
:1012C00000F090FA9348D0ED090AB0EE600A8E481B
:1012D000B0F8640002B28C48D0ED140AFDEEE00ACA
:1012E00010EE900A01B28C4804F082FA26E086489B
:1012F00090F8690088B90121834880F86910014697
:1013000091F868000022114601F038F905460823DB
:101310007E4A29467E4800F065FA7E48D0ED090AEB
:10132000B0EE600A7848D0ED140AFDEEE00A10EE47
:10133000900A01B20022784804F05AFA724991F8F2
:1013400068000322002101F019F905460823724ABA
:1013500029466F4800F046FA0C2094FBF0F100FBA0
:101360001140062863D16848007858B3664890F861
:101370008D00012811D10021634880F88D100146AD
:1013800091F88C000122002101F0F8F805460823AD
:10139000614A29465E4800F025FA5E48D0ED0A0A07
:1013A000B0EE600A5848B0F8880002B25648D0ED56
:1013B0001D0AFDEEE00A10EE900A01B2574804F053
:1013C00017FA26E0504890F88D0088B901214E4860
:1013D00080F88D10014691F88C000022114601F032
:1013E000CDF805460823494A2946494800F0FAF94C
:1013F0004848D0ED0A0AB0EE600A4348D0ED1D0A15
:10140000FDEEE00A10EE900A01B20022434804F01B
:10141000EFF93D4991F88C000322002101F0AEF86C
:10142000054608233D4A2946394800F0DBF90C20DF
:1014300094FBF0F100FB1140092863D13248007899
:1014400058B3314890F8B100012811D100212E483D
:1014500080F8B110014691F8B0000122002101F09E
:101460008DF8054608232C4A2946294800F0BAF988
:101470002848D0ED0B0AB0EE600A2348B0F8AC0063
:1014800002B22148D0ED260AFDEEE00A10EE900AE5
:1014900001B2234804F0ACF926E01B4890F8B100F3
:1014A00088B90121184880F8B110014691F8B000C0
:1014B0000022114601F062F805460823134A294626
:1014C000134800F08FF91348D0ED0B0AB0EE600A14
:1014D0000D48D0ED260AFDEEE00A10EE900A01B2AA
:1014E00000220F4804F084F9074991F8B000032264
:1014F000002101F043F805460823094A294604481B
:1015000000F070F970BD0000D00D00200402002032
:101510003C020020200D00200C02002014020020BC
:101520001C02002070B505460C4600260DB1022CA9
:1015300000D870BDA11E06480288284601F090F927
:101540000646A01E2E54310A601E295400BFF0E743
:101550001400002070B505460C4600260DB1022C83
:1015600000D870BD611EFF22284601F093F906469F
:10157000601E2E5400BFF4E700BFFEE700BF00BFAF
:1015800001791A2906D01B290DD01C2914D01D2938
:1015900024D11AE01249C2690A61097B41F00101B4
:1015A0000F4A11731AE00E49C2694A61097B41F082
:1015B00002010B4A117311E00949C2698A61097B72
:1015C00041F00401064A117308E00549C269CA6185
:1015D000097B41F00801024A117300BF00BF704748
:1015E000200D002010B5024801F055FC10BD000090
:1015F0003C02002010B5024801F04DFC10BD000077
:101600003C02002010B5024801F045FC10BD00006E
:101610003C02002010B504462068B0F5A87F06D033
:10162000B0F5A97F09D0A0F2062090B90BE004F133
:101630001C010A4800F054FE0BE004F11C010748AD
:1016400000F020FD05E004F11C01054801F044F81C
:1016500000BF00BF00BF00BF10BD0000EC0F0020A6
:10166000840E002010B5024801F015FC10BD0000EA
:101670006402002010B5024801F00DFC10BD00000E
:101680006402002010B5024801F005FC10BD000006
:101690006402002008B5002000900E4890ED080A72
:1016A000BCEEC00A10EE100A80B200900A48094948
:1016B000498B01800749498941800649C98B81804E
:1016C000BDF80010C1800548024991F8241001704E
:1016D00008BD00005C0C0020B4010020A401002023
:1016E00030B58BB004460D460120069000200190D5
:1016F0000290039004900790012009900890002028
:1017000005902A49206888421DD1294804608562D5
:101710000E200A90FF231A220221204605F0E8FF3E
:10172000FF231B220A21204605F0E2FFFF231C2293
:101730001621204605F0DCFFFF231D221E21204636
:1017400005F0D6FF20E01B49206888421CD11A48CA
:10175000046085620F200A9040F2FF7340F2062277
:101760007821204605F0C4FF40F2FF734FF4A872C1
:101770008421204605F0BCFF40F2FF734FF4A972AC
:101780008C21204605F0B4FF01A9204601F026FA7D
:10179000204601F08EFE0221204601F065F910215D
:1017A000204601F061F90BB030BD0000006400403C
:1017B00070110020006800409C110020F0B587B037
:1017C00006460C4617461D460194002002900390E1
:1017D000049005956B463A4601A9304601F059F947
:1017E00007B0F0BDF0B587B006460C4617461D465B
:1017F000029400200190042003900020049005959D
:101800006B463A4601A9304601F043F907B0F0BDF6
:1018100010B504490448FFF763FF04490448FFF783
:101820005FFF10BD7D1500083C0200201516000862
:1018300064020020F0B585B004460D4600EE104A63
:10184000B8EEC00ADFED390A80EE201A9FED380AA3
:1018500021EE000ADFED370A80EE201A9FED340AF0
:1018600031EE000A344880ED000A00EE104AB8EE6E
:10187000C00ADFED2E0A80EE201A304880ED001AF3
:1018800090ED000AB5EEC00AF1EE10FA07D290ED25
:10189000000ADFED2B0A30EE200A80ED000A0DB9B8
:1018A000022000E001200746264803210422264B9F
:1018B0001B88CDE90132CDE903102448008800904F
:1018C00021480388214802883946002003F05CFB48
:1018D00006460F2231461E48FEF7A3FC1D4805218F
:1018E00008224FF44873CDE90132CDE90310C82036
:1018F0004FF42F73024639460090002003F044FB5A
:1019000006460F22314612480F30FEF78AFC1E2091
:1019100000901148807800F580720F4881780C4B58
:101920004FF4817003F0FEFE05B0F0BD0000C84228
:10193000DC0F494000003443A4000020A800002030
:101940000000B443F00000200C0100200A01002038
:10195000BC100020000100205C0C002001B5A6B0E6
:10196000F1A103C9CDE92401F1A103C9CDE9220107
:10197000F1A207CA1FAB07C3F2A103C9CDE91D013C
:10198000F2A103C9CDE91B01F2A000681A90F2A0F0
:1019900000681990F1A103C9CDE91701F1A103C9AC
:1019A000CDE91501F1A103C9CDE91301F1A103C9E5
:1019B000CDE91101F1A103C9CDE90F01F1A103C9DD
:1019C000CDE90D01F1A103C9CDE90B01D8A103C9EE
:1019D000CDE90901EFA103C9CDE90701269898B126
:1019E00024A8EE4902220292CDE9032105900720A6
:1019F000142140F252234FF4D862CDE900100121A6
:101A0000002000F039FA46E0E548407AC0B10128EC
:101A100002D002283ED128E024A8E0490222029206
:101A2000CDE9032105900720142140F252234FF401
:101A3000D862CDE900100221002000F01DFA29E053
:101A40001FA8D64905220223CDE90232CDE90410B0
:101A50000A20142140F252234FF4D862CDE900103D
:101A60000221002000F008FA14E022A8CB49062247
:101A70000223CDE90232CDE904100520142140F201
:101A800052234FF4D862CDE900100221002000F06B
:101A9000F3F900BF00BF2698A0B11AA8C1490522DA
:101AA0000223CDE90232CDE90410042014214FF4C1
:101AB00007734FF4D862CDE900100121002000F037
:101AC000DBF92CE0B648C07998B91AA8B5490222CA
:101AD0000292CDE903210590042014214FF40773ED
:101AE0004FF4D862CDE900100221002000F0C4F9C3
:101AF00014E019A8AB4905220223CDE90232CDE951
:101B00000410032014214FF407734FF4D862CDE979
:101B100000100221002000F0AFF900BF00BF26989E
:101B200098B117A8A04905220223CDE90232CDE9D8
:101B3000041014214FF4F373CDE900124FF4D8626E
:101B40000121002000F098F997E09848C07A072812
:101B50007ED2DFE800F07D04182C4054680015A800
:101B6000914902220292CDE903210590052014211A
:101B70004FF4F3734FF4D862CDE900100221002036
:101B800000F07AF978E013A8874902220292CDE9A1
:101B900003210590052014214FF4F3734FF4D8620C
:101BA000CDE900100221002000F066F964E011A8E0
:101BB0007D4902220292CDE90321059005201421DE
:101BC0004FF4F3734FF4D862CDE9001002210020E6
:101BD00000F052F950E00FA8734902220292CDE9B9
:101BE00003210590052014214FF4F3734FF4D862BC
:101BF000CDE900100221002000F03EF93CE00DA8E4
:101C0000694902220292CDE90321059005201421A1
:101C10004FF4F3734FF4D862CDE900100221002095
:101C200000F02AF928E00BA85F4902220292CDE9D0
:101C300003210590072014214FF4F3734FF4D86269
:101C4000CDE900100221002000F016F914E0FFE7B2
:101C500017A8554905220223CDE90232CDE9041027
:101C600014214FF4F373CDE900124FF4D86202212E
:101C7000002000F001F900BF00BF269890B107A82E
:101C80004B4902220292CDE903210590072014213D
:101C90004FF4D8739A00CDE900100121002000F024
:101CA000EBF83FE041488078A8B1012826D109A887
:101CB0003F4906220223CDE90232CDE90410052076
:101CC00014214FF4D8739A00CDE9001002210020AE
:101CD00000F0D2F825E007A8354902220292CDE9AA
:101CE00003210590072014214FF4D8739A00CDE901
:101CF00000100221002000F0BFF812E007A82C49D4
:101D000002220292CDE903210590072014214FF40D
:101D1000D8739A00CDE900100221002000F0ACF841
:101D200000BF00BF27B000BD4E4F524D414C0000D8
:101D30004155544F00000000504F574552444F57F3
:101D40004E0000004249474255460000534D4C4268
:101D5000554600004F4646004F4E00004C4F53542E
:101D60000000000049445F310000000049445F3238
:101D70000000000049445F330000000049445F3424
:101D80000000000049445F350000000053656E7498
:101D9000727900004D414E55414C00001501002064
:101DA000EC0F0020190100201D0100200810002068
:101DB000210100202DE9F0470446DDE9097CDDE939
:101DC0000B58089E2A48B8F80090A0F8009098F8A0
:101DD000029080F80290B0F8030064F38910DFF8F5
:101DE0009090A9F803004846C07861F3020089F892
:101DF00003004846C07820F03800383089F80300E6
:101E00004846007965F3850089F804004846008952
:101E100062F38C00A9F808004846B0F8090063F3A3
:101E20004F10A9F809004846808866F38E10A9F87B
:101E300004004846B0F8050067F3CF10A9F8050084
:101E40004846B0F807006CF30900A9F807000F2016
:101E500009E04FF00009DFF81CA00AF8009000F13B
:101E6000010909F0FF002D28F3DB0148BDE8F087E8
:101E700025110020BC1000202DE9F04F87B00D4641
:101E800016461F4611AC94E8100EDDF840803B4624
:101E9000324629460020CDE903ABCDE90149CDF812
:101EA0000080FFF787FF06900F220F480699FEF784
:101EB000B8F91E210C480F30FEF7CCF922460A482B
:101EC0000F301599FEF7ADF92D2000900748807866
:101ED00000F5807205488178034B4FF4887003F059
:101EE00021FC07B0BDE8F08FBC1000205C0C002086
:101EF00000B597B04CA103C9CDE9150115A84C490F
:101F000001220223CDE90232CDE904100820142178
:101F10004FF422734FF4C062CDE90010012100207C
:101F2000FFF7AAFF43A1D1E900028968CDE9132197
:101F3000129012A8424901220223CDE90232CDE9D2
:101F400004100920142140F252234FF4C062CDE95D
:101F5000001001210020FFF78FFF3AA207CA0FAB44
:101F600007C30FA83A4901220223CDE90232CDE985
:101F700004100B2014214FF407734FF4C062CDE915
:101F8000001001210020FFF777FF32A103C9CDE93E
:101F90000D010DA8314901220223CDE90232CDE91C
:101FA0000410082014214FF4F3734FF4C062CDE9FC
:101FB000001001210020FFF75FFF29A2D2E90010E5
:101FC0009268CDE90B020A910AA82849012202234E
:101FD000CDE90232CDE904100B2014214FF4D8735F
:101FE0004FF4C062CDE9001001210020FFF744FF4B
:101FF0001FA30FCBCDE90823CDE9060106A8204990
:1020000001220223CDE90232CDE904100E201E2167
:102010006C234FF44072CDE9001001210020FFF73E
:102020002BFF17B000BD00005049544348203A0030
:102030002501002047494D42414C203A0000000054
:10204000290100204652494354494F4E203A00008E
:102050002D01002041524D4F52203A003101002005
:10206000464952454D4F4445203A00003901002071
:10207000434150203A2020202020202056000000FC
:10208000350100200A7802704A780AB1012200E086
:10209000002242700122C270CA780AB1012200E017
:1020A0000022C2710A790AB1012200E000224272C4
:1020B0004A790AB1012200E0002242717047427859
:1020C0008270C2780271C2790272427A8272427957
:1020D0008271704710B50120144908704870087269
:1020E00088729FED130A084680ED010A41F6D3512C
:1020F000416340F60D21816540F2AF71C16741F245
:10210000E351C0F8A0101A2180F844101B2180F878
:1021100068101C2180F88C101D2180F8B01000225E
:102120000449054803F0B2F910BD0000D00D0020AD
:10213000000000004C000020500D002000B52B488E
:1021400040782B4948702948C07848720846407842
:10215000012825D12548B0F91200404200EE100AAE
:10216000B8EEC00A084680ED040A2048B0F9140011
:10217000404200EE100AB8EEC00A084680ED060A9A
:102180001A48B0F91600404200EE100AB8EEC00A34
:10219000F2EE040A80EE201A084680ED081A21E0CB
:1021A0001248B0F9120000EE100AB8EEC00A10484A
:1021B00080ED040A0D48B0F9140000EE100AB8EEE4
:1021C000C00A0B4880ED060A0848B0F9160000EE78
:1021D000100AB8EEC00AF2EE040A80EE201A044893
:1021E00080ED081A024800F0BDF800BDEC0F002099
:1021F000D00D002010B52748007827490870084600
:10220000007830B1012813D0022827D003283FD10D
:1022100000E000BF9FED210A1F4880ED030A9FEDFB
:102220001F0A80ED050A9FED1D0A80ED070A2FE0C9
:102230001948407A01280BD105F092FA1648D0EDE2
:10224000070AB7EE001A41EE400AC0ED070A04E0A3
:102250009FED120A104880ED070A19E00E4890ED34
:10226000030AB5EEC00AF1EE10FA0BD190ED050AA3
:10227000B5EEC00AF1EE10FA04D1B2EE080A80ED14
:10228000070A04E0B1EE080A034880ED070A00BF20
:1022900000BF10BDEC0F0020D00D0020000000009A
:1022A00010B5FFF74BFF00F007FBFFF7A3FF024855
:1022B00000F01EF810BD0000D00D0020002007E047
:1022C0009FED050A054901EB800181ED000A401CE4
:1022D0000428F5DB7047000000007042400D00202C
:1022E0000A8842824A8882828A88C28270470000B5
:1022F00010B50446D4ED011AB0EE611AD4ED031AFC
:10230000F0EE610AD4ED031AB0EE610AFEF702FEA8
:10231000134880ED000A94ED030AB5EEC00AF1EE11
:1023200010FA10D194ED050AB5EEC00AF1EE10FADC
:1023300009D194ED070AB5EEC00AF1EE10FA02D108
:102340000120207201E0002020722046FEF7EEFA04
:102350002046FEF721FE204603F00AFC10BD0000D7
:102360007C000020817A002964D090ED040AD0ED31
:10237000030A30EE600AF3EE040AB4EEE00AF1EE6E
:1023800010FA08DD90ED030AF3EE040A30EE200A9D
:1023900080ED030A19E090ED040AD0ED030A30EE57
:1023A000600AFBEE040AB4EEE00AF1EE10FA08D27D
:1023B00090ED030AF3EE040A30EE600A80ED030AA2
:1023C00003E090ED040A80ED030A90ED060AD0EDDB
:1023D000050A30EE600AF3EE040AB4EEE00AF1EE0C
:1023E00010FA08DD90ED050AF3EE040A30EE200A3B
:1023F00080ED050A19E090ED060AD0ED050A30EEF1
:10240000600AFBEE040AB4EEE00AF1EE10FA08D21C
:1024100090ED050AF3EE040A30EE600A80ED050A3D
:1024200003E090ED060A80ED050A90ED080A80EDC4
:10243000070A0BE090ED080A80ED070A90ED040A08
:1024400080ED030A90ED060A80ED050A7047000052
:1024500010B5024801F064F810BD000084030020AC
:1024600010B5024801F05CF810BD0000E403002044
:102470000146087810381823B0FBF3F20848805C56
:10248000C865032A05D908686FF30900001D88652F
:1024900003E008686FF309008865886D70470000E5
:1024A000B87E0008014600208A6A8B69CBB932B138
:1024B000012A0DD0022A03D0032A10D10EE000BF5A
:1024C000CB6A03F08073B3F1807F00D1012007E075
:1024D000CB6AB3F1C07F00D1012001E000E000BF72
:1024E00034E08B69B3F5005F1AD132B1012A07D00D
:1024F000022A03D0032A11D10AE000BF01200EE016
:10250000CB6A03F08073B3F1807F00D1012006E035
:10251000CB6AB3F1C07F00D1012000E000BF15E01D
:1025200032B1012A05D0022A04D0032A0CD103E0DB
:1025300000BF00BF012008E0CB6A03F08073B3F155
:10254000807F00D1012000E000BF00BF704730B5A0
:102550000468246824F4802405682C60046863609F
:102560008468402C04D10468A2600468E16003E040
:102570000468A1600468E26030BD704710B503468E
:10258000140644EA012444EA030010BD72B600BFF9
:10259000FEE700002DE9F0430446DDE9087CDDE9B3
:1025A0000A58079EDFED3A0A60EE200AFDEEE00AC7
:1025B0003848C0ED000A3848B8F80090A0F80090FC
:1025C00098F8029080F80290B0F8030064F3891044
:1025D000DFF8C490A9F803004846C07861F3020010
:1025E00089F803004846C07820F03800283089F880
:1025F00003004846B0F807006CF30900A9F807008B
:102600004846007965F3850089F80400484600894A
:1026100062F38C00A9F808004846B0F8090063F39B
:102620004F10A9F809004846808866F38E10A9F873
:1026300004004846B0F8050067F3CF10A9F805007C
:1026400014480088B9F80B9060F309091248A0F803
:102650000B90104800684FEA90290F48808969F371
:102660008C00DFF83490A9F80C000A48006840F2AA
:10267000FF7909EA60590848B0F80D0069F34F1076
:10268000DFF81490A9F80D004846BDE8F08300007B
:1026900000007A44C400002034110020F0EE400A0B
:1026A000F5EEC00AF1EE10FA02D2B1EE600A704700
:1026B000B0EE600AFBE7000000EE100AB8EEC00AB8
:1026C0009FED041AC0EE010AB0EE080A20EE800A5F
:1026D0007047000000F8FF454A780B7842EA032271
:1026E00013B20381CA788B7842EA032213B2838043
:1026F0004A790B7942EA032212B242808B79C38075
:102700007047000000EE100AB8EE400A9FED041A70
:10271000C0EE010A9FED030A20EE800A7047000018
:1027200000F8FF450000B44300EE100AB8EE400A7E
:102730009FED061AC0EE010AB0EE000A20EE800AF4
:10274000DFED030A20EE200A7047000000F8FF4585
:10275000DC0F494000B50146B1F90200FFF7ACFFBC
:1027600081ED060A91ED060AD1ED040A20EE200A59
:1027700081ED070ACA884A848A880A848A8CCA84B6
:1027800008898884888CFFF7BDFF81ED0B0A888C4F
:10279000FFF7CAFF81ED0A0ACA8C888C101AB0F5BF
:1027A000805F03DD088E401C02B20A86CA8C888CCA
:1027B000101A10F5805F03DA088E401E02B20A86F6
:1027C0004A6B0A6491ED0E0A81ED110A91ED0F0A30
:1027D00081ED120AB1F93000C0EB4032888C02441E
:1027E0004C20405A121A4A6391ED0B0AB1F930009D
:1027F00000EE900AF8EEE00A9FED171A00EE810A4B
:10280000D1ED150A30EE600A81ED0F0A91ED0A0A4A
:10281000B1F9300000EE900AF8EEE00AB0EE001ACE
:1028200060EE810A9FED0D1A00EE810AD1ED140AC7
:1028300030EE600A81ED0E0A087D58B9888E82B2AA
:102840004C20425291ED0F0A81ED150A91ED0E0ACE
:1028500081ED140A00BD00000000B443DC0F4940C4
:1028600030B5034613B94FF6FF7030BD09E013F8D9
:10287000014B82EA0400C0B2054D35F8100080EA31
:102880002222081EA1F10101F1D11046EDE700005E
:10289000DA7F000830B5034605E013F8010B80EA43
:1028A00002040448025D081EA1F10101F5D11046A1
:1028B00030BD0000D97E00082148407A012839D176
:1028C000204890ED180A1E48407801EE100AF8EEF4
:1028D000411A9FED1D1A9FED1D2AF0EE410A42EEAE
:1028E000210A30EEC01A164880ED011A90ED011A47
:1028F000DFED161AB4EEE11AF1EE10FA07DD90EDF5
:10290000011ADFED131A31EE611A80ED011A0C483D
:1029100090ED011ADFED0F1AB4EEE11AF1EE10FAA4
:102920000DD290ED011ADFED0A1A31EE211A80ED79
:10293000011A04E09FED081A014880ED011A704762
:10294000D00D0020840E002029DC0C43000034430D
:102950000000B443000034C30000000010B53D483F
:102960000068401C3B4908603B48407A10B10A208F
:102970003A490870374800686421B0FBF1F201FB66
:102980001200012801D1FFF7B3FA32480068322162
:10299000B0FBF1F201FB1200012801D102F0A8FA0C
:1029A0002C4800681421B0FBF1F201FB1200012851
:1029B00001D102F02BFF274800686421B0FBF1F23F
:1029C00001FB1200012806D12349B1F90600234971
:1029D0000978FEF72FFF2048B0F9040000EE100A36
:1029E000B8EEC00ADFED1E0A80EE201A1D4880ED09
:1029F000001A184800681E21B0FBF1F201FB12001A
:102A0000012806D115480078164991ED000A02F018
:102A100053FD104800681E21B0FBF1F201FB1200CB
:102A200002280CD10B4800683221B0FBF1F201FB07
:102A30001200012803D109480078FEF78FFF0748EC
:102A40000078002804DD05480078401E034908701E
:102A500010BD0000B000002008100020B8000020C9
:102A60000000C842BC00002010B5024692F8203099
:102A7000012B01D0022B06D110684069084314686D
:102A80006061002010BD506A40F480205062012037
:102A9000F8E7F0B504460D461E4694F8207020680D
:102AA0008368A86800B900E000BF012F01D0022FA1
:102AB0007DD103F0806030B903F0006018B903F0F5
:102AC000805000287ED0C3F301610120884030602F
:102AD000A86860B9B5F800C0E86840EA4C5C2068B6
:102AE00000F5C07000EB0110C0F800C00FE0D5E9A0
:102AF00001C040EACC00D5F80CC040EA0C00D4F884
:102B000000C00CF5C07C0CEB011CCCF80000D5F823
:102B100010C0206800F5C07000EB0110C0F804C0C0
:102B2000287D01280ED1206800F5C07000EB01104F
:102B3000406840F4807C206800F5C07000EB011014
:102B4000C0F804C0D079000692F806C040EA0C40F4
:102B500092F805C040EA0C2092F804C040EA0C004C
:102B6000D4F800C00CF5C07C0CEB011CCCF80C00B8
:102B7000D078000692F802C040EA0C4092F801C0FA
:102B800040EA0C2092F800C040EA0C00D4F800C0E3
:102B90000CF5C07C0CEB011CCCF80800206800F59B
:102BA000C07000EB0110006840F0010C01E00FE084
:102BB00008E0206800F5C07000EB0110C0F800C00C
:102BC0000020F0BD606A40F4001060620120F8E768
:102BD000606A40F4802060620120F2E7F0B50446AC
:102BE0000A46216894F82050012D01D0022D7ED193
:102BF000424901F50071086840F00100086008686A
:102C000020F47C5008600868566A40EA0620086094
:102C1000107D00F01F06012000FA06F3C8699843F2
:102C2000C861A1F50071D069C8B9D1F80C02984308
:102C3000C1F80C02908880B2968940EA064601F5F8
:102C40001070576940F83760108880B2168940EAE2
:102C5000064601F51070576900EBC7004660D06961
:102C6000012819D1D1F80C021843C1F80C02908840
:102C700080B2168840EA064601F51070576940F8A0
:102C80003760908980B2168940EA064601F51070D7
:102C9000576900EBC7004660906928B9D1F8040273
:102CA0009843C1F8040204E0D1F804021843C1F8C3
:102CB0000402106928B9D1F814029843C1F814022B
:102CC00004E0D1F814021843C1F81402106A012874
:102CD00004D1D1F81C021843C1F81C02D1F800023B
:102CE00020F00100C1F800020020F0BDFFE7606A9B
:102CF00040F4802060620120F7E70000006400409B
:102D0000704770B5044694F82050012D01D0022D73
:102D10007DD151B92068C06800F0030080B9606AB5
:102D200040F400106062012070BD2068006900F06E
:102D3000030028B9606A40F4001060620120F3E7E4
:102D4000206800F5D87000EB0110006800F0040066
:102D50009060906840B9206800F5D87000EB0110D1
:102D60000068400D106007E0206800F5D87000EBA7
:102D700001100068C0085060206800F5D87000EBB2
:102D80000110006800F00200D060206800F5D870E3
:102D900000EB0110406800F00F00082802D3082063
:102DA000106108E0206800F5D87000EB0110406861
:102DB00000F00F001061206800F5D87000EB0110E2
:102DC000406800F47F40000A9061206800F5D870E8
:102DD00000EB01104068000C5061206800F5D870CD
:102DE00000EB011080681870206800F5D87000EBC7
:102DF0000110806800F47F40000A5870206800F5D8
:102E0000D87000EB0110806800F47F0000E03CE027
:102E1000000C9870206800F5D87000EB01108068F5
:102E2000000ED870206800F5D87000EB0110C06863
:102E30001871206800F5D87000EB0110C06800F42C
:102E40007F40000A5871206800F5D87000EB01102F
:102E5000C06800F47F00000C9871206800F5D870FD
:102E600000EB0110C068000ED87131B92068C0684D
:102E700040F020002668F06005E02068006940F01E
:102E800020002668306100204EE7606A40F4802010
:102E90006062012048E72DE9F05F044600252068C4
:102EA00046692068D0F80490206887682068D0F8C8
:102EB0000CA02068D0F810B02068D0F8188006F078
:102EC0000100002855D007F00100C0B101202168A1
:102ED000886007F0020018B1204600F01AFB0EE0EF
:102EE00007F0040010B145F4006508E007F00800A1
:102EF00010B145F4805502E0204600F009FB07F4CC
:102F00008070C8B14FF480702168886007F4007049
:102F100018B1204600F0FFFA0EE007F4806010B10F
:102F200045F4005508E007F4006010B145F4804511
:102F300002E0204600F0EEFA07F48030C8B14FF40A
:102F400080302168886007F4003018B1204600F016
:102F5000E4FA0EE007F4802010B145F4004508E0E3
:102F600007F4002010B145F4803502E0204600F05F
:102F7000D3FA06F0080038B10AF0100020B145F489
:102F8000007510202168C86006F0040040B10AF006
:102F9000080028B108202168C860204600F02CFAFB
:102FA00006F0020038B12068C06800F0030010B1DC
:102FB000204600F023FA06F0400038B10BF0100074
:102FC00020B145F4806510202168086106F02000DA
:102FD00040B10BF0080028B10820216808612046A4
:102FE00000F038FA06F0100038B12068006900F0EF
:102FF000030010B1204600F02FFA06F4003040B173
:1030000009F0100028B1102021684860204600F027
:103010004FFA06F4803040B109F0080028B10820CA
:1030200021684860204600F079FA06F4004088B331
:1030300009F0040078B306F4807020B108F00100B4
:1030400008B145F0010506F4007020B108F0020057
:1030500008B145F0020506F4806020B108F00400D4
:1030600008B145F0040506F40060A0B108F0700056
:1030700088B108F07000402817D006DC10280BD06B
:1030800020280CD0302819D10CE0502810D060280E
:1030900014D110E01DE019E045F008050FE045F0FF
:1030A00010050CE045F0200509E045F0400506E07C
:1030B00045F0800503E045F4807500E000BF00BFE7
:1030C0002068806920F070002168886104202168F0
:1030D00048602DB1606A284360622046FFF710FE09
:1030E000BDE8F09F70B504460CB9012070BD94F89E
:1030F000200010B9204600F0AFF82068006840F0CA
:1031000001002168086000F0E5FC05460DE000F0D4
:10311000E1FC401B0A2808D9606A40F40030606274
:10312000052084F820000120E0E72068406800F0D6
:1031300001000028EBD02068006820F00200216820
:10314000086000F0C7FC05460DE000F0C3FC401B22
:103150000A2808D9606A40F400306062052084F8CB
:1031600020000120C2E72068406800F0020000282B
:10317000EBD1207E012806D12068006840F0800055
:103180002168086005E02068006820F08000216860
:103190000860607E012806D12068006840F0400089
:1031A0002168086005E02068006820F04000216880
:1031B0000860A07E012806D12068006840F0200049
:1031C0002168086005E02068006820F02000216880
:1031D0000860E07E012806D12068006820F0100019
:1031E0002168086005E02068006840F01000216850
:1031F0000860207F012806D12068006840F00800A0
:103200002168086005E02068006820F00800216857
:103210000860607F012806D12068006840F0040043
:103220002168086005E02068006820F0040021683B
:103230000860D4E902010843216908436169084331
:103240006168491E08432168C8610020606201204E
:1032500084F82000002049E710B586B00446142108
:1032600001A8FCF7F7FF5E492068884251D15D480C
:103270000068401C5B4908600846006801280FD1BF
:1032800000BF002000905848006840F00070564988
:1032900008600846006800F00070009000BF00BFA2
:1032A00000BF0020009050481038006840F008002F
:1032B0004D49103908600846006800F00800009089
:1032C00000BF00BF03200190022002900020039065
:1032D000032004900920059001A9444800F000FB58
:1032E00000221146132000F083FC132000F06CFC38
:1032F00000221146142000F07BFC142000F064FC36
:1033000000221146152000F073FC152000F05CFC33
:1033100064E037492068884260D100BF00200090F7
:103320003148006840F080602F4908600846006816
:1033300000F08060009000BF00BF2A480068401C79
:10334000284908600846006801280FD100BF002006
:1033500000902548006840F0007023490860084646
:10336000006800F00070009000BF00BF00BF0020A8
:1033700000901D481038006840F002001A491039CA
:1033800008600846006800F00200009000BF00BF1F
:1033900060200190022002900020039003200490FE
:1033A0000920059001A9134800F09AFA002211465D
:1033B0003F2000F01DFC3F2000F006FC00221146DB
:1033C000402000F015FC402000F0FEFB00221146DA
:1033D000412000F00DFC412000F0F6FB06B010BDCE
:1033E000006400400000002040380240000C024011
:1033F00000680040000402407047000010B5044619
:103400001049206888420CD10F4BA3F11C02002107
:103410002046FFF776FC0C482038816A001D88475B
:103420000FE00A49206888420BD1094BA3F11C0226
:1034300000212046FFF765FC05482038816A001D01
:10344000884710BD006400409011002000680040D3
:10345000BC1100207047000010B5044610492068D8
:1034600088420CD10F4BA3F11C0201212046FFF72B
:1034700048FC0C482038816A001D88470FE00A4943
:10348000206888420BD1094BA3F11C020121204680
:10349000FFF737FC05482038816A001D884710BDBA
:1034A000006400409011002000680040BC11002022
:1034B000704770B5044694F82000012822D10220FC
:1034C00084F820002068006820F00100216808606E
:1034D00000F000FB05460DE000F0FCFA401B0A2856
:1034E00008D9606A40F400306062052084F820004A
:1034F000012070BD2068406800F001000028EBD179
:103500006062F6E7606A40F4002060620120F0E744
:1035100070477047704770477047704770470000AA
:10352000F8B50446002000908C4800684FF416510E
:10353000B0FBF1F7A56D2E6894F85C100820884068
:10354000304098B12068006800F0040070B1206835
:10355000006820F004002168086094F85C100820DE
:103560008840A860606D40F00100606594F85C10D0
:1035700001208840304068B12068406900F0800038
:1035800040B194F85C1001208840A860606D40F064
:103590000200606594F85C1004208840304068B1F7
:1035A0002068006800F0020040B194F85C1004202C
:1035B0008840A860606D40F00400606594F85C107D
:1035C00010208840304078B32068006800F0080080
:1035D00050B394F85C1010208840A8602068006800
:1035E00000F4802080B12068006800F4002028B931
:1035F000206CC8B12046216C884715E0A06C98B1BA
:103600002046A16C88470FE02068006800F48070B5
:1036100028B92068006820F0080021680860206C44
:1036200010B12046216C884794F85C102020884017
:103630003040002865D02068006800F010000028A5
:103640005FD094F85C1020208840A86094F8350082
:10365000052828D12068006820F01600216808603D
:103660002068406920F0800021684861206C08B91A
:10367000A06C28B12068006820F00800216808606C
:1036800094F85C103F208840A860012084F8350041
:1036900000BF002084F8340000BF206D10B1204628
:1036A000216D8847F8BD2068006800F4802080B153
:1036B0002068006800F4002028B9606C10B1204632
:1036C000616C88471DE0E06BD8B12046E16B88470C
:1036D00017E02068006800F4807068B9206800680E
:1036E00020F0100021680860012084F8350000BF38
:1036F000002084F8340000BFE06B10B12046E16B7D
:103700008847606D38B3606D00F00100F0B10520AE
:1037100084F835002068006820F001002168086006
:1037200000BF0098401C0090B84200D905E0206816
:10373000006800F001000028F3D100BF012084F8E8
:10374000350000BF002084F8340000BFE06C10B1E9
:103750002046E16C884700BFA4E70000100000206D
:103760002DE9F0410446002500F0B4F9074614B9EC
:103770000120BDE8F081606A00B100BF022084F83A
:10378000350000BF002084F8340000BF20680068C6
:1037900020F00100216808600AE000F09BF9C01BDE
:1037A000052805D920206065032084F83500E0E76E
:1037B0002068006800F001000028EED1206805684C
:1037C00021480540D4E901010843E1680843216923
:1037D000084361690843A1690843E1690843216A14
:1037E00008430543606A042803D1D4E90B01084368
:1037F0000543206805602068456925F00705606A73
:103800000543606A04280DD1A06A0543E06A48B107
:103810002046FEF747FE28B140206065012084F86D
:103820003500A6E7206845612046FEF721FE0646E2
:1038300094F85C103F208840B06000206065012053
:1038400084F83500002094E73F8010F02DE9F04720
:1038500004460D4616461F464FF00008D4F858900F
:1038600000BF94F83400012802D10220BDE8F0879F
:10387000012084F8340000BF94F83500012825D1D8
:10388000022084F83500002060653B463246294618
:103890002046FEF75CFE94F85C103F208840C9F893
:1038A00008002068006840F0160021680860206C5D
:1038B00028B12068006840F008002168086020688E
:1038C000006840F001002168086006E000BF0020A9
:1038D00084F8340000BF4FF002084046C6E70000FD
:1038E000F8B502460B460025002400200021D6E052
:1038F000012606FA01F51E6806EA0504AC4274D1F9
:103900001E7906F00306012E04D01E7906F0030688
:10391000022E13D190684F000326BE40B0434F00E3
:10392000DE68BE4030439060506801268E40B04350
:103930001E79C6F300168E40304350601E7906F0A3
:103940000306032E09D0D0684F000326BE40B043C3
:103950004F009E68BE403043D0601E7906F00306DB
:10396000022E13D1CF0802F1200656F827004E0789
:10397000F70E0F26BE40B0434F07FF0E1E69BE4034
:103980003043CF0802F1200646F8270010684F00A8
:103990000326BE40B0431E7906F003064F00BE402A
:1039A000304310605E6806F44036002E76D000BFCB
:1039B000002600963C4E366846F480463A4F3E60FC
:1039C0003E46366806F48046009600BF00BF374E7C
:1039D0008F0856F827008E07370F0F26BE40B043DA
:1039E000334EB24202D1002624E057E0314EB242BB
:1039F00001D101261EE0304EB24201D1022619E06B
:103A00002E4EB24201D1032614E02D4EB24201D116
:103A100004260FE02B4EB24201D105260AE02A4EC1
:103A2000B24201D1062605E0284EB24201D1072656
:103A300000E008268F073F0FBE4030431B4E8F0823
:103A400046F82700224E3068A0435E6806F48016D0
:103A500006B120431E4E3060361D3068A0435E68BC
:103A600006F4001606B12043194E361D3060184E7C
:103A7000361F3068A0435E6806F4003606B1204366
:103A8000134E361F3060361F3068A0435E6806F460
:103A9000803606B120430E4E083E3060491C102986
:103AA000FFF426AFF8BD000044380240083801405A
:103AB000000002400004024000080240000C0240E6
:103AC000001002400014024000180240001C024096
:103AD000083C0140014800687047000004000020D5
:103AE00003480068034909780844014908607047A1
:103AF000040000200C00002010B50D48006840F4C0
:103B000000700B4908600846006840F48060086057
:103B10000846006840F480700860032000F0A6F8B2
:103B20000F2000F007F800F02BF8002010BD000077
:103B3000003C024070B504460E4800784FF47A719C
:103B4000B1FBF0F00C490968B1FBF0F5284600F034
:103B500093FD08B1012070BD102C07D20022214630
:103B6000501E00F045F80548046001E00120F2E72E
:103B70000020F0E70C0000201000002008000020CA
:103B800008B500BF002000900E48006840F4804057
:103B90000C4908600846006800F48040009000BFAF
:103BA00000BF00BF00200090081F006840F0805058
:103BB000091F08600846006800F08050009000BFB0
:103BC00000BF08BD443802400146084600280DDB0E
:103BD00000BF00BF00F01F0301229A4043099B0071
:103BE00003F1E023C3F8002100BF00BF00BF70470E
:103BF0002DE9F05F80460D461646002702F01CFDB9
:103C0000074639462A46334601F00700C0F1070A45
:103C1000BAF1040F02D94FF0040A01E0C0F1070A1B
:103C2000D14600F1040ABAF1070F02D24FF0000AA0
:103C300001E0A0F1030AD4464FF0010A0AFA09FA9A
:103C4000AAF1010A0AEA020A0AFA0CFA4FF0010B79
:103C50000BFA0CFBABF1010B0BEA030B4AEA0B046A
:103C60002146404602F0F0FCBDE8F09F00BF00F0A6
:103C70000702064B19684FF6FF031940044B0B432C
:103C800043EA0221014B196000BF70470CED00E0D0
:103C90000000FA05F8B5044600250026207800F05B
:103CA000010020B9207800F0040004282FD1002062
:103CB0005B498866FFF70EFF054606E0FFF70AFF3F
:103CC000401B022801D90320F8BD56480068C0F304
:103CD000C0600028F2D160688101207A41EA00705A
:103CE00050498431086001204D498866FFF7F2FE93
:103CF000054606E0FFF7EEFE401B022801D903202F
:103D0000E2E748480068C0F3C0600028F2D020789D
:103D100000F0020002287DD100BF00200090414841
:103D20004030006840F080503E494031086008460D
:103D3000006800F08050009000BF00BF3A48006863
:103D400040F4807038490860FFF7C4FE054606E07D
:103D5000FFF7C0FE401B022801D90320B4E7324818
:103D6000006800F480700028F2D02E48703000689F
:103D700000F440764EB3A08900F44070B04224D0E5
:103D800028487030006820F44076012027490860F8
:103D900000200860234870300660006800F00100D1
:103DA00098B1FFF797FE054608E0FFF793FE401B2A
:103DB00041F28831884201D9032085E719487030E3
:103DC0000068C0F340000028EFD000BFA08900F4D5
:103DD0004070B0F5407F0CD112480830006820F4E4
:103DE000F810134AE168114008430E490831086091
:103DF00007E00C480830006820F4F8100949083141
:103E00000860084870300068A189C1F30B010843BD
:103E1000044900E002E07031086000BF002053E771
:103E2000000047420038024000700040400E474208
:103E3000FFFCFF0F70B504460D460CB9012070BDA4
:103E40005848006800F00700A84209D255490D7093
:103E50000846006800F00700A84201D00120EEE704
:103E6000207800F0020002281DD1207800F0040024
:103E7000042805D14C48006840F4E0504A490860E5
:103E8000207800F00800082805D14748006840F471
:103E90006040454908604448006820F0F000A1688F
:103EA000084341490860207800F00100A8B3606829
:103EB000012807D13C4808380068C0F34040B8B931
:103EC0000120BCE76068022802D06068032807D19F
:103ED000354808380068C0F3406048B90120AEE7B3
:103EE000314808380068C0F3400008B90120A6E74F
:103EF0002D48006820F00300616808432A490860E3
:103F0000FFF7E8FD064609E0FFF7E4FD801B41F2FC
:103F10008831884202D9032091E707E022480068EF
:103F200000F00C006168B0EB810FEDD11D48006816
:103F300000F00700A84209D91A490D700846006828
:103F400000F00700A84201D0012078E7207800F0B7
:103F50000400042807D11448006820F4E050E16808
:103F6000084311490860207800F00800082808D1AB
:103F70000D48006820F46040216940EAC1000A4908
:103F8000086000F03FF808490968C1F30311074AC7
:103F9000515CC8400649086006480068FFF7CAFD42
:103FA00000204CE7003C024008380240C07E000878
:103FB0001000002008000020014800687047000041
:103FC0001000002000B5FFF7F7FF04490968C1F3AE
:103FD0008221034A515CC84000BD000008380240FD
:103FE000D07E000800B5FFF7E7FF04490968C1F378
:103FF0004231034A515CC84000BD0000083802400D
:10400000D07E00082DE9F047002400250026A146B7
:104010002548006800F00C0020B1042805D00828CD
:104020003AD105E0DFF8849039E0DFF8849036E09B
:104030001D48001F006800F03F041B48001F006877
:1040400000F4800078B11A481749091F0968C1F3C4
:104050008811A0FB01700146224600233846FCF778
:10406000AFF805460EE011480F49091F0968C1F372
:104070008811A0FB01700146224600233846FCF758
:104080009FF805460848001F0068C0F30140401C27
:104090004600B5FBF6F902E0DFF8109000BF00BF64
:1040A0004846BDE8F0870000083802400024F400CC
:1040B000001BB700F8B504460CB90120F8BD207804
:1040C00000F00100002874D0F948006800F00C00EE
:1040D00004280DD0F648006800F00C00082813D121
:1040E000F348001F006800F48000B0F5800F0BD18A
:1040F000EF4808380068C0F34040002859D0606895
:10410000002856D10120D9E700BF6068B0F5803F94
:1041100008D1E7480838006840F48030E44908399D
:1041200008601EE06068B0F5A02F0DD1E0480838A7
:10413000006840F48020DE490839086008460068BD
:1041400040F4803008600CE0D9480838006820F45A
:104150008030D749083908600846006820F480207C
:10416000086000BF606890B1FFF7B4FC054606E048
:10417000FFF7B0FC401B642801D903209EE7CC4820
:1041800008380068C0F340400028F1D011E0FFF784
:10419000A1FC054606E0FFF79DFC401B642801D901
:1041A00003208BE7C24808380068C0F3404000286D
:1041B000F1D1207800F0020002285FD1BC480068ED
:1041C00000F00C0058B1BA48006800F00C00082854
:1041D0001CD1B748001F006800F48000B0B9B44893
:1041E00008380068C0F3400020B1E068012801D021
:1041F000012063E7AE480838006820F0F800216924
:1042000040EAC100AA490839086037E0E06800B315
:104210000120A8490860FFF75DFC054606E0FFF7AE
:1042200059FC401B022801D9032047E7A048083861
:104230000068C0F340000028F1D09D4808380068AD
:1042400020F0F800216940EAC10099490839086066
:1042500014E0002097490860FFF73CFC054606E0A3
:10426000FFF738FC401B022801D9032026E79048BD
:1042700008380068C0F340000028F1D1207800F031
:10428000080008282CD16069A8B101208A4908607B
:10429000FFF720FC054606E0FFF71CFC401B022848
:1042A00001D903200AE782486C300068C0F340005F
:1042B0000028F1D014E000207F490860FFF70AFCD5
:1042C000054606E0FFF706FC401B022801D9032043
:1042D000F4E677486C300068C0F340000028F1D164
:1042E000207800F00400042870D10027704838308E
:1042F000006800F0805090B900BF002000906C482A
:104300003830006840F0805069493831086008460C
:10431000006800F08050009000BF00BF0127674890
:10432000006800F48070B0B96448006840F48070A0
:1043300062490860FFF7CEFB054606E0FFF7CAFBBF
:10434000401B022801D90320B8E65C48006800F44D
:1043500080700028F2D000BFA068012808D154481E
:104360006830006840F001005149683108601DE084
:10437000A06805280DD14E486830006840F0040060
:104380004B49683108600846006840F00100086049
:104390000CE047486830006820F00100444968316B
:1043A00008600846006820F00400086000BFA068AC
:1043B000A8B1FFF78FFB054609E0FFF78BFB401B19
:1043C00041F28831884202D9032077E626E0384856
:1043D00068300068C0F340000028EED013E0FFF71B
:1043E00079FB054608E0FFF775FB401B41F2883179
:1043F000884201D9032061E62D4868300068C0F387
:1044000040000028EFD1012F07D12948383000683B
:1044100020F0805026493831086000BFA06900288C
:1044200045D02348006800F00C0008285DD0A06942
:10443000022845D100201F490866FFF74BFB0546BF
:1044400006E0FFF747FB401B022801D9032035E6B1
:10445000174808380068C0F340600028F1D1D4E95B
:1044600007010843616A40EA81110122A06AC2EB98
:10447000500041EA00412C20005D41EA00600C49F7
:10448000091F086001200B490866FFF723FB05465A
:1044900006E0FFF71FFB401B022801D903200DE6B1
:1044A000034808380068C0F340600028F1D049E0B4
:1044B0000838024000004742800E4742007000402A
:1044C000002021490866FFF705FB054606E0FFF7D7
:1044D00001FB401B022801D90320EFE51B480068BF
:1044E000C0F340600028F2D12CE0A069012800D17F
:1044F000E4E51648001D0668A069012820D006F4EE
:104500008001E06981421BD106F03F01206A8142AF
:1045100016D147F6C0703040616AB0EB811F0FD1F1
:1045200006F440310122A06AC2EB5000B1EB004F0B
:1045300006D106F070612C20005DB1EB006F01D058
:104540000120BBE50020B9E50000474200380240E9
:1045500070B5044601250CB9012070BD607F20B9FB
:1045600000202077204600F04DF802206077206878
:10457000C068C0F3001000283CD100BFCA202168E9
:10458000486253202168486200BF204600F0D4FFF3
:104590000546EDB92068806819490840216888609F
:1045A0002169606808436169084321688968084394
:1045B000216888602168E0680861206801692089B5
:1045C00041EA004021680861204600F0DAFF054614
:1045D0005DB92068006C20F48020216808642068A0
:1045E000006CA16908432168086400BFFF202168AE
:1045F000486200E000250DB9012060772846ACE74D
:10460000BFFF8FFF1FB5044600200090019002906D
:1046100003900949206888420CD1022000900002D2
:1046200003906846FFF736FB08B1FDF7AFFF0120A6
:10463000024908601FBD0000002800403C0E4742B0
:1046400070B5044600250B482168C860FFF742FAA0
:10465000054607E0FFF73EFA401BB0F57A7F01D927
:10466000032070BD2068C06800F020000028F1D051
:104670000020F6E75F7F010070B504462546681EFE
:10468000B0F1807F01D301200FE0681E4FF0E021E0
:1046900048610F214FF0FF3001F0D6FF00204FF0AE
:1046A000E021886107200861002070BD70477047D5
:1046B00030B502460B4600BF92F83C00012801D1FC
:1046C000022030BD012082F83C0000BF022082F8A9
:1046D0003D00106844681068816824F07004186810
:1046E000044310684460184D1068A8421BD010683D
:1046F000B0F1804F17D0154D1068A84213D0144D5B
:104700001068A8420FD0134D1068A8420BD0124D6C
:104710001068A84207D0114D1068A84203D0104D70
:104720001068A84205D121F0800158680143106843
:104730008160012082F83D0000BF002082F83C002B
:1047400000BF00BFBDE700000000014000040040C2
:1047500000080040000C00400004014000400140FF
:104760000018004010B504460CB9012010BD94F8A3
:104770003D0028B9002084F83C00204600F026F8CF
:10478000022084F83D00211D206801F05BFB012020
:1047900084F8460000BF84F83E0001213F20015507
:1047A000402001554120015500BF00BF012084F881
:1047B000420043200155442001554520015500BFCA
:1047C000012084F83D000020D0E7000038B5044601
:1047D00019492068884218D100BF0020009017486E
:1047E000006840F00200154908600846006800F0C3
:1047F0000200009000BF00BF002211461D20FFF7FD
:10480000F7F91D20FFF7E0F915E00D49206888420F
:1048100011D100BF002000900848001D006840F43E
:1048200080300649091D08600846006800F48030A1
:10483000009000BF00BF38BD000400404038024077
:1048400000400140014691F83D00012801D00120BF
:104850007047022081F83D000868C06840F0010000
:104860000B68D8601A4B086898421BD00868B0F1F2
:10487000804F17D0174B0868984213D0164B086822
:1048800098420FD0154B086898420BD0144B08681B
:10489000984207D0134B0868984203D0124B08681F
:1048A00098420CD10868806800F00702062A0CD0F4
:1048B0000868006840F001000B68186005E00868AF
:1048C000006840F001000B6818600020C0E700009D
:1048D000000001400004004000080040000C0040BF
:1048E0000004014000400140001800402DE9F04163
:1048F00004460D46002700BF94F83C00012802D171
:104900000220BDE8F081012084F83C0000BF0220B5
:1049100084F83D002068866826F0770626F47F46F6
:10492000206886602868502833D00CDC202850D0BE
:1049300004DC00284BD0102851D149E0302849D060
:1049400040284CD139E060282DD0702807D0B0F530
:10495000805F03D0B0F5005F41D10DE041E0D5E9C3
:1049600002136A68206801F003FB2068866846F03D
:1049700077062068866034E0D5E902136A6820680B
:1049800001F0F6FA2068806840F480402168886071
:1049900027E0EA686968206801F0FEFA5021206883
:1049A00001F0F1FA1DE0EA686968206801F007FB90
:1049B0006021206801F0E7FA13E0EA68696820687E
:1049C00001F0EAFA4021206801F0DDFA09E000BFB9
:1049D00000BF00BF2968206801F0D5FA01E0012777
:1049E00000BF00BF012084F83D0000BF002084F814
:1049F0003C0000BF384684E7704770B50446206825
:104A0000C5682068066906F00200022819D105F081
:104A10000200022815D1401F21680861012020777B
:104A20002068806900F0030018B12046FFF7E4FF1A
:104A300005E0204600F097F8204600F095F80020A9
:104A4000207706F00400042819D105F0040004289A
:104A500015D1C04321680861022020772068806951
:104A600000F4407018B12046FFF7C6FF05E020466D
:104A700000F079F8204600F077F80020207706F063
:104A80000800082819D105F00800082815D1C043EE
:104A900021680861042020772068C06900F00300C5
:104AA00018B12046FFF7A8FF05E0204600F05BF8AC
:104AB000204600F059F80020207706F0100010285A
:104AC00019D105F01000102815D1C04321680861E4
:104AD000082020772068C06900F4407018B1204693
:104AE000FFF78AFF05E0204600F03DF8204600F081
:104AF0003BF80020207706F0010048B105F00100E6
:104B000030B16FF0010021680861204600F02EF8F6
:104B100006F08000802809D105F08000802805D1AA
:104B2000C043216808612046FFF7C0FD06F0400041
:104B3000402809D105F04000402805D1C043216834
:104B40000861204600F07CF806F02000202809D1FA
:104B500005F02000202805D1C043216808612046C7
:104B6000FFF7A5FD70BD70477047000010B5044603
:104B70002F492068884259D12E490888FCF714FB38
:104B8000FDF7ECFE2B480088052190FBF1F201FBBC
:104B9000120008B9FDF784FB26480088142190FB19
:104BA000F1F201FB1200112801D102F00DFD2148A4
:104BB0000088052190FBF1F201FB1200012805D1CC
:104BC0001D48FDF7C7FD1C4801F0BAFC19480088D4
:104BD0000A2190FBF1F201FB1200042801D103F03D
:104BE000C5F8144800880A2190FBF1F201FB12007D
:104BF000052801D1FCF74EFD0E4800880A2190FBE4
:104C0000F1F201FB1200062801D101F08FF90948E9
:104C100000880A2190FBF1F201FB1200082802D162
:104C20000648FDF74CFA034801F0E9F910BD000011
:104C30000004004030020020840E0020EC0F002011
:104C40007047704710B504460CB9012010BDA0692B
:104C500000B100E000BF94F8410028B9002084F8BA
:104C60004000204600F02AF8242084F84100206803
:104C7000C06820F400502168C860204601F078FA2E
:104C80002068006920F4904021680861206840692C
:104C900020F02A00216848612068C06840F4005074
:104CA0002168C86000206064202084F8410084F8F6
:104CB00042000020606300BFC8E7000010B586B066
:104CC0000446142101A8FBF7C5FA3D492068884233
:104CD00073D100BF002000903A48006840F02000E7
:104CE000384908600846006800F02000009000BFC6
:104CF00000BF00BF0020009032481438006840F028
:104D000040003049143908600846006800F040004F
:104D1000009000BF00BF4FF4844001900220029039
:104D200000200390032004900820059001A9264844
:104D3000FEF7D6FD25482649086080054860002119
:104D400023488160C1604FF48061016100214161AD
:104D50008161C16101624162FEF702FD08B1FDF7A8
:104D600015FC00BF1A48E063846300BF1748783021
:104D7000184908604FF02060486040211548816064
:104D80000021C1604FF480610161002141618161B6
:104D9000C16101624162FEF7E3FC08B1FDF7F6FB79
:104DA00000BF0C48A063846300BF00221146472067
:104DB000FEF71EFF4720FEF707FF06B010BD0000FC
:104DC00000140140443802400018024028640240A8
:104DD00084030020E4030020F7B50446154694F848
:104DE0004100202836D1019800B10DB90120FEBD47
:104DF00001982062A584E58400206064212084F865
:104E000041001548A16BC8631448A16B086414489D
:104E1000A16BC8640020A16B086501AE23681A1D50
:104E200031682B46A06BFEF711FD6FF04000216842
:104E3000086000BF00BF2168143151E8001F41F035
:104E400080002168143141E80002002AF3D100BF3C
:104E50000020CCE70220CAE777600008CF60000896
:104E6000276000087047704700BFFEE738B504466A
:104E70000020009000251C48216801602179017103
:104E80006D1D601900880090AD1CBDF80000012860
:104E900007D0A0F2012048B101280ED006281FD16A
:104EA00014E01248615D80F824101AE061190D22A7
:104EB0000E48801CFBF7B5F913E060190B49026836
:104EC0000A6142684A61806888610AE0611907489E
:104ED0000A68C2618A880284897980F8221000E019
:104EE00000BF00BF38BD0000160000205C0C002091
:104EF00010B586B02048032104220023CDE90132F9
:104F0000CDE9031040F2B3204FF4F37340F2733253
:104F100001210090084600F037F804460F22214690
:104F20001648FBF77EF91648032104220023CDE939
:104F30000132CDE9031040F2CC404FF4F37340F25C
:104F40000C4201210090084600F01EF804460F2292
:104F500021460A480F30FBF764F91E2000900948EB
:104F6000807800F5807207488178044B4FF4817097
:104F700000F0D8FB06B010BDC8000020BC10002017
:104F8000CC0000205C0C00202DE9F0430446DDE954
:104F9000087CDDE90A58079E2348B8F80090A0F87D
:104FA000009098F8029080F80290B0F8030064F343
:104FB0008910DFF87490A9F803004846C07861F3BF
:104FC000020089F803004846C07820F0380089F8CC
:104FD00003004846B0F807006CF30900A9F8070081
:104FE0004846007965F3850089F804004846008941
:104FF00062F38C00A9F808004846B0F8090063F392
:105000004F10A9F809004846808966F38C00A9F87A
:105010000C004846B0F80D0067F34F10A9F80D00DA
:105020004846BDE8F08300004311002010B50F484A
:105030000F4908600320486000210D488160C1606D
:105040004FF4802101614FF4E001416100210176BC
:105050000121417681760021C17601774177FEF703
:1050600041F808B1FDF792FA10BD0000006400405D
:105070003C02002010B50F480F490860032048602B
:1050800000210D488160C1604FF4802101614FF41F
:10509000E001416100210176012141768176002104
:1050A000C17601774177FEF71DF808B1FDF76EFA7A
:1050B00010BD0000006800406402002008B500BF79
:1050C000002000900E48006840F480000C49086001
:1050D0000846006800F48000009000BF00BF002276
:1050E00011463920FEF784FD3920FEF76DFD0022C0
:1050F00011464520FEF77CFD4520FEF765FD08BD05
:105100003038024008B500BF0020009024480068F5
:1051100040F00200224908600846006800F00200E2
:10512000009000BF00BF00BF00200090084600684C
:1051300040F0400008600846006800F04000009021
:1051400000BF00BF00BF002000900846006840F08C
:10515000010008600846006800F00100009000BFF0
:1051600000BF00BF002000900846006840F0080023
:1051700008600846006800F00800009000BF00BF0B
:1051800000BF002000900846006840F080000860E2
:105190000846006800F08000009000BF00BF08BD16
:1051A0003038024010B50A480A49086000204860BB
:1051B0007C210848816040F67F41C1600021016187
:1051C00041618161FFF7C4F908B1FDF7DFF910BD56
:1051D000002800408C02002000B587B0002003901A
:1051E00004900590069001900290154815490860BA
:1051F0005320486000211348816040F2E731C160CC
:105200000021016180218161FFF7ACFA08B1FDF74F
:10521000BDF94FF48050039003A90A48FFF766FBDD
:1052200008B1FDF7B3F900200190029001A90548EB
:10523000FFF73EFA08B1FDF7A9F907B000BD00007D
:1052400000040040AC0200201FB500200090019037
:10525000029003900F481049086040F2E730486020
:1052600000210D488160A721C160002101618021DA
:105270008161FFF777FA08B1FDF788F94FF48050A4
:10528000009069460448FFF731FB08B1FDF77EF94D
:105290001FBD000000400140F402002010B50B4883
:1052A0000B4908604FF4E1304860002108488160F4
:1052B000C16001610C21416100218161C161FFF781
:1052C000C1FC08B1FDF762F910BD000000140140F7
:1052D0003C03002000BFFEE700BFFEE710B52DED48
:1052E000028B0446B0EE408AF0EE608A94F86D00BE
:1052F00000F0800078B1204602F0A6FB7620005D29
:1053000048B19FED610A10EE100A60639FED5E0ADE
:10531000BDEC028B10BD18EE100A606118EE900A09
:105320002060206800EE100A606900EE900A30EEFE
:10533000600A10EE100AE061E06900EE100AB5EEB6
:10534000C00AF1EE10FA03DDE06900EE100A04E095
:10535000E06900EE100AB1EE400AA06C00EE900A7F
:10536000B4EEE00AF1EE10FA7EDDA06800EE100A5D
:10537000E06900EE900A20EE200A10EE100A60624A
:10538000E06800EE100AE06900EE900A20EE200AC4
:1053900010EE100A2063E06900EE100A206A00EEA9
:1053A000900A70EE600A206900EE100A20EE800A72
:1053B00010EE100AE06294F86D0000F0040010B1E5
:1053C000204602F018FC94F86D0000F0200010B1A7
:1053D000204602F0F5F994F86D0000F0010010B1DC
:1053E000204602F08FFA94F86D0000F0020010B130
:1053F000204602F075FA94F86D0000F0400010B1FC
:10540000204602F055FAA06A00EE100A206B00EE6A
:10541000900A30EE200A10EE100AA062606A00EED8
:10542000100AA06A00EE900A70EE200AE06A00EE10
:10543000100A30EE800A10EE100A606394F86D00D6
:1054400000F0100010B1204602F0C2FA204602F02F
:10545000D7FA204602F0ACFB6069A061606BA063E4
:10546000E06AE063E06900E004E02062606B00EE67
:10547000100A4DE79FED040A10EE100A6063606B9E
:1054800000EE100A44E700000000000070B504467A
:105490000D461646054844F8770F0548606054F8F5
:1054A0007739324629462046984770BD097B000867
:1054B0007D7B00087047000030B52DED028B85B074
:1054C000B0EE408A04460CB9022000E001201649E3
:1054D0000870164802210423CDE90131CDE90310FB
:1054E0001420B0EE480A4FF422734FF4D8620090B3
:1054F0000D4801780020FDF74DF805460F2229469A
:105500000B48FAF78EFE0F2000900A48807800F5CD
:10551000807208488178064B40F2011000F002F9D1
:1055200005B0BDEC028B30BD410100203D010020E3
:10553000BC1000205C0C002070B50446002600253D
:105540002068C06800F04000C8B92068C06840F01A
:1055500080002168C860FEF7BDFA064608E0FEF745
:10556000B9FA801BB0F57A7F02D904206077012553
:105570002068C06800F0400008B9012DEFD128462E
:1055800070BD70B5044600252068C06820F080001A
:105590002168C8602068806800F0200030B920468B
:1055A000FFF74EF810B1042060770125284670BD42
:1055B00010B5494B1B685B6943F04003464C2468B7
:1055C0006361454B1B685B6943F08003424C246870
:1055D0006361414B1B68DB6843F010033E4C246859
:1055E000E3603E4B1B681B6823F001033B4C2468BF
:1055F000236007E0394B1B681B6823F00103374C1D
:1056000024682360354B1B681B6803F00103002BE3
:10561000F0D1324B1B68324CA34205D94FF4001332
:105620002F4C4C3C23601BE02C4B1B682D4CA342A1
:1056300005D94FF400132A4C503C236010E0274B4F
:105640001B68284C603CA34205D94FF40013254C3D
:10565000B83CE36004E04FF40013224CB83CA36074
:10566000214B1E4C2468A360204B1C4C2468E36033
:105670001A4C24682361194B1B685A60174B1B682E
:105680001B6843F48023154C24682360134B1B686C
:105690001B6843F00103114C24682360144B1B6802
:1056A0001B6823F00103124C2468236007E0104BB1
:1056B0001B681B6823F001030D4C246823600C4B0E
:1056C0001B681B6803F00103002BF0D1064B084C4C
:1056D0002468A36010BD00003C0300208403002068
:1056E00058640240B86002400414014044040020A1
:1056F000E403002010B54FF400720649A1F50070D4
:10570000FFF756FF4FF480620349044802F0B1FAF4
:1057100010BD0000440600205C0800204408002062
:10572000704700002DE9FC4705460E46174698468F
:10573000DDF82890ADF80050ADF80260ADF80470C7
:105740000624224669460948FAF76BFD07490819FD
:105750004A464146FAF765FD09EB040081B240F282
:10576000013000F005F8BDE8FC8700004310002080
:1057700013B5BDF80400093018490870A520184970
:1057800008700846BDF80410A0F80110154800780C
:105790001349C87013480078401C1249087005214D
:1057A0000F48FBF7D7FE0E48BDF80010A0F8051013
:1057B0000A4801780A48FBF7B5FE01240AE0601E9A
:1057C000C4B20648027806490748FFF705FB0120E6
:1057D00006490870002CF2D11CBD0000C100002059
:1057E0003C100020C00000203C0300209600002058
:1057F00007B52DED020BBDF80C100180BDF810109F
:1058000041800099416005B000BD00002DE9F047DE
:105810002DED048B86B0B9EE0C0A10EE104AB8EEEE
:10582000000A10EE105A2846FAF7F0FE41EC190B68
:105830009FEDB30B53EC102BFAF717FD41EC180B4F
:10584000FAF7CBFE86B22046FAF7E0FE41EC190BE0
:105850009FEDAD0B53EC102BFAF707FD41EC180B45
:10586000FAF7BBFE87B22846FAF7D0FE41EC190BD7
:105870009FEDA30B53EC102BFAF7F7FC41EC180B40
:10588000FAF7ABFE1FFA80F82046FAF7BFFE41ECAC
:10589000190B9FED9F0B53EC102BFAF7E6FC41EC34
:1058A000180BFAF79AFE1FFA80F99B480221012291
:1058B0004346CDE90076CDE9022104904A46012114
:1058C0000846FFF761FB82460F2251469348FAF7DC
:1058D000A8FC2846FAF79AFE41EC190B9FED900BB5
:1058E00053EC102BFAF7C1FC41EC180BFAF775FEDC
:1058F00086B22046FAF78AFE41EC190B9FED8A0B1F
:1059000053EC102BFAF7B1FC41EC180BFAF765FEDB
:1059100087B22846FAF77AFE41EC190B9FED800B0F
:1059200053EC102BFAF7A1FC41EC180BFAF755FEDB
:105930001FFA80F92046FAF769FE41EC190B9FED3A
:105940007C0B53EC102BFAF790FC41EC180BFAF798
:1059500044FE1FFA80F87848022101224B46CDE927
:105960000076CDE902210490424601210846FFF766
:105970000BFB82460F22514668481E30FAF751FC55
:105980002846FAF743FE41EC190B9FED6C0B53ECE4
:10599000102BFAF76AFC41EC180BFAF71EFE86B2E0
:1059A0002046FAF733FE41EC190B9FED660B53ECE2
:1059B000102BFAF75AFC41EC180BFAF70EFE87B2DF
:1059C0002846FAF723FE41EC190B9FED5C0B53ECD4
:1059D000102BFAF74AFC41EC180BFAF7FEFD1FFA00
:1059E00080F82046FAF712FE41EC190B9FED570B99
:1059F00053EC102BFAF739FC41EC180BFAF7EDFDDC
:105A00001FFA80F95348022101224346CDE900766E
:105A1000CDE9022104904A4601210846FFF7B4FA75
:105A200082460F2251463D482D30FAF7FAFB2846B0
:105A3000FAF7ECFD41EC190B9FED400B53EC102BEA
:105A4000FAF713FC41EC180BFAF7C7FD86B22046B3
:105A5000FAF7DCFD41EC190B9FED3F0B53EC102BDB
:105A6000FAF703FC41EC180BFAF7B7FD87B22846AA
:105A7000FAF7CCFD41EC190B9FED390B53EC102BD1
:105A8000FAF7F3FB41EC180BFAF7A7FD1FFA80F8C1
:105A90002046FAF7BBFD41EC190B9FED2F0B53ECA1
:105AA000102BFAF7E2FB41EC180BFAF796FD1FFA00
:105AB00080F92D48022101224346CDE90076CDE947
:105AC000022104904A4601210846FFF75DFA82460A
:105AD0000F22514611480F30FAF7A3FB4B200090DC
