:020000040800F2
:100000003815002049020008C1420008A13F00083D
:10001000BD420008D1120008754E00080000000023
:1000200000000000000000000000000089460008F9
:100030000F1A0008000000009D4400088F480008C7
:1000400063020008630200086302000863020008FC
:1000500063020008630200086302000863020008EC
:1000600063020008630200086302000863020008DC
:1000700063020008630200086302000863020008CC
:100080006302000863020008630200085D130008B1
:100090003D1300084D1300086302000863020008C6
:1000A000630200086302000863020008630200089C
:1000B000630200086949000863020008630200083F
:1000C000630200086302000863020008630200087C
:1000D000630200086302000863020008630200086C
:1000E000630200086302000863020008630200085C
:1000F000630200086302000863020008630200084C
:10010000630200086302000863020008630200083B
:10011000630200086302000863020008630200082B
:100120006302000811190008630200086302000856
:10013000630200086302000863020008DD13000880
:10014000BD130008CD130008630200086302000815
:10015000630200082119000863020008454D0008E9
:1001600063020008630200086302000863020008DB
:100170006302000863020008630200080000000038
:10018000630200086302000800F002F800F04CF877
:100190000AA090E8000C82448344AAF10107DA45E2
:1001A00001D100F041F8AFF2090EBAE80F0013F0E8
:1001B000010F18BFFB1A43F001031847B476000083
:1001C000D47600000A4410F8014B14F00F0508BF64
:1001D00010F8015B240908BF10F8014B6D1E05D013
:1001E00010F8013B6D1E01F8013BF9D1641E03D0EC
:1001F000641E01F8015BFBD19142E4D3704700001B
:100200000023002400250026103A28BF78C1FBD81F
:10021000520728BF30C148BF0B6070471FB507F0B9
:10022000ACF81FBD10B510BD00F05BF91146FFF72B
:10023000F5FF06F015FA00F079F903B4FFF7F2FFC5
:1002400003BC00F07DF900000948804709480047D9
:10025000FEE7FEE7FEE7FEE7FEE7FEE7FEE7FEE776
:10026000FEE7FEE704480549054A064B70470000D3
:100270005549000889010008380F00203815002072
:10028000381100203811002053EA020C00F0698078
:100290002DE9F04B4FF00006002B1FBFB3FA83F59A
:1002A00003FA05F424FA05F65E4012BF1643B2FACB
:1002B00082F502FA05F4C5F120051EBF22FA05FCFD
:1002C00044EA0C04203556EA044C4FEA144418BFA3
:1002D000641C4FF000084FF00009904271EB030CD2
:1002E00039D3002919BFB1FA81F701FA07F6B0FA3C
:1002F00080F700FA07F6C7F120071EBF20FA07FCB7
:1003000046EA0C062037B6FBF4FCA7EB0507103FC6
:1003100007F01F0BCBF120060CFA0BFB2CFA06F6AC
:1003200044BFB3460026202FA4BF5E464FF0000B0B
:100330005BEA060C08BF4FF0010B19EB0B09ABFB96
:10034000027C48EB0608C01B06FB02CC0BFB03CC6F
:1003500071EB0C01C1E70B46024641464846BDE839
:10036000F08B13B54FF000004FF00001AFF30080A9
:10037000BDE81C407047032A40F2308010F0030CA7
:1003800000F0158011F8013BBCF1020F624498BFE8
:1003900011F801CB00F8013B38BF11F8013BA2F185
:1003A000040298BF00F801CB38BF00F8013B11F000
:1003B000030300F05A80083AC0F0088051F8043B6B
:1003C000083A51F804CBA0E80810F5E7121D5CBF0D
:1003D00051F8043B40F8043BAFF30080D20724BF40
:1003E00011F8013B11F801CB48BF11F8012B24BFD4
:1003F00000F8013B00F801CB48BF00F8012B704723
:100400004FF0000200B5134694469646203922BFAD
:10041000A0E80C50A0E80C50B1F12001BFF4F7AFF8
:10042000090728BFA0E80C5048BF0CC05DF804EBDA
:10043000890028BF40F8042B08BF704748BF20F848
:10044000022B11F0804F18BF00F8012B7047704746
:100450007047704710B500F03FF8006810BD10B548
:10046000044600F039F8046010BD10B5203AC0F021
:100470000B80B1E81850203AA0E81850B1E81850A5
:10048000A0E81850BFF4F5AF5FEA027C24BFB1E8E2
:100490001850A0E8185044BF18C918C0BDE8104053
:1004A0005FEA827C24BF51F8043B40F8043B08BF5C
:1004B0007047D20728BF31F8023B48BF11F8012B23
:1004C00028BF20F8023B48BF00F8012B704700000E
:1004D00000487047D80E002000487047D80E002012
:1004E00070477546FFF7F4FFAE4605006946534670
:1004F00020F00700854618B020B5FFF7B3FEBDE831
:1005000020404FF000064FF000074FF000084FF07A
:10051000000B21F00701AC46ACE8C009ACE8C0090B
:10052000ACE8C009ACE8C0098D46704710B5044678
:10053000AFF300802046BDE81040FFF77EBE00000C
:1005400001491820ABBEFEE72600020010B52DEDD4
:100550000E8BB0EE408AF0EE608AB0EE41EA18EE03
:10056000100A06F099FE41EC1C0B18EE900A06F0FA
:1005700093FE41EC1D0BB0EE4C1AF0EE6C1AB0EE8F
:100580004D0AF0EE6D0A04F0B7FEB0EE40BAF0EEA0
:1005900060BA51EC1B0B06F027F941EC1A0B9FEDEA
:1005A000090B53EC102B06F005FA41EC190B06F081
:1005B00027F906490860084690ED000ABDEC0E8B4D
:1005C00010BD00006F1283C0CA2109404C000020FA
:1005D00090ED0B0A80ED0C0A90ED140A80ED150ADF
:1005E00090ED1D0A80ED1E0A90ED260A80ED270A87
:1005F000D0ED0A0A90ED0D0AB8EEC00A30EE800A7E
:1006000080ED0B0AD0ED130A90ED160AB8EEC00A81
:1006100030EE800A80ED140AD0ED1C0A90ED1F0A1E
:10062000B8EEC00A30EE800A80ED1D0AD0ED250A32
:1006300090ED280AB8EEC00A30EE800A80ED260A56
:10064000017A31B341F6FF32416B114400EE101ACA
:10065000B8EEC00A80ED0B0A41F2FF32816D114401
:1006600000EE101AB8EEC00A80ED140AC16F01F650
:10067000FF3100EE101AB8EEC00A80ED1D0AA0216D
:10068000095801F2FF3100EE101AB8EEC00A80EDF1
:10069000260A90ED0B0ADFED5B0AB4EEE00AF1EEFC
:1006A00010FA07DD90ED0B0ADFED560A30EE600A16
:1006B00080ED0B0A90ED0B0AB5EEC00AF1EE10FAD0
:1006C00007D290ED0B0ADFED4F0A30EE200A80EDE5
:1006D0000B0A90ED140ADFED4B0AB4EEE00AF1EEDE
:1006E00010FA07DD90ED140ADFED460A30EE600ADD
:1006F00080ED140A90ED140AB5EEC00AF1EE10FA7E
:1007000007D290ED140ADFED3F0A30EE200A80EDAB
:10071000140A90ED1D0ADFED3B0AB4EEE00AF1EE9B
:1007200010FA07DD90ED1D0ADFED360A30EE600AA3
:1007300080ED1D0A90ED1D0AB5EEC00AF1EE10FA2B
:1007400007D290ED1D0ADFED2F0A30EE200A80ED72
:100750001D0A90ED260ADFED2B0AB4EEE00AF1EE59
:1007600010FA07DD90ED260ADFED260A30EE600A6A
:1007700080ED260A90ED260AB5EEC00AF1EE10FAD9
:1007800007D290ED260ADFED1F0A30EE200A80ED39
:10079000260A90ED0F0ABDEEC00AB8EEC00AF7EEC9
:1007A000000A20EE200ABDEEC00A80ED100A90ED8E
:1007B000180ABDEEC00AB8EEC00AF7EE000A20EE35
:1007C000200ABDEEC00A80ED190A90ED210ABDEEA7
:1007D000C00AB8EEC00AF7EE000A20EE200ABDEE0D
:1007E000C00A80ED220A90ED2A0ABDEEC00AB8EEDA
:1007F000C00AF7EE000A20EE200ABDEEC00A80ED26
:100800002B0A704700F8FF4530B52DED108B87B0EF
:10081000044694ED030A20EE000AD4ED050A94ED97
:10082000051A00EE810A10EE101A084606F034FD93
:1008300041EC1C0BB0EE4C0AF0EE6C0A04F01CFF0D
:10084000B0EE40BAF0EE60BA51EC1B0B05F0D8FFE9
:1008500008EE900A94ED070ADFEDFE0A20EE200A6A
:10086000B0EE409AD4ED010A9FEDFB1A80EE810AAA
:10087000DFEDFA0A20EE200A10EE105A94ED030A7A
:1008800010EE101A084606F007FDCDE9040194EDBC
:10089000050A10EE101A084606F0FEFC41EC1C0B8F
:1008A0009DED041BB0EE4C0AF0EE6C0A04F024FD42
:1008B000B0EE40EAF0EE60EA284606F0EDFC41ECCE
:1008C0001B0B53EC1E2B05F0CDFF41EC1F0B05F06D
:1008D00097FF08EE100A05E09FEDE00A38EE400AA7
:1008E000B0EE408A9FEDDE0AB4EEC08AF1EE10FA57
:1008F000F2DC05E09FEDD90A38EE000AB0EE408A3E
:100900009FEDD80AB4EEC08AF1EE10FAF2D318EED9
:10091000100A06F0C1FC41EC1C0BB0EE4C0AF0EEE4
:100920006C0A04F045FEB0EE40BAF0EE60BA51EC4D
:100930001B0B05F065FF0DEE100A18EE100A06F00D
:10094000ABFC41EC1C0BB0EE4C0AF0EE6C0A04F070
:10095000CBFDB0EE40BAF0EE60BA51EC1B0B05F0E7
:100960004FFF0AEE900A94ED050AB5EEC00AF1EECB
:1009700010FA0ADD94ED030AB5EEC00AF1EE10FAA2
:1009800003D1B7EE000AB0EE40DA94ED050AB5EEF9
:10099000C00AF1EE10FA0AD294ED030AB5EEC00ACD
:1009A000F1EE10FA03D1BFEE000AB0EE40DAB5EE78
:1009B000C08AF1EE10FA08DDB0EE4D0A01F033F80E
:1009C000B0EE49AA08EE80AA09E0B0EE4D0A01F0A7
:1009D0002AF8B1EE400AB0EE49AA08EE80AA9FEDCF
:1009E000A20AB4EEC08AF1EE10FA0FD29FED9F0A70
:1009F000B4EEC08AF1EE10FA08DDB0EE6A0A01F03A
:100A000012F8F0EE499A48EE809A09E0B0EE6A0AD0
:100A100001F009F8B1EE400AF0EE499A48EE809AEA
:100A200019EE900A06F038FCCDE902011AEE100A20
:100A300006F032FCCDE900019DED021B9DED000B9F
:100A400004F05AFC8DED040B9DED040B51EC100BE2
:100A500005F0CAFE41EC1C0B9FED850B53EC102BEF
:100A600005F0A8FF41EC1B0B9FED830B53EC102B03
:100A700005F0A0FF41EC1E0B9FED810B53EC102BFA
:100A800006F04AF941EC1F0B05F0BAFEA062B0EE89
:100A9000690A03F0F5FEF0EE401AB0EE4A0A03F0E0
:100AA000EFFE31EE800A84ED0E0A94ED0E0A10EE90
:100AB000101A084606F0F0FB41EC1B0BB0EE4B0A97
:100AC000F0EE6B0A04F0D8FDB0EE40CAF0EE60CA5A
:100AD00051EC1C0B05F094FEA063B5EEC08AF1EE5C
:100AE00010FA0ADDB0EE4D0A00F09DFFF0EE490A63
:100AF00048EE800AB0EE60AA0BE0B0EE4D0A00F0BE
:100B000092FFF1EE400AB0EE490A08EEA00AB0EEFC
:100B100040AA9FED550AB4EEC08AF1EE10FA11D248
:100B20009FED520AB4EEC08AF1EE10FA0ADDB0EE83
:100B30006A0A00F078FFF0EE490A58EE800AF0EEFB
:100B4000609A0BE0B0EE6A0A00F06DFFF1EE400A29
:100B5000B0EE490A18EEA00AF0EE409A19EE900A9B
:100B600006F09AFB41EC1B0B1AEE100A06F094FB00
:100B700041EC1E0BB0EE4B1AF0EE6B1AB0EE4E0AC3
:100B8000F0EE6E0A04F0B8FBB0EE40CAF0EE60CAB8
:100B900051EC1C0B05F028FE9FED350B53EC102B90
:100BA000CDE900019DED000B51EC100B05F002FFAB
:100BB00041EC1F0B9FED300B53EC102B05F0FAFEB0
:100BC0009FED2F0B53EC102BCDE902019DED020B95
:100BD00051EC100B06F0A0F8CDE904019DED040BDB
:100BE00051EC100B05F00CFEE064B0EE690A03F066
:100BF00047FEF0EE401AB0EE4A0A03F041FE31EE35
:100C0000800A84ED170A94ED170A10EE101A0846B0
:100C100006F042FB41EC1C0BB0EE4C0AF0EE6C0A05
:100C200004F02AFDB0EE40BAF0EE60BA51EC1B0BB6
:100C300005F0E6FDE065B5EEC08AF1EE10FA26DDBE
:100C4000B0EE4D0A00F0EFFEF0EE490A58EE800AD1
:100C50001AE00000000000420000B443DC0FC9406D
:100C6000DC0F4940DC0F49C0DC0FC93FDC0FC9BFB6
:100C700000000080FB21094000000000000000404F
:100C80000000000000FFBF40B0EE60AA0BE0B0EE35
:100C90004D0A00F0C8FEF1EE400AB0EE490A18EE27
:100CA000A00AB0EE40AA1FED100AB4EEC08AF1EE21
:100CB00010FA11D21FED130AB4EEC08AF1EE10FA49
:100CC0000ADDB0EE6A0A00F0AEFEF0EE490A58EE18
:100CD000800AF0EE609A0BE0B0EE6A0A00F0A3FE24
:100CE000F1EE400AB0EE490A18EEA00AF0EE409A82
:100CF00019EE900A06F0D0FA41EC1B0B1AEE100A1E
:100D000006F0CAFAB0EE4B1AF0EE6B1ACDE900010C
:100D10009DED000B04F0F0FAB0EE40CAF0EE60CAB0
:100D200051EC1C0B05F060FD41EC1E0B1FED300B70
:100D300053EC102B05F03EFE41EC1F0B1FED320B68
:100D400053EC102B05F036FE1FED330B53EC102B3C
:100D5000CDE902019DED020B51EC100B05F0DCFF1B
:100D6000CDE904019DED040B51EC100B05F048FD9D
:100D70002067B0EE690A03F083FDF0EE401AB0EE92
:100D80004A0A03F07DFD31EE800A84ED200A94EDDD
:100D9000200A10EE101A084606F07EFA41EC1C0BF1
:100DA000B0EE4C0AF0EE6C0A04F066FCB0EE40BA0D
:100DB000F0EE60BA51EC1B0B05F022FD80210851CA
:100DC000B5EEC08AF1EE10FA0ADDB0EE4D0A00F081
:100DD0002AFEF0EE490A58EE800AB0EE60AA0BE057
:100DE000B0EE4D0A00F01FFEF1EE400AB0EE490AE7
:100DF00018EEA00AB0EE40AA1FED650AB4EEC08A54
:100E0000F1EE10FA11D21FED670AB4EEC08AF1EECE
:100E100010FA0ADDB0EE6A0A00F005FEF0EE490AAB
:100E200048EE800AF0EE609A0BE0B0EE6A0A00F03D
:100E3000FAFDF1EE400AB0EE490A08EEA00AF0EE23
:100E4000409A19EE900A06F027FACDE902011AEE4F
:100E5000100A06F021FACDE900019DED021B9DED7F
:100E6000000B04F049FAB0EE40CAF0EE60CA51EC53
:100E70001C0B05F0B9FC41EC1B0B1FED830B53EC75
:100E8000102B05F097FD41EC1E0B1FED850B53EC6D
:100E9000102B05F08FFD41EC1F0B1FED870B53EC62
:100EA000102B05F039FFCDE904019DED040B51EC49
:100EB000100B05F0A5FC94210851B0EE690A03F06F
:100EC000DFFCF0EE401AB0EE4A0A03F0D9FC31EE36
:100ED000800A84ED290A94ED290A10EE101A0846BA
:100EE00006F0DAF941EC1B0BB0EE4B0AF0EE6B0AA0
:100EF00004F0C2FBB0EE40CAF0EE60CA51EC1C0B2D
:100F000005F07EFCA421085194ED0E0ADFED100AD5
:100F100020EE200A84ED0F0A94ED170ADFED0C0A8B
:100F200020EE200A84ED180A94ED200ADFED080A6D
:100F300020EE200A84ED210A94ED290ADFED040A4F
:100F400020EE200A84ED2A0A07B0BDEC108B30BDDC
:100F50004276F43F70B504460C2094FBF0F100FBA0
:100F60001140002863D1D348007858B3D14890F895
:100F70004500012811D10021CE4880F845100146D6
:100F800091F844000122002100F042FD05460823AB
:100F9000C94A2946C94800F0B9FAC948D0ED080A3B
:100FA000B0EE600AC348B0F8400002B2C148D0EDCC
:100FB0000B0AFDEEE00A10EE900A01B2BE4803F003
:100FC00064FB26E0BB4890F8450088B90121B94888
:100FD00080F84510014691F844000022114600F0C7
:100FE00017FD05460823B44A2946B44800F08EFA96
:100FF000B348D0ED080AB0EE600AAE48D0ED0B0A57
:10100000FDEEE00A10EE900A01B20022AA4803F0B9
:101010003CFBA84991F844000322002100F0F8FCB1
:1010200005460823A44A2946A44800F06FFA0C207C
:1010300094FBF0F100FB1140032863D19D48007838
:1010400058B39C4890F86900012811D100219948B3
:1010500080F86910014691F868000122002100F033
:10106000D7FC05460823974A2946944800F04EFAD3
:101070009348D0ED090AB0EE600A8E48B0F86400DB
:1010800002B28C48D0ED140AFDEEE00A10EE900A90
:1010900001B28C4803F0F9FA26E0864890F869001E
:1010A00088B90121834880F86910014691F86800E9
:1010B0000022114600F0ACFC054608237E4A294672
:1010C0007E4800F023FA7E48D0ED090AB0EE600AAF
:1010D0007848D0ED140AFDEEE00A10EE900A01B255
:1010E0000022784803F0D1FA724991F8680003228F
:1010F000002100F08DFC05460823724A29466F48FE
:1011000000F004FA0C2094FBF0F100FB11400628DB
:1011100063D16848007858B3664890F88D0001287C
:1011200011D10021634880F88D10014691F88C00A0
:101130000122002100F06CFC05460823614A294683
:101140005E4800F0E3F95E48D0ED0A0AB0EE600AAE
:101150005848B0F8880002B25648D0ED1D0AFDEE9E
:10116000E00A10EE900A01B2574803F08EFA26E02A
:10117000504890F88D0088B901214E4880F88D10B4
:10118000014691F88C000022114600F041FC054612
:101190000823494A2946494800F0B8F94848D0EDA3
:1011A0000A0AB0EE600A4348D0ED1D0AFDEEE00ADF
:1011B00010EE900A01B20022434803F066FA3D495E
:1011C00091F88C000322002100F022FC0546082340
:1011D0003D4A2946394800F099F90C2094FBF0F17A
:1011E00000FB1140092863D13248007858B33148D8
:1011F00090F8B100012811D100212E4880F8B110DB
:10120000014691F8B0000122002100F001FC0546E2
:1012100008232C4A2946294800F078F92848D0EDBF
:10122000080AB0EE600A2348B0F8AC0002B22148C8
:10123000D0ED260AFDEEE00A10EE900A01B2234836
:1012400003F023FA26E01B4890F8B10088B9012189
:10125000184880F8B110014691F8B00000221146FC
:1012600000F0D6FB05460823134A2946134800F030
:101270004DF91348D0ED080AB0EE600A0D48D0EDE4
:10128000260AFDEEE00A10EE900A01B200220F4895
:1012900003F0FBF9074991F8B0000322002100F0A8
:1012A000B7FB05460823094A2946044800F02EF9F1
:1012B00070BD0000480C002004010020380100200F
:1012C000180C00200C010020140100201C0100203B
:1012D00000BFFEE700BF00BF01791A2906D01B2915
:1012E0000DD01C2914D01D2924D11AE01249C2693D
:1012F0000A61097B41F001010F4A11731AE00E499E
:10130000C2694A61097B41F002010B4A117311E085
:101310000949C2698A61097B41F00401064A1173D7
:1013200008E00549C269CA61097B41F00801024A27
:10133000117300BF00BF7047180C002010B50248A1
:1013400000F0E7FE10BD00003801002010B5024893
:1013500000F0DFFE10BD00003801002010B502488B
:1013600000F0D7FE10BD00003801002010B5044683
:101370002068B0F5A87F06D0B0F5A97F09D0A0F20B
:10138000062090B90BE004F11C010A4800F008FAAD
:101390000BE004F11C01074800F0E0F805E004F15F
:1013A0001C01054800F05CFB00BF00BF00BF00BF90
:1013B00010BD0000640E0020FC0C002010B5024897
:1013C00000F0A7FE10BD00006001002010B502482B
:1013D00000F09FFE10BD00006001002010B5024823
:1013E00000F097FE10BD0000600100200E4890ED57
:1013F0000A0ABDEEC00A10EE100A00B200EE100A92
:10140000B8EEC00A084880ED0A0A0848064909896A
:1014100001800549498941800349C98B818002497E
:10142000098CC18070470000580B0020B4000020D8
:1014300030B58BB004460D46012006900020019087
:1014400002900390049007900120099008900020DA
:1014500005902A49206888421DD129480460856288
:101460000E200A90FF231A220221204604F0D8FD04
:10147000FF231B220A21204604F0D2FDFF231C2259
:101480001621204604F0CCFDFF231D221E212046FC
:1014900004F0C6FD20E01B49206888421CD11A4890
:1014A000046085620F200A9040F2FF7340F206222A
:1014B0007821204604F0B4FD40F2FF734FF4A87287
:1014C0008421204604F0ACFD40F2FF734FF4A97272
:1014D0008C21204604F0A4FD01A9204600F0BCFCAC
:1014E000204601F024F90221204600F0FBFB1021E8
:1014F000204600F0F7FB0BB030BD00000064004058
:10150000800E002000680040AC0E0020F0B587B0CF
:1015100006460C4617461D46029400200190042002
:1015200003900020049005956B463A4601A9304689
:1015300000F0EDFB07B0F0BD10B504490448FFF71B
:1015400077FF04490448FFF773FF10BDD512000868
:10155000380100206D130008600100200A78027035
:101560004A780AB1012200E0002242700122C270D2
:10157000CA780AB1012200E00022C2710A790AB1D8
:10158000012200E0002242724A790AB1012200E001
:1015900000224271704742788270C2780271C2792B
:1015A0000272427A82724279827170470120124936
:1015B00008704870087288729FED100A084680ED26
:1015C000010A41F6D351416340F60D21816540F295
:1015D000AF71C16741F2E351C0F8A0101A2180F841
:1015E00044101B2180F868101C2180F88C101D21EC
:1015F00080F8B01070470000480C00200000000088
:1016000000B52B4840782B4948702948C07848726B
:1016100008464078012825D12548B0F912004042FB
:1016200000EE100AB8EEC00A084680ED040A204811
:10163000B0F91400404200EE100AB8EEC00A0846A5
:1016400080ED060A1A48B0F91600404200EE100A72
:10165000B8EEC00AF2EE040A80EE201A084680EDC9
:10166000081A21E01248B0F9120000EE100AB8EE94
:10167000C00A104880ED040A0D48B0F9140000EECD
:10168000100AB8EEC00A0B4880ED060A0848B0F907
:10169000160000EE100AB8EEC00AF2EE040A80EE60
:1016A000201A044880ED081A024800F0BBF800BD7B
:1016B000640E0020480C002010B527480078274908
:1016C00008700846007830B1012813D0022827D0CE
:1016D00003283FD100E000BF9FED210A1F4880EDA5
:1016E000030A9FED1F0A80ED050A9FED1D0A80ED9C
:1016F000070A2FE01948407A01280BD104F0C8FCF2
:101700001648D0ED070AB7EE001A41EE000AC0ED08
:10171000070A04E09FED120A104880ED070A19E05D
:101720000E4890ED030AB5EEC00AF1EE10FA0BD1A7
:1017300090ED050AB5EEC00AF1EE10FA04D1B0EE54
:10174000080A80ED070A04E0B0EE000A034880EDC5
:10175000070A00BF00BF10BD640E0020480C002027
:101760000000000010B5FFF74BFF00F069FAFFF72B
:10177000A3FF024800F01CF810BD0000480C002038
:10178000002007E0B3EE040A044901EB800181ED7B
:10179000000A401C0428F5DB70470000380C0020CC
:1017A0000A8842824A8882828A88C2827047000000
:1017B00010B50446D4ED011AB0EE611AD4ED031A47
:1017C000F0EE610AD4ED031AB0EE610AFEF7BEFE38
:1017D000134880ED000A94ED030AB5EEC00AF1EE5D
:1017E00010FA10D194ED050AB5EEC00AF1EE10FA28
:1017F00009D194ED070AB5EEC00AF1EE10FA02D154
:101800000120207201E0002020722046FEF7FCFF3C
:101810002046FEF7DDFE204602F044FF10BD00002A
:1018200050000020817A002964D090ED040AD0EDA8
:10183000030A30EE600AF3EE040AB4EEE00AF1EEB9
:1018400010FA08DD90ED030AF3EE040A30EE200AE8
:1018500080ED030A19E090ED040AD0ED030A30EEA2
:10186000600AFBEE040AB4EEE00AF1EE10FA08D2C8
:1018700090ED030AF3EE040A30EE600A80ED030AED
:1018800003E090ED040A80ED030A90ED060AD0ED26
:10189000050A30EE600AF3EE040AB4EEE00AF1EE57
:1018A00010FA08DD90ED050AF3EE040A30EE200A86
:1018B00080ED050A19E090ED060AD0ED050A30EE3C
:1018C000600AFBEE040AB4EEE00AF1EE10FA08D268
:1018D00090ED050AF3EE040A30EE600A80ED050A89
:1018E00003E090ED060A80ED050A90ED080A80ED10
:1018F000070A0BE090ED080A80ED070A90ED040A54
:1019000080ED030A90ED060A80ED050A704700009D
:1019100010B5024800F042FF10BD00008002002018
:1019200010B5024800F03AFF10BD0000E0020020B0
:101930000146087810381823B0FBF3F20848805CA1
:10194000C865032A05D908686FF30900001D88657A
:1019500003E008686FF309008865886D7047000030
:101960008E730008014600208A6A8B69CBB932B1B8
:10197000012A0DD0022A03D0032A10D10EE000BFA5
:10198000CB6A03F08073B3F1807F00D1012007E0C0
:10199000CB6AB3F1C07F00D1012001E000E000BFBD
:1019A00034E08B69B3F5005F1AD132B1012A07D058
:1019B000022A03D0032A11D10AE000BF01200EE061
:1019C000CB6A03F08073B3F1807F00D1012006E081
:1019D000CB6AB3F1C07F00D1012000E000BF15E069
:1019E00032B1012A05D0022A04D0032A0CD103E027
:1019F00000BF00BF012008E0CB6A03F08073B3F1A1
:101A0000807F00D1012000E000BF00BF7047704719
:101A100010B50346140644EA012444EA030010BD4D
:101A200072B600BFFEE7F0EE400AF5EEC00AF1EE36
:101A300010FA02D2B1EE600A7047B0EE600AFBE71E
:101A400000EE100AB8EEC00A9FED041AC0EE010ABB
:101A5000B0EE080A20EE800A7047000000F8FF454B
:101A60004A780B7842EA032213B20381CA788B7852
:101A700042EA032213B283804A790B7942EA0322B5
:101A800012B242808B79C3807047000000EE100ACA
:101A9000B8EE400A9FED041AC0EE010A9FED030A5A
:101AA00020EE800A7047000000F8FF450000B443B4
:101AB00000EE100AB8EE400A9FED061AC0EE010AC9
:101AC000B0EE000A20EE800ADFED030A20EE200AC5
:101AD0007047000000F8FF45DC0F494000B50146A3
:101AE000B1F90200FFF7ACFF81ED060A91ED060A9D
:101AF000D1ED040A20EE200A81ED070ACA884A8443
:101B00008A880A848A8CCA8408898884888CFFF72A
:101B1000BDFF81ED0B0A888CFFF7CAFF81ED0A0A31
:101B2000CA8C888C101AB0F5805F03DD088E401CCB
:101B300002B20A86CA8C888C101A10F5805F03DA0C
:101B4000088E401E02B20A864A6B0A6491ED0E0AA4
:101B500081ED110A91ED0F0A81ED120AB1F9300001
:101B6000C0EB4032888C02444C20405A121A4A631F
:101B700091ED0B0AB1F9300000EE900AF8EEE00AA0
:101B80009FED171A00EE810AD1ED150A30EE600ABA
:101B900081ED0F0A91ED0A0AB1F9300000EE900ACA
:101BA000F8EEE00AB0EE001A60EE810A9FED0D1A21
:101BB00000EE810AD1ED140A30EE600A81ED0E0AC2
:101BC000087D58B9888E82B24C20425291ED0F0A9E
:101BD00081ED150A91ED0E0A81ED140A00BD000099
:101BE0000000B443DC0F494030B5034613B94FF64B
:101BF000FF7030BD09E013F8014B82EA0400C0B267
:101C0000054D35F8100080EA2222081EA1F10101DD
:101C1000F1D11046EDE70000B074000830B503467E
:101C200005E013F8010B80EA02040448025D081E77
:101C3000A1F10101F5D1104630BD0000AF730008DD
:101C40002148407A012839D1204890ED180A1E48D1
:101C5000407801EE100AF8EE411A9FED1D1A9FED33
:101C60001D2AF0EE410A42EE210A30EEC01A164853
:101C700080ED011A90ED011ADFED161AB4EEE11AAB
:101C8000F1EE10FA07DD90ED011ADFED131A31EED7
:101C9000611A80ED011A0C4890ED011ADFED0F1A60
:101CA000B4EEE11AF1EE10FA0DD290ED011ADFED6B
:101CB0000A1A31EE211A80ED011A04E09FED081A8C
:101CC000014880ED011A7047480C0020FC0C0020F0
:101CD00000000A43000034430000B443000034C352
:101CE0000000000010B5024692F82030012B01D010
:101CF000022B06D110684069084314686061002017
:101D000010BD506A40F4802050620120F8E7F0B521
:101D100004460D461E4694F8207020688368A86823
:101D200000B900E000BF012F01D0022F7DD103F0E8
:101D3000806030B903F0006018B903F080500028CB
:101D40007ED0C3F30161012088403060A86860B98B
:101D5000B5F800C0E86840EA4C5C206800F5C07047
:101D600000EB0110C0F800C00FE0D5E901C040EA67
:101D7000CC00D5F80CC040EA0C00D4F800C00CF53B
:101D8000C07C0CEB011CCCF80000D5F810C020681A
:101D900000F5C07000EB0110C0F804C0287D0128D8
:101DA0000ED1206800F5C07000EB0110406840F4CF
:101DB000807C206800F5C07000EB0110C0F804C002
:101DC000D079000692F806C040EA0C4092F805C0AF
:101DD00040EA0C2092F804C040EA0C00D4F800C09D
:101DE0000CF5C07C0CEB011CCCF80C00D078000684
:101DF00092F802C040EA0C4092F801C040EA0C2080
:101E000092F800C040EA0C00D4F800C00CF5C07C89
:101E10000CEB011CCCF80800206800F5C07000EB4A
:101E20000110006840F0010C01E00FE008E02068BC
:101E300000F5C07000EB0110C0F800C00020F0BD3C
:101E4000606A40F4001060620120F8E7606A40F4C4
:101E5000802060620120F2E7F0B504460A4621685E
:101E600094F82050012D01D0022D7ED1424901F578
:101E70000071086840F001000860086820F47C5098
:101E800008600868566A40EA06200860107D00F085
:101E90001F06012000FA06F3C8699843C861A1F53E
:101EA0000071D069C8B9D1F80C029843C1F80C028E
:101EB000908880B2968940EA064601F5107057690D
:101EC00040F83760108880B2168940EA064601F56E
:101ED0001070576900EBC7004660D069012819D11E
:101EE000D1F80C021843C1F80C02908880B2168811
:101EF00040EA064601F51070576940F8376090894E
:101F000080B2168940EA064601F51070576900EB69
:101F1000C7004660906928B9D1F804029843C1F817
:101F2000040204E0D1F804021843C1F80402106965
:101F300028B9D1F814029843C1F8140204E0D1F88A
:101F400014021843C1F81402106A012804D1D1F810
:101F50001C021843C1F81C02D1F8000220F0010055
:101F6000C1F800020020F0BDFFE7606A40F4802065
:101F700060620120F7E7000000640040704770B520
:101F8000044694F82050012D01D0022D7DD151B985
:101F90002068C06800F0030080B9606A40F4001057
:101FA0006062012070BD2068006900F0030028B95C
:101FB000606A40F4001060620120F3E7206800F5D9
:101FC000D87000EB0110006800F004009060906889
:101FD00040B9206800F5D87000EB01100068400D92
:101FE000106007E0206800F5D87000EB0110006871
:101FF000C0085060206800F5D87000EB0110006840
:1020000000F00200D060206800F5D87000EB0110ED
:10201000406800F00F00082802D30820106108E093
:10202000206800F5D87000EB0110406800F00F0048
:102030001061206800F5D87000EB0110406800F4D2
:102040007F40000A9061206800F5D87000EB011015
:102050004068000C5061206800F5D87000EB01105A
:1020600080681870206800F5D87000EB0110806857
:1020700000F47F40000A5870206800F5D87000EB2B
:102080000110806800F47F0000E03CE0000C9870D4
:10209000206800F5D87000EB01108068000ED87041
:1020A000206800F5D87000EB0110C0681871206836
:1020B00000F5D87000EB0110C06800F47F40000A02
:1020C0005871206800F5D87000EB0110C06800F46A
:1020D0007F00000C9871206800F5D87000EB0110AB
:1020E000C068000ED87131B92068C06840F0200087
:1020F0002668F06005E02068006940F0200026684E
:10210000306100204EE7606A40F480206062012068
:1021100048E72DE9F05F04460025206846692068FD
:10212000D0F80490206887682068D0F80CA0206858
:10213000D0F810B02068D0F8188006F00100002810
:1021400055D007F00100C0B101202168886007F078
:10215000020018B1204600F01AFB0EE007F0040060
:1021600010B145F4006508E007F0080010B145F42F
:10217000805502E0204600F009FB07F48070C8B1EA
:102180004FF480702168886007F4007018B1204611
:1021900000F0FFFA0EE007F4806010B145F400553E
:1021A00008E007F4006010B145F4804502E02046E5
:1021B00000F0EEFA07F48030C8B14FF480302168A7
:1021C000886007F4003018B1204600F0E4FA0EE011
:1021D00007F4802010B145F4004508E007F4002022
:1021E00010B145F4803502E0204600F0D3FA06F045
:1021F000080038B10AF0100020B145F40075102035
:102200002168C86006F0040040B10AF0080028B157
:1022100008202168C860204600F02CFA06F0020071
:1022200038B12068C06800F0030010B1204600F00B
:1022300023FA06F0400038B10BF0100020B145F44D
:10224000806510202168086106F0200040B10BF085
:10225000080028B1082021680861204600F038FAFB
:1022600006F0100038B12068006900F0030010B1DA
:10227000204600F02FFA06F4003040B109F01000BB
:1022800028B1102021684860204600F04FFA06F47B
:10229000803040B109F0080028B10820216848606A
:1022A000204600F079FA06F4004088B309F00400F3
:1022B00078B306F4807020B108F0010008B145F051
:1022C000010506F4007020B108F0020008B145F0E5
:1022D000020506F4806020B108F0040008B145F062
:1022E000040506F40060A0B108F0700088B108F0A1
:1022F0007000402817D006DC10280BD020280CD006
:10230000302819D10CE0502810D0602814D110E0EA
:102310001DE019E045F008050FE045F010050CE060
:1023200045F0200509E045F0400506E045F0800550
:1023300003E045F4807500E000BF00BF20688069BD
:1023400020F07000216888610420216848602DB168
:10235000606A284360622046FFF710FEBDE8F09FE8
:1023600070B504460CB9012070BD94F8200010B976
:10237000204600F0AFF82068006840F001002168B6
:10238000086000F09BFC05460DE000F097FC401B48
:102390000A2808D9606A40F400306062052084F899
:1023A00020000120E0E72068406800F001000028DC
:1023B000EBD02068006820F002002168086000F07F
:1023C0007DFC05460DE000F079FC401B0A2808D989
:1023D000606A40F400306062052084F8200001202B
:1023E000C2E72068406800F002000028EBD1207EA0
:1023F000012806D12068006840F08000216808604C
:1024000005E02068006820F0800021680860607E98
:10241000012806D12068006840F04000216808606B
:1024200005E02068006820F0400021680860A07E78
:10243000012806D12068006840F02000216808606B
:1024400005E02068006820F0200021680860E07E38
:10245000012806D12068006820F01000216808607B
:1024600005E02068006840F0100021680860207FC7
:10247000012806D12068006840F008002168086043
:1024800005E02068006820F0080021680860607F8F
:10249000012806D12068006840F004002168086027
:1024A00005E02068006820F0040021680860D4E995
:1024B0000201084321690843616908436168491EB4
:1024C00008432168C86100206062012084F8200070
:1024D000002049E710B586B00446142101A8FDF795
:1024E0008FFF5E492068884251D15D480068401CDA
:1024F0005B4908600846006801280FD100BF002032
:1025000000905848006840F000705649086008463E
:10251000006800F00070009000BF00BF00BF002006
:10252000009050481038006840F008004D491039BC
:1025300008600846006800F00800009000BF00BF77
:1025400003200190022002900020039003200490B9
:102550000920059001A9444800F0B6FA002211466E
:10256000132000F039FC132000F022FC0022114659
:10257000142000F031FC142000F01AFC0022114657
:10258000152000F029FC152000F012FC64E037490A
:102590002068884260D100BF002000903148006868
:1025A00040F080602F4908600846006800F08060B5
:1025B000009000BF00BF2A480068401C28490860FE
:1025C0000846006801280FD100BF00200090254870
:1025D000006840F00070234908600846006800F079
:1025E0000070009000BF00BF00BF002000901D4899
:1025F0001038006840F002001A4910390860084697
:10260000006800F00200009000BF00BF6020019051
:1026100002200290002003900320049009200590DE
:1026200001A9134800F050FA002211463F2000F0A3
:10263000D3FB3F2000F0BCFB00221146402000F0FD
:10264000CBFB402000F0B4FB00221146412000F0FB
:10265000C3FB412000F0ACFB06B010BD006400409D
:102660000000002040380240000C0240006800409A
:10267000000402407047000010B50446104920686D
:1026800088420CD10F4BA3F11C0200212046FFF71A
:1026900076FC0C482038816A001D88470FE00A4903
:1026A000206888420BD1094BA3F11C02002120466F
:1026B000FFF765FC05482038816A001D884710BD7A
:1026C00000640040A00E002000680040CC0E0020F6
:1026D0007047000010B504461049206888420CD1AC
:1026E0000F4BA3F11C0201212046FFF748FC0C48C8
:1026F0002038816A001D88470FE00A492068884217
:102700000BD1094BA3F11C0201212046FFF737FC36
:1027100005482038816A001D884710BD00640040CC
:10272000A00E002000680040CC0E0020704770B55D
:10273000044694F82000012822D1022084F82000C9
:102740002068006820F001002168086000F0B6FAF7
:1027500005460DE000F0B2FA401B0A2808D9606A6D
:1027600040F400306062052084F82000012070BD34
:102770002068406800F001000028EBD16062F6E7B5
:10278000606A40F4002060620120F0E77047704703
:10279000704770477047704770470000F8B50446AF
:1027A000002000908C4800684FF41651B0FBF1F700
:1027B000A56D2E6894F85C1008208840304098B1D0
:1027C0002068006800F0040070B12068006820F004
:1027D00004002168086094F85C1008208840A86014
:1027E000606D40F00100606594F85C100120884045
:1027F000304068B12068406900F0800040B194F832
:102800005C1001208840A860606D40F002006065A7
:1028100094F85C1004208840304068B1206800685B
:1028200000F0020040B194F85C1004208840A860D9
:10283000606D40F00400606594F85C1010208840E2
:10284000304078B32068006800F0080050B394F876
:102850005C1010208840A8602068006800F4802088
:1028600080B12068006800F4002028B9206CC8B14D
:102870002046216C884715E0A06C98B12046A16CD9
:1028800088470FE02068006800F4807028B920684D
:10289000006820F0080021680860206C10B1204614
:1028A000216C884794F85C10202088403040002834
:1028B00065D02068006800F0100000285FD094F810
:1028C0005C1020208840A86094F83500052828D1A5
:1028D0002068006820F016002168086020684069C0
:1028E00020F0800021684861206C08B9A06C28B1F4
:1028F0002068006820F008002168086094F85C10E7
:102900003F208840A860012084F8350000BF0020E7
:1029100084F8340000BF206D10B12046216D884737
:10292000F8BD2068006800F4802080B1206800684D
:1029300000F4002028B9606C10B12046616C884713
:102940001DE0E06BD8B12046E16B884717E02068B6
:10295000006800F4807068B92068006820F01000FA
:1029600021680860012084F8350000BF002084F849
:10297000340000BFE06B10B12046E16B8847606D0A
:1029800038B3606D00F00100F0B1052084F8350027
:102990002068006820F001002168086000BF0098EE
:1029A000401C0090B84200D905E02068006800F0A3
:1029B00001000028F3D100BF012084F8350000BFDA
:1029C000002084F8340000BFE06C10B12046E16CB8
:1029D000884700BFA4E70000100000202DE9F04167
:1029E0000446002500F06AF9074614B90120BDE845
:1029F000F081606A00B100BF022084F8350000BF9A
:102A0000002084F8340000BF2068006820F0010036
:102A1000216808600AE000F051F9C01B052805D9BB
:102A200020206065032084F83500E0E72068006816
:102A300000F001000028EED120680568214805401B
:102A4000D4E901010843E168084321690843616949
:102A50000843A1690843E1690843216A0843054323
:102A6000606A042803D1D4E90B01084305432068B8
:102A700005602068456925F00705606A0543606ABE
:102A800004280DD1A06A0543E06A48B12046FEF74C
:102A900069FF28B140206065012084F83500A6E771
:102AA000206845612046FEF743FF064694F85C1017
:102AB0003F208840B06000206065012084F8350028
:102AC000002094E73F8010F0F8B502460B46002541
:102AD000002400200021D6E0012606FA01F51E6838
:102AE00006EA0504AC4274D11E7906F00306012EF5
:102AF00004D01E7906F00306022E13D190684F0011
:102B00000326BE40B0434F00DE68BE4030439060B5
:102B1000506801268E40B0431E79C6F300168E40E1
:102B2000304350601E7906F00306032E09D0D068AA
:102B30004F000326BE40B0434F009E68BE40304366
:102B4000D0601E7906F00306022E13D1CF0802F1E1
:102B5000200656F827004E07F70E0F26BE40B0435A
:102B60004F07FF0E1E69BE403043CF0802F120061A
:102B700046F8270010684F000326BE40B0431E7978
:102B800006F003064F00BE40304310605E6806F456
:102B90004036002E76D000BF002600963C4E3668A8
:102BA00046F480463A4F3E603E46366806F480461C
:102BB000009600BF00BF374E8F0856F827008E07DB
:102BC000370F0F26BE40B043334EB24202D100262B
:102BD00024E057E0314EB24201D101261EE0304ED2
:102BE000B24201D1022619E02E4EB24201D1032693
:102BF00014E02D4EB24201D104260FE02B4EB2421A
:102C000001D105260AE02A4EB24201D1062605E08E
:102C1000284EB24201D1072600E008268F073F0F59
:102C2000BE4030431B4E8F0846F82700224E3068C6
:102C3000A0435E6806F4801606B120431E4E306045
:102C4000361D3068A0435E6806F4001606B12043C6
:102C5000194E361D3060184E361F3068A0435E682E
:102C600006F4003606B12043134E361F3060361F7F
:102C70003068A0435E6806F4803606B120430E4EED
:102C8000083E3060491C1029FFF426AFF8BD000053
:102C9000443802400838014000000240000402406D
:102CA00000080240000C02400010024000140240E4
:102CB00000180240001C0240083C01400148006826
:102CC00070470000040000200348006803490978A9
:102CD0000844014908607047040000200C000020EF
:102CE00010B50D48006840F400700B4908600846B4
:102CF000006840F4806008600846006840F4807016
:102D00000860032000F0A6F80F2000F007F800F09C
:102D10002BF8002010BD0000003C024070B50446B6
:102D20000E4800784FF47A71B1FBF0F00C49096855
:102D3000B1FBF0F5284600F093FD08B1012070BD0D
:102D4000102C07D200222146501E00F045F80548FD
:102D5000046001E00120F2E70020F0E70C00002011
:102D6000100000200800002008B500BF00200090DF
:102D70000E48006840F480400C490860084600682E
:102D800000F48040009000BF00BF00BF0020009012
:102D9000081F006840F08050091F0860084600685E
:102DA00000F08050009000BF00BF08BD44380240D2
:102DB0000146084600280DDB00BF00BF00F01F03DE
:102DC00001229A4043099B0003F1E023C3F800214C
:102DD00000BF00BF00BF70472DE9F05F80460D4681
:102DE0001646002702F0FCF8074639462A463346C5
:102DF00001F00700C0F1070ABAF1040F02D94FF041
:102E0000040A01E0C0F1070AD14600F1040ABAF150
:102E1000070F02D24FF0000A01E0A0F1030AD446E6
:102E20004FF0010A0AFA09FAAAF1010A0AEA020AAB
:102E30000AFA0CFA4FF0010B0BFA0CFBABF1010B89
:102E40000BEA030B4AEA0B042146404602F0D0F895
:102E5000BDE8F09F00BF00F00702064B19684FF66F
:102E6000FF031940044B0B4343EA0221014B196055
:102E700000BF70470CED00E00000FA05F8B504460D
:102E800000250026207800F0010020B9207800F00D
:102E9000040004282FD100205B498866FFF70EFF4D
:102EA000054606E0FFF70AFF401B022801D9032070
:102EB000F8BD56480068C0F3C0600028F2D16068D1
:102EC0008101207A41EA0070504984310860012074
:102ED0004D498866FFF7F2FE054606E0FFF7EEFE75
:102EE000401B022801D90320E2E748480068C0F3EC
:102EF000C0600028F2D0207800F0020002287DD1C6
:102F000000BF0020009041484030006840F08050F1
:102F10003E49403108600846006800F0805000904B
:102F200000BF00BF3A48006840F48070384908602C
:102F3000FFF7C4FE054606E0FFF7C0FE401B02286F
:102F400001D90320B4E73248006800F480700028FB
:102F5000F2D02E487030006800F440764EB3A0895D
:102F600000F44070B04224D028487030006820F44B
:102F7000407601202749086000200860234870300F
:102F80000660006800F0010098B1FFF797FE054663
:102F900008E0FFF793FE401B41F28831884201D9D7
:102FA000032085E7194870300068C0F3400000280E
:102FB000EFD000BFA08900F44070B0F5407F0CD185
:102FC00012480830006820F4F810134AE1681140F4
:102FD00008430E490831086007E00C4808300068D3
:102FE00020F4F8100949083108600848703000687A
:102FF000A189C1F30B010843044900E002E07031EC
:10300000086000BF002053E700004742003802403C
:1030100000700040400E4742FFFCFF0F70B50446B1
:103020000D460CB9012070BD5848006800F007003B
:10303000A84209D255490D700846006800F0070003
:10304000A84201D00120EEE7207800F0020002281B
:103050001DD1207800F00400042805D14C480068F8
:1030600040F4E0504A490860207800F00800082841
:1030700005D14748006840F460404549086044482D
:10308000006820F0F000A1680843414908602078FA
:1030900000F00100A8B36068012807D13C48083857
:1030A0000068C0F34040B8B90120BCE7606802285E
:1030B00002D06068032807D1354808380068C0F39B
:1030C000406048B90120AEE7314808380068C0F3D5
:1030D000400008B90120A6E72D48006820F0030051
:1030E000616808432A490860FFF7E8FD064609E0E1
:1030F000FFF7E4FD801B41F28831884202D90320AA
:1031000091E707E02248006800F00C006168B0EB2E
:10311000810FEDD11D48006800F00700A84209D9D1
:103120001A490D700846006800F00700A84201D057
:10313000012078E7207800F00400042807D1144823
:10314000006820F4E050E1680843114908602078E5
:1031500000F00800082808D10D48006820F46040FD
:10316000216940EAC1000A49086000F03FF80849B7
:103170000968C1F30311074A515CC8400649086059
:1031800006480068FFF7CAFD00204CE7003C0240FB
:103190000838024096730008100000200800002044
:1031A00001480068704700001000002000B5FFF7DC
:1031B000F7FF04490968C1F38221034A515CC84002
:1031C00000BD000008380240A673000800B5FFF7F4
:1031D000E7FF04490968C1F34231034A515CC84022
:1031E00000BD000008380240A67300082DE9F04732
:1031F000002400250026A1462548006800F00C00A8
:1032000020B1042805D008283AD105E0DFF88490E1
:1032100039E0DFF8849036E01D48001F006800F0B8
:103220003F041B48001F006800F4800078B11A4872
:103230001749091F0968C1F38811A0FB01700146F5
:10324000224600233846FDF71FF805460EE01148D8
:103250000F49091F0968C1F38811A0FB01700146DD
:10326000224600233846FDF70FF805460848001FA0
:103270000068C0F30140401C4600B5FBF6F902E0CF
:10328000DFF8109000BF00BF4846BDE8F08700009F
:10329000083802400024F400001BB700F8B50446CB
:1032A0000CB90120F8BD207800F00100002874D08E
:1032B000F948006800F00C0004280DD0F6480068BA
:1032C00000F00C00082813D1F348001F006800F438
:1032D0008000B0F5800F0BD1EF4808380068C0F3CC
:1032E0004040002859D06068002856D10120D9E715
:1032F00000BF6068B0F5803F08D1E7480838006833
:1033000040F48030E449083908601EE06068B0F598
:10331000A02F0DD1E0480838006840F48020DE4935
:10332000083908600846006840F4803008600CE006
:10333000D9480838006820F48030D7490839086037
:103340000846006820F48020086000BF606890B1E3
:10335000FFF7B4FC054606E0FFF7B0FC401B64280D
:1033600001D903209EE7CC4808380068C0F34040EC
:103370000028F1D011E0FFF7A1FC054606E0FFF7B9
:103380009DFC401B642801D903208BE7C248083804
:103390000068C0F340400028F1D1207800F002001E
:1033A00002285FD1BC48006800F00C0058B1BA4850
:1033B000006800F00C0008281CD1B748001F006806
:1033C00000F48000B0B9B44808380068C0F3400089
:1033D00020B1E068012801D0012063E7AE48083839
:1033E000006820F0F800216940EAC100AA490839C4
:1033F000086037E0E06800B30120A8490860FFF7E3
:103400005DFC054606E0FFF759FC401B022801D988
:10341000032047E7A04808380068C0F340000028B0
:10342000F1D09D480838006820F0F800216940EA92
:10343000C10099490839086014E0002097490860E4
:10344000FFF73CFC054606E0FFF738FC401B02286E
:1034500001D9032026E7904808380068C0F34000EF
:103460000028F1D1207800F0080008282CD16069EC
:10347000A8B101208A490860FFF720FC054606E054
:10348000FFF71CFC401B022801D903200AE78248F1
:103490006C300068C0F340000028F1D014E0002038
:1034A0007F490860FFF70AFC054606E0FFF706FCC7
:1034B000401B022801D90320F4E677486C300068ED
:1034C000C0F340000028F1D1207800F00400042867
:1034D00070D1002770483830006800F0805090B9F3
:1034E00000BF002000906C483830006840F08050E9
:1034F0006949383108600846006800F08050009043
:1035000000BF00BF01276748006800F48070B0B9B1
:103510006448006840F4807062490860FFF7CEFBA1
:10352000054606E0FFF7CAFB401B022801D903202D
:10353000B8E65C48006800F480700028F2D000BF54
:10354000A068012808D154486830006840F00100A4
:103550005149683108601DE0A06805280DD14E482A
:103560006830006840F004004B4968310860084644
:10357000006840F0010008600CE0474868300068CF
:1035800020F001004449683108600846006820F0D6
:103590000400086000BFA068A8B1FFF78FFB0546D4
:1035A00009E0FFF78BFB401B41F28831884202D9CA
:1035B000032077E626E0384868300068C0F3400012
:1035C0000028EED013E0FFF779FB054608E0FFF78F
:1035D00075FB401B41F28831884201D9032061E626
:1035E0002D4868300068C0F340000028EFD1012F5B
:1035F00007D129483830006820F0805026493831FA
:10360000086000BFA069002845D02348006800F08A
:103610000C0008285DD0A069022845D100201F4970
:103620000866FFF74BFB054606E0FFF747FB401B2C
:10363000022801D9032035E6174808380068C0F38E
:1036400040600028F1D1D4E907010843616A40EAEB
:1036500081110122A06AC2EB500041EA00412C20F6
:10366000005D41EA00600C49091F086001200B4918
:103670000866FFF723FB054606E0FFF71FFB401B2C
:10368000022801D903200DE6034808380068C0F37A
:1036900040600028F1D049E008380240000047426D
:1036A000800E474200700040002021490866FFF765
:1036B00005FB054606E0FFF701FB401B022801D988
:1036C0000320EFE51B480068C0F340600028F2D1FA
:1036D0002CE0A069012800D1E4E51648001D066829
:1036E000A069012820D006F48001E06981421BD145
:1036F00006F03F01206A814216D147F6C070304083
:10370000616AB0EB811F0FD106F440310122A06A3B
:10371000C2EB5000B1EB004F06D106F070612C20D7
:10372000005DB1EB006F01D00120BBE50020B9E5E1
:10373000000047420038024070B5044601250CB92C
:10374000012070BD607F20B900202077204600F066
:103750004DF8022060772068C068C0F30010002890
:103760003CD100BFCA2021684862532021684862CA
:1037700000BF204600F093FE0546EDB92068806842
:1037800019490840216888602169606808436169B7
:103790000843216889680843216888602168E068D7
:1037A000086120680169208941EA004021680861B8
:1037B000204600F099FE05465DB92068006C20F4B3
:1037C0008020216808642068006CA1690843216892
:1037D000086400BFFF202168486200E000250DB9A1
:1037E000012060772846ACE7BFFF8FFF1FB5044676
:1037F00000200090019002900390094920688842BF
:103800000CD102200090000203906846FFF736FBBF
:1038100008B1FEF705F90120024908601FBD00004C
:10382000002800403C0E474270B5044600250B4876
:103830002168C860FFF742FA054607E0FFF73EFA45
:10384000401BB0F57A7F01D9032070BD2068C068A5
:1038500000F020000028F1D00020F6E75F7F010093
:1038600070B504462546681EB0F1807F01D3012063
:103870000FE0681E4FF0E02148610F214FF0FF304C
:1038800001F0B6FB00204FF0E021886107200861BD
:10389000002070BD7047704730B502460B4600BF30
:1038A00092F83C00012801D1022030BD012082F8AD
:1038B0003C0000BF022082F83D0010684468106898
:1038C000816824F070041868044310684460184D3F
:1038D0001068A8421BD01068B0F1804F17D0154D6A
:1038E0001068A84213D0144D1068A8420FD0134D91
:1038F0001068A8420BD0124D1068A84207D0114D95
:103900001068A84203D0104D1068A84205D121F0DC
:1039100080015868014310688160012082F83D00F1
:1039200000BF002082F83C0000BF00BFBDE70000E0
:10393000000001400004004000080040000C00406E
:1039400000040140004001400018004010B504464A
:103950000CB9012010BD94F83D0028B9002084F86E
:103960003C00204600F026F8022084F83D00211D8E
:10397000206801F001F8012084F8460000BF84F8B7
:103980003E0001213F2001554020015541200155B5
:1039900000BF00BF012084F84200432001554420AD
:1039A00001554520015500BF012084F83D0000204D
:1039B000D0E7000038B5044619492068884218D17C
:1039C00000BF002000901748006840F00200154931
:1039D00008600846006800F00200009000BF00BFC9
:1039E000002211461D20FFF7F7F91D20FFF7E0F92F
:1039F00015E00D492068884211D100BF00200090D9
:103A00000848001D006840F480300649091D086020
:103A10000846006800F48030009000BF00BF38BD49
:103A2000000400404038024000400140014691F847
:103A30003D00012801D001207047022081F83D009F
:103A40000868C06840F001000B68D8601A4B08682D
:103A500098421BD00868B0F1804F17D0174B086808
:103A6000984213D0164B086898420FD0154B08683F
:103A700098420BD0144B0868984207D0134B086843
:103A8000984203D0124B086898420CD108688068AD
:103A900000F00702062A0CD00868006840F0010018
:103AA0000B68186005E00868006840F001000B68CA
:103AB00018600020C0E70000000001400004004042
:103AC00000080040000C004000040140004001409C
:103AD000001800402DE9F04104460D46002700BFC4
:103AE00094F83C00012802D10220BDE8F0810120B9
:103AF00084F83C0000BF022084F83D0020688668FE
:103B000026F0770626F47F462068866028685028CD
:103B100033D00CDC202850D004DC00284BD01028F7
:103B200051D149E0302849D040284CD139E06028B3
:103B30002DD0702807D0B0F5805F03D0B0F5005FBE
:103B400041D10DE041E0D5E902136A68206800F038
:103B500087FF2068866846F077062068866034E034
:103B6000D5E902136A68206800F07AFF206880684F
:103B700040F480402168886027E0EA68696820682E
:103B800000F082FF5021206800F075FF1DE0EA6818
:103B90006968206800F08BFF6021206800F06BFFEF
:103BA00013E0EA686968206800F06EFF4021206831
:103BB00000F061FF09E000BF00BF00BF2968206876
:103BC00000F059FF01E0012700BF00BF012084F889
:103BD0003D0000BF002084F83C0000BF384684E769
:103BE000704770B504462068C5682068066906F00D
:103BF0000200022819D105F00200022815D1401F49
:103C000021680861012020772068806900F00300A6
:103C100018B12046FFF7E4FF05E0204600F097F8D2
:103C2000204600F095F80020207706F004000428D4
:103C300019D105F00400042815D1C043216808619A
:103C4000022020772068806900F4407018B1204677
:103C5000FFF7C6FF05E0204600F079F8204600F0A7
:103C600077F80020207706F00800082819D105F021
:103C70000800082815D1C043216808610420207776
:103C80002068C06900F0030018B12046FFF7A8FFC4
:103C900005E0204600F05BF8204600F059F80020CF
:103CA000207706F01000102819D105F01000102818
:103CB00015D1C04321680861082020772068C069B9
:103CC00000F4407018B12046FFF78AFF05E0204657
:103CD00000F03DF8204600F03BF80020207706F089
:103CE000010048B105F0010030B16FF0010021681A
:103CF0000861204600F02EF806F08000802809D1E7
:103D000005F08000802805D1C04321680861204665
:103D1000FFF7C0FD06F04000402809D105F0400043
:103D2000402805D1C04321680861204600F06EF8A4
:103D300006F02000202809D105F02000202805D118
:103D4000C043216808612046FFF7A5FD70BD70479C
:103D50007047000010B504462849206888424CD1BD
:103D600027490888FDF7F6F825480088052190FBCB
:103D7000F1F201FB120008B9FDF7F4FC20480088BD
:103D8000142190FBF1F201FB1200112801D102F085
:103D9000DBF81B480088052190FBF1F201FB1200C3
:103DA000012805D11748FDF799FE164801F09CF847
:103DB000134800880A2190FBF1F201FB120004284D
:103DC00001D102F06BFC0E4800880A2190FBF1F251
:103DD00001FB1200052801D1FDF708FB0848008807
:103DE0000A2190FBF1F201FB1200082802D10648DB
:103DF000FDF7D1FB024800F07AFE10BD0004004040
:103E000030010020FC0C0020640E0020704710B52B
:103E100004460CB9012010BDA06900B100E000BF4C
:103E200094F8410028B9002084F84000204600F0B2
:103E300029F8242084F841002068C06820F400504C
:103E40002168C860204600F067FE2068006920F401
:103E50009040216808612068406920F02A002168AC
:103E600048612068C06840F400502168C8600020A4
:103E70006064202084F8410084F8420000206063E0
:103E800000BFC8E710B586B00446142101A8FCF7AE
:103E9000B7FA3D492068884273D100BF00200090E6
:103EA0003A48006840F02000384908600846006839
:103EB00000F02000009000BF00BF00BF0020009075
:103EC00032481438006840F0400030491439086026
:103ED0000846006800F04000009000BF00BF4FF4AB
:103EE000844001900220029000200390032004905F
:103EF0000820059001A92648FEF7E6FD2548264939
:103F0000086080054860002123488160C1604FF44B
:103F100080610161002141618161C1610162416291
:103F2000FEF75CFD08B1FDF77BFD00BF1A48E063BA
:103F3000846300BF17487830184908604FF020604C
:103F400048604021154881600021C1604FF48061C4
:103F50000161002141618161C16101624162FEF73D
:103F60003DFD08B1FDF75CFD00BF0C48A063846314
:103F700000BF002211464720FEF72EFF4720FEF724
:103F800017FF06B010BD0000001401404438024085
:103F9000001802402864024080020020E002002055
:103FA00000BFFEE738B50446002000900025174802
:103FB00021680160217901716D1D601900880090F0
:103FC000AD1CBDF80000A0F2012020B1012808D0EE
:103FD000062818D10CE061190D220D48FCF7CBF929
:103FE00012E0611910220A480E30FCF7C4F90BE008
:103FF00061190748801E0A68C2618A88028489792B
:1040000080F8221000E000BF00BF38BD160000207D
:104010005A0B002010B50F480F4908600320486074
:1040200000210D488160C1604FF4802101614FF48F
:10403000E001416100210176012141768176002174
:10404000C17601774177FEF78BF908B1FDF7E8FCFF
:1040500010BD0000006400403801002010B50F487A
:104060000F4908600320486000210D488160C1604D
:104070004FF4802101614FF4E0014161002101769C
:104080000121417681760021C17601774177FEF7E3
:1040900067F908B1FDF7C4FC10BD000000680040DE
:1040A0006001002008B500BF002000900E480068A5
:1040B00040F480000C4908600846006800F4800065
:1040C000009000BF00BF002211463920FEF784FE99
:1040D0003920FEF76DFE002211464520FEF77CFEDA
:1040E0004520FEF765FE08BD3038024008B500BF28
:1040F000002000902448006840F002002249086037
:104100000846006800F00200009000BF00BF00BF3A
:10411000002000900846006840F040000860084613
:10412000006800F04000009000BF00BF00BF00200A
:1041300000900846006840F00100086008460068EA
:1041400000F00100009000BF00BF00BF0020009001
:104150000846006840F0080008600846006800F063
:104160000800009000BF00BF00BF0020009008467C
:10417000006840F0800008600846006800F0800099
:10418000009000BF00BF08BD3038024010B50A489B
:104190000A490860002048607C210848816040F698
:1041A0007F41C1600021016141618161FFF7C4FA73
:1041B00008B1FDF735FC10BD002800408801002043
:1041C00000B587B000200390049005900690019000
:1041D0000290154815490860532048600021134893
:1041E000816040F2E731C16000210161802181617D
:1041F000FFF7ACFB08B1FDF713FC4FF480500390C0
:1042000003A90A48FFF766FC08B1FDF709FC002086
:104210000190029001A90548FFF73EFB08B1FDF7A8
:10422000FFFB07B000BD000000040040A801002013
:104230001FB5002000900190029003900F48104994
:10424000086040F2E730486000210D488160A721F6
:10425000C1600021016180218161FFF777FB08B116
:10426000FDF7DEFB4FF48050009069460448FFF7ED
:1042700031FC08B1FDF7D4FB1FBD00000040014038
:10428000F001002010B50B480B4908604FF4E130F5
:104290004860002108488160C16001610C214161D2
:1042A00000218161C161FFF7B2FD08B1FDF7B8FBE4
:1042B00010BD0000001401403802002000BFFEE7DE
:1042C00000BFFEE710B52DED028B0446B0EE408A2C
:1042D000F0EE608A94F86D0000F0800078B120461E
:1042E00002F04AF87620005D48B19FED610A10EEB9
:1042F000100A60639FED5E0ABDEC028B10BD18EEE4
:10430000100A606118EE900A2060206800EE100A22
:10431000606900EE900A30EE600A10EE100AE0616B
:10432000E06900EE100AB5EEC00AF1EE10FA03DD06
:10433000E06900EE100A04E0E06900EE100AB1EE58
:10434000400AA06C00EE900AB4EEE00AF1EE10FA1A
:104350007EDDA06800EE100AE06900EE900A20EE13
:10436000200A10EE100A6062E06800EE100AE069B0
:1043700000EE900A20EE200A10EE100A2063E06999
:1043800000EE100A206A00EE900A70EE600A2069C2
:1043900000EE100A20EE800A10EE100AE06294F897
:1043A0006D0000F0040010B1204602F0BCF894F853
:1043B0006D0000F0200010B1204601F099FE94F845
:1043C0006D0000F0010010B1204601F033FF94F8B9
:1043D0006D0000F0020010B1204601F019FF94F8C2
:1043E0006D0000F0400010B1204601F0F9FEA06A17
:1043F00000EE100A206B00EE900A30EE200A10EE5C
:10440000100AA062606A00EE100AA06A00EE900A2C
:1044100070EE200AE06A00EE100A30EE800A10EE1C
:10442000100A606394F86D0000F0100010B120468F
:1044300001F066FF204601F07BFF204602F050F8B5
:104440006069A061606BA063E06AE063E06900E01E
:1044500004E02062606B00EE100A4DE79FED040A55
:1044600010EE100A6063606B00EE100A44E7000073
:104470000000000070B504460D461646054844F895
:10448000770F0548606054F8773932462946204650
:10449000984770BD39640008AD640008704770B576
:1044A0000446002600252068C06800F04000C8B916
:1044B0002068C06840F080002168C860FEF7FEFBFD
:1044C000064608E0FEF7FAFB801BB0F57A7F02D9BA
:1044D0000420607701252068C06800F0400008B91A
:1044E000012DEFD1284670BD70B504460025206827
:1044F000C06820F080002168C8602068806800F0F3
:10450000200030B92046FFF78FF910B10420607702
:104510000125284670BD000010B5494B1B685B693A
:1045200043F04003464C24686361454B1B685B695C
:1045300043F08003424C24686361414B1B68DB6895
:1045400043F010033E4C2468E3603E4B1B681B683D
:1045500023F001033B4C2468236007E0394B1B68C0
:104560001B6823F00103374C24682360354B1B681C
:104570001B6803F00103002BF0D1324B1B68324C57
:10458000A34205D94FF400132F4C4C3C23601BE091
:104590002C4B1B682D4CA34205D94FF400132A4C19
:1045A000503C236010E0274B1B68284C603CA34222
:1045B00005D94FF40013254CB83CE36004E04FF4F8
:1045C0000013224CB83CA360214B1E4C2468A3600E
:1045D000204B1C4C2468E3601A4C24682361194B5F
:1045E0001B685A60174B1B681B6843F48023154CEB
:1045F00024682360134B1B681B6843F00103114CB4
:1046000024682360144B1B681B6823F00103124CC1
:104610002468236007E0104B1B681B6823F001032C
:104620000D4C246823600C4B1B681B6803F00103CE
:10463000002BF0D1064B084C2468A36010BD00008D
:10464000380200208002002058640240B860024016
:104650000414014040030020E002002010B54FF494
:1046600000720649A1F50070FFF756FF4FF4806213
:104670000349044801F095FF10BD000040050020EB
:104680005807002040070020704707B52DED020BAA
:10469000BDF80C100180BDF81010418000994160F8
:1046A00005B000BD70B52DED088B04460025D4ED96
:1046B000100AF8EEE00AB0EE600AFDF7B4F9BDEEBC
:1046C000C00A10EE105AD4ED190AF8EEE00AB0EE66
:1046D000600AFDF7A8F9F0EE400A00EE105AB8EEB5
:1046E000C00AF4EEC00AF1EE10FA0BDDD4ED190A9F
:1046F000F8EEE00AB0EE600AFDF795F9BDEEC00AEB
:1047000010EE105AD4ED220AF8EEE00AB0EE600A7C
:10471000FDF789F9F0EE400A00EE105AB8EEC00A33
:10472000F4EEC00AF1EE10FA0BDDD4ED220AF8EE39
:10473000E00AB0EE600AFDF776F9BDEEC00A10EEB1
:10474000105AD4ED2B0AF8EEE00AB0EE600AFDF73D
:104750006AF9F0EE400A00EE105AB8EEC00AF4EE24
:10476000C00AF1EE10FA0BDDD4ED2B0AF8EEE00AE8
:10477000B0EE600AFDF757F9BDEEC00A10EE105A10
:10478000B5F5C87F68DD284602F09BFA41EC190BAD
:104790004FF4C872216C01FB02F002F092FA9FED17
:1047A000360B53EC102B02F0B7FA53EC192B02F036
:1047B00001F902F057FA2064284602F082FA41EC2F
:1047C000190B4FF4C872616E01FB02F002F079FA26
:1047D0009FED290B53EC102B02F09EFA53EC192B92
:1047E00002F0E8F802F03EFA6066284602F069FA44
:1047F00041EC190B4FF4C872D4F8881001FB02F099
:1048000002F05FFA9FED1C0B53EC102B02F084FAC0
:1048100053EC192B02F0CEF802F024FAC4F8880009
:10482000284602F04EFA41EC190B4FF4C872D4F846
:10483000AC1001FB02F002F044FA9FED0F0B53ECB9
:10484000102B02F069FA53EC192B02F0B3F802F0C6
:1048500009FAC4F8AC000BE0216C2164616E61665A
:10486000D4F88810C4F88810D4F8AC10C4F8AC1090
:10487000BDEC088B70BD0000000000000000F03FA0
:10488000F0EE400A20EEA01AB0EE410A704710B5D3
:10489000FEF71AFA10BD000000B593B0302107A84A
:1048A000FBF7AEFD142102A8FBF7AAFD00BF002014
:1048B00001902648006840F080502449086008466E
:1048C000006800F08050019000BF00BF00BF0020D2
:1048D00001901F48006840F480401D490860084668
:1048E000006800F48040019000BF00BF0A200790DC
:1048F00001200A9010200B9001200C9002200D90B6
:1049000000210E9108210F91A821109102211191EF
:104910000421129107A8FEF7C1FC08B1FDF780F849
:104920000F20029002200390002004904FF4A0502A
:1049300005904FF480500690052102A8FEF76EFB0B
:1049400008B1FDF76DF813B000BD0000403802401B
:10495000007000400348006840F47000014908609E
:104960007047000088ED00E010B50248FFF739F904
:1049700010BD0000A801002010B502682D4B984220
:104980000ED0B0F1804F0BD02B4B984208D02B4B60
:10499000984205D02A4B984202D02A4B984203D124
:1049A00022F070024B681A43224B984220D0B0F19B
:1049B000804F1DD0204B98421AD0204B984217D0E0
:1049C0001F4B984214D01F4B984211D01E4B984257
:1049D0000ED01E4B98420BD01D4B984208D01D4B59
:1049E000984205D01C4B984202D01C4B984203D1F0
:1049F00022F44072CB681A4322F080034C6943EAE8
:104A0000040202608B68C3620B688362094B9842A0
:104A100002D00C4B984201D10B690363012343611F
:104A2000036903F001031BB1036923F00103036170
:104A300010BD0000000001400004004000080040DC
:104A4000000C0040000401400040014000440140CF
:104A50000048014000180040001C004000200040B9
:104A600030B50C46816821F47F4142EA0325254395
:104A70002943816030BD0A46816821F0700142F00F
:104A8000070319438160704730B50B461446026A2C
:104A9000056A25F001050562816921F0F00141EA0E
:104AA000041122F00A021A438161026230BD30B55E
:104AB0000B461446026A056A25F0100505628169F5
:104AC00021F4704141EA043122F0A00242EA0312CB
:104AD0008161026230BD10B500F056FAFCF766FD48
:104AE000FCF72AFDFCF74CFEFFF7B8FD10BD01886E
:104AF000491C01800188B1F57A7F04DB0021018027
:104B00004188491C418001884288C2EB021201EBB6
:104B100082014160704700002DE9F84F044620688B
:104B2000006920F44050E168084321680861216968
:104B3000A068084361690843E16908430090206860
:104B4000C06849F20C618843009908432168C86035
:104B50002068406920F44070A169084321684861D9
:104B600076492068884203D075492068884203D17D
:104B7000FEF72CFB814602E0FEF718FB8146E06958
:104B8000B0F5004F6CD102206168A0FB01500346D4
:104B90001920A9FB007001462A463846FBF774FB32
:104BA0006421B0FBF1F04FEA001A02206168A0FB1B
:104BB00001510B461920A9FB00712A463846FBF724
:104BC00063FB834602206168A0FB01500346192065
:104BD000A9FB00712A463846FBF756FB6421B0FB5F
:104BE000F1F000EBC00101EB0010ABEB80003221D3
:104BF00001EBC0006421B0FBF1F000F0F8000AEB1B
:104C0000400A02206168A0FB015003461920A9FB5D
:104C1000007001462A463846FBF736FB83460220E1
:104C20006168A0FB015003461920A9FB00712A46C8
:104C30003846FBF729FB6421B0FBF1F000EBC00123
:104C400001EB0010ABEB8000322101EBC0006421CE
:104C5000B0FBF1F000F007005044216888606AE082
:104C600004206168A0FB015003461920A9FB0070D5
:104C700001462A463846FBF707FB82460420616856
:104C8000A0FB015003461920A9FB007001462A46EB
:104C90003846FBF7F9FA6421B0FBF1F000EBC001F4
:104CA00001EB0010AAEB8000322101EB001064211F
:104CB000B0FBF1F000F0F00A04206168A0FB017085
:104CC00003461920A9FB00513A462846FBF7DCFAB7
:104CD0006421B0FBF1F00AEB001A04206168A0FB2C
:104CE00001510B461920A9FB00712A463846FBF7F3
:104CF000CBFA834604206168A0FB015003461920CB
:104D0000A9FB007001462A463846FBF7BDFA64212C
:104D1000B0FBF1F000EBC00101EB0010ABEB800049
:104D2000322101EB00106421B0FBF1F000F00F0024
:104D3000504421688860BDE8F88F000000100140F1
:104D40000014014008B54448006800F01000002835
:104D500049D000BF002000904048006800680090E3
:104D60003E4800684068009000BF00BF3B48C06BF1
:104D70000068006800F40020B0BB3848C06B0068D1
:104D8000006820F001003549C96B096808603348A4
:104D9000C06B00684068C0F50070314908804FF46E
:104DA00000702E49C96B096848602C48C06B0068C8
:104DB000006840F400202949C96B09680860274849
:104DC000C06B0068006840F001002449C96B0968A5
:104DD0000860234802882349234801F0EDFB0120A5
:104DE000224981F8300036E0FFE71C48C06B0068BC
:104DF000006820F001001949C96B0968086017486C
:104E0000C06B00684068C0F50070154908804FF419
:104E100000701249C96B096848601048C06B00688F
:104E2000006820F400200D49C96B096808600B4830
:104E3000C06B0068006840F001000849C96B096850
:104E40000860074802880A49074801F0B5FB0120BD
:104E5000064981F8300008BD0014014038020020E6
:104E60001C0000204003002040070020580B0020B9
:104E70004005002000BFFEE770B505460C46002641
:104E80000DB1022C01D8002070BDA11E0948028876
:104E90002846FCF7A9FE0646F1B2A01E285C814216
:104EA00006D1601E285CB0EB162F01D10120EBE784
:104EB0000020E9E71400002070B505460C460026E6
:104EC0000DB1022C01D8002070BD611EFF222846C2
:104ED000FCF7A4FE0646601E285CB04201D101200A
:104EE000F2E70020F0E7000090ED0F0AD0ED190A7C
:104EF00080EE201A80ED171A05E0B0F85810491C12
:104F000009B2A0F8581090ED170AB0F9581000EE49
:104F1000901AF8EEE00A9FED1A1A00EEC10ADFEDD2
:104F2000180AB4EEE00AF1EE10FAE6DC05E0B0F89B
:104F30005810491E09B2A0F8581090ED170AB0F9A0
:104F4000581000EE901AF8EEE00A9FED0D1A00EEF0
:104F5000C10ADFED0C0AB4EEE00AF1EE10FAE6D376
:104F600090ED170AB0F9581000EE901AF8EEE00A2A
:104F70009FED031A00EEC10A80ED180A7047000089
:104F80000000B4430000B4C310B501210548017509
:104F9000B7EE000A80ED190A002203490348FFF723
:104FA00069FA10BDFC0C002020000020E30D002059
:104FB00003B401984100009850EAC12018BF0420B2
:104FC0004A0D18BF40F0010040F2FF72B2EB515F92
:104FD00008BF40F00200012808BF052002B070475A
:104FE00002480068C0F30220704700000CED00E0AA
:104FF00010B5002804DB0A07130E054A135406E017
:105000000A07140E034A00F00F031B1FD45410BDEF
:1050100000E400E018ED00E0EFF3108070470000BE
:1050200070B59B482DED020B2DED068B079D25F0ED
:105030000044A04218DC9748844202DC0AD106985A
:1050400040B19DED060BBDEC068B02B0BDE8704093
:1050500000F03ABF002DCCBF9FED8F0B9FED900B62
:10506000BDEC068B02B070BD8F48A04215DD8F48A5
:10507000A042D8BF4FF0FF3458DD9DED060B51EC38
:10508000100BFFF795FF042808BF00F041FF9DEDCE
:10509000060BBDEC068B02B070BD9DED060B51EC0E
:1050A000100B01F055FACDE9060181489FED828B86
:1050B000A0423CDD8248A0421FDD00249FED82AB70
:1050C0009DED060B53EC1A2B51EC100B01F0CAFBB3
:1050D0009DED060B41EC190B53EC1A2B51EC100B08
:1050E00001F01AFE53EC182B01F0ECFF53EC192BD6
:1050F00001F060FCCDE9060149E09DED060B0124BD
:1051000053EC182B51EC100B01F0ACFB9DED060B92
:1051100041EC190B53EC182B51EC100B01F0D2FFA2
:1051200053EC192B01F046FCCDE906012FE068484D
:10513000A0421FDD02249FED689B9DED060B53EC02
:10514000192B51EC100B01F0E7FD53EC182B01F07B
:1051500089FB9DED060B41EC180B53EC192B51EC20
:10516000100B01F0AFFF53EC182B01F023FCCDE93D
:1051700006010CE09DED060B032453EC102B9FED74
:10518000580B51EC100B01F015FCCDE906019DED1B
:10519000060B53EC102B51EC100B01F0BDFD41EC54
:1051A000180B53EC182B01F0B7FD41EC190B4E48CE
:1051B0000621B0EE490AF0EE690A784400F070FD6D
:1051C00053EC182B51EC100B01F0A6FD41EC180B21
:1051D0004648B0EE490AF0EE690A0521784400F02D
:1051E0005FFD53EC192B51EC100B01F095FD41ECD8
:1051F000100B51EC180B53EC102B002C0EDA01F0B5
:1052000031FB9DED061B53EC112B01F085FD9DED4F
:10521000061B53EC112B01F07DFE35E001F022FB63
:105220009DED061B53EC112B01F076FD41EC100BAC
:105230002F48784400EBC40090ED001B51EC100B9C
:1052400053EC112B01F03EFF9DED061B53EC112B8F
:1052500001F038FF41EC100B2648784400EBC40005
:1052600090ED001B51EC100B53EC112B01F052FE92
:1052700041EC100B002DA2BFBDEC068B02B070BD3F
:1052800051EC100B01F0B0FA41EC100B01E70000FB
:10529000000010440000F07F182D4454FB21F93F1A
:1052A000182D4454FB21F9BF0000DC3F0000203ED4
:1052B0000000F33F00000000000000000000F03F8D
:1052C0000000E63F00000000000000000000004079
:1052D0000080034000000000000000000000F83FD4
:1052E000000000000000F0BF5A250000102500005B
:1052F0009A2400005224000070B56B4E2DED040B73
:105300002DED028B82B0DDF81CC0DDE905235C4287
:105310002CF000411C4341EAD474049D22F000406B
:10532000B44205D86C422C4340EAD474B4420BD941
:105330009DED061B9DED040B02B0BDEC028B04B08D
:10534000BDE8704000F0CABDACF14054A4F17F64E8
:105350001C430BD0022404EAAC7444EAD274054323
:105360009FED538B9FED542B07D015E09DED040B63
:1053700051EC100B00F0DFFD42E0002C11BF012CBE
:105380009DED040B02B0BDEC028B04BF04B070BDF8
:10539000022C38D0032C3BD00B439FED491B9FEDD3
:1053A0004A0B0AD0B14218D1B04209D121F0804154
:1053B00020F08040079105900FE0002A15DA10E0F8
:1053C000434B7B44002C08BF93ED000B0DD0012C08
:1053D00010D0022C17D0032C1AD0B0421DD1002AB5
:1053E00003DAB0EE410AF0EE610A02B0BDEC028BC6
:1053F00004B070BD93ED000B51EC100B01F0F4F90B
:1054000041EC100BF1E7B0EE480AF0EE680AECE769
:10541000B0EE420AF0EE620AE7E7401A00153C28B7
:10542000C8BF8DED000B19DCBCF1000FBEBF10F141
:105430003C0F9FED290B8DED000B0FDB9DED060B57
:1054400053EC102B9DED040B51EC100B01F0B2FA54
:1054500001F07EF800F06FFDCDE90001002C08BFDF
:105460009DED000BC1D0012C10D0022C9FED1C0B28
:1054700053EC102B9DED000B51EC100B0DD001F0F7
:1054800021FE53EC182B01F01DFEB9E7019880F0C6
:10549000004001909DED000BA7E701F013FE53ECD7
:1054A000182B01F037FDABE70000F07F0000000093
:1054B000182D4454FB210940182D4454FB2109C0E8
:1054C000182D4454FB21F9BF182D4454FB21F93FFA
:1054D000B2230000000000000000000000000000F7
:1054E000075C143326A6A13C10B52F499FED2C1B59
:1054F0002DED020B84B0059820F000408842D8BF03
:105500009DED040B2DDD2949884209D1049840B94D
:105510004FF00100FAF7A3FF00F0EAFC06B010BD5F
:1055200005DB9DED040B00F0CFFC06B010BD684616
:105530009DED040B00F0E0F810F0030004BF9DEDBA
:10554000021B9DED000B0CD001280ED09DED021B1F
:105550009DED000B022817D0012000F01DFC06B0C5
:1055600010BD00F0E5FA06B010BD9DED021B9DEDEB
:10557000000B012000F010FC51EC100B01F034F98D
:1055800006B041EC100B10BD00F0D2FA51EC100B3C
:1055900001F02AF906B041EC100B10BD000000002C
:1055A0000000000000000000FB21E93F0000F07F48
:1055B00010B52F499FED2C1B2DED020B84B00598E3
:1055C00020F000408842DCBF00209DED040B32DD5E
:1055D0002849884209D1049840B94FF00100FAF7F0
:1055E0003EFF00F085FC06B010BD05DB9DED040B11
:1055F00000F06AFC06B010BD68469DED040B00F09B
:105600007BF810F0030011D0012818D09DED021B8B
:105610009DED000B02281AD000F08AFA51EC100B15
:1056200001F0E2F806B041EC100B10BD9DED021B3D
:105630009DED000B012000F0AFFB06B010BD9DED0D
:10564000021B9DED000B00F073FA06B010BD0120A7
:1056500000F0A2FB51EC100B01F0C6F806B041ECD3
:10566000100B10BD00000000000000000000000052
:10567000FB21E93F0000F07F00B52DED048BB0EE7B
:10568000409AF0EE609A83B051EC190B01F04EFC99
:1056900041EC180B18EE100A18EE901A8DED008BE5
:1056A000002818BF0120084320F00040C0F17F60AF
:1056B00000F1E040C00F14D019EE101A19EE900A54
:1056C0008DED009B002918BF0121084320F0004008
:1056D000C0F17F6000F1E040C00F04BF0120FAF785
:1056E000BEFEB0EE480A03B0F0EE680ABDEC048BD3
:1056F00000BD0000000000002DE9F14F04462DED33
:10570000020B2DED088B8AB09FEDE70B80ED020BAD
:10571000139EE74826F0004585420ADC9DED120BFA
:10572000002084ED000B0AB0BDEC088B03B0BDE88F
:10573000F08FE0489FEDE0AB9FEDE1BBA84247DD75
:10574000E14F9FEDE39B9FEDE48B9DED120B53EC3E
:105750001A2B51EC100B002E1CDD01F0B3FC41ECB8
:10576000100BBD4208D053EC1B2B51EC100B01F079
:10577000A9FCC4E900010BE053EC192B51EC100B10
:1057800001F0A0FC53EC182B01F09CFCC4E90001D3
:105790000120C8E701F066F841EC100BBD4208D0CB
:1057A00053EC1B2B51EC100B01F05CF8C4E9000129
:1057B0000BE053EC192B51EC100B01F053F853ECA8
:1057C000182B01F04FF8C4E900014FF0FF30AAE7B1
:1057D000C348A84279DB9DED120B51EC100B00F091
:1057E000B7FE41EC180B9FEDC00B53EC102B01F0F2
:1057F00093FA9FEDBF1B53EC112B01F033F801F02E
:1058000031FA074601F05DFA41EC190B53EC1A2B03
:1058100001F082FA53EC182B01F07CFB41EC180BE1
:1058200053EC1B2B51EC190B01F076FADFF8C8A2F0
:1058300041EC100B4FEA15580125FA4453EC102B9C
:1058400051EC180B01F03EFC032DC4E900013DD0E2
:10585000C1F30A5005EB4511A8EB00001139814254
:1058600034DA0AEB051BB0EE48AA9BED000BF0EE14
:1058700068AA53EC102B51EC190B01F04DFA41ECD6
:105880001B0B51EC1A0B53EC1B2B01F01BFC41ECD6
:10589000180B51EC1A0B53EC182B01F013FC53ECC2
:1058A0001B2B01F00FFC9BED020B41EC1A0B53EC90
:1058B000102B51EC190B01F02FFA53EC1A2B01F0BD
:1058C00001FC41EC100B6D1CB8E70EE0002EA8BFE8
:1058D0003846BFF628AF94ED000B51EC100B00F0EA
:1058E00083FFC4E9000178421DE7C6F3130040F4CA
:1058F000801EC6F30A50A0F2F530471100F01F05D4
:10590000C5F12000DDF848B008900020069007900F
:105910000520EC467949002D07EB0002794408BFC9
:1059200051F8221009D051F8223001EB8201AB402E
:105930004A68089922FA01F11943A1FB0E26A1FB3E
:105940000B131A449A4234BF0123002303EB0608C9
:105950000CEB8003D3E901A60E448E4234BF012133
:10596000002192448A4411B1924502D903E0924544
:1059700001D2012100E00021C3E901A641444CF815
:105980002010011EA0F10100C4DC029800F10050BB
:10599000850F0298DDE903678000DDF8148001F0CF
:1059A00090F941EC1A0B304601F0A2F99FED541B1F
:1059B00053EC112B01F0B0F941EC1B0B384601F010
:1059C00097F99FED511B53EC112B01F0A5F941EC18
:1059D000180B404601F08CF99FED4D1B53EC112B39
:1059E00001F09AF941EC190B51EC180B53EC192BFF
:1059F00000F038FF53EC1B2B00F034FF53EC1A2B54
:105A000000F030FFCDE90801002008909DED080B63
:105A100053EC1A2B51EC100B01F054FB53EC1B2BE5
:105A200001F050FB53EC182B01F04CFB53EC192BFD
:105A300001F070FA9FED381B53EC112B01F06CF95B
:105A40009FED370B41EC180B53EC102B9DED080B21
:105A500051EC100B01F060F953EC182B00F002FF31
:105A60009FED310B41EC180B53EC102B9DED080B07
:105A700051EC100B01F050F953EC182B00F0F2FE32
:105A800041EC100B139810F0004F06D06D4251EC12
:105A9000100B00F0A9FE41EC100B284684ED000B22
:105AA00041E60000000000000000000000000000CF
:105AB000FB21E93F7CD9024000004054FB21F93F23
:105AC0003163621A61B4D03DFB21F93F0000000050
:105AD0000000601A61B4D03D7370032E8A19A33B95
