:020000040800F2
:10000000901800209D010008ED630008875C00083F
:10001000E962000895180008D97A0008000000007D
:100020000000000000000000000000005968000807
:100030002F2B000800000000C9650008256F00088C
:10004000B7010008B7010008B7010008B7010008B0
:10005000B7010008B7010008B7010008B7010008A0
:10006000B7010008B7010008B7010008B701000890
:10007000B7010008B7010008B7010008B701000880
:10008000B7010008B7010008B701000831190008DE
:100090001119000821190008B7010008B70100086C
:1000A000B7010008B7010008B7010008B701000850
:1000B000057000081570000825700008B7010008D9
:1000C000B7010008B7010008B7010008B701000830
:1000D000B701000891790008B7010008B7010008CE
:1000E000B7010008B7010008B7010008B701000810
:1000F000B7010008B7010008B7010008B701000800
:10010000B7010008B7010008B7010008B7010008EF
:10011000B7010008B7010008B7010008B7010008DF
:10012000B7010008112A0008B7010008B70100084C
:10013000B7010008B7010008B7010008F11900086D
:10014000D1190008E1190008B7010008B70100083B
:10015000212A0008312A0008412A0008A179000854
:10016000B7010008B7010008B7010008B70100088F
:10017000B7010008B7010008B7010008000000003F
:10018000B7010008B7010008DFF80CD000F0D8FB79
:100190000048004745A50008901800200648804701
:1001A00006480047FEE7FEE7FEE7FEE7FEE7FEE75C
:1001B000FEE7FEE7FEE7FEE7E96F000889010008B9
:1001C0002DE9F05F0546002092469B46884606468C
:1001D000814640241BE0284641464746224600F01F
:1001E00090FA53465A46C01A914110D31146184608
:1001F000224600F077FA2D1A67EB01084F46224697
:100200000120002100F06EFA17EB00094E41201E7C
:10021000A4F10104DFDC484631462A464346BDE8E6
:10022000F09F40EA01039B0703D009E008C9121FB1
:1002300008C0042AFAD203E011F8013B00F8013BA0
:10024000521EF9D27047D2B201E000F8012B491ECC
:10025000FBD270470022F6E710B513460A46044663
:100260001946FFF7F0FF204610BD2DE9FE4F8046EE
:1002700081EA0300C00F0C46009021F0004123F0FA
:100280000045B8EB0200A94105D240462146904600
:100290001C460B46024623F00040104347D0270D72
:1002A000C7F30A00C3F30A510290401A0190402894
:1002B0006BDAC3F3130040F4801B0098924620B120
:1002C0000023D2EB030A63EB0B0B01985946C0F1F4
:1002D0004002504600F006FA06460D465046594682
:1002E000019A00F01EFA10EB08006141002487EA31
:1002F000115284EAE7731A4340D0009A62B3019A1C
:10030000012A4FEA075215DC001B61EB02014FF096
:10031000004202EA0752CDE90042001C41F580117B
:1003200032462B4600F055FA03B0BDE8F08F404648
:100330002146F9E7001B61EB0201001C41F5801327
:1003400000185B412018A2F5001747EB030140EAB3
:10035000D570B6196D4111E06D084FEA360645EAD1
:10036000C0754FEA0752001B61EB0201001C41F50A
:10037000801149084FEA30000019514132462B469E
:1003800003B0BDE8F04F00F015BA0098012240001C
:100390000023D0EB020263EBE073009821464FEAA2
:1003A000E074B8EB000061EB0401E9E783F000437F
:1003B0005BE781F0004158E72DE9FE4F81EA030435
:1003C00004F0004421F0004100944FF0000B23F0B2
:1003D000004350EA01045ED052EA03045BD0C3F349
:1003E0000A54C1F30A552C44A4F2F3340194A0FB3F
:1003F0000254C1F3130141F48011C3F3130343F416
:10040000801301FB024400FB034E840A970A44EA6E
:10041000815447EA8357A4FB076802958D0A05FBC0
:1004200007854FEA932C04FB0C542705029D4FEAE5
:10043000065847EA1637B5EB08056EEB070C870E32
:10044000920E47EA811742EA8312A7FB0201B6EB3C
:100450000B0164EB00042B0D43EA0C335E1844EBF4
:100460001C50DA465146E7FB0201C5F313044FEA7C
:100470000B3343EA14534FEA0432019C43EA060368
:10048000A4F10C040294009CCDE900B400F0A1F9A1
:1004900003B0BDE8F08F00200146F9E72DE9F04DEB
:1004A00081EA030404F0004B21F0004514464FF0AC
:1004B000000A23F0004150EA050220D054EA01026C
:1004C0001DD0C5F30A570246C5F31303C1F3130049
:1004D000C1F30A5640F4801543F48013A7EB0608D5
:1004E000101BD64608F2FD3873EB050002D308F165
:1004F000010801E092185B41B8F1000F03DA002017
:100500000146BDE8F08D00204FF480110646844678
:100510000EE0171B73EB050705D3121B63EB0503F6
:1005200006434CEA010C49084FEA300092185B413F
:1005300050EA0107EDD152EA030012D082EA04002A
:1005400083EA0501084305D0101BAB4106D2012206
:10055000002306E000224FF0004302E06FF00102AA
:1005600053101AEB06004CEB085110EB0A0041EB5C
:100570000B01BDE8F04D00F01DB90EB5C10F80EACA
:10058000E0700844CA07002140F233438DE80E00B2
:100590000A460B4600F01DF903B000BD0EB540F24F
:1005A000334102910021CDE900110A460B4600F0CB
:1005B00010F903B000BD70B5C1F30A5201F0004557
:1005C0000024C1F3130140F2FF3341F480119A4239
:1005D00001DA002070BD40F233439A42A2F2334266
:1005E00003DC524200F08DF800E090402C43F1D043
:1005F000404270BDC1F30A5210B5C1F3130140F27D
:10060000FF3341F480119A4201DA002010BD40F21C
:1006100033439A42A2F2334203DC524200F071F8B3
:1006200010BD904010BD00F0004230F000400AD0F4
:10063000C10D01F56071C0F3160042EA0151C20814
:1006400040071143704700200146704730B5041E33
:1006500071F1000404DB4FF00044404264EB0101FF
:10066000141E73F1000405DB1C464FF00043524298
:1006700063EB04038B4208BF824230BD30B5041ED9
:1006800071F1000404DB4FF00044404264EB0101CF
:10069000141E73F1000405DB1C464FF00043524268
:1006A00063EB0403994208BF904230BD01F0004360
:1006B00030B421F0004150EA010206D00A0DA2F543
:1006C0006072C1F31301002A02DC30BC00207047C5
:1006D000440F44EAC104C100E01830BC00EBC25032
:1006E00000F031B8202A04DB203A00FA02F10020A1
:1006F00070479140C2F1200320FA03F31943904060
:100700007047202A04DB203A21FA02F000217047CA
:1007100021FA02F3D040C2F1200291400843194669
:100720007047202A06DBCB17203A41FA02F043EA51
:10073000E07306E041FA02F3D040C2F1200291409A
:100740000843194670470029A8BF7047401C49005C
:1007500008BF20F00100704710B4B0FA80FC00FA26
:100760000CF050EA010404BF10BC704749B1CCF151
:10077000200421FA04F411FA0CF118BF01212143DD
:100780000843A3EB0C01CB1D4FEA00614FEA102098
:1007900042BF002010BC704700EBC350104400293A
:1007A000A4BF10BC7047401C490008BF20F00100E6
:1007B00010BC704710B5141E73F1000408DA401C19
:1007C00041F1000192185B411A4301D120F0010070
:1007D00010BD2DE9F04D92469B4611B1B1FA81F260
:1007E00002E0B0FA80F220329046FFF77BFF044629
:1007F0000F4640EA0A0041EA0B0153465A460843B5
:1008000013D0114653EA010019D0C8F140025046F6
:10081000FFF777FF05460E46504659464246FFF71A
:1008200061FF084305D0012004E020463946BDE8B9
:10083000F08D0020054346EAE0762C4337430A98C2
:100840006305E40AA0EB08000022FD0A44EA4754CD
:100850000A3002D500200146E9E701051019694177
:10086000DDE9084500196941BDE8F04DA2E770B522
:1008700021F0004303430CD0C1F30A550024D5EB0B
:10088000040564EB0403D617AD1AB34102DB002064
:10089000014670BD201841EB025170BD2DE9F04DAD
:1008A00000231A461B1A8A4103DB00200146BDE8DB
:1008B000F08DC1F30A52C1F3130141F480154FF0DA
:1008C000000BD10702D100186D41521E00270446CB
:1008D00040F2FF11384601EB620A3E46804602466E
:1008E00000204FF48011FFF70CFFC2197141BB18B3
:1008F00046EB0100B4EB030C75EB000C04D3E41AD7
:1009000065EB000517460E46241908F101006D41FC
:1009100080463428E3DDF91946EB0600091BA8419F
:1009200003D24FF0FF32134601E0002213461BEBC7
:10093000070046EB0A51BDE8F04DFFF73BBF000052
:10094000064C074D06E0E06840F0010394E807001C
:1009500098471034AC42F6D3FFF71AFC70AD00088C
:1009600090AD000870B58C1810F8015B15F0070306
:1009700001D110F8013B2A1106D110F8012B03E038
:1009800010F8016B01F8016B5B1EF9D12B0705D440
:100990000023521E0DD401F8013BFAE710F8013B89
:1009A000CB1A921C03E013F8015B01F8015B521EA5
:1009B000F9D5A142D8D3002070BD000001B598B090
:1009C0009FEDFE0B07F060F98DED040B9DED040B20
:1009D00007F0BEFB8DED080B189890ED070ADFEDD0
:1009E000F90A20EE200A8DED050A0598FFF71BFE97
:1009F000CDE906019DED080B53EC102B9DED060B88
:100A000051EC100BFFF74AFDCDE90A019DED0A0BF1
:100A100051EC100BFFF74AFE17909FEDE80B07F023
:100A200033F98DED040B9DED040B07F091FB8DED7B
:100A3000080B189890ED070ADFEDE20A20EE200A75
:100A40008DED050A0598FFF7EEFDCDE906019DED58
:100A5000080B53EC102B9DED060B51EC100BFFF720
:100A60001DFDCDE90A019DED0A0B51EC100BFFF7BE
:100A70001DFE16909FEDD10B07F006F98DED040BCE
:100A80009DED040B07F064FB8DED080B189890EDBD
:100A9000070ADFEDCC0A20EE200A8DED050A059845
:100AA000FFF7C1FDCDE906019DED080B53EC102BBE
:100AB0009DED060B51EC100BFFF7F0FCCDE90A01A0
:100AC0009DED0A0B51EC100BFFF7F0FD15909FED1B
:100AD000BB0B07F0D9F88DED040B9DED040B07F06F
:100AE00037FB8DED080B189890ED070ADFEDB50A7E
:100AF00020EE200A8DED050A0598FFF794FDCDE95B
:100B000006019DED080B53EC102B9DED060B51ECEF
:100B1000100BFFF7C3FCCDE90A019DED0A0B51EC68
:100B2000100BFFF7C3FD14909FEDA40B07F0ACF87A
:100B30008DED000B9DED000B07F00AFB8DED040B16
:100B40001798FFF770FDCDE902019DED040B53EC02
:100B5000102B9DED020B51EC100BFFF72DFCCDE996
:100B60000801189840690590FFF75DFDCDE9060181
:100B70009DED080B53EC102B9DED060B51EC100B6B
:100B8000FFF714FCCDE90A019DED0A0B51EC100BA7
:100B9000FFF78CFD13909FED890B07F075F88DED35
:100BA000000B9DED000B08F05FF98DED040B17981D
:100BB000FFF739FDCDE902019DED040B53EC102B3D
:100BC0009DED020B51EC100BFFF7F6FBCDE9080190
:100BD0001898C0680590FFF726FDCDE906019DED48
:100BE000080B53EC102B9DED060B51EC100BFFF78F
:100BF000DDFBCDE90A019DED0A0B51EC100BFFF76F
:100C000055FD12909FED6D0B07F03EF88DED000B3A
:100C10009DED000B07F09CFA8DED040B1698FFF785
:100C200002FDCDE902019DED040B53EC102B9DED6F
:100C3000020B51EC100BFFF7BFFBCDE90801189830
:100C400040690590FFF7EFFCCDE906019DED080B2B
:100C500053EC102B9DED060B51EC100BFFF705FB31
:100C6000CDE90A019DED0A0B51EC100BFFF71EFDBB
:100C700011909FED520B07F007F88DED000B9DEDE5
:100C8000000B08F0F1F88DED040B1698FFF7CBFC84
:100C9000CDE902019DED040B53EC102B9DED020BF1
:100CA00051EC100BFFF788FBCDE908011898C068DC
:100CB0000590FFF7B8FCCDE906019DED080B53EC5C
:100CC000102B9DED060B51EC100BFFF76FFBCDE9E0
:100CD0000A019DED0A0B51EC100BFFF7E7FC109099
:100CE0009FED360B06F0D0FF8DED000B9DED000B58
:100CF00007F02EFA8DED040B1598FFF794FCCDE963
:100D000002019DED040B53EC102B9DED020B51ECF9
:100D1000100BFFF751FBCDE90801189840690590C9
:100D2000FFF781FCCDE906019DED080B53EC102B7C
:100D30009DED060B51EC100BFFF797FACDE90A0178
:100D40009DED0A0B51EC100BFFF7B0FC0F909FEDDF
:100D50001B0B06F099FF8DED000B9DED000B08F0CD
:100D600083F88DED040B1598FFF75DFCCDE90201CA
:100D70009DED040B53EC102B9DED020B51EC100B71
:100D8000FFF71AFBCDE908011898C0680590FFF736
:100D90004AFCCDE906019DED080B53EC102B9DEDAF
:100DA000060B51EC100BFFF760FACDE90A019DED3F
:100DB0000A0B51EC100BFFF779FC05E00000002056
:100DC000D70CF03F33337F410E901FED040B06F03C
:100DD0005BFF8DED000B9DED000B07F0B9F98DED7C
:100DE000040B1498FFF71FFCCDE902019DED040BE5
:100DF00053EC102B9DED020B51EC100BFFF7DCFABE
:100E0000CDE90801189840690590FFF70CFCCDE981
:100E100006019DED080B53EC102B9DED060B51ECDC
:100E2000100BFFF7C3FACDE90A019DED0A0B51EC57
:100E3000100BFFF73BFC0D901FED200B06F024FF7D
:100E40008DED000B9DED000B08F00EF88DED040B01
:100E50001498FFF7E8FBCDE902019DED040B53EC7C
:100E6000102B9DED020B51EC100BFFF7A5FACDE90D
:100E700008011898C0680590FFF7D5FBCDE9060179
:100E80009DED080B53EC102B9DED060B51EC100B58
:100E9000FFF7EBF9CDE90A019DED0A0B51EC100BC0
:100EA000FFF704FC0C901298FFF7BDFBCDE902019F
:100EB0001398FFF7B8FBCDE900019DED021B9DEDF6
:100EC000000B05F013FA8DED040B9FEDD20B53ECE4
:100ED000102B9DED040B51EC100BFFF76DFA9FEDFD
:100EE000CF0B53EC102BCDE906019DED060B51EC19
:100EF000100BFFF7D3FA9FEDCB0B53EC102BCDE982
:100F000008019DED080B51EC100BFFF7C7FACDE976
:100F10000A019DED0A0B51EC100BFFF7C7FB0146D0
:100F2000189881621098FFF77EFBCDE902011198B5
:100F3000FFF779FBCDE900019DED021B9DED000B54
:100F400005F0D4F98DED040B9FEDB20B53EC102B93
:100F50009DED040B51EC100BFFF72EFA9FEDAF0B3C
:100F600053EC102BCDE906019DED060B51EC100B57
:100F7000FFF794FA9FEDAB0B53EC102BCDE9080172
:100F80009DED080B51EC100BFFF788FACDE90A0133
:100F90009DED0A0B51EC100BFFF788FB01461898EA
:100FA00081650E98FFF73FFBCDE902010F98FFF72F
:100FB0003AFBCDE900019DED021B9DED000B05F014
:100FC00095F98DED040B9FED930B53EC102B9DEDDC
:100FD000040B51EC100BFFF7EFF99FED900B53EC66
:100FE000102BCDE906019DED060B51EC100BFFF720
:100FF00055FA9FED8C0B53EC102BCDE908019DEDBC
:10100000080B51EC100BFFF749FACDE90A019DEDF1
:101010000A0B51EC100BFFF749FB01461898C0F87A
:1010200088100C98FFF7FFFACDE902010D98FFF741
:10103000FAFACDE900019DED021B9DED000B05F0D4
:1010400055F98DED040B9FED730B53EC102B9DEDBB
:10105000040B51EC100BFFF7AFF99FED700B53EC45
:10106000102BCDE906019DED060B51EC100BFFF79F
:1010700015FA9FED6C0B53EC102BCDE908019DED9B
:10108000080B51EC100BFFF709FACDE90A019DEDB1
:101090000A0B51EC100BFFF709FB01461898C0F83A
:1010A000B8109DED130A05F0EFFEF0EE401A9DED2D
:1010B000120A05F0E9FE31EE800A8DED070A079865
:1010C000FFF7B1FACDE908019DED080B07F030FFFD
:1010D0008DED0A0B9DED0A0B51EC100BFFF7E6FAB4
:1010E0000146189881639DED110A05F0CDFEF0EEE2
:1010F000401A9DED100A05F0C7FE31EE800A8DED15
:10110000070A0798FFF78FFACDE908019DED080B54
:1011100007F00EFF8DED0A0B9DED0A0B51EC100B45
:10112000FFF7C4FA0146189881669DED0F0A05F095
:10113000ABFEF0EE401A9DED0E0A05F0A5FE31EE75
:10114000800A8DED070A0798FFF76DFACDE90801CF
:101150009DED080B07F0ECFE8DED0A0B9DED0A0BE3
:1011600051EC100BFFF7A2FA01461898C0F898103E
:101170009DED0D0A05F088FEF0EE401A9DED0C0A7B
:1011800005F082FE31EE800A8DED070A0798FFF721
:101190004AFACDE908019DED080B07F0C9FE8DED77
:1011A0000A0B9DED0A0B51EC100BFFF77FFA01467D
:1011B0001898C0F8C810189890ED0E0AB1EE400AC1
:1011C000DFED1A0A20EE200A80ED0F0A189890ED44
:1011D0001A0AF1EE400A9FED150A20EE800A80ED12
:1011E0001B0A189890ED260AB1EE400ADFED0F0AAF
:1011F00020EE200A80ED270A189890ED320AB1EE11
:10120000400ADFED0A0A20EE200A80ED330A19B009
:1012100000BD00000000000000FFBF400000008093
:10122000FB21094000000000000000404276F43F2E
:1012300010B52DED0E8BB0EE408AF0EE608AB0EE68
:1012400041EA18EE100AFFF7EEF941EC1C0B18EE1C
:10125000900AFFF7E8F941EC1D0BB0EE4C1AF0EEE6
:101260006C1AB0EE4D0AF0EE6D0A06F079FEB0EEA3
:1012700040BAF0EE60BA51EC1B0B81F0004141EC3A
:101280001A0B9FED090B53EC102BFFF707F941ECFC
:10129000190BFFF70BFA06490860084690ED000AA3
:1012A000BDEC0E8B10BD00006F1283C0CA21094037
:1012B000A000002090ED0B0A80ED0C0A90ED170ABB
:1012C00080ED180A90ED230A80ED240A90ED2F0A94
:1012D00080ED300A90ED0A0ADFED740A30EE600A04
:1012E00080ED0B0A90ED160ADFED700A30EE600A11
:1012F00080ED170A90ED220ADFED6C0A30EE600AED
:1013000080ED230A90ED2E0ADFED680A30EE600AC8
:1013100080ED2F0A017A79B19FED650A80ED0B0A05
:101320009FED640A80ED170A9FED630A80ED230AA2
:101330009FED620A80ED2F0A90ED0B0ADFED600A47
:10134000B4EEE00AF1EE10FA07DD90ED0B0ADFEDE6
:101350005C0A30EE600A80ED0B0A90ED0B0AB5EEE8
:10136000C00AF1EE10FA07D290ED0B0ADFED540A35
:1013700030EE200A80ED0B0A90ED170ADFED500ADF
:10138000B4EEE00AF1EE10FA07DD90ED170ADFED9A
:101390004C0A30EE600A80ED170A90ED170AB5EEA0
:1013A000C00AF1EE10FA07D290ED170ADFED440AF9
:1013B00030EE200A80ED170A90ED230ADFED400A97
:1013C000B4EEE00AF1EE10FA07DD90ED230ADFED4E
:1013D0003C0A30EE600A80ED230A90ED230AB5EE58
:1013E000C00AF1EE10FA07D290ED230ADFED340ABD
:1013F00030EE200A80ED230A90ED2F0ADFED300A4F
:10140000B4EEE00AF1EE10FA07DD90ED2F0ADFED01
:101410002C0A30EE600A80ED2F0A90ED2F0AB5EE0F
:10142000C00AF1EE10FA07D290ED2F0ADFED240A80
:1014300030EE200A80ED2F0A90ED0F0ABDEEC00AB3
:10144000B8EEC00AF7EE000A20EE200ABDEEC00A90
:1014500080ED100A90ED1B0ABDEEC00AB8EEC00A7E
:10146000F7EE000A20EE200ABDEEC00A80ED1C0A4D
:1014700090ED270ABDEEC00AB8EEC00AF7EE000AEA
:1014800020EE200ABDEEC00A80ED280A90ED330A56
:10149000BDEEC00AB8EEC00AF7EE000A20EE200A40
:1014A000BDEEC00A80ED340A7047000000F8FF442A
:1014B00000F8DF4500F89F4500F03F4500C07F443D
:1014C00000F8FF4570B504460C2094FBF0F100FBDA
:1014D0001140002863D1D348007858B3D14890F820
:1014E0004500012811D10021CE4880F84510014661
:1014F00091F844000122002101F01AFB054608235F
:10150000C94A2946C94800F029FBC948D0ED080A54
:10151000B0EE600AC348B0F8400002B2C148D0ED56
:101520000B0AFDEEE00A10EE900A01B2BE4805F08B
:10153000FBF926E0BB4890F8450088B90121B9487D
:1015400080F84510014691F844000022114601F050
:10155000EFFA05460823B44A2946B44800F0FEFADB
:10156000B348D0ED080AB0EE600AAE48D0ED0B0AE1
:10157000FDEEE00A10EE900A01B20022AA4805F042
:10158000D3F9A84991F844000322002101F0D0FAD0
:1015900005460823A44A2946A44800F0DFFA0C2097
:1015A00094FBF0F100FB1140032863D19D480078C3
:1015B00058B39C4890F87500012811D10021994832
:1015C00080F87510014691F874000122002101F0A5
:1015D000AFFA05460823974A2946944800F0BEFA18
:1015E0009348D0ED090AB0EE600A8E48B0F870005A
:1015F00002B28C48D0ED170AFDEEE00A10EE900A18
:1016000001B28C4805F090F926E0864890F8750004
:1016100088B90121834880F87510014691F874005B
:101620000022114601F084FA054608237E4A294625
:101630007E4800F093FA7E48D0ED090AB0EE600AC9
:101640007848D0ED170AFDEEE00A10EE900A01B2DC
:101650000022784805F068F9724991F87400032275
:10166000002101F065FA05460823724A29466F48B1
:1016700000F074FA0C2094FBF0F100FB11400628F6
:1016800063D16848007858B3664890F8A5000128EF
:1016900011D10021634880F8A510014691F8A400FB
:1016A0000122002101F044FA05460823614A294637
:1016B0005E4800F053FA5E48D0ED0A0AB0EE600AC8
:1016C0005848B0F8A00002B25648D0ED230AFDEE0B
:1016D000E00A10EE900A01B2574805F025F926E01D
:1016E000504890F8A50088B901214E4880F8A5100F
:1016F000014691F8A4000022114601F019FA0546AE
:101700000823494A2946494800F028FA4848D0EDBC
:101710000A0AB0EE600A4348D0ED230AFDEEE00A63
:1017200010EE900A01B20022434805F0FDF83D4951
:1017300091F8A4000322002101F0FAF905460823DC
:101740003D4A2946394800F009FA0C2094FBF0F193
:1017500000FB1140092863D13248007858B3314862
:1017600090F8D500012811D100212E4880F8D5101D
:10177000014691F8D4000122002101F0D9F9054673
:1017800008232C4A2946294800F0E8F92848D0EDDA
:101790000B0AB0EE600A2348B0F8D00002B221482C
:1017A000D0ED2F0AFDEEE00A10EE900A01B22348B8
:1017B00005F0BAF826E01B4890F8D50088B9012159
:1017C000184880F8D510014691F8D400002211463F
:1017D00001F0AEF905460823134A2946134800F0E4
:1017E000BDF91348D0ED0B0AB0EE600A0D48D0EDFC
:1017F0002F0AFDEEE00A10EE900A01B200220F4817
:1018000005F092F8074991F8D4000322002101F075
:101810008FF905460823094A2946044800F09EF935
:1018200070BD00002410002040020020780200203B
:10183000F40E002048020020500200205802002030
:1018400070B505460C4600260DB1022C00D870BDBF
:10185000A11E06480288284601F0DCFA0646A01EB2
:101860002E54310A601E295400BFF0E714000020F6
:1018700070B505460C4600260DB1022C00D870BD8F
:10188000611EFF22284601F0DFFA0646601E2E5434
:1018900000BFF4E700BFFEE71B49896C491C1A4AE8
:1018A000916400BF00BF01791A2906D01B290DD011
:1018B0001C2914D01D2924D11AE01449C2690A61D7
:1018C000097B41F00101114A11731AE00F49C26905
:1018D0004A61097B41F002010C4A117311E00B4986
:1018E000C2698A61097B41F00401084A117308E06A
:1018F0000649C269CA61097B41F00801034A1173B4
:1019000000BF00BF7047000024100020F40E00202C
:1019100010B5024801F051FD10BD00007802002012
:1019200010B5024801F049FD10BD0000780200200A
:1019300010B5024801F041FD10BD00007802002002
:1019400010B50446206867281BD0B0F5A87F06D0E4
:10195000B0F5A97F09D0A0F2062060BB0BE004F12E
:101960001C01174800F098FF25E004F11C01144801
:1019700000F03EFE1FE004F11C01124801F086F960
:1019800019E01148E169C0F8E810216AC0F8EC10CC
:101990000E48008800EE100AB8EE400A0A4880EDB2
:1019A0003D0A0A48408800EE100AB8EE400A064890
:1019B00080ED3C0A00BF00BF00BF00BF10BD0000AB
:1019C000841200201C110020241000206C02002032
:1019D00010B5024801F0F1FC10BD0000A00200208B
:1019E00010B5024801F0E9FC10BD0000A002002083
:1019F00010B5024801F0E1FC10BD0000A00200207B
:101A000008B5002000900E4890ED080ABCEEC00A10
:101A100010EE100A80B200900A480949498B0180F3
:101A20000749498941800649C98B8180BDF800106A
:101A3000C1800548024991F82410017008BD0000DA
:101A4000300E0020F0010020E001002030B58BB006
:101A500004460D460120069000200190029003905C
:101A600004900790012009900890002005902D49CE
:101A7000206888421DD12C48046085620E200A909F
:101A8000FF231A220221204608F01AFAFF231B2204
:101A90000A21204608F014FAFF231C2216212046B2
:101AA00008F00EFAFF231D221E21204608F008FA36
:101AB00026E01E492068884222D11D4804608562C4
:101AC0000F200A9040F2FF7340F206227821204650
:101AD00008F0F6F940F2FF734FF4A8728421204613
:101AE00008F0EEF940F2FF734FF4A9728C21204602
:101AF00008F0E6F9FF2367229421204608F0E0F978
:101B000001A9204601F0FCFA204601F064FF022101
:101B1000204601F03BFA1021204601F037FA0BB0C5
:101B200030BD000000640040341400200068004014
:101B300060140020F0B587B006460C4617461D46D7
:101B40000194002002900390049005956B463A465C
:101B500001A9304601F02FFA07B0F0BDF0B587B00B
:101B600006460C4617461D460294002001900420AC
:101B700003900020049005956B463A4601A9304633
:101B800001F019FA07B0F0BD10B504490448FFF799
:101B90005DFF04490448FFF759FF10BD991800087C
:101BA0007802002041190008A002002070B52DED38
:101BB000068B86B0B0EE40AA0446E4B34448062142
:101BC000A223CDE90131CDE903104FF4B4606C23B9
:101BD0004FF4F07201210090002004F0D5FD05467D
:101BE0000F2229463B48FEF71CFB3B4802211B22E3
:101BF0008723CDE90132CDE903104FF4B4604FF4EF
:101C0000F07201210090002004F0CEF805460F226A
:101C1000294630480F30FEF704FB1E2000902F4865
:101C2000807800F580722D4881782A4B4FF48170BE
:101C300004F014FE48E0FFE7294890ED3B0A10EE5F
:101C4000101A0846FEF7EFFC41EC190B9FED250B2F
:101C500053EC102BFEF7B0FB41EC180BFEF726FD02
:101C60002249086008460068FEF7DDFC41EC190BCC
:101C70009FED1F0B53EC102BFEF7F7FA41EC180BFE
:101C8000FEF7B8FC86B2144802211B228723CDE957
:101C90000063CDE9022104904FF4F072002004F0BB
:101CA00083F805460F2229460A48FEF7BAFA0F20A4
:101CB00000900A48807800F5807208488178054BCA
:101CC0004FF4817004F0CAFD06B0BDEC068B70BD08
:101CD000360100205C1300203A010020300E002065
:101CE000241000200000000000008E40D4000020DE
:101CF0000000000000007E4030B52DED028B85B065
:101D0000B0EE408A04460CB9022000E001201649DA
:101D100008701648032102220423CDE90132CDE9DF
:101D200003101E20B0EE480A6C2340F28A32009065
:101D30000D480178002000F007FF05460F222946D4
:101D40000B48FEF76EFA0F2000900A48807800F5E5
:101D5000807208488178064B40F2011004F07EFD45
:101D600005B0BDEC028B30BD720100206E01002079
:101D70005C130020300E002001B5B6B0F6A103C9F7
:101D8000CDE93401F6A103C9CDE93201F6A103C9B9
:101D9000CDE93001F6A2D2E900109268CDE92E0219
:101DA0002D91F6A103C9CDE92B01F6A103C9CDE917
:101DB0002901F6A000682890F5A103C9CDE9260104
:101DC000F5A103C9CDE92401F0A000682390F4A097
:101DD00000682290F3A103C9CDE92001F3A103C952
:101DE000CDE91E01F3A103C9CDE91C01F3A103C98B
:101DF000CDE91A01F3A103C9CDE91801F3A103C983
:101E0000CDE91601F3A103C9CDE91401D4A103C999
:101E1000CDE91201F1A103C9CDE91001F1A103C976
:101E2000CDE90E01F1A103C9CDE90C01D7A00068ED
:101E30000B90F0A103C9CDE90901F0A207CA06ABD6
:101E400007C3369890B109A8EF4902220292CDE962
:101E50000321059005201E214B2340F28A32CDE953
:101E600000100121002000F0D9FA2DE0E748407968
:101E700010B1012827D113E023A8E3490622022349
:101E8000CDE90232CDE9041004201E214B2340F29B
:101E90008A32CDE900100221002000F0BFFA12E0E2
:101EA00022A8D94902220292CDE9032105900320FC
:101EB0001E214B2340F28A32CDE90010022100207E
:101EC00000F0ACFA00BF00BF369898B109A8D0491D
:101ED00002220292CDE9032105900720142140F24D
:101EE00052234FF4D862CDE900100121002000F008
:101EF00095FA62E0C548C07BC0B1012802D0022833
:101F00005AD128E034A8C24902220292CDE9032125
:101F100005900720142140F252234FF4D862CDE9F6
:101F200000100221002000F079FA45E02DA8B84900
:101F300005220223CDE90232CDE904100A20142142
:101F400040F252234FF4D862CDE900100221002064
:101F500000F064FA30E0AD48407B042813D132A889
:101F6000AB4906220223CDE90232CDE90410052057
:101F7000142140F252234FF4D862CDE9001002211F
:101F8000002000F04BFAA148407B052813D130A86F
:101F90009F4907220223CDE90232CDE90410062031
:101FA000142140F252234FF4D862CDE900100221EF
:101FB000002000F033FA00BF00BF3698A0B109A896
:101FC000944905220223CDE90232CDE90410042010
:101FD00014214FF4BD734FF4D862CDE900100121F4
:101FE000002000F01BFA46E08848407A20B1012822
:101FF00016D002283ED128E028A886490222029263
:10200000CDE903210590042014214FF407734FF408
:10201000D862CDE900100221002000F0FFF929E08C
:1020200026A87C4905220223CDE90232CDE904101D
:10203000072014214FF407734FF4D862CDE9001044
:102040000221002000F0EAF900BF24A8714905220E
:102050000223CDE90232CDE90410062014214FF409
:1020600007734FF4D862CDE900100221002000F080
:10207000D5F900BF00BF369898B109A86649052276
:102080000223CDE90232CDE9041014214FF4F37399
:10209000CDE900124FF4D8620121002000F0BEF912
:1020A000F9E05A48C07A072855D2DFE800F0DF048B
:1020B000182C40B7CB001EA8574902220292CDE946
:1020C00003210590052014214FF4F3734FF4D862D7
:1020D000CDE900100221002000F0A0F9DAE01CA8F0
:1020E0004D4902220292CDE90321059005201421D9
:1020F0004FF4F3734FF4D862CDE9001002210020B1
:1021000000F08CF9C6E01AA8434902220292CDE9F8
:1021100003210590052014214FF4F3734FF4D86286
:10212000CDE900100221002000F078F9B2E018A8F3
:10213000394902220292CDE903210590052014219C
:102140004FF4F3734FF4D862CDE900100221002060
:1021500000F064F99EE089E04E4F524D414C000082
:102160004155544F000000004155544F46000000B7
:10217000504F574552444F574E0000004249474286
:1021800055460000534D4C42554600004F46460010
:1021900053696E676C6500004D756C7469000000D2
:1021A0004F4E00004C4F53540000000049445F3133
:1021B0000000000049445F320000000049445F33E2
:1021C0000000000049445F340000000049445F35CE
:1021D0000000000053656E74727900004D414E5549
:1021E000414C00005350494E00000000464F4C4CFB
:1021F0004F570000494E4954000000004A414D4DE0
:10220000494E4721212100003D0100208412002079
:1022100041010020450100204901002016A84B493A
:1022200002220292CDE903210590052014214FF4EA
:10223000F3734FF4D862CDE900100221002000F0C2
:10224000EDF827E014A8414902220292CDE90321CA
:102250000590072014214FF4F3734FF4D862CDE9B1
:1022600000100221002000F0D9F813E020A837491F
:1022700005220223CDE90232CDE9041014214FF4E6
:10228000F373CDE900124FF4D8620221002000F070
:10229000C5F800BF00BF369890B109A82C490222AA
:1022A0000292CDE903210590072014214FF4D87341
:1022B0009A00CDE900100121002000F0AFF842E0C3
:1022C0002448007820B1012816D002283AD126E00F
:1022D0000BA81F4906220223CDE90232CDE90410E2
:1022E000052014214FF4D8739A00CDE90010022183
:1022F000002000F093F825E00CA815490222029274
:10230000CDE903210590072014214FF4D8739A00DA
:10231000CDE900100221002000F080F812E00EA8A4
:102320000B4902220292CDE90321059007201421D6
:102330004FF4D8739A00CDE900100221002000F07C
:102340006DF800BF00BF37B000BD0000490100209C
:102350004D010020841200202DE9F0470446DDE9FC
:10236000097CDDE90B58089E2A48B8F80090A0F8CF
:10237000009098F8029080F80290B0F8030064F39F
:102380008910DFF89090A9F803004846C07861F3FF
:10239000020089F803004846C07820F03800383041
:1023A00089F803004846007965F3850089F8040040
:1023B0004846008962F38C00A9F808004846B0F846
:1023C000090063F34F10A9F809004846808866F3B6
:1023D0008E10A9F804004846B0F8050067F3CF1046
:1023E000A9F805004846B0F807006CF30900A9F801
:1023F00007000F2009E04FF00009DFF81CA00AF8E1
:10240000009000F1010909F0FF002D28F3DB0148DD
:10241000BDE8F087C51300205C1300202DE9F04FC4
:1024200087B00D4616461F4611AC94E8100EDDF835
:1024300040803B46324629460020CDE903ABCDE93A
:102440000149CDF80080FFF787FF06900F220F4863
:102450000699FDF7E6FE1E210C480F30FDF7FAFE47
:1024600022460A480F301599FDF7DBFE2D2000901B
:102470000748807800F5807205488178034B4FF457
:10248000887004F0EBF907B0BDE8F08F5C13002012
:10249000300E002000B595B041A2D2E9001092683C
:1024A000CDE91302129112A8404901220223CDE97D
:1024B0000232CDE904100920142140F252234FF4D6
:1024C000C062CDE9001001210020FFF7A7FF38A26C
:1024D00007CA0FAB07C30FA8384901220223CDE971
:1024E0000232CDE904100B2014214FF407734FF48E
:1024F000C062CDE9001001210020FFF78FFF30A15D
:1025000003C9CDE90D010DA82F4901220223CDE910
:102510000232CDE90410082014214FF4F3734FF474
:10252000C062CDE9001001210020FFF777FF27A24C
:10253000D2E900109268CDE90B020A910AA8264957
:1025400001220223CDE90232CDE904100A20142130
:102550004FF4D8734FF4C062CDE900100121002080
:10256000FFF75CFF1DA090E80E00C068CDE90723CF
:102570000691099006A81D4901220223CDE90232E5
:10258000CDE904100D201E214B234FF44072CDE9FC
:10259000001001210020FFF741FF15B000BD000031
:1025A00047494D42414C203A0000000055010020AF
:1025B0004652494354494F4E203A000059010020E9
:1025C00041524D4F52203A005D0100204348415393
:1025D000534953203A000000650100204341502038
:1025E0003A2020202020202000000000610100204F
:1025F0000122C2700A780270002242704A78427347
:102600008A784271CA7842720A79C2734A79C27270
:102610008A794274CA79C271704742788270C278EE
:102620000271427A8272C27A0273C2790272704770
:1026300010B50120174908704870087288729FED24
:10264000160A084680ED010A41F6D351416340F66F
:102650000D21416640F2AF71C0F8941041F2E35190
:10266000C0F8C4101A2180F844101B2180F874109F
:102670001C2180F8A4101D2180F8D41000220749E5
:10268000074803F08DFF00220649074803F088FF42
:1026900010BD000024100020000000004C000020AD
:1026A000240F002074000020A30F002000B5304844
:1026B000407808B1012000E000202E4948702C48E5
:1026C000C07808B1012000E000202A49487208467D
:1026D0004078012825D12648B0F91A00404200EE82
:1026E000100AB8EEC00A084680ED040A2048B0F986
:1026F0001C00404200EE100AB8EEC00A084680ED09
:10270000060A1B48B0F91E00404200EE100AB8EE5F
:10271000C00AF2EE040A80EE201A084680ED081A7C
:1027200021E01348B0F91A0000EE100AB8EEC00A12
:10273000104880ED040A0E48B0F91C0000EE100AA3
:10274000B8EEC00A0B4880ED060A0948B0F91E0031
:1027500000EE100AB8EEC00AF2EE040A80EE201A6B
:10276000044880ED081A034800F0D8F800BD0000C6
:10277000841200202410002010B534480078344919
:1027800008700846007805285DD2DFE800F00312E3
:102790002842040000BF9FED2F0A2D4880ED030A58
:1027A0009FED2C0A80ED050A9FED2A0A80ED070AAD
:1027B00049E02748407A01280BD107F0B9FB2448AB
:1027C000D0ED070AB7EE001A41EE400AC0ED070A45
:1027D00004E09FED200A1E4880ED070A33E01C4804
:1027E00090ED030AB5EEC00AF1EE10FA0BD190EDB0
:1027F000050AB5EEC00AF1EE10FA04D1B3EE080AEC
:1028000080ED070A04E0B2EE080A114880ED070ADD
:1028100019E00F4890ED030AB5EEC00AF1EE10FA88
:102820000BD190ED050AB5EEC00AF1EE10FA04D115
:10283000BBEE080A80ED070A04E0BAEE080A044875
:1028400080ED070A00BF00BF10BD00008412002009
:10285000241000200000000010B5FFF727FF00F053
:1028600005FBFFF789FF024800F01EF810BD0000CD
:1028700024100020002007E09FED050A054901EB28
:10288000800181ED000A401C0428F5DB7047000040
:1028900000007042140F00200A8842834A88828315
:1028A0008A88C2837047000010B50446D4ED011A2F
:1028B000B0EE611AD4ED031AF0EE610AD4ED031AFA
:1028C000B0EE610AFEF7B4FC134880ED000A94ED07
:1028D000030AB5EEC00AF1EE10FA10D194ED050A24
:1028E000B5EEC00AF1EE10FA09D194ED070AB5EE83
:1028F000C00AF1EE10FA02D10120207201E000209E
:1029000020722046FEF75AF82046FEF7D3FC2046F8
:1029100004F0CCF910BD0000A4000020817A002949
:1029200064D090ED040AD0ED030A30EE600ADFEDCA
:10293000360AB4EEE00AF1EE10FA08DD90ED030A73
:10294000DFED310A30EE200A80ED030A19E090ED48
:10295000040AD0ED030A30EE600ADFED2C0AB4EE73
:10296000E00AF1EE10FA08D290ED030ADFED260A34
:1029700030EE600A80ED030A03E090ED040A80ED7A
:10298000030A90ED060AD0ED050A30EE600ADFED8D
:102990001E0AB4EEE00AF1EE10FA08DD90ED050A29
:1029A000DFED190A30EE200A80ED050A19E090EDFE
:1029B000060AD0ED050A30EE600ADFED140AB4EE27
:1029C000E00AF1EE10FA08D290ED050ADFED0E0AEA
:1029D00030EE600A80ED050A03E090ED060A80ED16
:1029E000050A90ED080A80ED070A0BE090ED080A51
:1029F00080ED070A90ED040A80ED030A90ED060AC7
:102A000080ED050A7047000000002042000020C24F
:102A100010B5024801F080F810BD0000B805002094
:102A200010B5024801F078F810BD000098040020AD
:102A300010B5024801F070F810BD000058050020E4
:102A400010B5024801F068F810BD0000F80400203D
:102A50000146087810381823B0FBF3F20848805C70
:102A6000C865032A05D908686FF30900001D886549
:102A700003E008686FF309008865886D70470000FF
:102A800002A80008014600208A6A8B69CBB932B1DE
:102A9000012A0DD0022A03D0032A10D10EE000BF74
:102AA000CB6A03F08073B3F1807F00D1012007E08F
:102AB000CB6AB3F1C07F00D1012001E000E000BF8C
:102AC00034E08B69B3F5005F1AD132B1012A07D027
:102AD000022A03D0032A11D10AE000BF01200EE030
:102AE000CB6A03F08073B3F1807F00D1012006E050
:102AF000CB6AB3F1C07F00D1012000E000BF15E038
:102B000032B1012A05D0022A04D0032A0CD103E0F5
:102B100000BF00BF012008E0CB6A03F08073B3F16F
:102B2000807F00D1012000E000BF00BF70477047E8
:102B300010B50346140644EA012444EA030010BD1C
:102B400072B600BFFEE700002DE9F0430446DDE960
:102B5000087CDDE90A58079EDFED3A0A60EE200A9C
:102B6000FDEEE00A3848C0ED000A3848B8F8009099
:102B7000A0F8009098F8029080F80290B0F8030056
:102B800064F38910DFF8C490A9F803004846C078C0
:102B900061F3020089F803004846C07820F038004D
:102BA000283089F803004846B0F807006CF30900A4
:102BB000A9F807004846007965F3850089F8040004
:102BC0004846008962F38C00A9F808004846B0F82E
:102BD000090063F34F10A9F809004846808866F39E
:102BE0008E10A9F804004846B0F8050067F3CF102E
:102BF000A9F8050014480088B9F80B9060F309099A
:102C00001248A0F80B90104800684FEA90290F482E
:102C1000808969F38C00DFF83490A9F80C000A4829
:102C2000006840F2FF7909EA60590848B0F80D00E1
:102C300069F34F10DFF81490A9F80D004846BDE87D
:102C4000F083000000007A44EC000020D413002040
:102C5000F0EE400AF5EEC00AF1EE10FA02D2B1EE43
:102C6000600A7047B0EE600AFBE7000000EE100A51
:102C7000B8EEC00A9FED041AC0EE010AB0EE080AD1
:102C800020EE800A7047000000F8FF454A780B7874
:102C900042EA032213B20381CA788B7842EA032204
:102CA00013B283804A790B7942EA032212B242803E
:102CB0008B79C3807047000000EE100AB8EE400A1E
:102CC0009FED041AC0EE010A9FED030A20EE800A70
:102CD0007047000000F8FF450000B44300EE100A02
:102CE000B8EE400A9FED061AC0EE010AB0EE000AE7
:102CF00020EE800ADFED030A20EE200A7047000074
:102D000000F8FF45DC0F494000B50146B1F902006B
:102D1000FFF7ACFF81ED060A91ED060AD1ED040A3A
:102D200020EE200A81ED070ACA884A848A880A842C
:102D30008A8CCA8408898884888CFFF7BDFF81ED5E
:102D40000B0A888CFFF7CAFF81ED0A0ACA8C888CAF
:102D5000101AB0F5805F03DD088E401C02B20A86AF
:102D6000CA8C888C101A10F5805F03DA088E401E1A
:102D700002B20A864A6B0A6491ED0E0A81ED110ACD
:102D800091ED0F0A81ED120AB1F93000C0EB40322B
:102D9000888C02444C20405A121A4A6391ED0B0A67
:102DA000B1F9300000EE900AF8EEE00A9FED171A34
:102DB00000EE810AD1ED150A30EE600A81ED0F0AAE
:102DC00091ED0A0AB1F9300000EE900AF8EEE00A3F
:102DD000B0EE001A60EE810A9FED0D1A00EE810A36
:102DE000D1ED140A30EE600A81ED0E0A087D58B963
:102DF000888E82B24C20425291ED0F0A81ED150A65
:102E000091ED0E0A81ED140A00BD00000000B443EC
:102E1000DC0F494030B5034613B94FF6FF7030BDA3
:102E200009E013F8014B82EA0400C0B2054D35F801
:102E3000100080EA2222081EA1F10101F1D1104602
:102E4000EDE7000024A9000830B5034605E013F8BB
:102E5000010B80EA02040448025D081EA1F1010191
:102E6000F5D1104630BD000023A800082148407A63
:102E7000012839D1204890ED180A1E48407801EE0B
:102E8000100AF8EE411A9FED1D1A9FED1D2AF0EE73
:102E9000410A42EE210A30EEC01A164880ED011AAE
:102EA00090ED011ADFED161AB4EEE11AF1EE10FA08
:102EB00007DD90ED011ADFED131A31EE611A80ED96
:102EC000011A0C4890ED011ADFED0F1AB4EEE11A69
:102ED000F1EE10FA0DD290ED011ADFED0A1A31EE83
:102EE000211A80ED011A04E09FED081A014880EDD7
:102EF000011A7047241000201C11002029DC0C430B
:102F0000000034430000B443000034C3000000005C
:102F100010B51A480068401C184908601848007825
:102F2000FEF72AFF1748D0ED3B0AB0EE600A1448BE
:102F30000078FEF73BFE1348D0ED3A0AB0EE600A87
:102F40000F480078FEF7D8FE0F48C079012805D158
:102F500032200B49087000200B49C87108480078DE
:102F600000280ADD06480078401E05490870FFF772
:102F700091FA02F0CDFE03F0E5FC10BDD800002070
:102F800073010020241000208412002010B5024696
:102F900092F82030012B01D0022B06D11068406935
:102FA000084314686061002010BD506A40F480201E
:102FB00050620120F8E7F0B504460D461E4694F82D
:102FC000207020688368A86800B900E000BF012F66
:102FD00001D0022F7DD103F0806030B903F0006092
:102FE00018B903F0805000287ED0C3F3016101209E
:102FF00088403060A86860B9B5F800C0E86840EA69
:103000004C5C206800F5C07000EB0110C0F800C0F7
:103010000FE0D5E901C040EACC00D5F80CC040EA89
:103020000C00D4F800C00CF5C07C0CEB011CCCF8F3
:103030000000D5F810C0206800F5C07000EB01104A
:10304000C0F804C0287D01280ED1206800F5C070AA
:1030500000EB0110406840F4807C206800F5C070EF
:1030600000EB0110C0F804C0D079000692F806C049
:1030700040EA0C4092F805C040EA0C2092F804C0E7
:1030800040EA0C00D4F800C00CF5C07C0CEB011C2D
:10309000CCF80C00D078000692F802C040EA0C4050
:1030A00092F801C040EA0C2092F800C040EA0C00FF
:1030B000D4F800C00CF5C07C0CEB011CCCF8080067
:1030C000206800F5C07000EB0110006840F0010CB2
:1030D00001E00FE008E0206800F5C07000EB01108F
:1030E000C0F800C00020F0BD606A40F400106062CB
:1030F0000120F8E7606A40F4802060620120F2E776
:10310000F0B504460A46216894F82050012D01D0FC
:10311000022D7ED1424901F50071086840F001009E
:103120000860086820F47C5008600868566A40EA25
:1031300006200860107D00F01F06012000FA06F34B
:10314000C8699843C861A1F50071D069C8B9D1F8C0
:103150000C029843C1F80C02908880B2968940EA2C
:10316000064601F51070576940F83760108880B244
:10317000168940EA064601F51070576900EBC70052
:103180004660D069012819D1D1F80C021843C1F862
:103190000C02908880B2168840EA064601F510704D
:1031A000576940F83760908980B2168940EA064630
:1031B00001F51070576900EBC7004660906928B9A7
:1031C000D1F804029843C1F8040204E0D1F80402E3
:1031D0001843C1F80402106928B9D1F814029843C1
:1031E000C1F8140204E0D1F814021843C1F8140223
:1031F000106A012804D1D1F81C021843C1F81C023E
:10320000D1F8000220F00100C1F800020020F0BD5A
:10321000FFE7606A40F4802060620120F7E7000069
:1032200000640040704770B5044694F82050012DAA
:1032300001D0022D7DD151B92068C06800F0030093
:1032400080B9606A40F400106062012070BD20689F
:10325000006900F0030028B9606A40F40010606261
:103260000120F3E7206800F5D87000EB011000683A
:1032700000F004009060906840B9206800F5D870B4
:1032800000EB01100068400D106007E0206800F5B9
:10329000D87000EB01100068C0085060206800F58D
:1032A000D87000EB0110006800F00200D0602068C8
:1032B00000F5D87000EB0110406800F00F000828FE
:1032C00002D30820106108E0206800F5D87000EBF8
:1032D0000110406800F00F001061206800F5D87000
:1032E00000EB0110406800F47F40000A9061206804
:1032F00000F5D87000EB01104068000C50612068A8
:1033000000F5D87000EB011080681870206800F597
:10331000D87000EB0110806800F47F40000A5870FC
:10332000206800F5D87000EB0110806800F47F0081
:1033300000E03CE0000C9870206800F5D87000EBCD
:1033400001108068000ED870206800F5D87000EB7E
:103350000110C0681871206800F5D87000EB0110EA
:10336000C06800F47F40000A5871206800F5D870EA
:1033700000EB0110C06800F47F00000C9871206819
:1033800000F5D87000EB0110C068000ED87131B99B
:103390002068C06840F020002668F06005E02068E2
:1033A000006940F020002668306100204EE7606A26
:1033B00040F480206062012048E72DE9F05F044678
:1033C0000025206846692068D0F804902068876846
:1033D0002068D0F80CA02068D0F810B02068D0F891
:1033E000188006F00100002855D007F00100C0B198
:1033F00001202168886007F0020018B1204600F023
:103400001AFB0EE007F0040010B145F4006508E077
:1034100007F0080010B145F4805502E0204600F0A6
:1034200009FB07F48070C8B14FF480702168886090
:1034300007F4007018B1204600F0FFFA0EE007F420
:10344000806010B145F4005508E007F4006010B149
:1034500045F4804502E0204600F0EEFA07F48030A3
:10346000C8B14FF480302168886007F4003018B18B
:10347000204600F0E4FA0EE007F4802010B145F495
:10348000004508E007F4002010B145F4803502E063
:10349000204600F0D3FA06F0080038B10AF0100018
:1034A00020B145F4007510202168C86006F00400C2
:1034B00040B10AF0080028B108202168C860204601
:1034C00000F02CFA06F0020038B12068C06800F065
:1034D000030010B1204600F023FA06F0400038B196
:1034E0000BF0100020B145F48065102021680861C0
:1034F00006F0200040B10BF0080028B10820216838
:103500000861204600F038FA06F0100038B1206853
:10351000006900F0030010B1204600F02FFA06F415
:10352000003040B109F0100028B110202168486037
:10353000204600F04FFA06F4803040B109F0080050
:1035400028B1082021684860204600F079FA06F486
:10355000004088B309F0040078B306F4807020B10D
:1035600008F0010008B145F0010506F4007020B133
:1035700008F0020008B145F0020506F4806020B1B1
:1035800008F0040008B145F0040506F40060A0B19D
:1035900008F0700088B108F07000402817D006DCF1
:1035A00010280BD020280CD0302819D10CE050283E
:1035B00010D0602814D110E01DE019E045F0080596
:1035C0000FE045F010050CE045F0200509E045F05E
:1035D000400506E045F0800503E045F4807500E015
:1035E00000BF00BF2068806920F0700021688861FA
:1035F0000420216848602DB1606A2843606220463B
:10360000FFF710FEBDE8F09F70B504460CB901202D
:1036100070BD94F8200010B9204600F0AFF8206883
:10362000006840F001002168086000F00BFD0546CD
:103630000DE000F007FD401B0A2808D9606A40F43D
:1036400000306062052084F820000120E0E7206857
:10365000406800F001000028EBD02068006820F0EE
:1036600002002168086000F0EDFC05460DE000F066
:10367000E9FC401B0A2808D9606A40F40030606207
:10368000052084F820000120C2E72068406800F08F
:1036900002000028EBD1207E012806D120680068B6
:1036A00040F080002168086005E02068006820F094
:1036B000800021680860607E012806D120680068CB
:1036C00040F040002168086005E02068006820F0B4
:1036D000400021680860A07E012806D120680068AB
:1036E00040F020002168086005E02068006820F0B4
:1036F000200021680860E07E012806D1206800686B
:1037000020F010002168086005E02068006840F0A3
:10371000100021680860207F012806D12068006819
:1037200040F008002168086005E02068006820F08B
:10373000080021680860607F012806D120680068C1
:1037400040F004002168086005E02068006820F06F
:10375000040021680860D4E9020108432169084394
:10376000616908436168491E08432168C8610020F7
:103770006062012084F82000002049E710B586B07F
:103780000446142101A8FCF765FD5E4920688842C3
:1037900051D15D480068401C5B49086008460068DC
:1037A00001280FD100BF002000905848006840F069
:1037B0000070564908600846006800F000700090EC
:1037C00000BF00BF00BF00200090504810380068C4
:1037D00040F008004D49103908600846006800F0C4
:1037E0000800009000BF00BF03200190022002905B
:1037F00000200390032004900920059001A944486B
:1038000000F020FB00221146132000F0A9FC132039
:1038100000F092FC00221146142000F0A1FC1420BC
:1038200000F08AFC00221146152000F099FC1520BA
:1038300000F082FC64E037492068884260D100BF14
:10384000002000903148006840F080602F490860F7
:103850000846006800F08060009000BF00BF2A4862
:103860000068401C284908600846006801280FD1FC
:1038700000BF002000902548006840F000702349F8
:1038800008600846006800F00070009000BF00BFAC
:1038900000BF002000901D481038006840F0020072
:1038A0001A49103908600846006800F002000090CC
:1038B00000BF00BF60200190022002900020039012
:1038C000032004900920059001A9134800F0BAFADA
:1038D000002211463F2000F043FC3F2000F02CFC6A
:1038E00000221146402000F03BFC402000F024FC68
:1038F00000221146412000F033FC412000F01CFC66
:1039000006B010BD006400400000002040380240B6
:10391000000C0240006800400004024070470000B4
:1039200010B504461049206888420CD10F4BA3F112
:103930001C0200212046FFF776FC0C482038816AE3
:10394000001D88470FE00A49206888420BD1094BC7
:10395000A3F11C0200212046FFF765FC0548203832
:10396000816A001D884710BD006400405414002087
:1039700000680040801400207047000010B5044625
:103980001049206888420CD10F4BA3F11C02012181
:103990002046FFF748FC0C482038816A001D884704
:1039A0000FE00A49206888420BD1094BA3F11C02A1
:1039B00001212046FFF737FC05482038816A001DA9
:1039C000884710BD00640040541400200068004087
:1039D00080140020704770B5044694F82000012838
:1039E00022D1022084F820002068006820F0010025
:1039F0002168086000F026FB05460DE000F022FB80
:103A0000401B0A2808D9606A40F400306062052033
:103A100084F82000012070BD2068406800F001009B
:103A20000028EBD16062F6E7606A40F40020606233
:103A30000120F0E770477047704770477047704744
:103A4000704770B50446A56D00F0FCFA064694F880
:103A50003500022808D08020606500BF002084F86F
:103A6000340000BF012070BD2068006820F01600FF
:103A7000216808602068406920F080002168486162
:103A8000206C08B9A06C28B12068006820F00800FC
:103A9000216808602068006820F001002168086043
:103AA00010E000F0CFFA801B05280BD920206065BC
:103AB000032084F8350000BF002084F8340000BFE4
:103AC0000320D0E72068006800F001000028E8D15A
:103AD00094F85C103F208840A860012084F83500ED
:103AE00000BF002084F8340000BF00BFBBE70146E0
:103AF00091F83500022803D08020486501207047E6
:103B0000052081F835000868006820F001000A6887
:103B100010600020F3E70000F8B504460020009094
:103B20008C4800684FF41651B0FBF1F7A56D2E6874
:103B300094F85C1008208840304098B120680068F4
:103B400000F0040070B12068006820F004002168D3
:103B5000086094F85C1008208840A860606D40F010
:103B60000100606594F85C1001208840304068B125
:103B70002068406900F0800040B194F85C1001209A
:103B80008840A860606D40F00200606594F85C10A9
:103B900004208840304068B12068006800F00200CE
:103BA00040B194F85C1004208840A860606D40F03B
:103BB0000400606594F85C1010208840304078B3B1
:103BC0002068006800F0080050B394F85C101020E2
:103BD0008840A8602068006800F4802080B12068D8
:103BE000006800F4002028B9206CC8B12046216C80
:103BF000884715E0A06C98B12046A16C88470FE07B
:103C00002068006800F4807028B92068006820F0FF
:103C1000080021680860206C10B12046216C88479C
:103C200094F85C10202088403040002865D020683F
:103C3000006800F0100000285FD094F85C1020208D
:103C40008840A86094F83500052828D120680068CD
:103C500020F01600216808602068406920F080008C
:103C600021684861206C08B9A06C28B12068006800
:103C700020F008002168086094F85C103F2088401C
:103C8000A860012084F8350000BF002084F83400CB
:103C900000BF206D10B12046216D8847F8BD206817
:103CA000006800F4802080B12068006800F40020E3
:103CB00028B9606C10B12046616C88471DE0E06B4C
:103CC000D8B12046E16B884717E02068006800F40F
:103CD000807068B92068006820F0100021680860D2
:103CE000012084F8350000BF002084F8340000BFB4
:103CF000E06B10B12046E16B8847606D38B3606DB2
:103D000000F00100F0B1052084F83500206800685B
:103D100020F001002168086000BF0098401C00905E
:103D2000B84200D905E02068006800F001000028D2
:103D3000F3D100BF012084F8350000BF002084F8D3
:103D4000340000BFE06C10B12046E16C884700BF32
:103D5000A4E70000100000202DE9F04104460025F2
:103D600000F070F9074614B90120BDE8F081606ADF
:103D700000B100BF022084F8350000BF002084F8A5
:103D8000340000BF2068006820F00100216808604E
:103D90000AE000F057F9C01B052805D9202060650E
:103DA000032084F83500E0E72068006800F0010097
:103DB0000028EED12068056821480540D4E90101BA
:103DC0000843E16808432169084361690843A16920
:103DD0000843E1690843216A08430543606A0428EF
:103DE00003D1D4E90B01084305432068056020682E
:103DF000456925F00705606A0543606A04280DD10E
:103E0000A06A0543E06A48B12046FEF73BFE28B1B0
:103E100040206065012084F83500A6E720684561F0
:103E20002046FEF715FE064694F85C103F208840B9
:103E3000B06000206065012084F83500002094E720
:103E40003F8010F0F8B502460B4600250024002004
:103E50000021D6E0012606FA01F51E6806EA0504EF
:103E6000AC4274D11E7906F00306012E04D01E79EF
:103E700006F00306022E13D190684F000326BE40C1
:103E8000B0434F00DE68BE4030439060506801266A
:103E90008E40B0431E79C6F300168E40304350600A
:103EA0001E7906F00306032E09D0D0684F000326C2
:103EB000BE40B0434F009E68BE403043D0601E7984
:103EC00006F00306022E13D1CF0802F1200656F8A1
:103ED00027004E07F70E0F26BE40B0434F07FF0ED8
:103EE0001E69BE403043CF0802F1200646F8270085
:103EF00010684F000326BE40B0431E7906F003064B
:103F00004F00BE40304310605E6806F44036002E1D
:103F100076D000BF002600963C4E366846F48046B8
:103F20003A4F3E603E46366806F48046009600BF33
:103F300000BF374E8F0856F827008E07370F0F2621
:103F4000BE40B043334EB24202D1002624E057E0D7
:103F5000314EB24201D101261EE0304EB24201D1B3
:103F6000022619E02E4EB24201D1032614E02D4E56
:103F7000B24201D104260FE02B4EB24201D10526F8
:103F80000AE02A4EB24201D1062605E0284EB2428E
:103F900001D1072600E008268F073F0FBE403043BF
:103FA0001B4E8F0846F82700224E3068A0435E68FB
:103FB00006F4801606B120431E4E3060361D306870
:103FC000A0435E6806F4001606B12043194E361D64
:103FD0003060184E361F3068A0435E6806F4003625
:103FE00006B12043134E361F3060361F3068A043A1
:103FF0005E6806F4803606B120430E4E083E3060FF
:10400000491C1029FFF426AFF8BD000044380240D7
:10401000083801400000024000040240000802404D
:10402000000C024000100240001402400018024040
:10403000001C0240083C01400AB1816101E00B0410
:104040008361704701480068704700000400002049
:10405000034800680349097808440149086070472B
:10406000040000200C00002010B50D48006840F44A
:1040700000700B4908600846006840F480600860E2
:104080000846006840F480700860032000F0A6F83D
:104090000F2000F007F800F02BF8002010BD000002
:1040A000003C024070B504460E4800784FF47A7127
:1040B000B1FBF0F00C490968B1FBF0F5284600F0BF
:1040C00093FD08B1012070BD102C07D200222146BB
:1040D000501E00F045F80548046001E00120F2E7B9
:1040E0000020F0E70C000020100000200800002055
:1040F00008B500BF002000900E48006840F48040E2
:104100000C4908600846006800F48040009000BF39
:1041100000BF00BF00200090081F006840F08050E2
:10412000091F08600846006800F08050009000BF3A
:1041300000BF08BD443802400146084600280DDB98
:1041400000BF00BF00F01F0301229A4043099B00FB
:1041500003F1E023C3F8002100BF00BF00BF704798
:104160002DE9F05F80460D461646002703F06AFDF4
:10417000074639462A46334601F00700C0F1070AD0
:10418000BAF1040F02D94FF0040A01E0C0F1070AA6
:10419000D14600F1040ABAF1070F02D24FF0000A2B
:1041A00001E0A0F1030AD4464FF0010A0AFA09FA25
:1041B000AAF1010A0AEA020A0AFA0CFA4FF0010B04
:1041C0000BFA0CFBABF1010B0BEA030B4AEA0B04F5
:1041D0002146404603F03EFDBDE8F09F00BF00F0E1
:1041E0000702064B19684FF6FF031940044B0B43B7
:1041F00043EA0221014B196000BF70470CED00E05B
:104200000000FA05F8B5044600250026207800F0E5
:10421000010020B9207800F0040004282FD10020EC
:104220005B498866FFF70EFF054606E0FFF70AFFC9
:10423000401B022801D90320F8BD56480068C0F38E
:10424000C0600028F2D160688101207A41EA0070E4
:1042500050498431086001204D498866FFF7F2FE1D
:10426000054606E0FFF7EEFE401B022801D90320B9
:10427000E2E748480068C0F3C0600028F2D0207828
:1042800000F0020002287DD100BF002000904148CC
:104290004030006840F080503E4940310860084698
:1042A000006800F08050009000BF00BF3A480068EE
:1042B00040F4807038490860FFF7C4FE054606E008
:1042C000FFF7C0FE401B022801D90320B4E73248A3
:1042D000006800F480700028F2D02E48703000682A
:1042E00000F440764EB3A08900F44070B04224D070
:1042F00028487030006820F4407601202749086083
:1043000000200860234870300660006800F001005B
:1043100098B1FFF797FE054608E0FFF793FE401BB4
:1043200041F28831884201D9032085E7194870306D
:104330000068C0F340000028EFD000BFA08900F45F
:104340004070B0F5407F0CD112480830006820F46E
:10435000F810134AE168114008430E49083108601B
:1043600007E00C480830006820F4F81009490831CB
:104370000860084870300068A189C1F30B01084348
:10438000044900E002E07031086000BF002053E7FC
:10439000000047420038024000700040400E474293
:1043A000FFFCFF0F70B504460D460CB9012070BD2F
:1043B0005848006800F00700A84209D255490D701E
:1043C0000846006800F00700A84201D00120EEE78F
:1043D000207800F0020002281DD1207800F00400AF
:1043E000042805D14C48006840F4E0504A49086070
:1043F000207800F00800082805D14748006840F4FC
:104400006040454908604448006820F0F000A16819
:10441000084341490860207800F00100A8B36068B3
:10442000012807D13C4808380068C0F34040B8B9BB
:104430000120BCE76068022802D06068032807D129
:10444000354808380068C0F3406048B90120AEE73D
:10445000314808380068C0F3400008B90120A6E7D9
:104460002D48006820F00300616808432A4908606D
:10447000FFF7E8FD064609E0FFF7E4FD801B41F287
:104480008831884202D9032091E707E0224800687A
:1044900000F00C006168B0EB810FEDD11D480068A1
:1044A00000F00700A84209D91A490D7008460068B3
:1044B00000F00700A84201D0012078E7207800F042
:1044C0000400042807D11448006820F4E050E16893
:1044D000084311490860207800F00800082808D136
:1044E0000D48006820F46040216940EAC1000A4993
:1044F000086000F03FF808490968C1F30311074A52
:10450000515CC8400649086006480068FFF7CAFDCC
:1045100000204CE7003C0240083802400AA800088E
:1045200010000020080000200148006870470000CB
:104530001000002000B5FFF7F7FF04490968C1F338
:104540008221034A515CC84000BD00000838024087
:104550001AA8000800B5FFF7E7FF04490968C1F38E
:104560004231034A515CC84000BD00000838024097
:104570001AA800082DE9F047002400250026A146CE
:104580002548006800F00C0020B1042805D0082858
:104590003AD105E0DFF8849039E0DFF8849036E026
:1045A0001D48001F006800F03F041B48001F006802
:1045B00000F4800078B11A481749091F0968C1F34F
:1045C0008811A0FB01700146224600233846FBF704
:1045D000F7FD05460EE011480F49091F0968C1F3B0
:1045E0008811A0FB01700146224600233846FBF7E4
:1045F000E7FD05460848001F0068C0F30140401C65
:104600004600B5FBF6F902E0DFF8109000BF00BFEE
:104610004846BDE8F0870000083802400024F40056
:10462000001BB700F8B504460CB90120F8BD20788E
:1046300000F00100002874D0F948006800F00C0078
:1046400004280DD0F648006800F00C00082813D1AB
:10465000F348001F006800F48000B0F5800F0BD114
:10466000EF4808380068C0F34040002859D060681F
:10467000002856D10120D9E700BF6068B0F5803F1F
:1046800008D1E7480838006840F48030E449083928
:1046900008601EE06068B0F5A02F0DD1E048083832
:1046A000006840F48020DE49083908600846006848
:1046B00040F4803008600CE0D9480838006820F4E5
:1046C0008030D749083908600846006820F4802007
:1046D000086000BF606890B1FFF7B4FC054606E0D3
:1046E000FFF7B0FC401B642801D903209EE7CC48AB
:1046F00008380068C0F340400028F1D011E0FFF70F
:10470000A1FC054606E0FFF79DFC401B642801D98B
:1047100003208BE7C24808380068C0F340400028F7
:10472000F1D1207800F0020002285FD1BC48006877
:1047300000F00C0058B1BA48006800F00C000828DE
:104740001CD1B748001F006800F48000B0B9B4481D
:1047500008380068C0F3400020B1E068012801D0AB
:10476000012063E7AE480838006820F0F8002169AE
:1047700040EAC100AA490839086037E0E06800B3A0
:104780000120A8490860FFF75DFC054606E0FFF739
:1047900059FC401B022801D9032047E7A0480838EC
:1047A0000068C0F340000028F1D09D480838006838
:1047B00020F0F800216940EAC100994908390860F1
:1047C00014E0002097490860FFF73CFC054606E02E
:1047D000FFF738FC401B022801D9032026E7904848
:1047E00008380068C0F340000028F1D1207800F0BC
:1047F000080008282CD16069A8B101208A49086006
:10480000FFF720FC054606E0FFF71CFC401B0228D2
:1048100001D903200AE782486C300068C0F34000E9
:104820000028F1D014E000207F490860FFF70AFC5F
:10483000054606E0FFF706FC401B022801D90320CD
:10484000F4E677486C300068C0F340000028F1D1EE
:10485000207800F00400042870D100277048383018
:10486000006800F0805090B900BF002000906C48B4
:104870003830006840F08050694938310860084697
:10488000006800F08050009000BF00BF012767481B
:10489000006800F48070B0B96448006840F480702B
:1048A00062490860FFF7CEFB054606E0FFF7CAFB4A
:1048B000401B022801D90320B8E65C48006800F4D8
:1048C00080700028F2D000BFA068012808D15448A9
:1048D0006830006840F001005149683108601DE00F
:1048E000A06805280DD14E486830006840F00400EB
:1048F0004B49683108600846006840F001000860D4
:104900000CE047486830006820F0010044496831F5
:1049100008600846006820F00400086000BFA06836
:10492000A8B1FFF78FFB054609E0FFF78BFB401BA3
:1049300041F28831884202D9032077E626E03848E0
:1049400068300068C0F340000028EED013E0FFF7A5
:1049500079FB054608E0FFF775FB401B41F2883103
:10496000884201D9032061E62D4868300068C0F311
:1049700040000028EFD1012F07D1294838300068C6
:1049800020F0805026493831086000BFA069002817
:1049900045D02348006800F00C0008285DD0A069CD
:1049A000022845D100201F490866FFF74BFB05464A
:1049B00006E0FFF747FB401B022801D9032035E63C
:1049C000174808380068C0F340600028F1D1D4E9E6
:1049D00007010843616A40EA81110122A06AC2EB23
:1049E000500041EA00412C20005D41EA00600C4982
:1049F000091F086001200B490866FFF723FB0546E5
:104A000006E0FFF71FFB401B022801D903200DE63B
:104A1000034808380068C0F340600028F1D049E03E
:104A20000838024000004742800E474200700040B4
:104A3000002021490866FFF705FB054606E0FFF761
:104A400001FB401B022801D90320EFE51B48006849
:104A5000C0F340600028F2D12CE0A069012800D109
:104A6000E4E51648001D0668A069012820D006F478
:104A70008001E06981421BD106F03F01206A81423A
:104A800016D147F6C0703040616AB0EB811F0FD17C
:104A900006F440310122A06AC2EB5000B1EB004F96
:104AA00006D106F070612C20005DB1EB006F01D0E3
:104AB0000120BBE50020B9E5000047420038024074
:104AC00070B5044601250CB9012070BD607F20B986
:104AD00000202077204600F04DF802206077206803
:104AE000C068C0F3001000283CD100BFCA20216874
:104AF000486253202168486200BF204601F065FDEE
:104B00000546EDB920688068194908402168886029
:104B1000216960680843616908432168896808431E
:104B2000216888602168E06808612068016920893F
:104B300041EA004021680861204601F06BFD05460E
:104B40005DB92068006C20F480202168086420682A
:104B5000006CA16908432168086400BFFF20216838
:104B6000486200E000250DB9012060772846ACE7D7
:104B7000BFFF8FFF1FB504460020009001900290F8
:104B800003900949206888420CD10220009000025D
:104B900003906846FFF736FB08B1FDF7D1FF01200F
:104BA000024908601FBD0000002800403C0E47423B
:104BB00070B5044600250B482168C860FFF742FA2B
:104BC000054607E0FFF73EFA401BB0F57A7F01D9B2
:104BD000032070BD2068C06800F020000028F1D0DC
:104BE0000020F6E75F7F010070B504462546681E89
:104BF000B0F1807F01D301200FE0681E4FF0E0216B
:104C000048610F214FF0FF3003F024F800204FF0EF
:104C1000E021886107200861002070BD704770475F
:104C200030B502460B4600BF92F83C00012801D186
:104C3000022030BD012082F83C0000BF022082F833
:104C40003D00106844681068816824F0700418689A
:104C5000044310684460184D1068A8421BD01068C7
:104C6000B0F1804F17D0154D1068A84213D0144DE5
:104C70001068A8420FD0134D1068A8420BD0124DF7
:104C80001068A84207D0114D1068A84203D0104DFB
:104C90001068A84205D121F08001586801431068CE
:104CA0008160012082F83D0000BF002082F83C00B6
:104CB00000BF00BFBDE7000000000140000400404D
:104CC00000080040000C004000040140004001408A
:104CD0000018004010B504460CB9012010BD94F82E
:104CE0003D0028B9002084F83C00204600F026F85A
:104CF000022084F83D00211D206802F0AFF9012058
:104D000084F8460000BF84F83E0001213F20015591
:104D1000402001554120015500BF00BF012084F80B
:104D2000420043200155442001554520015500BF54
:104D3000012084F83D000020D0E7000038B504468B
:104D40002068B0F1804F18D100BF00200090334898
:104D5000006840F00100314908600846006800F032
:104D60000100009000BF00BF002203211C20FFF7BC
:104D7000F7F91C20FFF7E0F94FE029492068884245
:104D800018D100BF002000902448006840F00200C5
:104D9000224908600846006800F00200009000BF49
:104DA00000BF002211461D20FFF7DAF91D20FFF792
:104DB000C3F932E01B492068884218D100BF0020A7
:104DC00000901648006840F0040014490860084646
:104DD000006800F00400009000BF00BF00221146F0
:104DE0001E20FFF7BDF91E20FFF7A6F915E00E49BA
:104DF0002068884211D100BF002000900748001DA4
:104E0000006840F480300549091D086008460068C4
:104E100000F48030009000BF00BF38BD4038024031
:104E2000000400400008004000400140014691F8A5
:104E30003D00012801D001207047022081F83D008B
:104E40000868C06840F001000B68D8601A4B086819
:104E500098421BD00868B0F1804F17D0174B0868F4
:104E6000984213D0164B086898420FD0154B08682B
:104E700098420BD0144B0868984207D0134B08682F
:104E8000984203D0124B086898420CD10868806899
:104E900000F00702062A0CD00868006840F0010004
:104EA0000B68186005E00868006840F001000B68B6
:104EB00018600020C0E7000000000140000400402E
:104EC00000080040000C0040000401400040014088
:104ED000001800402DE9F04104460D46002700BFB0
:104EE00094F83C00012802D10220BDE8F0810120A5
:104EF00084F83C0000BF022084F83D0020688668EA
:104F000026F0770626F47F462068866028685028B9
:104F100033D00CDC202850D004DC00284BD01028E3
:104F200051D149E0302849D040284CD139E060289F
:104F30002DD0702807D0B0F5805F03D0B0F5005FAA
:104F400041D10DE041E0D5E902136A68206802F022
:104F50002CF92068866846F077062068866034E081
:104F6000D5E902136A68206802F01FF9206880689A
:104F700040F480402168886027E0EA68696820681A
:104F800002F004FA5021206802F01AF91DE0EA68E4
:104F90006968206802F00DFA6021206802F010F9BB
:104FA00013E0EA686968206802F0F0F9402120689F
:104FB00002F006F909E000BF00BF00BF29682068C1
:104FC00002F0FEF801E0012700BF00BF012084F8D5
:104FD0003D0000BF002084F83C0000BF384684E755
:104FE000704770B504462068C5682068066906F0F9
:104FF0000200022819D105F00200022815D1401F35
:1050000021680861012020772068806900F0030092
:1050100018B12046FFF7E4FF05E0204600F0C8F88D
:10502000204600F07CF90020207706F004000428D8
:1050300019D105F00400042815D1C0432168086186
:10504000022020772068806900F4407018B1204663
:10505000FFF7C6FF05E0204600F0AAF8204600F062
:105060005EF90020207706F00800082819D105F025
:105070000800082815D1C043216808610420207762
:105080002068C06900F0030018B12046FFF7A8FFB0
:1050900005E0204600F08CF8204600F040F90020A2
:1050A000207706F01000102819D105F01000102804
:1050B00015D1C04321680861082020772068C069A5
:1050C00000F4407018B12046FFF78AFF05E0204643
:1050D00000F06EF8204600F022F90020207706F05C
:1050E000010048B105F0010030B16FF00100216806
:1050F0000861204600F0EEF906F08000802809D112
:1051000005F08000802805D1C04321680861204651
:10511000FFF784FD06F04000402809D105F040006B
:10512000402805D1C04321680861204600F05AFAA2
:1051300006F02000202809D105F02000202805D104
:10514000C043216808612046FFF769FD70BD00007B
:1051500010B586B00446142101A8FBF77BF811496D
:10516000206888421CD100BF002000900E480068D3
:1051700040F002000C4908600846006800F0020098
:10518000009000BF00BF881501900220029000200F
:10519000039004900220059001A90448FEF752FEF6
:1051A00006B010BD00080040303802400004024044
:1051B00070472DE9F04104460D461646002700BF12
:1051C00094F83C00012802D10220BDE8F0810120C2
:1051D00084F83C0000BF36B1042E1BD0082E31D01D
:1051E0000C2E5ED145E02946206801F0F3FF2068CF
:1051F000806940F00800216888612068806920F09B
:105200000400216888612068806929690843216851
:10521000886148E02946206802F014F82068806917
:1052200040F40060216888612068806920F4806013
:105230002168886120688069296940EA0120216825
:10524000886130E02946206802F03AF82068C06999
:1052500040F008002168C8612068C06920F004009F
:105260002168C8612068C069296908432168C8614C
:1052700019E02946206802F05FF82068C06940F410
:1052800000602168C8612068C06920F480602168DE
:10529000C8612068C069296940EA01202168C861A5
:1052A00001E0012700BF00BF00BF002084F83C00E0
:1052B00000BF384689E710B504460CB9012010BD7F
:1052C00094F83D0028B9002084F83C00204600F006
:1052D00025F8022084F83D00211D206801F0BEFE63
:1052E000012084F8460000BF84F83E0001213F20E1
:1052F0000155402001554120015500BF00BF01204C
:1053000084F84200432001554420015545200155B1
:1053100000BF012084F83D000020D0E770477047AF
:1053200070B504460D4615B994F83E000BE0042D07
:1053300002D13F20005D06E0082D02D14020005D33
:1053400001E04120005D012801D0012070BD1DB9A0
:10535000022084F83E000EE0042D03D102213F20FC
:10536000015508E0082D03D102214020015502E03B
:1053700002214120015501222946206801F004FF45
:1053800023492068884203D022492068884201D1FD
:10539000012000E0002028B12068406C40F400406B
:1053A000216848641A49206888421BD02068B0F1FF
:1053B000804F17D018492068884213D017492068B9
:1053C00088420FD01649206888420BD011492068C6
:1053D000884207D013492068884203D012492068C8
:1053E00088420CD12068806800F00706062E0CD099
:1053F0002068006840F001002168086005E020682E
:10540000006840F001002168086000209EE700006D
:10541000000001400004014000040040000800407A
:10542000000C0040004001400018004030B5044628
:105430000D4600222946206801F0A6FE2349206877
:10544000884203D022492068884201D1012000E02F
:10545000002090B100BF2068006A41F2111108409D
:1054600050B92068006A8910084028B92068406C4B
:1054700020F400402168486400BF00BF2068006A33
:1054800041F21111084050B92068006A89100840A3
:1054900028B92068006820F001002168086000BF7A
:1054A0001DB9012084F83E000EE0042D03D1012136
:1054B0003F20015508E0082D03D10121402001556E
:1054C00002E0012141200155002030BD00000140D3
:1054D0000004014010B504463D492068884267D168
:1054E0003C490888FBF7EEFF3A480088052190FB0D
:1054F000F1F201FB120008B9FDF7AEF9354800885A
:10550000142190FBF1F201FB1200112801D104F0EB
:10551000F5FB30480088052190FBF1F201FB1200F9
:10552000012805D12C48FDF7EFFB2B4802F00EFBBC
:10553000284800880A2190FBF1F201FB12000428A0
:1055400001D105F081F8234800880A2190FBF1F28F
:1055500001FB1200052801D1FCF752FA1D48008812
:105560000A2190FBF1F201FB1200062803D101F0A1
:10557000E9FD01F043FD174800880A2190FBF1F294
:1055800001FB1200072801D101F086FC11480088B8
:10559000052190FBF1F201FB1200022805D10F4812
:1055A00004F05DFB0E48FDF738F80A4801F02CFFC7
:1055B0002068B0F1804F0AD1064800880A2190FB8C
:1055C000F1F201FB1200072801D1FDF7A1FC10BD8B
:1055D000000400406C0200201C1100201014002068
:1055E0008412002070477047704700002DE9F84F83
:1055F0000446206805682068C668206847694FF03F
:105600000009CA4605F00F09B9F1000F0AD105F0EB
:10561000200038B106F0200020B1204601F0AEFF96
:10562000BDE8F88FB9F1000F7CD007F0010018B980
:1056300006F49070002875D005F0010030B106F432
:10564000807018B1606C40F00100606405F00400E7
:1056500030B107F0010018B1606C40F002006064E6
:1056600005F0020030B107F0010018B1606C40F0A5
:105670000400606405F0080048B106F0200010B98D
:1056800007F0010018B1606C40F008006064606CC5
:10569000002846D005F0200028B106F0200010B107
:1056A000204601F06BFF20684069C0F3801A606CEF
:1056B00000F0080010B9BAF1000F2DD0204601F01B
:1056C00017FF2068406900F04000402820D100BF4B
:1056D00000BF2168143151E8001F21F0400021680B
:1056E000143141E80002002AF3D100BFE06B50B151
:1056F0007748E16B0865E06BFEF7F9F988B1E06B7C
:10570000016D88470DE02046FFF76EFF09E009E0D4
:105710002046FFF769FF04E02046FFF765FF002001
:1057200060647DE7206B012878D105F01000002827
:1057300074D006F010000028FAD000BF00200090BE
:1057400020680068009020684068009000BF00BF9B
:105750002068406900F04000402860D1E06B00689C
:1057600040681FFA80F8B8F1000F56D0A08D404570
:1057700053DDA4F82E80E06BC069B0F5807F43D084
:1057800000BF00BF21680C3151E8001F21F4807078
:1057900021680C3141E80002002AF3D100BF00BFAC
:1057A00000BF2168143151E8001F21F00100216879
:1057B000143141E80002002AF3D100BF00BF00BF4E
:1057C0002168143151E8001F21F040002168143194
:1057D00041E80002002AF3D100BF202084F84200F3
:1057E0000020206300BF00BF21680C3151E8001F7A
:1057F00021F0100021680C3141E80002002AF3D1A9
:1058000000BFE06BFEF71DF902206063A08DE28D02
:10581000801A81B22046FFF7E6FE01E742E0A08D44
:10582000E18D401A1FFA80F8E08DD0B3B8F1000F77
:1058300037D000BF00BF21680C3151E8001F21F4B0
:10584000907021680C3141E80002002AF3D100BFBA
:1058500000BF00BF2168143151E8001F21F0010092
:105860002168143141E80002002AF3D100BF202052
:1058700084F842000020206300BF00BF21680C3183
:1058800051E8001F21F0100021680C3141E80002AE
:10589000002AF3D100BF0220606341462046FFF793
:1058A000A2FEBDE605F0800030B106F0800018B120
:1058B000204601F0F7FFB3E605F0400030B106F0F6
:1058C000400018B1204601F049FEA9E600BFA7E656
:1058D000DD74000810B504460CB9012010BDA069A4
:1058E00000B100E000BF94F8410028B9002084F81E
:1058F0004000204600F02AF8242084F84100206867
:10590000C06820F400502168C860204601F0B4FE51
:105910002068006920F4904021680861206840698F
:1059200020F02A00216848612068C06840F40050D7
:105930002168C86000206064202084F8410084F859
:1059400042000020606300BFC8E7000010B586B0C9
:105950000446142101A8FAF77DFC8F49206888428B
:105960007ED100BF002000908C48006840F01000FD
:105970008A4908600846006800F01000009000BFE7
:1059800000BF00BF0020009084481438006840F039
:1059900002008249143908600846006800F00200DD
:1059A000009000BF00BF00BF0020009008460068C4
:1059B00040F0010008600846006800F00100009017
:1059C00000BF00BF802001900220029000200390C1
:1059D000032004900720059001A97148FEF732FAD0
:1059E0004FF40070019002200290002003900320E9
:1059F00004900720059001A96A48FEF723FA6A4837
:105A00006A4908604FF00060486000216748816083
:105A1000C1604FF480610161002141618161C16118
:105A20004FF44031016200214162FEF795F908B15F
:105A3000FDF786F800BF5D48E063846300BF5A4805
:105A400030305B4908604FF00060486040215848A2
:105A500081600021C1604FF480610161002100E09C
:105A600017E041618161C16101624162FEF774F931
:105A700008B1FDF765F800BF4D48A063846300BF1F
:105A8000002211462520FEF76BFB2520FEF754FB74
:105A900080E04849206888427CD100BF0020009007
:105AA0003E48006840F020003C4908600846006815
:105AB00000F02000009000BF00BF00BF0020009059
:105AC00036481438006840F0400034491439086002
:105AD0000846006800F04000009000BF00BF4FF48F
