:020000040800F2
:1000000018590020A10100081D500008134A0008DB
:1000100019500008D3030008D97000080000000040
:100020000000000000000000000000003350000845
:10003000C1040008000000003150000835500008DD
:10004000BB010008BB010008BB010008BB010008A0
:10005000BB010008BB010008C3040008BB01000885
:10006000BB010008CD040008D7040008BB0100084C
:100070005104000861040008BB0100087104000875
:10008000BB010008BB010008BB010008BB01000860
:10009000D9030008E9030008BB010008E1040008D7
:1000A000BB010008BB010008BB010008BB01000840
:1000B000BB010008BB01000851500008BB0100084B
:1000C000BB010008BB010008BB010008BB01000820
:1000D000BB010008BB010008BB010008C9520008B1
:1000E000BB010008BB010008BB010008BB01000800
:1000F000BB010008BB010008BB010008BB010008F0
:10010000BB010008BB01000861500008BB010008EA
:10011000BB010008BB010008BB010008BB010008CF
:10012000BB0100088104000891040008A104000834
:10013000BB010008BB010008BB010008BB010008AF
:10014000F903000809040008BB0100082150000859
:10015000BB010008B1040008BB010008D952000827
:10016000BB010008BB010008BB010008BB0100087F
:10017000BB010008BB010008BB0100080000000033
:10018000BB010008BB010008DFF810D000F0E4F864
:1001900000F06EF800480047A9E300081859002055
:1001A0000648804706480047FEE7FEE7FEE7FEE711
:1001B000FEE7FEE7FEE7FEE7FEE7FEE73D5000084C
:1001C000890100082DE9F05F0546002092469B4614
:1001D00088460646814640241BE02846414647465D
:1001E000224600F072F853465A46C01A914110D385
:1001F00011461846224600F059F82D1A67EB0108FF
:100200004F4622460120002100F050F817EB00096C
:100210004E41201EA4F10104DFDC484631462A4647
:100220004346BDE8F09F40EA01039B0703D009E085
:1002300008C9121F08C0042AFAD203E011F8013BD2
:1002400000F8013B521EF9D27047D2B201E000F82B
:10025000012B491EFBD270470022F6E710B513466A
:100260000A4604461946FFF7F0FF204610BD00007D
:1002700070B5054C054D03E0206820448047241DDF
:10028000AC42F9D170BD000078E5000898E500089F
:1002900030B4044696230800214604D0B62330BC6F
:1002A000002200F02BB820460021F8E7202A04DBCA
:1002B000203A00FA02F1002070479140C2F1200379
:1002C00020FA03F3194390407047202A04DB203AB8
:1002D00021FA02F00021704721FA02F3D040C2F166
:1002E000200291400843194670470029A8BF704773
:1002F000401C490008BF20F00100704710B4B0FA5C
:1003000080FC00FA0CF050EA010404BF10BC7047F6
:1003100049B1CCF1200421FA04F411FA0CF118BF10
:10032000012121430843A3EB0C01CB1D4FEA0061DF
:100330004FEA102042BF002010BC704700EBC350B2
:1003400010440029A4BF10BC7047401C490008BFDE
:1003500020F0010010BC7047064C074D06E0E06835
:1003600040F0010394E8070098471034AC42F6D3FC
:10037000FFF70EFF58E5000878E5000870B58C1807
:1003800010F8015B15F0070301D110F8013B2A11A9
:1003900006D110F8012B03E010F8016B01F8016B96
:1003A0005B1EF9D12B0705D40023521E0DD401F892
:1003B000013BFAE710F8013BCB1A921C03E013F85B
:1003C000015B01F8015B521EF9D5A142D8D3002090
:1003D00070BD00BFFEE7000010B5024800F098FABB
:1003E00010BD0000F403002010B5024800F090FAA0
:1003F00010BD0000F403002010B5024800F088FA98
:1004000010BD00001C04002010B5024800F080FA66
:1004100010BD00001C0400202DE9F04104460D46EB
:1004200000260A48D0F8BC72D7F8140210B1012097
:10043000BDE8F0812A462146044805F0AFF803489C
:1004400005F048F906463046F2E70000440900206E
:1004500010B5024800F004FE10BD00002408002082
:1004600010B5024800F0FCFD10BD0000980400200B
:1004700010B5024800F0F4FD10BD0000F8040020A3
:1004800010B5024800F0ECFD10BD0000840800200B
:1004900010B5024800F0E4FD10BD0000BC050020CE
:1004A00010B5024800F0DCFD10BD00001C06002065
:1004B00010B5024800F0D4FD10BD0000E408002093
:1004C000704710B5012000F0C1FF10BD10B5082025
:1004D00000F0BCFF10BD10B5102000F0B7FF10BD3C
:1004E00010B5202000F0B2FF10BD72B600BFFEE7CD
:1004F00010B5024692F82030012B01D0022B06D114
:1005000010684069084314686061002010BD506A9B
:1005100040F4802050620120F8E7F0B504460D4613
:100520001E4694F8207020688368A86800B900E02F
:1005300000BF012F01D0022F7CD103F0806030B9C1
:1005400003F0006018B903F08050002873D0C3F3A3
:100550000161022905D9606A40F40000606201204F
:10056000F0BD012088403060A86860B9B5F800C0CF
:10057000E86840EA4C5C206800F5C07000EB0110B0
:10058000C0F800C00FE0D5E901C040EACC00D5F8C2
:100590000CC040EA0C00D4F800C00CF5C07C0CEB99
:1005A000011CCCF80000D5F810C0206800F5C07020
:1005B00000EB0110C0F804C0287D01280ED120688E
:1005C00000F5C07000EB0110406840F4807C2068AA
:1005D00000F5C07000EB0110C0F804C0D07900062F
:1005E00092F806C040EA0C4092F805C040EA0C2C94
:1005F00010794CEA000C206800F5C07000EB011087
:10060000C0F80CC0D078000692F802C040EA0C4056
:1006100092F801C040EA0C2092F800C040EA0C00B9
:10062000D4F800C00CF5C07C0CEB011CCCF8080021
:10063000206801E016E00FE000F5C07000EB01104B
:10064000006840F0010C206800F5C07000EB01105C
:10065000C0F800C0002083E7606A40F400106062C8
:1006600001207DE7606A40F480206062012077E726
:10067000F0B504460A46216894F82050012D01D0B7
:10068000022D7ED1424901F50071086840F0010059
:100690000860086820F47C5008600868566A40EAE0
:1006A00006200860107D00F01F06012000FA06F306
:1006B000C8699843C861A1F50071D069C8B9D1F87B
:1006C0000C029843C1F80C02908880B2968940EAE7
:1006D000064601F51070576940F83760108880B2FF
:1006E000168940EA064601F51070576900EBC7000D
:1006F0004660D069012819D1D1F80C021843C1F81D
:100700000C02908880B2168840EA064601F5107007
:10071000576940F83760908980B2168940EA0646EA
:1007200001F51070576900EBC7004660906928B961
:10073000D1F804029843C1F8040204E0D1F804029D
:100740001843C1F80402106928B9D1F8140298437B
:10075000C1F8140204E0D1F814021843C1F81402DD
:10076000106A012804D1D1F81C021843C1F81C02F8
:10077000D1F8000220F00100C1F800020020F0BD15
:10078000FFE7606A40F4802060620120F7E7000024
:1007900000640040704770B5044694F82050012D65
:1007A00001D0022D7DD151B92068C06800F003004E
:1007B00080B9606A40F400106062012070BD20685A
:1007C000006900F0030028B9606A40F4001060621C
:1007D0000120F3E7206800F5D87000EB01100068F5
:1007E00000F004009060906840B9206800F5D8706F
:1007F00000EB01100068400D106007E0206800F574
:10080000D87000EB01100068C0085060206800F547
:10081000D87000EB0110006800F00200D060206882
:1008200000F5D87000EB0110406800F00F00106177
:10083000206800F5D87000EB0110406800F47F409C
:10084000000A9061206800F5D87000EB0110406844
:10085000000C5061206800F5D87000EB0110806832
:100860001870206800F5D87000EB0110806800F463
:100870007F40000A5870206800F5D87000EB011026
:10088000806800F47F00000C9870206800F5D87034
:1008900000EB01108068000ED870206800F5D87059
:1008A00000E02FE000EB0110C0681871206800F52F
:1008B000D87000EB0110C06800F47F40000A587146
:1008C000206800F5D87000EB0110C06800F47F00CC
:1008D000000C9871206800F5D87000EB0110C0681A
:1008E000000ED87131B92068C06840F02000266839
:1008F000F06005E02068006940F020002668306163
:1009000000205BE7606A40F480206062012055E7C8
:100910002DE9F05F04460025206846692068D0F87C
:100920000490206887682068D0F80CA02068D0F870
:1009300010B02068D0F8188006F00100002855D0CB
:1009400007F00100C0B101202168886007F00200B3
:1009500018B1204600F013FB0EE007F0040010B1C0
:1009600045F4006508E007F0080010B145F4805533
:1009700002E0204600F002FB07F48070C8B14FF49B
:1009800080702168886007F4007018B1204600F07C
:10099000F8FA0EE007F4806010B145F4005508E065
:1009A00007F4006010B145F4804502E0204600F0F5
:1009B000E7FA07F48030C8B14FF4803021688860CE
:1009C00007F4003018B1204600F0DDFA0EE007F41D
:1009D000802010B145F4004508E007F4002010B174
:1009E00045F4803502E0204600F0CCFA06F008001D
:1009F00038B10AF0100020B145F4007510202168CC
:100A0000C86006F0040040B10AF0080028B10820D0
:100A10002168C860204600F01DFA06F0020038B1D7
:100A20002068C06800F0030010B1204600F014FAFE
:100A300006F0400038B10BF0100020B145F480659D
:100A400010202168086106F0200040B10BF008007A
:100A500028B1082021680861204600F031FA06F02C
:100A6000100038B12068006900F0030010B1204682
:100A700000F028FA06F4003040B109F0100028B167
:100A8000102021684860204600F048FA06F48030C3
:100A900040B109F0080028B10820216848602046CC
:100AA00000F072FA06F4004088B309F0040078B34D
:100AB00006F4807020B108F0010008B145F001058E
:100AC00006F4007020B108F0020008B145F00205FC
:100AD00006F4806020B108F0040008B145F0040578
:100AE00006F40060A0B108F0700088B108F0700052
:100AF000402817D006DC10280BD020280CD0302836
:100B000019D10CE0502810D0602814D110E01DE05D
:100B100019E045F008050FE045F010050CE045F040
:100B2000200509E045F0400506E045F0800503E0BA
:100B300045F4807500E000BF00BF2068806920F0A8
:100B40007000216888610420216848602DB1606AC6
:100B5000284360622046FFF71DFEBDE8F09F70B598
:100B600004460CB9012070BD94F8200010B920464D
:100B700000F0B0F82068006840F0010021680860CB
:100B800000F07AFD05460DE000F076FD401B0A28D6
:100B900008D9606A40F400306062052084F82000C3
:100BA0000120E0E72068406800F001000028EBD059
:100BB0002068006820F002002168086000F05CFDF9
:100BC00005460DE000F058FD401B0A2808D9606A70
:100BD00040F400306062052084F820000120C2E764
:100BE0002068406800F002000028EBD1207E012838
:100BF00006D12068006840F080002168086005E0A8
:100C00002068006820F0800021680860607E01286C
:100C100006D12068006840F040002168086005E0C7
:100C20002068006820F0400021680860A07E01284C
:100C300006D12068006840F020002168086005E0C7
:100C40002068006820F0200021680860E07E01280C
:100C500006D12068006820F010002168086005E0D7
:100C60002068006840F0100021680860207F01289B
:100C700006D12068006840F008002168086005E09F
:100C80002068006820F0080021680860607F012863
:100C900006D12068006840F004002168086005E083
:100CA0002068006820F0040021680860D4E902018F
:100CB000084321690843616908436168491E084384
:100CC0002168C86100206062012084F820000020B3
:100CD00049E7000010B586B00446142101A8FFF7CB
:100CE000BBFA56492068884249D155480068401CE3
:100CF000534908600846006801280FD100BF002052
:100D000000905048006840F000704E490860084666
:100D1000006800F00070009000BF00BF00BF00201E
:100D2000009048481038006840F0080045491039E4
:100D300008600846006800F00800009000BF00BF8F
:100D400003200190022002900020039003200490D1
:100D50000920059001A93C4800F086FB00221146BD
:100D6000142001F0CFF8142001F0BCF80022114645
:100D7000152001F0C7F8152001F0B4F85CE0334904
:100D80002068884258D100BF002000902D4800689C
:100D900040F080602B4908600846006800F08060E1
:100DA000009000BF00BF26480068401C244908602E
:100DB0000846006801280FD100BF0020009021489C
:100DC000006840F000701F4908600846006800F0A5
:100DD0000070009000BF00BF00BF002000901948C5
:100DE0001038006840F002001649103908600846C3
:100DF000006800F00200009000BF00BF602001907A
:100E00000220029000200390032004900920059006
:100E100001A90F4800F028FB00221146402001F0F4
:100E200071F8402001F05EF800221146412001F0E7
:100E300069F8412001F056F806B010BD006400408A
:100E40000000002040380240000C024000680040D2
:100E5000000402407047000010B5044613480078B3
:100E600000B910BD1249206888420CD1114BA3F182
:100E70001C0200212046FFF78EFC0E482038816AB4
:100E8000001D88470FE00C49206888420BD10B4BAE
:100E9000A3F11C0200212046FFF77DFC0748203803
:100EA000816A001D884700BFDBE70000E8030020DF
:100EB000006400408C24002000680040B82400201A
:100EC0007047000010B504461049206888420CD1D4
:100ED0000F4BA3F11C0201212046FFF75CFC0C48DC
:100EE0002038816A001D88470FE00A49206888423F
:100EF0000BD1094BA3F11C0201212046FFF74BFC4B
:100F000005482038816A001D884710BD00640040F4
:100F10008C24002000680040B8240020704770B581
:100F2000044694F82000012822D1022084F82000F1
:100F30002068006820F001002168086000F09CFB38
:100F400005460DE000F098FB401B0A2808D9606AAE
:100F500040F400306062052084F82000012070BD5C
:100F60002068406800F001000028EBD16062F6E7DD
:100F7000606A40F4002060620120F0E7704770472B
:100F80007047704770477047704770B50446A56D4D
:100F900000F072FB064694F83500022808D0802045
:100FA000606500BF002084F8340000BF012070BDE0
:100FB0002068006820F016002168086020684069F9
:100FC00020F0800021684861206C08B9A06C28B12D
:100FD0002068006820F00800216808602068006828
:100FE00020F001002168086010E000F045FB801B44
:100FF00005280BD920206065032084F8350000BF48
:10100000002084F8340000BF0320D0E72068006887
:1010100000F001000028E8D194F85C103F208840DF
:10102000A860012084F8350000BF002084F8340057
:1010300000BF00BFBBE7014691F83500022803D08E
:101040008020486501207047052081F83500086838
:10105000006820F001000A6810600020F3E700003B
:10106000F8B50446002000908C4800684FF41651F3
:10107000B0FBF1F7A56D2E6894F85C10082088404D
:10108000304098B12068006800F0040070B120681A
:10109000006820F004002168086094F85C100820C3
:1010A0008840A860606D40F00100606594F85C10B5
:1010B00001208840304068B12068406900F080001D
:1010C00040B194F85C1001208840A860606D40F049
:1010D0000200606594F85C1004208840304068B1DC
:1010E0002068006800F0020040B194F85C10042011
:1010F0008840A860606D40F00400606594F85C1062
:1011000010208840304078B32068006800F0080064
:1011100050B394F85C1010208840A86020680068E4
:1011200000F4802080B12068006800F4002028B915
:10113000206CC8B12046216C884715E0A06C98B19E
:101140002046A16C88470FE02068006800F480709A
:1011500028B92068006820F0080021680860206C29
:1011600010B12046216C884794F85C1020208840FC
:101170003040002865D02068006800F0100000288A
:101180005FD094F85C1020208840A86094F8350067
:10119000052828D12068006820F016002168086022
:1011A0002068406920F0800021684861206C08B9FF
:1011B000A06C28B12068006820F008002168086051
:1011C00094F85C103F208840A860012084F8350026
:1011D00000BF002084F8340000BF206D10B120460D
:1011E000216D8847F8BD2068006800F4802080B138
:1011F0002068006800F4002028B9606C10B1204617
:10120000616C88471DE0E06BD8B12046E16B8847F0
:1012100017E02068006800F4807068B920680068F2
:1012200020F0100021680860012084F8350000BF1C
:10123000002084F8340000BFE06B10B12046E16B61
:101240008847606D38B3606D00F00100F0B1052093
:1012500084F835002068006820F0010021680860EB
:1012600000BF0098401C0090B84200D905E02068FB
:10127000006800F001000028F3D100BF012084F8CD
:10128000350000BF002084F8340000BFE06C10B1CE
:101290002046E16C884700BFA4E70000080000205A
:1012A0002DE9F0410446002500F0E6F9074614B99F
:1012B0000120BDE8F081606A00B100BF022084F81F
:1012C000350000BF002084F8340000BF20680068AB
:1012D00020F00100216808600AE000F0CDF9C01B91
:1012E000052805D920206065032084F83500E0E753
:1012F0002068006800F001000028EED12068056831
:1013000021480540D4E901010843E1680843216907
:10131000084361690843A1690843E1690843216AF8
:1013200008430543606A042803D1D4E90B0108434C
:101330000543206805602068456925F00705606A57
:101340000543606A04280DD1A06A0543E06A48B1EC
:1013500020460AF0DFFE28B140206065012084F8B5
:101360003500A6E72068456120460AF029FF0646B9
:1013700094F85C103F208840B06000206065012038
:1013800084F83500002094E73F8010F02DE9F04705
:1013900004460D4616461F464FF00008D4F85890F4
:1013A00000BF94F83400012802D10220BDE8F08784
:1013B000012084F8340000BF94F83500012825D1BD
:1013C000022084F83500002060653B4632462946FD
:1013D00020460AF089FE94F85C103F208840C9F846
:1013E00008002068006840F0160021680860206C42
:1013F00028B12068006840F0080021680860206873
:10140000006840F001002168086006E000BF00208D
:1014100084F8340000BF4FF002084046C6E70000E1
:1014200070B5044600F028F906462546681C10B140
:1014300004480078054400BF00F01EF9801BA84254
:10144000FAD370BD140000207047000010B50446A8
:1014500004480068204020B1024804602046FFF79D
:10146000F3FF10BD143C0140F8B502460B460025C1
:10147000002400200021D5E0012606FA01F51E68AF
:1014800006EA0504AC4274D11E7906F00306012E6B
:1014900004D01E7906F00306022E13D190684F0087
:1014A0000326BE40B0434F00DE68BE40304390602C
:1014B000506801268E40B0431E79C6F300168E4058
:1014C000304350601E7906F00306032E09D0D06821
:1014D0004F000326BE40B0434F009E68BE403043DD
:1014E000D0601E7906F00306022E13D1CF0802F158
:1014F000200656F827004E07F70E0F26BE40B043D1
:101500004F07FF0E1E69BE403043CF0802F1200690
:1015100046F8270010684F000326BE40B0431E79EE
:1015200006F003064F00BE40304310605E6806F4CC
:101530004036002E75D000BF002600963B4E366820
:1015400046F48046394F3E603E46366806F4804693
:10155000009600BF00BF364E8F0856F827008E0752
:10156000370F0F26BE40B043324EB24202D10026A2
:1015700024E056E0304EB24201D101261EE02F4E4B
:10158000B24201D1022619E02D4EB24201D103260A
:1015900014E02C4EB24201D104260FE02A4EB24292
:1015A00001D105260AE0294EB24201D1062605E006
:1015B000274EB24201D1072600E008268F073F0FD1
:1015C000BE4030431A4E8F0846F82700214E30683F
:1015D000A0435E6806F4803606B120431D4E30609D
:1015E000361D3068A0435E6806F4003606B120431D
:1015F000184E361D3060361D3068A0435E6806F414
:10160000801606B12043134E08363060361D306810
:10161000A0435E6806F4001606B120430D4E0C365A
:101620003060491C1029FFF427AFF8BD4438024050
:101630000838014000000240000402400008024057
:10164000000C02400010024000140240001802404A
:10165000001C0240003C014010B5426921EA02032F
:1016600002EA010443EA0443836110BD0AB18161C7
:1016700001E00B0483617047014800687047000077
:101680000C00002070B504460CB9012070BD94F820
:101690003D0028B9002084F83C00204600F006FBFD
:1016A000242084F83D002068006820F001002168B3
:1016B00008602068006840F40040216808602068E5
:1016C000006820F400402168086001F043FB0546F3
:1016D0005C496068884206D85B48854201D2012097
:1016E00007E0002005E05948854201D2012000E0D2
:1016F0000020012800D1C9E75548B5FBF0F6206865
:10170000406820F03F003043216848604D496068E0
:10171000884201D8701C07E04FF4967070434FF474
:101720007A71B0FBF1F0401C2168096A21F03F0199
:1017300008432168086243496068884214D8681EDB
:1017400061684900B0FBF1F0401CC0F30B000428B5
:1017500001D204203DE0681E61684900B0FBF1F051
:10176000401CC0F30B0034E0A06838B9681E616803
:1017700001EB4101B0FBF1F0401C0AE0681E61681A
:1017800001EBC10202EB0111B0FBF1F0401C40F48F
:101790008040C0F30B0008B901201AE0A06848B9E6
:1017A000681E616801EB4101B0FBF1F0401CC0F321
:1017B0000B000CE0681E616801EBC10202EB011135
:1017C000B0FBF1F0401CC0F30B0040F4804040F44B
:1017D00000402168C9694CF6FF72914308432168B3
:1017E000C861D4E9070108432168096821F0C001F4
:1017F000084321680860D4E9031008432168896818
:1018000048F2FF329143084321688860D4E905011A
:1018100008432168C96821F0FF0108432168C860B6
:101820002068006840F00100216808600020206402
:10183000202084F83D000020206384F83E0000BF93
:1018400024E70000A086010080841E0000093D00FE
:1018500040420F002DE9FC5F04460F469046994632
:10186000DDE90CAB0E9EFFF707FF054694F83D003F
:10187000202870D119230122B049204600950AF092
:10188000F8FD10B10220BDE8FC9F00BF94F83C00B9
:10189000012801D10220F6E7012084F83C0000BFB6
:1018A0002068006800F0010028B92068006840F056
:1018B0000100216808602068006820F40060216849
:1018C0000860222084F83D00402084F83E0000207B
:1018D0002064C4F824A0A4F82AB0608D208598481C
:1018E000E0624B46424639462046CDE900650AF0A3
:1018F00081FC08B10120C6E7208D88B900BF002017
:10190000019020684069019020688069019000BFC3
:1019100000BF2068006840F400702168086040E063
:10192000208D012818D12068006820F4806021688B
:10193000086000BF00200190206840690190206885
:101940008069019000BF00BF2068006840F400700B
:101950002168086025E0EFE0208D022816D120687C
:10196000006820F48060216808602068006840F406
:1019700000602168086000BF002001902068406975
:10198000019020688069019000BF0AE000BF00203C
:10199000019020684069019020688069019000BF33
:1019A00000BFBAE0208D03287ED8208D012815D1F4
:1019B0002A46314620460AF0FBFD08B1012062E7C5
:1019C00020680069616A0870606A401C6062208D4E
:1019D000401E2085608D401E60859EE0208D02287F
:1019E0002AD1334600225749204600950AF041FD8E
:1019F00008B1012047E72068006840F400702168C2
:101A0000086020680069616A0870606A401C606252
:101A1000208D401E2085608D401E608520680069F5
:101A2000616A0870606A401C6062208D401E2085DB
:101A3000608D401E608570E033460022414920469B
:101A400000950AF016FD08B101201CE72068006827
:101A500020F480602168086020680069616A08706D
:101A6000606A401C6062208D401E2085608D401E93
:101A70006085334600223349204600950AF0F9FC80
:101A800008B10120FFE62068006840F4007021687A
:101A9000086020680069616A0870606A401C6062C2
:101AA000208D401E208500E010E0608D401E608586
:101AB00020680069616A0870606A401C6062208D5D
:101AC000401E2085608D401E608526E02A463146F6
:101AD00020460AF06DFD08B10120D4E620680069B7
:101AE000616A0870606A401C6062208D401E20851B
:101AF000608D401E608520684069C0F3800060B141
:101B000020680069616A0870606A401C6062208D0C
:101B1000401E2085608D401E6085208D00287FF44A
:101B200041AF202084F83D00002084F83E0000BF33
:101B300084F83C0000BFA6E60220A4E602001000E4
:101B40000000FFFF040001002DE9FC5F04460F4682
:101B500090469946DDE90CAB0E9EFFF78DFD0546DC
:101B600094F83D0020287DD1192301224D492046BB
:101B700000950AF07EFC10B10220BDE8FC9F00BF7A
:101B800094F83C00012801D10220F6E7012084F8F6
:101B90003C0000BF2068006800F0010028B9206800
:101BA000006840F00100216808602068006820F4A7
:101BB000006021680860212084F83D00402084F8FE
:101BC0003E0000202064C4F824A0A4F82AB0608D50
:101BD00020853548E0624B46424639462046CDE9ED
:101BE00000650AF0B7FB08B10120C6E731E02A46DC
:101BF000314620460AF0AEFC50B1206C042805D1D5
:101C00002068006840F40070216808600120B4E793
:101C1000606A007821680861606A401C6062208DFB
:101C2000401E2085608D401E608520684069C0F39D
:101C3000800070B1208D60B1606A00782168086111
:101C4000606A401C6062208D401E2085608D401EB1
:101C50006085208D0028CAD12A46314620460AF0E8
:101C60004BFC00E01CE050B1206C042805D120683A
:101C7000006840F400702168086001207DE720685A
:101C8000006840F4007021680860202084F83D005E
:101C9000002084F83E0000BF84F83C0000BF6CE7E1
:101CA00002206AE7020010000000FFFF10B586B0B6
:101CB0000446142101A8FEF7CFFA4949206888425A
:101CC0007ED100BF002000904648006840F004002C
:101CD000444908600846006800F00400009000BF16
:101CE00000BF00BF002000900846006840F00100DF
:101CF00008600846006800F00100009000BF00BFC7
:101D000048150190122002900120039003200490B6
:101D10000420059001A93448FFF7A6FB4FF480701A
:101D200001901220029001200390032004900420CF
:101D3000059001A92D48FFF797FB00BF00200090F8
:101D400028481030006840F400002649103108602F
:101D50000846006800F40000009000BF00BF24485F
:101D6000244908604FF0C06048600021214881602C
:101D7000C1604FF480610161002141618161C161F5
:101D800001624162FFF78CFA08B1FEF7AEFB00BFBB
:101D90001848A063846300BF1548303016490860B6
:101DA0004FF0C06048604021134881600021C1604D
:101DB0004FF480610161002141618161C16100E0F6
:101DC0000BE001624162FFF76BFA08B1FEF78DFB91
:101DD00000BF09486063846300BF06B010BD000007
:101DE000005C004030380240000802400000024021
:101DF0004060024098040020F80400200348006876
:101E00000349097808440149086070470C00002024
:101E10001400002010B50D48006840F400700B4914
:101E200008600846006840F4806008600846006862
:101E300040F480700860032000F0A2F80F2000F04A
:101E400007F800F02BF8002010BD0000003C024015
:101E500070B504460E4800784FF47A71B1FBF0F08B
:101E60000C490968B1FBF0F5284601F06CFD08B19A
:101E7000012070BD102C07D200222146501E00F018
:101E800041F80548046001E00120F2E70020F0E796
:101E900014000020080000201000002008B500BF3A
:101EA000002000900E48006840F480400C49086013
:101EB0000846006800F48040009000BF00BF00BFEB
:101EC00000200090081F006840F08050091F086043
:101ED0000846006800F08050009000BF00BF08BDB9
:101EE0004438024001460846002809DB00F01F0381
:101EF00001229A4043099B0003F1E023C3F800212B
:101F000000BF70472DE9F05F80460D46164600275A
:101F10000BF056FA074639462A46334601F00700C9
:101F2000C0F1070ABAF1040F02D94FF0040A01E028
:101F3000C0F1070AD14600F1040ABAF1070F02D234
:101F40004FF0000A01E0A0F1030AD4464FF0010A65
:101F50000AFA09FAAAF1010A0AEA020A0AFA0CFACA
:101F60004FF0010B0BFA0CFBABF1010B0BEA030B6F
:101F70004AEA0B04214640460BF00EFABDE8F09FFA
:101F800000BF00F00702064B19684FF6FF03194027
:101F9000044B0B4343EA0221014B196000BF704719
:101FA0000CED00E00000FA0570470246106841623F
:101FB00000207047F0B5034615461868446A21B9F9
:101FC00044EA05401E68B06219E01868806A04EBB4
:101FD0001044002208E0186800F5827050F82200D2
:101FE00004EB1044501CC2B2481E9042F3D844EA9D
:101FF0000547186800F582704E1E40F826700020D4
:10200000F0BD10B50446D4F8040403F02DFD10BD56
:1020100070B504460D46C5EBC50304F13C0101EB68
:102020008301CA682946D4F8040403F065FC70BD36
:1020300070B504460D46C5EBC50304F5FE7101EB12
:102040008301CA682946D4F8040403F0C6FC70BDB5
:1020500010B50446D4F8040403F009FD10BD70B5B2
:1020600004460E4606F0800080280AD106F00F00D4
:10207000C0EBC00104F13C0000EB81050120687059
:1020800009E006F00F00C0EBC00104F5FE7000EBA4
:1020900081050020687006F00F00287000BF94F8DA
:1020A000BC03012801D1022070BD012084F8BC03CB
:1020B00000BF2946206804F049F900BF002084F8D9
:1020C000BC0300BF00BFEFE770B504460E4606F044
:1020D0000F006168884201D9012070BD06F08000C0
:1020E00080280AD106F00F00C0EBC00104F13C00CB
:1020F00000EB81050120687009E006F00F00C0EBDD
:10210000C00104F5FE7000EB81050020687000201E
:10211000A87006F00F00287000BF94F8BC030128D7
:1021200001D10220D9E7012084F8BC0300BF294671
:10213000206804F0F1FB00BF002084F8BC0300BF5E
:1021400000BFCAE7024601F00F00C0EBC00302F572
:10215000FE7000EB8300806970472DE9F04705466B
:102160000E4690461F464FF0000906F0800080287A
:102170000AD106F00F00C0EBC00105F13C0000EBF6
:1021800081040120607009E006F00F00C0EBC0017F
:1021900005F5FE7000EB81040020607006F00F0072
:1021A0002070C4F80880E770607808B12078E0807B
:1021B000022F01D10020207100BF95F8BC03012837
:1021C00002D10220BDE8F087012085F8BC0300BFE2
:1021D0002146286803F0FCFF00BF002085F8BC03FF
:1021E00000BF4846EEE72DE9F04104460E4617468B
:1021F000984606F00F00C0EBC00104F5FE7000EB3E
:102200008105EF60C5F814800020A861687006F0B1
:102210000F0028702069012800D12F6106F00F00FF
:1022200028B9227C2946206804F052FA04E0227C76
:102230002946206804F004FC0020BDE8F08170B558
:1022400004460D4605F00F006168884201D901205F
:1022500070BD05F0800080280AD105F00F00C0EBAA
:10226000C00104F13C0000EB81060120707007E022
:10227000C5EBC50104F5FE7000EB8106002070700F
:102280000120B07005F00F00307000BF94F8BC035F
:10229000012801D10220DBE7012084F8BC0300BF44
:1022A0003146206804F07FFB05F00F0028B9217C3F
:1022B00004F57172206804F0F7FA00BF002084F87A
:1022C000BC0300BF00BFC3E72DE9F04104460E4642
:1022D0001746984606F00F00C0EBC00104F13C0021
:1022E00000EB8105EF60C5F814800020A861012093
:1022F000687006F00F0028702069012800D12F6156
:1023000006F00F0028B9227C2946206804F0E0F985
:1023100004E0227C2946206804F092FB0020BDE8FE
:10232000F0812DE9FE4F044620680290029D20684E
:1023300004F075FD00287DD1206804F0AFFD08B9D8
:10234000BDE8FE8F206804F0A9FD00F0020002281D
:1023500005D12068406900F00200216848612068CA
:1023600004F09CFD00F01000102846D12068806920
:1023700020F01000216888610298D0F8209009F0C0
:102380000F00C0EBC00104F5FE7000EB810AC9F339
:10239000434002281AD147F6F07009EA000030B332
:1023A000C9F30A12DAF80C10029804F07CFDC9F3A4
:1023B0000A11DAF80C000844CAF80C00C9F30A1133
:1023C000DAF818000844CAF8180010E0C9F34340CE
:1023D00006280CD1082204F57171029804F063FDFF
:1023E000C9F30A11DAF818000844CAF8180020687E
:1023F000806940F0100021688861206804F04EFD7B
:1024000000F40020B0F5002F52D10026206804F01F
:1024100015FD834649E00BF00100E8B3F1B22068F6
:1024200004F02FFD804608F0010058B1012105F5A8
:10243000306000E021E200EB46108160314620462A
:102440000AF0E6F908F00800082809D1082105F586
:10245000306000EB46108160314620460AF0A6F954
:1024600008F01000102805D1102105F5306000EBB0
:102470004610816008F02000202805D1202105F5B4
:10248000306000EB4610816008F40050B0F5005F4A
:1024900008D14FF4005100E004E005F5306000EB96
:1024A00046108160761C4FEA5B0BBBF1000FB2D186
:1024B000206804F0F3FC00F48020B0F5802F7ED17A
:1024C000206804F0B1FC8346002683E00BF0010095
:1024D00000287CD0F1B2206804F0BAFC804608F0F5
:1024E0000100F0B306F00F0101208840019040F692
:1024F00034004159019821EA000040F63401485166
:10250000012105F5106000EB46108160206901286B
:1025100024D1C6EBC60104F13C0000EB8100C6EB00
:10252000C602C16804F13C0000EB820080680144EF
:10253000C6EBC60204F13C0000EB8200C1606EB93C
:10254000C6EBC60104F13C0000EB8100406928B9EC
:1025500004F571720121206804F0A6F9F1B2204659
:1025600000E001E0FFF754FD08F00800082805D15D
:10257000082105F5106000EB4610816008F010009E
:10258000102805D1102105F5106000EB4610816080
:1025900008F04000402805D1402105F5106000EB0F
:1025A0004610816008F00200022805D1022105F5DD
:1025B000106000EB4610816008F0800001E00DE043
:1025C00005E0802803D1314620460AF093F8761CB6
:1025D0004FEA5B0BBBF1000F7FF478AF206804F08B
:1025E0005DFC00F00040B0F1004F1CD140F604004B
:1025F000405920F0010140F60400415194F8F403E1
:10260000012807D1002084F8F40300212046FFF7B9
:10261000CBFC02E0204600F063FA2068406900F03D
:10262000004021684861206804F038FC00F4006034
:10263000B0F5006F0ED140F60800405900F00100DF
:1026400010B1204600F0A4FA2068406900F4006050
:1026500021684861206804F021FC00F48050B0F546
:10266000805F7DD140F60400405920F0010140F622
:10267000040041511021206804F0A4FB00273EE033
:102680004FF67F3105F5106000EB4710816005F5CE
:10269000106000EB4710006820F4001105F5106091
:1026A00000EB4710016005F5106000EB4710006873
:1026B00040F0006105F5106000EB471001604FF637
:1026C0007F3105F5306000EB4710816005F5306023
:1026D00000EB4710006820F4001105F5306000EBB6
:1026E0004710016005F5306000EB4710006840F0CE
:1026F000006105F5306000EB471001607F1C6068E9
:10270000B842BDD840F61C00405940F0011140F6D7
:102710001C004151206B70B1D5F8840840F00B01CA
:10272000C5F8841840F64400405940F00B0140F6CB
:10273000440041510FE040F61400405942F22B0191
:10274000084340F614014851081F405940F00B015E
:102750004FF401604151D5F8000820F4FE6000E01C
:102760000DE0C5F80008217C04F57172206804F0C2
:102770009BF82068406900F4805021684861206817
:1027800004F08CFB00F40050B0F5005F17D1206816
:1027900003F086FD206804F02FFBE06000F0D4FA1F
:1027A0000090227B2068009904F000FC204600F095
:1027B0007FF92068406900F4005021684861206872
:1027C00004F06CFB00F00800082808D1204600F057
:1027D0008EF92068406900F008002168486120688F
:1027E00004F05CFB00F48010B0F5801F0AD10026D5
:1027F0003146204600F043F82068406900F480101C
:1028000021684861206804F049FB00F40010B0F52D
:10281000001F0AD100263146204600F039F8206812
:10282000406900F4001021684861206804F036FB1C
:1028300000F08040B0F1804F08D12046FFF7E1FB67
:102840002068406900F0804021684861206804F0F9
:1028500025FB00F0040004280FD12068D0F8049074
:1028600009F00400042802D12046FFF7F1FB20689C
:10287000406840EA09002168486000BF60E570B523
:1028800004460D462946D4F8040403F059F970BDF6
:1028900070B504460D462946D4F8040403F068F9DF
:1028A00070BD70B58AB0044614B901200AB070BD7D
:1028B000266894F8BD0328B9002084F8BC0320469C
:1028C00000F0A2F8032084F8BD03F06B00F48070E0
:1028D00008B900212161206803F0F2FE282204F1EA
:1028E00010016846FDF79FFC94E80F0003F0ECFC34
:1028F00020B1022084F8BD030120D7E70021206821
:1029000004F001FB002531E00121C5EBC50204F113
:102910003C0000EB82004170C5EBC50104F13C00B6
:1029200000F82150C5EBC50100EB8100C5800021F6
:10293000C5EBC50204F13C0000EB8200C170C5EBA1
:10294000C50204F13C0000EB82008160C5EBC502CA
:1029500004F13C0000EB8200C160C5EBC50204F14C
:102960003C0000EB82004161681CC5B26068A8426F
:10297000CAD800252AE00021C5EBC50204F5FE7087
:1029800000EB82004170C5EBC50104F5FE7000F854
:1029900021500021C5EBC50200EB8200C170C5EBE0
:1029A000C50204F5FE7000EB82008160C5EBC50234
:1029B00004F5FE7000EB8200C160C5EBC50204F5B2
:1029C000FE7000EB82004161681CC5B26068A842DD
:1029D000D1D8282204F110016846FDF724FC94E8C0
:1029E0000F0003F07DFD20B1022084F8BD0301201B
:1029F0005CE7002084F83800012084F8BD032068DB
:102A000003F05CFD002051E710B586B004461421A8
:102A100001A8FDF721FC2068B0F1A04F42D100BF12
:102A2000002000902048006840F001001E49086026
:102A30000846006800F00100009000BF00BF4FF49E
:102A4000C0500190022002900020039003200490C7
:102A50000A20059001A91548FEF706FD00BF12489F
:102A6000001D006840F080000F49091D086000BF8C
:102A7000002000900C481430006840F480400A495F
:102A8000143108600846006800F48040009000BFE0
:102A900000BF00BF002211464320FFF733FA432056
:102AA000FFF720FA06B010BD3038024000000240A7
:102AB00070B504460125E06808B9002506E0E06825
:102AC000022801D1012501E0FDF70FFD2946D4F8C8
:102AD000040403F0ECF8D4F8040403F091F870BD9A
:102AE00010B50446D4F8040403F0C0F810BD10B5C6
:102AF0000446D4F8040403F0C4F810BD70B50446CD
:102B00000D4600BF94F8BC03012801D1022070BD1E
:102B1000012084F8BC0300BF84F83850294620689F
:102B200004F025FA00BF002084F8BC0300BF00BFFA
:102B3000EDE710B5044604F57171D4F8040403F010
:102B4000CDF810BD70B50446256800BF94F8BC03ED
:102B5000012801D1022070BD012084F8BC0300BF10
:102B6000A06A012806D1A069012803D0A86B40F40F
:102B70008030A863206804F005F9206803F08CFC1D
:102B800000BF002084F8BC0300BF00BFE3E70000E3
:102B900010B50446D4F8040403F0FDF82068D0F81A
:102BA000000E40F001002168C1F8000E206A28B133
:102BB0000348006840F006000149086010BD0000AD
:102BC00010ED00E070B504460D460CB9012070BD53
:102BD0005848006800F00700A84209D255490D7016
:102BE0000846006800F00700A84201D00120EEE787
:102BF000207800F0020002281DD1207800F00400A7
:102C0000042805D14C48006840F4E0504A49086067
:102C1000207800F00800082805D14748006840F4F3
:102C20006040454908604448006820F0F000A16811
:102C3000084341490860207800F00100A8B36068AB
:102C4000012807D13C4808380068C0F34040B8B9B3
:102C50000120BCE76068022802D06068032807D121
:102C6000354808380068C0F3406048B90120AEE735
:102C7000314808380068C0F3400008B90120A6E7D1
:102C80002D48006820F00300616808432A49086065
:102C9000FEF7F2FC064609E0FEF7EEFC801B41F26F
:102CA0008831884202D9032091E707E02248006872
:102CB00000F00C006168B0EB810FEDD11D48006899
:102CC00000F00700A84209D91A490D7008460068AB
:102CD00000F00700A84201D0012078E7207800F03A
:102CE0000400042807D11448006820F4E050E1688B
:102CF000084311490860207800F00800082808D12E
:102D00000D48006820F46040216940EAC1000A498A
:102D1000086000F03FF808490968C1F30311074A49
:102D2000515CC8400649086006480068FFF790F803
:102D300000204CE7003C02400838024078E40008DC
:102D400008000020100000200148006870470000C3
:102D50000800002000B5FFF7F7FF04490968C1F338
:102D60008221034A515CC84000BD0000083802407F
:102D700088E4000800B5FFF7E7FF04490968C1F3DC
:102D80004231034A515CC84000BD0000083802408F
:102D900088E400082DE9F047002400250026A1461C
:102DA0002548006800F00C0020B1042805D0082850
:102DB0003AD105E0DFF8849039E0DFF8849036E01E
:102DC0001D48001F006800F03F041B48001F0068FA
:102DD00000F4800078B11A481749091F0968C1F347
:102DE0008811A0FB01700146224600233846FDF7FA
:102DF000E9F905460EE011480F49091F0968C1F3BA
:102E00008811A0FB01700146224600233846FDF7D9
:102E1000D9F905460848001F0068C0F30140401C6E
:102E20004600B5FBF6F902E0DFF8109000BF00BFE6
:102E30004846BDE8F0870000083802400024F4004E
:102E4000001BB700F8B504460CB90120F8BD207886
:102E500000F00100002874D0F948006800F00C0070
:102E600004280DD0F648006800F00C00082813D1A3
:102E7000F348001F006800F48000B0F5800F0BD10C
:102E8000EF4808380068C0F34040002859D0606817
:102E9000002856D10120D9E700BF6068B0F5803F17
:102EA00008D1E7480838006840F48030E449083920
:102EB00008601EE06068B0F5A02F0DD1E04808382A
:102EC000006840F48020DE49083908600846006840
:102ED00040F4803008600CE0D9480838006820F4DD
:102EE0008030D749083908600846006820F48020FF
:102EF000086000BF606890B1FEF7BEFB054606E0C3
:102F0000FEF7BAFB401B642801D903209EE7CC489A
:102F100008380068C0F340400028F1D011E0FEF707
:102F2000ABFB054606E0FEF7A7FB401B642801D972
:102F300003208BE7C24808380068C0F340400028EF
:102F4000F1D1207800F0020002285FD1BC4800686F
:102F500000F00C0058B1BA48006800F00C000828D6
:102F60001CD1B748001F006800F48000B0B9B44815
:102F700008380068C0F3400020B1E068012801D0A3
:102F8000012063E7AE480838006820F0F8002169A6
:102F900040EAC100AA490839086037E0E06800B398
:102FA0000120A8490860FEF767FB054606E0FEF72A
:102FB00063FB401B022801D9032047E7A0480838DB
:102FC0000068C0F340000028F1D09D480838006830
:102FD00020F0F800216940EAC100994908390860E9
:102FE00014E0002097490860FEF746FB054606E01E
:102FF000FEF742FB401B022801D9032026E7904838
:1030000008380068C0F340000028F1D1207800F0B3
:10301000080008282CD16069A8B101208A490860FD
:10302000FEF72AFB054606E0FEF726FB401B0228BA
:1030300001D903200AE782486C300068C0F34000E1
:103040000028F1D014E000207F490860FEF714FB4F
:10305000054606E0FEF710FB401B022801D90320BD
:10306000F4E677486C300068C0F340000028F1D1E6
:10307000207800F00400042870D100277048383010
:10308000006800F0805090B900BF002000906C48AC
:103090003830006840F0805069493831086008468F
:1030A000006800F08050009000BF00BF0127674813
:1030B000006800F48070B0B96448006840F4807023
:1030C00062490860FEF7D8FA054606E0FEF7D4FA32
:1030D000401B022801D90320B8E65C48006800F4D0
:1030E00080700028F2D000BFA068012808D15448A1
:1030F0006830006840F001005149683108601DE007
:10310000A06805280DD14E486830006840F00400E2
:103110004B49683108600846006840F001000860CB
:103120000CE047486830006820F0010044496831ED
:1031300008600846006820F00400086000BFA0682E
:10314000A8B1FEF799FA054609E0FEF795FA401B8B
:1031500041F28831884202D9032077E626E03848D8
:1031600068300068C0F340000028EED013E0FEF79E
:1031700083FA054608E0FEF77FFA401B41F28831EA
:10318000884201D9032061E62D4868300068C0F309
:1031900040000028EFD1012F07D1294838300068BE
:1031A00020F0805026493831086000BFA06900280F
:1031B00045D02348006800F00C0008285DD0A069C5
:1031C000022845D100201F490866FEF755FA05463A
:1031D00006E0FEF751FA401B022801D9032035E62C
:1031E000174808380068C0F340600028F1D1D4E9DE
:1031F00007010843616A40EA81110122A06AC2EB1B
:10320000500041EA00412C20005D41EA00600C4979
:10321000091F086001200B490866FEF72DFA0546D4
:1032200006E0FEF729FA401B022801D903200DE62B
:10323000034808380068C0F340600028F1D049E036
:103240000838024000004742800E474200700040AC
:10325000002021490866FEF70FFA054606E0FEF752
:103260000BFA401B022801D90320EFE51B48006838
:10327000C0F340600028F2D12CE0A069012800D101
:10328000E4E51648001D0668A069012820D006F470
:103290008001E06981421BD106F03F01206A814232
:1032A00016D147F6C0703040616AB0EB811F0FD174
:1032B00006F440310122A06AC2EB5000B1EB004F8E
:1032C00006D106F070612C20005DB1EB006F01D0DB
:1032D0000120BBE50020B9E500004742003802406C
:1032E000704710B504460CB9012010BD606A38B9AA
:1032F0006068B0F5827F00D105E00021E16102E065
:103300000021216161610021A16294F8510028B976
:10331000002084F85000204600F048F8022084F88D
:1033200051002068006820F0400021680860A088F3
:1033300000F48270218901F404410843A18901F459
:1033400000610843217C01F002010843217D01F066
:1033500001010843218B01F400710843217F01F032
:10336000380108432021095D01F080010843218DC7
:1033700001F400510843216808600421A06901EAB2
:10338000104094F8241001F01001084321684860AF
:103390002068C06920F400602168C8610020606571
:1033A000012084F8510000209FE7000010B586B08E
:1033B0000446142101A8FCF74FFF504920688842B9
:1033C0007ED100BF002000904D48006840F480503E
:1033D0004B4908600846006800F48050009000BF28
:1033E00000BF00BF0020009045481438006840F03E
:1033F00002004349143908600846006800F00200E2
:10340000009000BF00BF00BF002000900846006889
:1034100040F0010008600846006800F001000090DC
:1034200000BF00BF182001900220029001200390ED
:10343000032004900520059001A93248FEF714F8F6
:10344000802001900220029001200390032004902C
:103450000520059001A92C48FEF706F82B482C49B9
:1034600008604FF0C0604860002129488160C16059
:103470004FF480610161002141618161C1614FF4BC
:103480004031016204214162032181620021C16255
:103490000163FDF705FF08B1FDF727F800BF1C48E1
:1034A000E064846300BF194818301A4908604FF07F
:1034B000C06048604021174881600021C16000E081
:1034C0001AE04FF480610161002141618161C161B5
:1034D0004FF4003101620421416203218162002125
:1034E000C1620163FDF7DCFE08B1FCF7FEFF00BF1F
:1034F0000848A064846300BF06B010BD00300140DE
:10350000443802400004024000000240406402408F
:10351000BC0500201C060020704770472DE9FF5FA6
:103520000446884691461D460E9E012002900020CA
:10353000019000BF94F85000012803D1022004B08C
:10354000BDE8F09F012084F8500000BFFEF794F81A
:10355000074694F851B060680390AA46BBF1010F8A
:103560000BD00398B0F5827F04D1A06810B9BBF1ED
:10357000040F02D002200190DBE0B8F1000F03D06D
:10358000B9F1000F00D015B901200190D1E094F8F5
:103590005100042802D0052084F851000020606505
:1035A000C4F83890E587A587C4F83080E586A586FD
:1035B000206460642068006800F04000402805D066
:1035C0002068006840F0400021680860E068B0F5BD
:1035D000006F4AD1606810B1BAF1010F09D1206BB8
:1035E00000882168C860206B801C2063E08E401E2C
:1035F000E08633E02068806800F00200022810D1E5
:10360000E08E70B1029801280BD1206B00882168F0
:10361000C860206B801C2063E08E401EE086002086
:1036200002902068806800F0010068B1E08F58B116
:103630002068C068A16B0880A06B801CA063E08F2D
:10364000401EE08701200290FEF716F8C01BB04232
:1036500004D3701C10B1032001906AE0E08E0028B2
:10366000C8D1E08F0028C5D14AE0606810B1BAF136
:10367000010F09D1206B007821680873206B401C72
:103680002063E08E401EE08634E02068806800F011
:103690000200022810D1E08E70B1029801280BD1EF
:1036A000206B007821680873206B401C2063E08E3B
:1036B000401EE086002002902068806800F0010033
:1036C00068B1E08F58B12068C068A16B0870A06B2A
:1036D000401CA063E08F401EE08701200290FDF7B0
:1036E000CBFFC01BB04201D3701C00B916B9032038
:1036F00001901EE0E08E0028C7D1E08F0028C4D1E1
:103700003A463146204609F0E5F920B10120019002
:10371000202060650DE0A06850B900BF0020009037
:103720002068C068009020688068009000BF00BFDB
:1037300000BF012084F8510000BF002084F8500031
:1037400000BF0198FBE600002DE9F04704460E4655
:1037500017461D464FF0000A00BF94F8500001289C
:1037600002D10220BDE8F087012084F8500000BF9C
:1037700094F85180D4F80490B8F1010F0AD0B9F54B
:10378000827F04D1A06810B9B8F1040F02D04FF0C5
:10379000020A7DE00EB107B115B94FF0010A77E0DA
:1037A00094F85100042802D0052084F8510000202C
:1037B00060652663A586E586A763A587E5872064FF
:1037C000606494F85100042806D13548E16C08641F
:1037D0003448E16CC86305E03348E16C0864334861
:1037E000E16CC8633248E16CC8640020E16C086594
:1037F000E38FD4F800C00CF10C01A26BE06CFDF774
:10380000C5FD48B1606D40F0100060654FF0010AE1
:10381000012084F851003BE02068406840F001003E
:10382000216848600020A16C0864A16CC863A16C89
:10383000C864A16C0865E38ED4F800C00CF10C02DA
:10384000216BA06CFDF7A2FD48B1606D40F0100047
:1038500060654FF0010A012084F8510018E02068EB
:10386000006800F04000402805D02068006840F063
:103870004000216808602068406840F0200021680E
:1038800048602068406840F002002168486000BF3E
:1038900000BF002084F8500000BF504662E70000DF
:1038A000C5CA0008B5C9000881CC000841CB000892
:1038B0008DC9000810B504461C49206888420ED105
:1038C0001B4A11895068FDF7C7FE1948B0F80A2253
:1038D00000F58571D0F810320A30984724E0154978
:1038E000206888420ED1144A11895068FDF7B4FE51
:1038F0001148B0F80A2200F58571D0F810320A306C
:10390000984711E00D49206888420DD10C4A118971
:103910005068FDF7A1FE0A48B0F80A2200F585714B
:10392000D0F810320A30984710BD00000030014036
:10393000002500200038004014270020003C0040F3
:1039400028290020704770B504462546681EB0F14E
:10395000807F01D301200FE0681E4FF0E021486115
:103960000F214FF0FF3009F017FD00204FF0E0214C
:10397000886107200861002070BD70477047000013
:1039800030B502460B4600BF92F83C00012801D139
:10399000022030BD012082F83C0000BF022082F8E6
:1039A0003D00106844681068816824F0700418684D
:1039B000044310684460184D1068A8421BD010687A
:1039C000B0F1804F17D0154D1068A84213D0144D98
:1039D0001068A8420FD0134D1068A8420BD0124DAA
:1039E0001068A84207D0114D1068A84203D0104DAE
:1039F0001068A84205D121F0800158680143106881
:103A00008160012082F83D0000BF002082F83C0068
:103A100000BF00BFBDE700000000014000040040FF
:103A200000080040000C004000040140004001403C
:103A30000018004010B504460CB9012010BD94F8E0
:103A40003D0028B9002084F83C00204600F026F80C
:103A5000022084F83D00211D206801F009FB0120AF
:103A600084F8460000BF84F83E0001213F20015544
:103A7000402001554120015500BF00BF012084F8BE
:103A8000420043200155442001554520015500BF07
:103A9000012084F83D000020D0E7000038B504463E
:103AA0003249206888420FD100BF00200090304882
:103AB000006840F002002E4908600846006800F0E7
:103AC0000200009000BF4FE02A492068884218D1C8
:103AD00000BF002000902648006840F00400244900
:103AE00008600846006800F00400009000BF00BFB6
:103AF000002201211E20FEF705FA1E20FEF7F2F932
:103B000032E01D492068884218D100BF0020009093
:103B10001748006840F0080015490860084600682A
:103B200000F00800009000BF00BF002201213220F9
:103B3000FEF7E8F93220FEF7D5F915E00F492068C5
:103B4000884211D100BF002000900948001D006884
:103B500040F400300649091D08600846006800F47A
:103B60000030009000BF00BF38BD000000040040DE
:103B70004038024000080040000C00400044014072
:103B8000014691F83D00012801D001207047022034
:103B900081F83D000868C06840F001000B68D860FB
:103BA0001A4B086898421BD00868B0F1804F17D0B4
:103BB000174B0868984213D0164B086898420FD0EC
:103BC000154B086898420BD0144B0868984207D0F0
:103BD000134B0868984203D0124B086898420CD1E6
:103BE0000868806800F00702062A0CD008680068A0
:103BF00040F001000B68186005E00868006840F0BC
:103C000001000B6818600020C0E7000000000140C0
:103C10000004004000080040000C00400004014087
:103C200000400140001800402DE9F04104460D46D7
:103C3000002700BF94F83C00012802D10220BDE813
:103C4000F081012084F83C0000BF022084F83D0090
:103C50002068866826F0770626F47F46206886600E
:103C60002868502833D00CDC202850D004DC0028F1
:103C70004BD0102851D149E0302849D040284CD1B0
:103C800039E060282DD0702807D0B0F5805F03D0D0
:103C9000B0F5005F41D10DE041E0D5E902136A685B
:103CA000206801F062FA2068866846F0770620688E
:103CB000866034E0D5E902136A68206801F055FA9D
:103CC0002068806840F480402168886027E0EA68C6
:103CD0006968206809F083F85021206809F076F8B7
:103CE0001DE0EA686968206809F08CF860212068A6
:103CF00009F06CF813E0EA686968206809F06FF869
:103D00004021206809F062F809E000BF00BF00BF51
:103D10002968206809F05AF801E0012700BF00BFB8
:103D2000012084F83D0000BF002084F83C0000BF63
:103D3000384684E7704710B5044620680069C0F330
:103D40004000D8B12068C068C0F34000B0B16FF047
:103D5000020021680861012020772068806900F056
:103D6000030018B12046FFF7E5FF05E0204600F00C
:103D7000DFF8204600F093F90020207720680069E2
:103D8000C0F38000D8B12068C068C0F38000B0B133
:103D90006FF00400216808610220207720688069A4
:103DA00000F4407018B12046FFF7C4FF05E020463C
:103DB00000F0BEF8204600F072F90020207720685D
:103DC0000069C0F3C000D8B12068C068C0F3C0006B
:103DD000B0B16FF0080021680861042020772068E6
:103DE000C06900F0030018B12046FFF7A3FF05E00B
:103DF000204600F09DF8204600F051F90020207781
:103E000020680069C0F30010D8B12068C068C0F312
:103E10000010B0B16FF01000216808610820207711
:103E20002068C06900F4407018B12046FFF782FF97
:103E300005E0204600F07CF8204600F030F9002034
:103E400020772068006900F0010058B12068C06840
:103E500000F0010030B16FF00100216808612046D8
:103E600000F0A4F920680069C0F3C01058B12068C0
:103E7000C068C0F3C01030B16FF0800021680861E5
:103E80002046FFF77AFD20680069C0F3801058B122
:103E90002068C068C0F3801030B16FF04000216826
:103EA0000861204600F02AFA20680069C0F340103B
:103EB00058B12068C068C0F3401030B16FF02000E6
:103EC000216808612046FFF759FD10BD10B586B086
:103ED0000446142101A8FCF7BFF912492068884262
:103EE0001DD100BF002000900F48006840F0200066
:103EF0000D4908600846006800F02000009000BFEF
:103F000000BF402001900220029001200390022077
:103F100004900320059001A90448FDF7A5FA06B016
:103F200010BD00000044014030380240001402403F
:103F300070472DE9F04104460D461646002700BFA4
:103F400094F83C00012802D10220BDE8F081012054
:103F500084F83C0000BF36B1042E1BD0082E31D0AF
:103F60000C2E5ED145E02946206808F091FE2068BD
:103F7000806940F00800216888612068806920F02D
:103F800004002168886120688069296908432168E4
:103F9000886148E02946206801F0F2F820688069CD
:103FA00040F40060216888612068806920F48060A6
:103FB0002168886120688069296940EA01202168B8
:103FC000886130E02946206808F09AFE2068C069C0
:103FD00040F008002168C8612068C06920F0040032
:103FE0002168C8612068C069296908432168C861DF
:103FF00019E02946206808F0BFFE2068C06940F437
:1040000000602168C8612068C06920F48060216870
:10401000C8612068C069296940EA01202168C86137
:1040200001E0012700BF00BF00BF002084F83C0072
:1040300000BF384689E710B504460CB9012010BD11
:1040400094F83D0028B9002084F83C00204600F098
:1040500025F8022084F83D00211D206801F008F8B1
:10406000012084F8460000BF84F83E0001213F2073
:104070000155402001554120015500BF00BF0120DE
:1040800084F8420043200155442001554520015544
:1040900000BF012084F83D000020D0E77047704742
:1040A00070B504460D4615B994F83E000BE0042D9A
:1040B00002D13F20005D06E0082D02D14020005DC6
:1040C00001E04120005D012801D0012070BD1DB933
:1040D000022084F83E000EE0042D03D102213F208F
:1040E000015508E0082D03D102214020015502E0CE
:1040F00002214120015501222946206801F024F8BF
:1041000023492068884203D022492068884201D18F
:10411000012000E0002028B12068406C40F40040FD
:10412000216848641A49206888421BD02068B0F191
:10413000804F17D018492068884213D0174920684B
:1041400088420FD01649206888420BD01149206858
:10415000884207D013492068884203D0124920685A
:1041600088420CD12068806800F00706062E0CD02B
:104170002068006840F001002168086005E02068C0
:10418000006840F001002168086000209EE7000000
:10419000000001400004014000040040000800400D
:1041A000000C0040004001400018004010B50446DB
:1041B00037492068884203D136494868804766E01D
:1041C0002068B0F1804F03D13349486880475EE0F2
:1041D00032492068884203D131494868804756E017
:1041E00030492068884203D12F49486880474EE013
:1041F0002E492068884203D12D494868804746E00F
:104200002C492068884203D12B49486880473EE00A
:104210002A492068884203D129494868804736E006
:1042200028492068884203D12749486880472EE002
:1042300026492068884203D125494868804726E0FE
:1042400024492068884203D12349486880471EE0FA
:1042500022492068884203D121494868804716E0F6
:1042600020492068884203D11F49486880470EE0F2
:104270001E492068884203D11D494868804706E0EE
:104280001C492068884202D11B494868804710BDFC
:10429000000001407003002078030020000400406B
:1042A000800300200008004088030020000C00402C
:1042B00090030020001000409803002000140040EC
:1042C000A003002000040140A8030020004001409A
:1042D000B003002000440140B80300200048014022
:1042E000C003002000180040C8030020001C00404C
:1042F000D003002000200040D80300207047F8B50C
:1043000004460E46174694F83E00202836D106B1E2
:104310000FB90120F8BD00BF94F83C00012801D17D
:104320000220F7E7012084F83C0000BF20633A46F2
:104330003146204600F062FF0546EDB9206B0128AA
:1043400019D100BF0020009020680068009020680C
:104350004068009000BF00BF00BF00BF21680C3163
:1043600051E8001F41F0100021680C3141E80002C3
:10437000002AF3D100E001252846CBE70220C9E757
:1043800070B504460D463C49206888420FD13B4831
:104390002946D0F8082200F5827090473748B0F8D7
:1043A000042200F582712046FFF7A9FF62E034493C
:1043B000206888420FD133482946D0F8082200F5FA
:1043C000827090472F48B0F8042200F58271204691
:1043D000FFF795FF4EE02C49206888420FD12B480B
:1043E0002946D0F8082200F5827090472748B0F897
:1043F000042200F582712046FFF781FF3AE024494C
:10440000206888420FD123482946D0F8082200F5B9
:10441000827090471F48B0F8042200F58271204650
:10442000FFF76DFF26E01C49206888420FD11B482A
:104430002946D0F8082200F5827090471748B0F856
:10444000042200F582712046FFF759FF12E014495B
:10445000206888420ED113482946D0F8082200F57A
:10446000827090470F48B0F8042200F58271204610
:10447000FFF745FF70BD00000010014078310020BB
:104480000044004084330020004800409035002064
:10449000004C00409C37002000500040A83900200C
:1044A00000140140B43B0020704700002DE9F84F94
:1044B0000446206805682068C668206847694FF090
:1044C0000009CA4605F00F09B9F1000F0AD105F03D
:1044D000200038B106F0200020B1204608F0E4FDAD
:1044E000BDE8F88FB9F1000F7CD007F0010018B9D2
:1044F00006F49070002875D005F0010030B106F484
:10450000807018B1206C40F00100206405F00400B8
:1045100030B107F0010018B1206C40F002002064B7
:1045200005F0020030B107F0010018B1206C40F036
:104530000400206405F0080048B106F0200010B91E
:1045400007F0010018B1206C40F008002064206CD6
:10455000002846D005F0200028B106F0200010B158
:10456000204608F0A1FD20684069C0F3801A206C45
:1045700000F0080010B9BAF1000F2DD0204608F065
:104580004FFE2068406900F04000402820D100BF65
:1045900000BF2168143151E8001F21F0400021685C
:1045A000143141E80002002AF3D100BFA06B50B1E2
:1045B0007548A16B0865A06BFCF73DFD88B1A06B49
:1045C000016D88470DE02046FFF76EFF09E009E026
:1045D0002046FFF769FF04E02046FFF765FF002053
:1045E00020647DE7206B012876D105F010000028BB
:1045F00072D006F010000028FAD000BF0020009012
:1046000020680068009020684068009000BF00BFEC
:104610002068406900F0400040285ED1A06B00682F
:1046200040681FFA80F8B8F1000F54D0A08D4045C3
:1046300051DDA4F82E80A06BC069B0F5807F43D017
:1046400000BF00BF21680C3151E8001F21F48070C9
:1046500021680C3141E80002002AF3D100BF00BFFD
:1046600000BF2168143151E8001F21F001002168CA
:10467000143141E80002002AF3D100BF00BF00BF9F
:104680002168143151E8001F21F0400021681431E5
:1046900041E80002002AF3D100BF202084F83E0048
:1046A0000020206300BF00BF21680C3151E8001FCB
:1046B00021F0100021680C3141E80002002AF3D1FA
:1046C00000BFA06BFCF761FCA08DE28D801A81B267
:1046D0002046FFF755FE03E740E0A08DE18D401A2C
:1046E0001FFA80F8E08DC0B3B8F1000F35D000BFDD
:1046F00000BF21680C3151E8001F21F4907021683F
:104700000C3141E80002002AF3D100BF00BF00BF16
:104710002168143151E8001F21F001002168143193
:1047200041E80002002AF3D100BF202084F83E00B7
:104730000020206300BF00BF21680C3151E8001F3A
:1047400021F0100021680C3141E80002002AF3D169
:1047500000BF41462046FFF713FEC1E605F080008A
:1047600030B106F0800018B1204608F019FDB7E618
:1047700005F0400030B106F0400018B1204608F0C6
:10478000F0FDADE600BFABE683D3000810B50446EC
:104790000CB9012010BDA06900B100E000BF94F881
:1047A0003D0028B9002084F83C00204600F028F89D
:1047B000242084F83D002068C06820F4005021685F
:1047C000C860204608F05AFB2068006920F4904039
:1047D000216808612068406920F02A00216848614A
:1047E0002068C06840F400502168C8600020206440
:1047F000202084F83D0084F83E000020CAE7000035
:1048000010B586B00446142101A8FBF725FD7549B3
:10481000206888425ED100BF002000907248006886
:1048200040F48020704908600846006800F4802049
:10483000009000BF00BF00BF002000906A48103801
:10484000006840F0040068491039086008460068B4
:1048500000F00400009000BF00BF4FF440600190E2
:10486000022002900020039003200490072005906E
:1048700001A95E48FCF7F8FD5D485E4908604FF00D
:104880000060486000215B488160C1604FF4806136
:104890000161002141618161C1614FF48031016298
:1048A00004214162032181620021C1620163FCF79E
:1048B000F7FC08B1FBF719FE00BF4E48A063846304
:1048C00000BF002211462720FDF71CFB2720FDF723
:1048D00009FB84E0484920688842FAD100BF0020E3
:1048E00000904148001D006840F020003E49091D2D
:1048F00008600846006800F02000009000BF00BF7C
:1049000000BF0020009038481038006840F0400098
:104910003549103908600846006800F040000090F2
:1049200000BF00BF4FF4844001900220029000209D
:104930000390032004900820059001A92F48FCF75C
:1049400093FD2F482F4908608005486000212D48BD
:104950008160C1604FF4806101610021416181612A
:10496000C1614FF40031016204214162032181627F
:104970000021C1620163FCF793FC08B1FBF7B5FDB0
:1049800000BF2048A063846300BF1D4878301E49E3
:1049900008604FF02060486040211B488160002182
:1049A000C1604FF480610161002141618161C16199
:1049B0004FF48031016200214162FCF771FC08B1C3
:1049C000FBF793FD00BF10486063846300BF0022C3
:1049D00005214720FDF796FA4720FDF783FA06B038
:1049E00010BD00000048004040380240000802406E
:1049F00028600240240800200014014000180240F2
:104A00002864024084080020E408002070477047B2
:104A1000704700BFFEE7000010B50F480F4908605F
:104A20000320486000210D488160C1604FF4C0211F
:104A300001614FF4A001416100210176012141761D
:104A400081760021C17601774177FCF788F808B1BB
:104A5000FBF74BFD10BD000000640040F403002094
:104A600010B50F480F4908600320486000210D4829
:104A70008160C1604FF4802101614FF4E001416128
:104A8000002101760121417681760021C1760177EE
:104A90004177FCF764F808B1FBF727FD10BD000073
:104AA000006800401C04002008B500BF00200090F2
:104AB0002A48006840F40010284908600846006849
:104AC00000F40010009000BF00BF00BF0020009065
:104AD0000846006840F4800008600846006800F45A
:104AE0008000009000BF00BF002211460C20FDF79F
:104AF00009FA0C20FDF7F6F9002211460D20FDF70A
:104B000001FA0D20FDF7EEF9002211460F20FDF706
:104B1000F9F90F20FDF7E6F9002205213920FDF70C
:104B2000F1F93920FDF7DEF9002205213A20FDF7E1
:104B3000E9F93A20FDF7D6F9002211463B20FDF7AE
:104B4000E1F93B20FDF7CEF9002205214520FDF7D4
:104B5000D9F94520FDF7C6F908BD000030380240FC
:104B600000B587B0142102A8FBF776FB00BF002038
:104B700001906648006840F00200644908600846F9
:104B8000006800F00200019000BF00BF00BF0020DD
:104B900001900846006840F0400008600846006840
:104BA00000F04000019000BF00BF00BF0020019056
:104BB0000846006840F0010008600846006800F000
:104BC0000100019000BF00BF00BF00200190084617
:104BD000006840F0080008600846006800F008001F
:104BE000019000BF00BF00BF002001900846006890
:104BF00040F0040008600846006800F004000190DE
:104C000000BF00BF00BF002001900846006840F0D0
:104C1000800008600846006800F08000019000BF36
:104C200000BF00BF002001900846006840F020004F
:104C300008600846006800F02000019000BF00BF37
:104C4000012240213248FCF711FD01221021314898
:104C5000FCF70CFD012211462F48FCF707FD402010
:104C60000290012003900490059002A92848FCF7C7
:104C7000FBFB092002904FF40410039001200490E4
:104C800002A92348FCF7F0FB1020029001200390BA
:104C900004900220059002A91E48FCF7E5FB302095
:104CA00002904FF4041003900120049002A91B48C5
:104CB000FCF7DAFB0120029003900490022005909B
:104CC00002A91548FCF7D0FB002202210620FDF7BF
:104CD00019F90620FDF706F9002201210920FDF748
:104CE00011F90920FDF7FEF8002201210A20FDF745
:104CF00009F90A20FDF7F6F8002201211720FDF737
:104D000001F91720FDF7EEF807B000BD303802407A
:104D10000018024000000240000402400008024067
:104D200010B50B480B4908600B4848600021094842
:104D30008160C1604FF48041016100214161816166
:104D4000C1610162FCF79EFC08B1FBF7CEFB10BD10
:104D5000005C004044040020801A060010B50F4893
:104D60000F4908604FF48270486000210C48816050
:104D7000C160022101610121416149028161382143
:104D8000C16100210162416281620A21C162FEF7B4
:104D9000A8FA08B1FBF7A9FB10BD000000300140E4
:104DA0006405002000B587B01C216846FBF754FA63
:104DB00015481649086000204860002113488160AA
:104DC00041F28731C160002101618161FEF732FE4D
:104DD00008B1FBF78AFB0D48FFF72DF908B1FBF787
:104DE00084FB60200090002001900290049000223B
:104DF00069460648FFF79DF808B1FBF776FB0348C4
:104E0000FFF764F807B000BD0044014054070020DC
:104E100000B587B0002003900490059006900190A3
:104E20000290144814490860532048600021124839
:104E3000816040F2E731C160002101618161FEF7CC
:104E4000F9FD08B1FBF751FB4FF48050039003A923
:104E50000948FEF7E9FE08B1FBF747FB0020019087
:104E6000029001A90448FEF78BFD08B1FBF73DFB5A
:104E700007B000BD000400407C06002000B587B0EC
:104E80000020039004900590069001900290144831
:104E9000144908605320486000211248816040F2A4
:104EA000E731C160002101618161FEF7C3FD08B1F6
:104EB000FBF71BFB4FF48050039003A90948FEF752
:104EC000B3FE08B1FBF711FB00200190029001A98D
:104ED0000448FEF755FD08B1FBF707FB07B000BD1E
:104EE00000080040C406002000B587B000200390F1
:104EF00004900590069001900290144814490860AF
:104F00005320486000211248816040F2E731C160BF
:104F1000002101618161FEF78DFD08B1FBF7E5FA23
:104F20004FF48050039003A90948FEF77DFE08B1B5
:104F3000FBF7DBFA00200190029001A90448FEF77C
:104F40001FFD08B1FBF7D1FA07B000BD000C00400F
:104F50000C07002010B50C480C4908600C4848604C
:104F60004FF48051094881600021C1604FF4806195
:104F700001610421416100218161C161FFF706FCEB
:104F800008B1FBF7B2FA10BD004800409C070020B2
:104F9000A086010010B50B480B4908604FF4E130C2
:104FA0004860002108488160C16001610C214161B5
:104FB00000218161C161FFF7E9FB08B1FBF795FAB8
:104FC00010BD000000140140E007002010B50022D1
:104FD0000D490E4800F04DFC08B1FBF786FA0C496C
:104FE0000A4800F015FF08B1FBF77FFA09490748A6
:104FF00000F0C1FA08B1FBF778FA044800F032FF7C
:1050000008B1FBF772FA10BD4001002044090020EE
:10501000240000202C01002000BFFEE700BFFEE7B7
:1050200010B50248FDF77DF910BD0000201E0020DC
:105030007047704710B5FCF7E1FE10BD03480068EB
:1050400040F47000014908607047000088ED00E0FE
:1050500010B50248FEF76FFE10BD0000C406002028
:1050600010B50248FEF767FE10BD00000C070020D7
:1050700010B50268294B98420ED0B0F1804F0BD08A
:10508000274B984208D0274B984205D0264B984290
:1050900002D0264B984203D122F070024B681A438B
:1050A0001E4B984220D0B0F1804F1DD01C4B98422F
:1050B0001AD01C4B984217D01B4B984214D01B4B54
:1050C000984211D01A4B98420ED01A4B98420BD0EE
:1050D000194B984208D0194B984205D0184B98426A
:1050E00002D0184B984203D122F44072CB681A4385
:1050F00022F080034C6943EA040202608B68C362B9
:105100000B688362054B984202D0084B984201D14C
:105110000B6903630123436110BD000000000140DF
:105120000004004000080040000C00400004014062
:105130000040014000440140004801400018004088
:10514000001C00400020004030B501F01F05012484
:1051500004FA05F3046A9C430462046A01F01F0523
:1051600002FA05F52C43046230BD30B50C46816867
:1051700021F47F4142EA032525432943816030BD64
:1051800030B5056A25F010050562026A4368846936
:1051900024F4E04424F440740D6844EA052422F029
:1051A00020028D6842EA0512124DA84200D103E0A8
:1051B000114DA84207D100BF22F08002CD6842EA1B
:1051C000051222F040020B4DA84202D00A4DA8421F
:1051D00009D123F4806323F400634D6943EA850316
:1051E0008D6943EA8503436084614D68856302628B
:1051F00030BD0000000001400004014077B581B0DF
:10520000044615460298A062A5850020206422204D
:1052100084F83E002948A16BC8632948A16B086443
:105220002848A16BC8640020A16B086502AE3268F3
:105230002368191D2B46A06BFCF7A8F800BF0020BF
:10524000009020680068009020684068009000BFCF
:1052500000BF00BF002084F83C0000BF00BF00BFBB
:1052600021680C3151E8001F41F4807021680C3135
:1052700041E80002002AF3D100BF00BF00BF21684F
:10528000143151E8001F41F001002168143141E858
:105290000002002AF3D100BF00BF00BF2168143113
:1052A00051E8001F41F040002168143141E800023C
:1052B000002AF3D100BF002004B070BDB3D20008B3
:1052C00001D200082DCE000810B50248FFF7EEF815
:1052D00010BD00009C07002010B50248FFF7E6F85B
:1052E00010BD0000E00700202DE9F04104460D4606
:1052F000D4F8C472D4F8BC0210B90320BDE8F08120
:10530000D4F8BC6205EB850104F1140000EB8100C8
:10531000406808B305EB850104F1140000EB81003F
:10532000C5EBC502416807F13C0000EB82008068D4
:10533000B1FBF0F200FB121070B9002105EB850201
:1053400004F1140000EB8200416000231A46294654
:10535000204600F02AFD0FE00020C6F81402D4F821
:10536000C002006940B1D6F80802D4F8C0122A463B
:105370000B6906F5047198470020BFE770B5044635
:105380000E46D4F8BC52D4F8BC0208B9032070BD54
:105390003146204600F07BFBC5F80C02D5F804022C
:1053A000D4F8C012CA6805F5037190470020EEE7F3
:1053B00070B504460D468121204600F08AFA00218E
:1053C00021870121204600F084FA0021A4F87811F9
:1053D0008221204600F07DFA0021A4F84C10A4F8A8
:1053E0004E10D4F8BC0250B1D4F8C01248688047BF
:1053F000D4F8BC0200F0E4FE0020C4F8BC02002097
:1054000070BD70B50546D5F8BC420CB9032070BD1F
:10541000D5F8C00278B194F80002FF280BD094F8B8
:10542000012294F80002D5F8C0128B6821469847F3
:10543000FF2084F800020020E9E7000001460A206E
:1054400008800148704700001800002001464320F2
:105450000880014870470000A0000020014643205A
:1054600008800148704700005C000020014643208E
:105470000880014870470000E400002070B5044631
:105480000E464FF4077000F09DFE054625B900203A
:10549000C4F8BC02022070BDC4F8BC52207CA0B984
:1054A0004FF4007302228121204600F079FB012194
:1054B00021874B020222204600F072FB0121A4F852
:1054C00078111021A4F84E1012E04023022281210D
:1054D000204600F065FB012121874023022220465F
:1054E00000F05EFB0121A4F878111021A4F84E1001
:1054F000082303228221204600F052FB0121A4F858
:105500004C10D4F8C012086880470020C5F8140277
:10551000C5F81802207C40B94FF4007301212046E1
:10552000D5F8042200F054FB06E040230121204678
:10553000D5F8042200F04CFB0020ACE770B504461F
:10554000D4F8BC52D4F8BC0208B9032070BD207C4A
:1055500040B94FF4007301212046D5F8042200F031
:1055600037FB06E0402301212046D5F8042200F055
:105570002FFB0020EAE7024609B903207047C2F872
:10558000C0120020FAE702460B46D2F8BC1209B955
:1055900003207047C1F804320020FAE710B5034633
:1055A0000C46D3F8BC1209B9032010BDC1F808425B
:1055B000C1F810220020F8E72DE9FC4105460C4611
:1055C000D5F8BC62002001900090804616B90320F7
:1055D000BDE8FC81207800F0600078B320286FD10E
:1055E000E08818B3207800F0800098B1E2886078F5
:1055F000D5F8C0128B6831469847E088072801D952
:10560000072000E0E08807463A463146284600F089
:10561000D2F812E0607886F80002A07986F80102DC
:10562000E2883146284600F0A5F806E06078D5F813
:10563000C01200228B682146984748E0FFE7607857
:1056400030B1012831D00A2813D00B282ED121E007
:1056500095F89C02032805D102226946284600F0ED
:10566000AAF805E02146284600F078F84FF0030834
:1056700023E095F89C02032805D1012201A92846C0
:1056800000F099F805E02146284600F067F84FF051
:10569000030812E095F89C02032805D0214628460D
:1056A00000F05CF84FF0030807E006E021462846CA
:1056B00000F054F84FF0030800BF00BF07E0FFE719
:1056C0002146284600F04AF84FF0030800BF00BF0B
:1056D00040467DE770B50546D5F8BC420126D5F8B1
:1056E000BC0208B9032070BDD4F8140270B90120BF
:1056F000C4F81402D4F81012E96281212846D4F8C3
:105700001032D4F8082200F050FB00263046EAE7B9
:1057100070B504460D46D4F8B80228B1D4F8B802E2
:105720002946426820469047002070BD70B5064665
:105730000C4615462B4622460021304600F048FA1A
:10574000002070BD70B506460C4615462B46224615
:105750000021304600F029FB002070BD70B50446E2
:105760000D468021204600F0F4FA0021204600F08A
:10577000F0FA70BD70B504460E4615460320C4F815
:1057800094024FF4AC700551001D05512B46324672
:105790000021204600F01CFA002070BD10B5044620
:1057A0000520C4F8940200231A461946204600F04A
:1057B0000FFA002010BD70B504460E4615460220B3
:1057C000C4F89402A561E5612B46324600212046CB
:1057D00000F0EBFA002070BD10B504460420C4F8B8
:1057E000940200231A461946204600F0DEFA0020F3
:1057F00010BD2DE9F04107460D46904600240FB933
:10580000BDE8F0813E46304606F002FA022101EB87
:105810004000A8F8000098F800002855601CC4B2A9
:1058200003202855601CC4B208E030782855761C47
:10583000601CC4B200202855601CC4B23078002817
:10584000F3D100BFDCE70146002031B1012906D0C9
:10585000022906D0032908D105E0002007E0032033
:1058600005E0012003E0032001E0032000BF00BFAA
:1058700070472DE9F04104460D46164614B9032041
:10588000BDE8F0810020C4F8B802C4F8C002C4F832
:10589000CC020DB1C4F8B452012084F89C022670E9
:1058A000204600F0FDF807463846E9E72DE9F041CB
:1058B00004460D46002600272946D4F8C402FCF70A
:1058C00003FC06463046FFF7BEFF07463846BDE8F4
:1058D000F0812DE9F04104460D46002600272946B7
:1058E000D4F8C402FCF7BBFB06463046FFF7ABFF1B
:1058F00007463846BDE8F0812DE9F04104460F46E1
:105900009046002F54D104F11405D4F894020228D3
:1059100043D1D5E9020188420FD9D5E90201401AE5
:10592000A86041462046AA68FFF70CFF00231A46EC
:105930001946204600F04CF92FE0D5E902108842C4
:1059400017D1E9686868884213D36868D4F8981258
:1059500088420ED2002211462046FFF7F3FE0020B7
:10596000C4F8980200231A461946204600F030F980
:1059700013E094F89C02032808D1D4F8B802C06858
:1059800020B1D4F8B802C16820468847802120465B
:1059900000F0DFF92046FFF701FF94F8A00201288C
:1059A00019D1204600F04BFA002084F8A00212E042
:1059B00094F89C0203280ED1D4F8B802406950B183
:1059C000D4F8B8023946426920469047064616B1D7
:1059D0003046BDE8F0810020FBE72DE9F0410546A7
:1059E0000F4690465FBB05F5AA74D5F894020328CC
:1059F00038D1D4E90201884210D9D4E90201401A11
:105A0000A060D4E90201884201D2A06800E0E06809
:105A1000024641462846FFF789FE23E095F89C029E
:105A2000032808D1D5F8B802006920B1D5F8B8022A
:105A30000169284688472846FFF7CEFE12E095F810
:105A40009C0203280ED1D5F8B802806950B1D5F870
:105A5000B8023946826928469047064616B1304654
:105A6000BDE8F0810020FBE701460020704710B53B
:105A70000446012084F89C02D4F8B80228B12179A8
:105A8000D4F8B802426820469047002010BD70B597
:105A900004460D462946D4F8C402FCF753FB70BDFA
:105AA00010B50446207800282AD11648C0F80444CE
:105AB000C4F8C4024FF0A0401249086004204860B6
:105AC00002211048C1600021016102218161002191
:105AD000C16101624162C1620163FCF7E2FE08B18B
