S31508000000F0380020A1010008CB430008DD3C0008B9
S31508000010C943000827030008055E00080000000021
S31508000020000000000000000000000000DB4300089C
S31508000030F103000800000000D9430008DD4300086A
S31508000040BB010008BB010008BB010008BB01000892
S31508000050BB010008BB010008F3030008BB01000848
S31508000060BB010008F9030008FF030008BB010008EC
S315080000708503000891030008BB0100089D030008DA
S31508000080BB010008BB010008BB010008BB01000852
S315080000902903000835030008BB0100080504000809
S315080000A0BB010008BB010008BB010008BB01000832
S315080000B0BB010008BB010008F1430008BB010008AA
S315080000C0BB010008BB010008BB010008BB01000812
S315080000D0BB010008D9450008BB010008E545000832
S315080000E0BB010008BB010008BB010008BB010008F2
S315080000F0BB010008BB010008BB010008BB010008E2
S31508000100BB010008BB010008FD430008BB0100084D
S31508000110BB010008BB010008BB010008BB010008C1
S31508000120BB010008A9030008B5030008C1030008BD
S31508000130BB010008BB010008BB010008BB010008A1
S31508000140410300084D030008BB010008CD43000821
S31508000150CD030008D9030008E5030008F1450008A7
S31508000160BB010008BB010008BB010008BB01000871
S31508000170BB010008BB010008BB0100080000000025
S31508000180BB010008BB010008DFF810D000F08EF8AC
S3150800019000F05CF80048004785890008F038002020
S315080001A00648804706480047FEE7FEE7FEE7FEE703
S315080001B0FEE7FEE7FEE7FEE7FEE7FEE7E1430008A7
S315080001C0890100082DE9F05F0546002092469B4606
S315080001D088460646814640241BE02846414647464F
S315080001E0224600F052F853465A46C01A914110D397
S315080001F011461846224600F039F82D1A67EB010811
S315080002004F4622460120002100F030F817EB00097E
S315080002104E41201EA4F10104DFDC484631462A4639
S315080002204346BDE8F09F40EA01039B0703D009E077
S3150800023008C9121F08C0042AFAD203E011F8013BC4
S3150800024000F8013B521EF9D27047000070B5054C04
S31508000250054D03E0206820448047241DAC42F9D1AF
S3150800026070BD0000308A0008548A0008202A04DB82
S31508000270203A00FA02F1002070479140C2F12003AB
S3150800028020FA03F3194390407047202A04DB203AEA
S3150800029021FA02F00021704721FA02F3D040C2F198
S315080002A0200291400843194670470000064C074D46
S315080002B006E0E06840F0010394E807009847103428
S315080002C0AC42F6D3FFF764FF108A0008308A0008AC
S315080002D070B58C1810F8015B15F0070301D110F8FA
S315080002E0013B2A1106D110F8012B03E010F8016B27
S315080002F001F8016B5B1EF9D12B0705D40023521EAA
S315080003000DD401F8013BFAE710F8013BCB1A921C11
S3150800031003E013F8015B01F8015B521EF9D5A1420F
S31508000320D8D3002070BDFEE7014800F02DBA0000C2
S31508000330A8020020014800F027BA0000A802002001
S31508000340014800F021BA0000D0020020014800F060
S315080003501BBA0000D00200200A46094910B5D1F898
S31508000360BC12D1F8141200291CBF012010BD014689
S31508000370034804F068FABDE81040014804F0D6BA0C
S3150800038044090020014800F02FBD00002408002081
S31508000390014800F029BD00004C030020014800F088
S315080003A023BD0000AC030020014800F01DBD00007D
S315080003B084080020014800F017BD000070040020E2
S315080003C0014800F011BD0000D0040020014800F0EB
S315080003D00BBD000064070020014800F005BD0000C1
S315080003E0E4080020014800F0FFBC0000C407002014
S315080003F07047012000F0FABE082000F0F7BE102072
S3150800040000F0F4BE202000F0F1BE72B6FEE790F8C8
S315080004102020012A18BF022A06D0416A41F4802109
S3150800042041624FF0010070470068426942EA0101E3
S3150800043041614FF00000704770B490F82040D0F842
S3150800044000C0DCF808C0012C18BF022C07D0416A8E
S3150800045041F48021416270BC4FF0010070471CF0E6
S31508000460E05F55D0CCF3016CBCF1020F06D9416AA6
S3150800047041F40001416270BC01207047012404FA6E
S315080004800CF41C608B684FF4C0749BB1CD6804EB08
S315080004900C162B434D6843EAC5030568AB514FF468
S315080004A0C273066803EB0C130D69F550097D012923
S315080004B00ED108E00D88CB6804EB0C1643EA4553C9
S315080004C00568AB51EBE70168CD5845F48075CD500A
S315080004D01179D2F805304FF4C67541EA032103684D
S315080004E005EB0C1559511178D2F801204FF4C47355
S315080004F041EA0222016803EB0C13CA50006804EBB8
S315080005000C11425842F00102425070BC002070475C
S31508000510416A41F40011416270BC01207047000035
S3150800052090F82020012A18BF022A06D0416A41F411
S31508000530802141624FF0010070473F48D0F8002201
S3150800054042F00102C0F80022D0F8002222F47C52C0
S31508000550C0F80022D0F800224B6A42EA0322C0F80B
S3150800056000220A7D4FF0010302F01F0203FA02F28D
S31508000570D0F81C3223EA0203C0F81C32CB69DBB977
S31508000580D0F80C3223EA0203C0F80C32B1F80CC0DA
S315080005904B686CF31F43D1F814C000EBCC0CCCF8B5
S315080005A04032B1F808C00B686CF31F43D1F814C089
S315080005B000EBCC0CCCF84432CB69012B1AD1D0F81D
S315080005C00C321343C0F80C32B1F800C04B686CF318
S315080005D01F43D1F814C000EBCC0CCCF84032B1F86C
S315080005E008C0CB686CF31F43D1F814C000EBCC0CE1
S315080005F0CCF844328B69002BD0F804320CBF9343F5
S315080006001343C0F804320B69002BD0F814320CBF20
S3150800061093431343C0F81432096A012904D1D0F868
S315080006201C121143C0F81C12D0F8001221F0010167
S31508000630C0F800120020704700640040704710B4EC
S3150800064090F820C0BCF1010F18BFBCF1020F07D00B
S31508000650416A41F48021416210BC4FF001007047A5
S31508000660D0F800C029B1DCF810C01CF0030F7DD00B
S3150800067004E0DCF80CC01CF0030F7ED04FF4D87CE5
S3150800068004680CEB011C54F80C4014F00404946044
S31508000690046854F80C4007BF640D1460E4085460FD
S315080006A0046854F80CC00CF0020CC2F80CC04FF4E5
S315080006B0DA7C04680CEB011C54F80C4004F00F04B7
S315080006C01461046854F80C40C4F307249461046860
S315080006D054F80CC04FEA1C4CC2F814C04FF4DC7234
S315080006E0D0F800C002EB01125CF802C083F800C023
S315080006F0D0F800C05CF802C04FEA1C2C83F801C091
S31508000700D0F800C05CF802C04FEA1C4C83F802C05F
S31508000710D0F800C05CF80220120EDA704FF4DE72D0
S31508000720D0F800C002EB01125CF802C083F804C0DE
S31508000730D0F800C05CF802C04FEA1C2C83F805C04C
S31508000740D0F800C05CF802C04FEA1C4C83F806C01B
S31508000750D0F800C05CF80220120EDA710068002991
S315080007600CBFC168016941F0200100E005E00CBF3B
S31508000770C1600161002010BC7047416A41F4001154
S31508000780416210BC012070472DE9F05F05460068FC
S3150800079000244669D0F804908768D0F80CB0D0F8E1
S315080007A010A0D0F8188016F0010F25D017F0010F09
S315080007B007D00121816017F0020F7CD0284600F08F
S315080007C0A8FA17F4807F09D029684FF480708860EA
S315080007D017F4007F70D0284600F09DFA17F4803F82
S315080007E00AD029684FF48030886017F4003F00F07B
S315080007F0B980284600F091FA16F0080F18BF1BF0CA
S31508000800100F04D02968102044F40074C86016F04C
S31508000810040F4FF0080718BF1BF0080F04D028680C
S31508000820C760284600F0EAF916F0020F07D02868D4
S31508000830C06810F0030F1CBF284600F0E1F916F057
S31508000840400F18BF1AF0100F04D02968102044F47E
S315080008508064086116F0200F18BF1AF0080F04D03C
S3150800086028680761284600F0F5F916F0100F07D03A
S315080008702868006910F0030F1CBF284600F0ECF941
S3150800088016F4003F18BF19F0100F05D0296810207C
S315080008904860284600F00AFA16F4803F18BF19F097
S315080008A0080F04D028684760284600F037FA16F47F
S315080008B0004F78D001E035E044E019F0040F6FD01E
S315080008C016F4807F1CBF18F0010F44F0010416F4DB
S315080008D0007F1CBF18F0020F44F0020416F4806F64
S315080008E01CBF18F0040F44F0040416F4006F18BF78
S315080008F018F0700F54D008F07000402808BF44F074
S31508000900400448D03EDC102808BF44F0080442D012
S31508000910202808BF44F010043DD0302808BF44F012
S31508000920200438E017F0040F18BF4FF400647FF472
S3150800093048AF17F0080F0ABF28464FF4805400F056
S31508000940E7F93EE717F4806F18BF44F400547FF4C4
S3150800095045AF17F4006F0ABF284644F4804400F0F8
S31508000960D9F93BE717F4802F18BF44F400447FF405
S3150800097043AF17F4002F0ABF284644F4803400F02A
S31508000980CBF939E7502808BF44F0800403D0602823
S3150800099008BF44F480742868816921F07001816178
S315080009A0296804204860002C08BFBDE8F09F686AE3
S315080009B0204368622846FFF741FEBDE8F09F0028FD
S315080009C004BF0120704770B5044690F8200000283F
S315080009D004BF204600F088F82068016841F001014C
S315080009E0016000F02BFD0546206840684FF00506BB
S315080009F010F0010F09D100F021FD401B0A2816D876
S31508000A002068406810F0010FF5D02068016821F0D1
S31508000A100201016000F012FD05462068406810F0EA
S31508000A20020F11D000F00AFD401B0A2807D9606A98
S31508000A3040F40030606284F82060012070BD2068B0
S31508000A40406810F0020FEDD1207E01282068016869
S31508000A500CBF41F0800121F080010160607E012811
S31508000A60206801680CBF41F0400121F04001016097
S31508000A70A07E0128206801680CBF41F0200121F002
S31508000A8020010160E07E0128206801680CBF21F082
S31508000A90100141F010010160207F012820680168DB
S31508000AA00CBF41F0080121F008010160607F0128B0
S31508000AB0206801680CBF41F0040121F004010160BF
S31508000AC0D4E902010843D4E90412114308436168D2
S31508000AD0491E08432168C86100206062012084F825
S31508000AE02000002070BD0000F0B587B000213E4E02
S31508000AF000910191029103910491016830683B4B82
S31508000B00022409253A4A401CA1F180474FF0030CFC
S31508000B10B7F5C84712D0A1F18047B7F5D0471CBF33
S31508000B2007B0F0BD116841F08061116011680128B5
S31508000B3001F080610591306033D12AE030600128E8
S31508000B4007D1106840F000701060106800F000705F
S31508000B500590186840F0080018601868CDE900C4C8
S31508000B6000F00800CDE904506946CDF80CC02148CC
S31508000B7000F048FB00221146142000F031FE142034
S31508000B8000F01EFE00221146152000F029FE152051
S31508000B9026E0106840F000701060106800F00070E1
S31508000BA00590186840F0020018601868694600F059
S31508000BB0020005906020CDE90004CDE903C50E4882
S31508000BC000F020FB00221146402000F009FE4020DC
S31508000BD000F0F6FD00221146412000F001FE4120FA
S31508000BE000F0EEFD07B0F0BD0000002030380240EE
S31508000BF040380240000C02400004024070470000E2
S31508000C0010B50168A1F18042B2F5C84211D0A1F130
S31508000C108042B2F5D04218BF10BD0C4C002104F139
S31508000C202003221DFFF70BFD201DA16ABDE8104019
S31508000C300847074C002104F12003221DFFF7FFFC9B
S31508000C40201DA16ABDE8104008470000A424002022
S31508000C50782400207047000010B50168A1F1804291
S31508000C60B2F5C84211D0A1F18042B2F5D04218BF00
S31508000C7010BD0C4C012104F12003221DFFF7DFFCF7
S31508000C80201DA16ABDE810400847074C012104F160
S31508000C902003221DFFF7D3FC201DA16ABDE81040E2
S31508000CA008470000A424002078240020704770B567
S31508000CB0044690F82000012804D0606A40F4002019
S31508000CC060621BE0022084F820002068016821F099
S31508000CD00101016000F0B2FB05462068406810F08B
S31508000CE0010F12D000F0AAFB401B0A2808D9606A37
S31508000CF040F400306062052084F82000012070BDB1
S31508000D002068406810F0010FECD10020606270BDC9
S31508000D1070477047704770477047704770472DE9AE
S31508000D20F0410446866D00F089FB054694F83500C7
S31508000D300027022806D08020606584F834700120D8
S31508000D40BDE8F0812068016821F01601016020687D
S31508000D50416921F080014161206C002804BFA06C24
S31508000D60002804D02068016821F008010160206885
S31508000D70016821F0010101602068006810F0010F88
S31508000D8012D000F05BFB401B052808D920206065BF
S31508000D90032084F8350084F83470BDE8F0812068B3
S31508000DA0006810F0010FECD194F85C003F2101FABD
S31508000DB000F0B060012084F8350084F83470002013
S31508000DC0BDE8F08190F83510022903D080214165ED
S31508000DD001207047052180F835100068016821F068
S31508000DE001010160002070472DE9F84304464FF0E1
S31508000DF00008CDF8008073484FF41651A56D0068B9
S31508000E00B0FBF1F72E6894F85C00082101FA00F0AF
S31508000E10304211D02068026812F0040F0CD0026824
S31508000E2022F00402026094F85C0001FA00F0A8605F
S31508000E30606D40F00100606594F85C004FF00109B0
S31508000E4009FA00F0304209D02168496911F0800F8B
S31508000E5004D0A860606D40F00200606594F85C10EC
S31508000E6004208840304209D02168096811F0020F31
S31508000E7004D0A860606D40F00400606594F85C10CA
S31508000E8010208840304220D02168096811F0080FE8
S31508000E901BD0A8602068016811F4802F09D000686B
S31508000EA010F4002F02D0A16C79B10CE0216C51B975
S31508000EB00BE0016811F4807F03D1016821F0080175
S31508000EC00160216C09B12046884794F85C102020FF
S31508000ED0884030424AD02168096811F0100F45D081
S31508000EE0A86094F8350005282068016809D011F42F
S31508000EF0802F2BD0006810F4002F24D0E16B21B38B
S31508000F0032E021F0160101602068416921F0800174
S31508000F104161206C002804BFA06C002804D020681A
S31508000F20016821F00801016094F85C004FF03F0168
S31508000F3001FA00F0A86084F8359084F83480216DB1
S31508000F40D1BBBDE8F883616C71B90FE0016811F493
S31508000F50807F07D1016821F01001016084F835907F
S31508000F6084F83480E16B09B120468847606D002813
S31508000F7008BFBDE8F883606D10F0010F17D04FF079
S31508000F80050084F835002068016821F00101016038
S31508000F90009800F101000090B84204D82068006863
S31508000FA010F0010FF4D184F8359084F83480E16CA0
S31508000FB0002908BFBDE8F883204601B0BDE8F04324
S31508000FC0084700000800002070B5044600F036FA0D
S31508000FD00646002C04BF012070BD022084F83500A7
S31508000FE0002584F834502068016821F00101016069
S31508000FF02068006810F0010F0FD000F01FFA801B60
S31508001000052805D920206065032084F8350070BDC1
S315080010102068006810F0010FEFD1216808683D4A82
S315080010201040D4E901231A43D4E9033C43EA0C03EC
S315080010301A4363691A43A3691A43E3691A43236A7D
S315080010401A431043626A042A03D1D4E90B231A43CC
S315080010501043086026687069012320F00701606A5A
S3150800106040EA010204283AD1A16AE06A0A4330B389
S31508001070D4F818C0BCF1000F0AD0BCF5005F14D034
S3150800108000291CBF0129022921D003291CD026E0EA
S3150800109019B1012905D0022921D110F0807F1ED06F
S315080010A015E0B0F1C07F1AD111E081B1012907D04E
S315080010B002290CD0032908BFB0F1C07F07D00EE083
S315080010C010F0807F03D10AE010F0807F07D04FF040
S315080010D04000606584F835304FF0010070BD7261DC
S315080010E020680D4AC1B2A1F11001A2FB01210B4AE9
S315080010F04FEA11110329525CE2656FF3090088BFB4
S31508001100001D3F219140A0658160656584F83530F2
S31508001110002070BD3F8010F0ABAAAAAAE689000895
S3150800112070B490F834C00024856DBCF1010F02BF7D
S31508001130022070BC70474FF0010C80F834C090F85C
S3150800114035604FF0000C012E1CBF80F834C0022415
S3150800115002D0204670BC7047022680F83560C0F879
S3150800116054C0D0F800C0DCF8006026F48026CCF81D
S315080011700060D0F800C0CCF804308368402B0368C0
S3150800118003BF9A600268D16099601CBF0168CA6093
S3150800119090F85C103F2202FA01F1A96001680A681A
S315080011A042F016020A60016C21B101680A6842F031
S315080011B008020A600068016841F001010160C8E799
S315080011C070B5044600F03AF90546B4F1FF3F02D07F
S315080011D004480078044400F031F9401BA042FAD3D1
S315080011E070BD00000C0000207047000004490A6822
S315080011F0024208BF704710B50860FFF7F5FF10BD3B
S31508001200143C01402DE9F84FDFF818A20022DFF858
S3150800121010924FF0010E03274FF00F080AF1040B46
S315080012200B680EFA02FC03EA0C03634540F0F280F1
S315080012300C7904F00304012C18BF022C18D1856818
S315080012404FEA420407FA04F625EA0605CE6806FAC6
S3150800125004F444EA05048460446824EA0C0C0C7916
S31508001260C4F3001404FA02F444EA0C0CC0F804C0EF
S31508001270D1F804C037EA0C0C0CD0C4684FEA420C0B
S3150800128007FA0CF5AC438D6805FA0CFC4CEA040C1D
S31508001290C0F80CC091F804C00CF0030CBCF1020FA6
S315080012A012D14FEAD20C00EB8C04256A4FEA427C35
S315080012B04FEADC6C08FA0CF6B5430E6906FA0CFC24
S315080012C04CEA050CC4F820C004684FEA420C07FA39
S315080012D00CF5AC430D7905F0030505FA0CFC4CEA50
S315080012E0040CC0F800C0D1F804C01CF4403F7CD000
S315080012F0D9F800C04CF4804CC9F800C0D9F800C031
S315080013000CF4804CCDF800C022F0030C0CF180459B
S3150800131005F59835D5F808C89407240F08FA04F691
S315080013202CEA0606A0F1804CBCF5003C38D0A0F1AA
S31508001330804CBCF5013C08BF4FF0010C30D0A0F141
S31508001340804CBCF5023C08BF4FF0020C28D0A0F137
S31508001350804CBCF5033C08BF4FF0030C20D0A0F12D
S31508001360804CBCF5043C08BF4FF0040C18D0A0F123
S31508001370804CBCF5053C08BF4FF0050C10D0A0F119
S31508001380804CBCF5063C08BF4FF0060C08D0A0F10F
S31508001390804CBCF5073C0CBF4FF0070C4FF0080C0F
S315080013A00CFA04FC4CEA060CC5F808C8DAF800C0C2
S315080013B04C682CEA030C14F4803F18BF4CEA030C63
S315080013C0CAF800C0DBF800C04C682CEA030C14F419
S315080013D0003F18BF4CEA030CCBF800C0124CD4F8F7
S315080013E000C04D682CEA030C00E013E015F4801FDA
S315080013F018BF4CEA030CC4F800C00C4CD4F800C063
S315080014004D682CEA030C15F4001F18BF4CEA030CB0
S31508001410C4F800C0521C102AFFF402AFBDE8F88FCA
S3150800142044380240003C0140083C01400C3C014065
S31508001430002A08BF090481617047000001488068D6
S31508001440704700000C000020002804BF01207047E8
S3150800145070B5044690F83D00002520B984F83C5044
S31508001460204600F0C5F8242084F83D00206801686D
S3150800147021F0010101602068016841F40041016022
S315080014802068016821F40041016001F035F8544BE9
S315080014906168994203D85349814203D804E0524906
S315080014A0814201D9012070BD50492268B0FBF1F193
S315080014B0D2F804C02CF03F0C4CEA010CC2F804C068
S315080014C06268934228BF4A1C07D24FF4967251436A
S315080014D04FF47A72B1FBF2F14A1C2168D1F820C0A8
S315080014E02CF03F0C42EA0C020A6261688B420FD369
S315080014F04900401EB0FBF1F2521CC2F30B02042A4B
S3150800150031BF0420B0FBF1F0401CC0F30B0022E011
S31508001510A268002A52D001EBC10303EB0113A0F124
S31508001520010CBCFBF3F35B1C43F480431B051B0D4A
S3150800153008BF01200FD0002A48D001EBC10202EBF8
S315080015400111401EB0FBF1F0401CC0F30B0040F443
S31508001550804040F400402168CA6922F0FF0222F464
S315080015604F421043C861D4E9070101432068026865
S3150800157022F0C00211430160D4E903100143206838
S31508001580826822F0FF0222F4034211438160D4E903
S31508001590050101432068C26822F0FF021143C160B9
S315080015A02068016841F0010101602564202084F863
S315080015B03D00256384F83E50002070BD01EB4103D1
S315080015C0A0F1010CBCFBF3F35B1CAFE701EB410197
S315080015D0401EB0FBF1F0401CC0F30B00B9E7000059
S315080015E0A086010080841E0000093D0040420F00CD
S315080015F02DE9F04387B0002405460094019402942F
S31508001600039404940068A0F18041B1F5B8411CBF69
S3150800161007B0BDE8F0833448016841F00401016071
S31508001620016801F004010591016841F001010160BA
S3150800163000684FF0120800F0010005904FF40070A2
S31508001640CDE900084FF0010903260427CDF80890D4
S3150800165069462648CDE90367FFF7D4FDB801CDE909
S315080016600008CDF8089069462148CDE90367FFF7D9
S31508001670C9FD2048016841F40001016000681F4E59
S3150800168000F4000005901C4830604FF0C068C6E9B9
S3150800169001840715C6E903477461B461F4613462CD
S315080016A030467462FFF790FC002818BFFEF7ADFEBF
S315080016B0AE63B563134E1248C6E900084020C6E972
S315080016C00204C6E90474B461F46134623046746293
S315080016D0FFF77AFC002818BFFEF797FE6E63B5631E
S315080016E007B0BDE8F0830000303802400008024029
S315080016F00000024040380240406002404C0300208F
S3150800170070600240AC0300200248816802781144E8
S31508001710816070470C0000200B4810B5016841F441
S3150800172000710160016841F480610160016841F45B
S3150800173080710160032000F085F80F2000F006F89C
S3150800174000F024F8002010BD003C024070B50D4D95
S3150800175004464FF47A712878B1FBF0F00A49096813
S31508001760B1FBF0F001F02AFA48B9102C07D2002292
S315080017702146501E00F034F800206C6070BD012030
S3150800178070BD00000C000020080000200A4881B047
S31508001790016841F480410160006800F480400090CF
S315080017A00648016841F080510160006800F08050E9
S315080017B0009001B0704700004438024040380240AB
S315080017C00028B8BF704700F01F01012202FA01F194
S315080017D04009800000F1E020C0F8001170470000C1
S315080017E0174B10B41B68C3F30223C3F1070CBCF1F3
S315080017F0040F88BF4FF0040C1C1D072C34BF0023B0
S31508001800DB1E012404FA0CFCACF1010C0CEA010104
S31508001810994004FA03F35B1E1A40114300284FEA65
S315080018200111A1BF00F1E02080F8001410BC704738
S3150800183000F00F0000F1E02080F8141D10BC70477E
S315080018400CED00E0074A00F0070011684FF6FF03A9
S31508001850194041EA002040F0FD7040F080601060B9
S31508001860704700000CED00E07047006841620020F8
S31508001870704770B40368586A002904BF40EA0240FA
S31508001880986219D0D3F828C000EB1C4C00204C1ED7
S3150800189018BF4FF4827508D005EB80069E59401C88
S315080018A0C0B20CEB164C8442F6D84CEA02404FF410
S315080018B0807202EB8101585070BC00207047D0F846
S315080018C0040403F09FB9C1EBC10200EB8202D0F811
S315080018D00404926C03F002B9C1EBC10200EB820268
S315080018E0D0F80404D2F8082203F054B9D0F8040456
S315080018F003F08AB970B5044611F0800F01F00F00A5
S31508001900C0EBC00104EB81014FF001024FF0000566
S3150800191019BF81F83D203C3181F8FD5101F5FE7172
S31508001920087094F8BC03012804BF022070BD84F82F
S31508001930BC23206803F076FD84F8BC53002070BDF4
S3150800194070B50446406801F00F02824284BF012048
S3150800195070BD11F0800F01F00F00C0EBC00004EB62
S3150800196080004FF001034FF0000519BF00F13C015C
S3150800197080F83D3000F5FE7180F8FD518D700A70D3
S3150800198094F8BC03012804BF022070BD84F8BC3358
S31508001990206803F061FF84F8BC53002070BD01F095
S315080019A00F01C1EBC10100EB8100D0F814027047AA
S315080019B070B5044611F0800F01F00F00C0EBC001AE
S315080019C004EB81014FF0010C4FF0000519BF81F8B7
S315080019D03DC03C3181F8FD5101F5FE7108708A6001
S315080019E0CB704A78002A18BFC880022B08BF0D7131
S315080019F094F8BC03012804BF022070BD84F8BCC358
S31508001A00206803F045FC284684F8BC5370BD10B521
S31508001A100C4601F00F0CCCEBCC0100EB8101C1F8B0
S31508001A201032C1F808220023C1F8143281F8FD31BA
S31508001A3081F8FCC1036901F5FE71012B08BF0A6133
S31508001A4014F00F0F027C006803D003F061FF00203A
S31508001A5010BD03F03DFEFAE770B504460D4601F0E9
S31508001A600F006168884284BF012070BD15F0800FA1
S31508001A704FF000064FF0010214BFC0EBC001C5EBE2
S31508001A80C50104EB810119BF81F83D203C3181F87D
S31508001A90FD6101F5FE718A70087094F8BC0301288F
S31508001AA004BF022070BD84F8BC23206803F001FF40
S31508001AB015F00F0F05D1217C04F57172206803F02B
S31508001AC09DFE84F8BC63002070BD10B50C4601F07D
S31508001AD00F0CCCEBCC0100EB81010B658A6400236B
S31508001AE04B65012381F83D3001F83CCF0369012B92
S31508001AF008BF0A6114F00F0F027C006803D003F0D8
S31508001B0007FF002010BD03F0E3FDFAE72DE9F04FCB
S31508001B100568044683B0284604F052F800281CBF1E
S31508001B2003B0BDE8F08F206804F076F8002804BFFB
S31508001B3003B0BDE8F08F206804F06EF810F0020FCD
S31508001B4004D02068416901F002014161206804F06F
S31508001B5063F810F0100F35D02068816921F0100164
S31508001B6081612F6A07F00F00C0EBC00004EB80000C
S31508001B7000F5FE76C7F34340022802D0062811D0A6
S31508001B801BE047F6F070074217D0C7F30A1217464C
S31508001B902846F16804F044F8F0683844F060B06903
S31508001BA0384409E0082204F57171284604F038F82B
S31508001BB0B069C7F30A110844B0612068816941F029
S31508001BC010018161206804F027F810F4002F7CD0FA
S31508001BD00026206803F0FFFF5FEA00081CBF4FF4E9
S31508001BE0004ADFF818B570D018F0010F6ED0F1B2C0
S31508001BF0206804F009F8074610F0010F52D005EBEB
S31508001C0046110120C1F8080B23681A6C03EB46112C
S31508001C10D1F8080BD4F810C0BCF1010F07D0DFF8D3
S31508001C20E0C4624568D110F4004F08D15DE010F0B9
S31508001C30080F07D05A4535D910F4004F32D0C1F8ED
S31508001C4008AB2FE010F0200F1ABF2020C1F8080BB0
S31508001C5010F0280F26D15A4502D910F4004FEED1BC
S31508001C60C6EBC60204EB8200D1F8101BD0F804229A
S31508001C70C1F31201511AC0F81412D0F80812002E36
S31508001C801144C0F8081204BFD4F81002002805D180
S31508001C9004F571724FF00101206838E0F1B2204670
S31508001CA0FFF71AFE17F0080F3AD005EB46114FF06A
S31508001CB00800C1F8080B2068D0F8409000EB4610E1
S31508001CC0D0F8081BD94507D901E04AE043E011F4EA
S31508001CD0004F18BFC0F808AB204600F014FBD945E2
S31508001CE01ED9206901281BD114E010F0200F1CBF53
S31508001CF02020C1F8080BD1E7002E04BFD4F8100243
S31508001D000028CBD104F571724FF00001184603F094
S31508001D1075FDC3E704F571720121206803F06EFDB5
S31508001D2017F0100F05D005EB46114FF01000C1F85B
S31508001D30080B17F0200F05D005EB46114FF02000D1
S31508001D40C1F8080B17F4005F05D005EB46114FF4F0
S31508001D500050C1F8080B06F101065FEA58087FF43F
S31508001D6043AF206803F058FF10F4802F7ED0206818
S31508001D7003F02AFF5FEA000A4FF0000876D01AF04F
S31508001D80010F74D008F0FF01206803F02BFF064608
S31508001D9010F0010F2BD008F00F000121D5F83428D8
S31508001DA001FA00F022EA0000C5F8340805EB4810ED
S31508001DB0C0F808192069012814D1C8EBC80004EB3B
S31508001DC08000B8F1000FD0E911211144816404BFE5
S31508001DD0206D002806D104F571724FF001012068C4
S31508001DE003F00CFD08F0FF012046FFF76CFD16F026
S31508001DF0080F05D005EB48114FF00800C1F808098F
S31508001E0016F0100F05D005EB48114FF01000C1F879
S31508001E10080916F0400F05D005EB48114FF04000B1
S31508001E20C1F8080916F0020F05D005EB48114FF066
S31508001E300200C1F8080916F0800F4AD0C8EBC8009E
S31508001E4004EB800000F13C06D4F800B0D6E9051092
S31508001E5088423ED8081AB168814238BF0846C01C75
S31508001E604FEA90090BEB4810019019E037E030E093
S31508001E70471AB068B84238BF0746F81C4FEA9009B7
S31508001E80207C0090BBB208F0FF025846F16803F0C8
S31508001E90A1FFF0683844F060B0693844B061019831
S31508001EA0D0F8180980B2484524BFD6E9050188420A
S31508001EB001D90028DCD1D6E90501884209D808F0FD
S31508001EC00F0101208840DBF8341821EA0000CBF81E
S31508001ED0340808F101085FEA5A0A7FF450AF20680F
S31508001EE003F09AFE10F0004F11D0D5F8040820F040
S31508001EF00100C5F8040894F8F403012868D02046C0
S31508001F0000F0E5F92068416901F000414161206867
S31508001F1003F082FE10F4006F0CD0D5F8080810F014
S31508001F20010F1CBF204600F015FA2068416901F42C
S31508001F3000614161206803F06FFE10F4805F6DD088
S31508001F40D5F8040820F00100C5F804081021206817
S31508001F5003F010FE60680021002888BF4FF67F3224
S31508001F6021D905EB4110C0F80829D0F8003923F427
S31508001F700013C0F80039D0F8003943F00063C0F800
S31508001F800039C0F8082BD0F8003B23F40013C0F83A
S31508001F90003BD0F8003B43F00063C0F8003B6068A4
S31508001FA0491C8842DDD8D5F81C0840F00110C5F850
S31508001FB01C08206BA0B1D5F8840840F00B00C5F8C2
S31508001FC08408D5F8440840F00B00C5F8440814E026
S31508001FD0002084F8F40301462046FFF745FC91E704
S31508001FE0D5F8140842F22B010843C5F81408D5F8A9
S31508001FF0100840F00B00C5F81008D5F8000820F4C2
S31508002000FE60C5F80008217C04F57172206803F0AB
S31508002010F5FB2068416901F480514161206803F0AD
S31508002020FBFD10F4005F16D0206803F07DF92068E8
S3150800203003F0BAFDE06000F059FA23680146227BF6
S31508002040184603F055FE204600F02AF92068416933
S3150800205001F400514161206803F0DEFD10F0080F1D
S3150800206007D0204600F037F92068416901F00801D9
S315080020704161206803F0D0FD10F4801F08D00021CC
S31508002080204600F03FF82068416901F4801141615B
S31508002090206803F0C1FD10F4001F08D00021204677
S315080020A000F034F82068416901F4001141612068A4
S315080020B003F0B2FD10F0804F07D02046FFF7FFFB74
S315080020C02068416901F080414161206803F0A4FD60
S315080020D010F0040F04BF03B0BDE8F08F2068456810
S315080020E015F0040F1CBF2046FFF700FC2068416866
S315080020F02943416003B0BDE8F08F00000A30544F11
S315080021000A31544FD0F8040402F0CEBDD0F80404C6
S3150800211002F0DBBD002804BF012070472DE9F04717
S315080021200446066890F8BD038AB0002520B984F8ED
S31508002130BC53204600F070F8032084F8BD03F06B0A
S3150800214010F4807F08BF2561206803F0BBFA1034BD
S31508002150B4E8CF118DE8CF1174E80C01CDE9080178
S3150800216094E80F0003F0EEF80227002843D1002177
S31508002170206803F07DFD606800210126002813D938
S31508002180C1EBC10004EB800080F83D6080F83C108C
S31508002190A0F8421080F83F50456485640565481CE0
S315080021A0C1B260688842EBD80021002814D9C1EB77
S315080021B0C10004EB800080F8FD5180F8FC1180F81E
S315080021C0FF51C0F80452C0F80852C0F81052481C13
S315080021D0C1B260688842EAD804F1100090E80F1787
S315080021E08DE80F17D4E90C01CDE9080194E80F0032
S315080021F003F0A2F928B184F8BD730AB00120BDE83E
S31508002200F08784F8385084F8BD63206803F086F9AF
S315080022100AB00020BDE8F08700B587B0002100911C
S3150800222001910291039104910068B0F1A04F1CBF7F
S3150800223007B000BD1648016841F001010160006859
S31508002240694600F0010005904FF4C0500090022046
S315080022500190032003900A2004900E48FEF7D2FF4F
S315080022600D48016841F0800101600C48016841F49D
S31508002270804101600068002200F480400590114604
S315080022804320FFF7ADFA4320FFF79AFA07B000BDDF
S3150800229030380240000002403438024044380240D8
S315080022A070B50446C0680125002808BF002503D07C
S315080022B0022818BFFEF7A9F82946D4F8040402F044
S315080022C076FDD4F80404BDE8704002F024BDD0F8C9
S315080022D0040402F051BDD0F8040402F057BD10B54D
S315080022E0044690F8BC03012804BF022010BD012053
S315080022F084F8BC0384F83810206803F0E7FC002053
S3150800230084F8BC0310BDD0F8042400F5717110469A
S3150800231002F059BD10B50446006894F8BC130129AB
S3150800232004BF022010BD012184F8BC13A16A01294B
S3150800233006D1A169012903D0816B41F480318163FB
S31508002340206803F0F8FB206803F0DAF8002084F828
S31508002350BC0310BD10B50446D0F8040402F077FD9E
S315080023602068D0F8001E41F00101C0F8001E206A5E
S31508002370002808BF10BD0348016841F00601016046
S3150800238010BD000010ED00E0002804BF01207047D2
S315080023902DE9F047DFF83C9104460D46D9F80000D0
S315080023A0CFB200F00700A84207D289F80070D9F822
S315080023B0000000F00700A84263D12068464E10F0DE
S315080023C0020F14D010F0040F03D0306840F4E05028
S315080023D03060207810F0080F03D0306840F4604071
S315080023E030603068A16820F0F0000843306020783B
S315080023F010F0010F37D060683849012823D0022829
S3150800240018BF0328096823D011F0020F39D03168A4
S3150800241021F0030141EA00003060FFF70FF880461B
S315080024203068616800F00C00B0EB810F18BF41F20C
S31508002430883A18D0FFF702F8A0EB080050450BD9E8
S315080024400320BDE8F087096811F4003FDFD118E0E2
S3150800245011F0007FDBD114E03068616800F00C00F1
S31508002460B0EB810FE6D1D9F8000000F00700A842CA
S315080024700AD989F80070D9F8000000F00700A842C8
S3150800248002D00120BDE8F087207810F0040F05D0AF
S315080024903068E16820F4E05008433060207810F096
S315080024A0080F06D03068216920F4604040EAC10070
S315080024B0306000F041F83168094AC1F30311515CF4
S315080024C0C8400849086008480068FFF73FF9002037
S315080024D0BDE8F087003C0240083802400038024058
S315080024E0CE89000808000020100000200148006876
S315080024F0704700000800002004480549006809687C
S31508002500044AC1F38221515CC84070470800002084
S3150800251008380240DE890008044805490068096849
S31508002520044AC1F34231515CC84070470800002094
S3150800253008380240DE8900081848006810F00C01C7
S31508002540174808BF7047174B042904BF1846704739
S31508002550082918BF704710B5134C216801F03F02CF
S31508002560216811F4800F08D02068C0F38810A0FBFA
S3150800257003010023FDF726FE07E021680023C1F3C7
S315080025808811A1FB0001FDF71DFE2168C1F3014179
S31508002590491C4900B0FBF1F010BD000008380240A4
S315080025A00024F400001BB70004380240002804BFCA
S315080025B0012070472DE9F84F04460078F84E10F0D0
S315080025C0010FA6F1040556D0301D016801F00C0173
S315080025D0042908D0006800F00C0008280CD13068DF
S315080025E010F4800F08D0286810F4003F43D06068C4
S315080025F0002800F0D1813EE06068B0F5803F19D030
S31508002600B0F5A02F28680CBF40F4802020F4803055
S31508002610286028680CBF40F4803020F480202860A9
S315080026206068B8B1FEF70AFF0746286810F4003F4D
S3150800263005D020E0286840F480302860F0E7FEF7EF
S31508002640FDFEC01B642800F24181286810F4003F93
S31508002650F5D010E0FEF7F2FE0746286810F4003FB2
S3150800266009D0FEF7EBFEC01B642800F22F8128680C
S3150800267010F4003FF5D12078CA4F10F0020F4FF042
S31508002680000948D0C848016811F00C0F15D0006839
S3150800269000F00C00082804BF306810F4800F0CD036
S315080026A0E06828B34FF001003860FEF7C7FE8046A1
S315080026B0286810F0020F09D012E0286810F0020FFF
S315080026C01CBFE06801280BD000F066B9FEF7B6FE1D
S315080026D0A0EB080002287DD8286810F0020FF5D074
S315080026E02868216920F0F80040EAC100286012E055
S315080026F0C7F80090FEF7A2FE8046286810F0020F81
S3150800270009D0FEF79BFEA0EB0800022862D82868CD
S3150800271010F0020FF5D1207810F0080F2FD0A3483B
S31508002720DFF88CA26169A9B101210160FEF786FE76
S315080027308046DAF8000010F0020F20D1FEF77EFE80
S31508002740A0EB0800022845D8DAF8000010F0020FBE
S31508002750F4D014E0C0F80090FEF770FE8046DAF870
S31508002760000010F0020F0AD0FEF768FEA0EB080082
S3150800277002282FD8DAF8000010F0020FF4D12078DA
S3150800278010F0040F7ED08B484FF00008006810F058
S31508002790805F0AD18748016841F08051016000686E
S315080027A04FF0010800F080500090DFF80CB2DBF81B
S315080027B0000010F4807F1AD1DBF8000040F4807026
S315080027C0CBF80000FEF73AFE8246DBF8000010F46C
S315080027D0807F00E07AE00AD1FEF730FEA0EB0A001F
S315080027E0022873D8DBF8000010F4807FF4D0A068C4
S315080027F0DFF8C8B101281DD00528DBF800000CBF9A
S3150800280040F0040020F00100CBF80000DBF80000DF
S315080028100CBF40F0010020F00400CBF80000A068CF
S31508002820E8B1FEF70BFE8246DBF8000010F0020F57
S3150800283007D02BE0DBF8000040F00100CBF80000E1
S31508002840EDE7FEF7FBFDA0EB0A0141F28830814275
S315080028503CD8DBF8000010F0020FF2D016E0FEF7C5
S31508002860EDFD8246DBF8000010F0020F0ED0FEF7F1
S31508002870E5FDA0EB0A0141F28830814226D8DBF853
S31508002880000000E00AE010F0020FF0D1B8F1000FE6
S3150800289004D04848016821F080510160A069E8B376
S315080028A04149096801F00C0108294ED00228C7F8E9
S315080028B060900ED0FEF7C2FD0446286810F0007F2F
S315080028C02CD0FEF7BBFD001B022839D90320BDE832
S315080028D0F88FFEF7B3FD8046286810F0007F09D010
S315080028E0FEF7ACFDA0EB08000228EFD8286810F028
S315080028F0007FF5D1D4E907010843A16A304A49089F
S3150800290002EB0141626A41EA8211084394F82C10ED
S3150800291040EA016030600120386600E052E0FEF7C8
S315080029208DFD0446286810F0007F4BD1FEF786FD22
S31508002930001B0228CAD8286810F0007FF6D041E0AC
S31508002940286810F0007FBCD13CE0012808BFBDE82C
S31508002950F88F3068E26900F4800191421CD1226A3E
S3150800296000F03F01914217D147F6C071626A0140F3
S31508002970B1EB821F10D1A26A4FF0FF3300F4403149
S3150800298003EB5202B1EB024F06D194F82C1000F07B
S315080029907060B0EB016F15D00120BDE8F88F00001C
S315080029A0043802400000474208380240800E474279
S315080029B074380240403802400070004070380240C7
S315080029C00000FFFF0020E8E7002804BF0120704749
S315080029D070B50446406A002500281CBF256165615C
S315080029E004D0A56294F8510058B905E06068B0F5BE
S315080029F0827F18BFE561F4E784F85050204600F05E
S31508002A0045F8022084F851002068016821F0400149
S31508002A100160A088218900F4827001F4044108430A
S31508002A20A18901F400610843217C01F002010843F1
S31508002A30217D01F001010843218B01F4007108434F
S31508002A40217F01F03801084394F8201001F0800135
S31508002A500843218D01F40051084321680860A169E3
S31508002A60042000EA114094F8241001F010010143F3
S31508002A70206841602068C16921F40061C16165650B
S31508002A80012084F85100002070BD00002DE9F047B0
S31508002A9086B0002405460094019402940394049495
S31508002AA00068A0F18041B1F598311CBF06B0BDE8B9
S31508002AB0F0873A48016841F480510160006800F4E3
S31508002AC0805005903648016841F0020101600168AE
S31508002AD001F002010591016841F0010101600068F9
S31508002AE04FF0020800F0010005901820CDE9000813
S31508002AF04FF0010903270526CDF80890CDE903769E
S31508002B0069462848FEF77EFB8020CDE90008CDF807
S31508002B100890CDE9037669462348FEF773FB244EF1
S31508002B2022484FF0C0683060C6E901844FF48069D6
S31508002B30C6E9034974614FF0040AC6F824A03804AC
S31508002B40B461C6E90740C6E90A7430463463FEF73D
S31508002B503BFA002818BFFDF758FCEE64B563164E1D
S31508002B601448C6E900084020C6E90204C6E90494E8
S31508002B70C6F824A0C002B461C6E90740C6E90A74CB
S31508002B8030463463FEF720FA002818BFFDF73DFCEF
S31508002B90AE64B56306B0BDE8F0870000443802406D
S31508002BA030380240000402400000024040640240FF
S31508002BB07004002058640240D0040020401EB0F182
S31508002BC0807F24BF012070474FF0E0214861054A05
S31508002BD0F02082F8140D0020886107200861002083
S31508002BE0704700000FE000E07047704790F83C20FF
S31508002BF0012A04BF02207047012280F83C20CA68D7
S31508002C00D1F808C022F4407242EA0C02D1F804C096
S31508002C1022F4806242EA0C02D1F800C022F4006273
S31508002C2042EA0C02D1F810C022F4805242EA0C02A1
S31508002C30D1F814C022F4005242EA0C02C9690023F2
S31508002C4022F4804211430268516480F83C30002027
S31508002C50704790F83C20012A04BF0220704730B420
S31508002C60012480F83C40022280F83D200268D2F810
S31508002C7004C093680D682CF0700C45EA0C0CC2F879
S31508002C8004C00268A2F1804CBCF5803C18BFB2F1C2
S31508002C90804F1DD0A2F1804CBCF5806C1CBFA2F100
S31508002CA0804CBCF5006C13D0A2F1804CBCF5406C8E
S31508002CB01CBFA2F1804CBCF5823C09D0A2F1804C25
S31508002CC0BCF5A03C1CBFA2F1804CBCF5C05C04D18D
S31508002CD0496823F080031943916080F83D4000213C
S31508002CE080F83C1030BC08467047002804BF012015
S31508002CF0704710B5044690F83D0028B9002084F8BE
S31508002D003C00204600F01EF8022084F83D00211DF4
S31508002D10206801F079FB012084F8460084F83E001B
S31508002D2084F83F0084F8400084F8410084F84200A3
S31508002D3084F8430084F8440084F8450084F83D008C
S31508002D40002010BD08B500682C4AA0F18041B1F5F5
S31508002D5080311ED0111FA0F18043B3F5806320D0C7
S31508002D60A0F18043B3F5006324D0A0F18043B3F506
S31508002D70406331D0A0F18041B1F5A23118BF08BD3A
S31508002D80106840F400301060106800F400300090BD
S31508002D9008BD106840F001001060106800F00100DE
S31508002DA006E0086840F002000860086800F00200C3
S31508002DB0009008BD086840F0040008600868002212
S31508002DC000F00400009001211E20FEF709FDBDE871
S31508002DD008401E20FEF7F4BC086840F008000860AA
S31508002DE00868002200F00800009001213220FEF752
S31508002DF0F7FCBDE808403220FEF7E2BC4438024042
S31508002E0090F83D1001291CBF01207047022180F867
S31508002E103D100168CA6842F00102CA600068A0F164
S31508002E208041B1F5803118BFB0F1804F1DD0A0F1B7
S31508002E308041B1F580611CBFA0F18041B1F5006108
S31508002E4013D0A0F18041B1F540611CBFA0F18041CB
S31508002E50B1F5823109D0A0F18041B1F5A0311CBF8E
S31508002E60A0F18041B1F5C05104D1816801F0070194
S31508002E70062903D0016841F001010160002070476E
S31508002E8090F83C200023012A0DBF02204FF0010CC8
S31508002E9080F83CC0704770B4022280F83D20026872
S31508002EA0946824F0770424F47F4494600A68502ACE
S31508002EB043D00CDC202A75D004DC002A18BF102A5F
S31508002EC00FD18BE0302A6DD0402A6DD009E0602AF8
S31508002ED04DD0702A0ED0B2F5805F03D0B2F5005FF0
S31508002EE019D0012380F83DC0002180F83C1070BC41
S31508002EF018467047D1E901450268C968966844EAE8
S31508002F00012126F47F4629433143916001688A6886
S31508002F1042F077020FE002684D688C68C9689668C7
S31508002F2045EA012126F47F46214331439160016831
S31508002F308A6842F480428A60D4E702684C68C968A5
S31508002F40156A166A26F001061662966925F00A05BC
S31508002F5026F0F00646EA01112C43916114620168D5
S31508002F608A6822F0700242F057028A60BAE702685D
S31508002F70CD684C68116A21F0100111629669116AD0
S31508002F8026F4704646EA053521F0A00141EA041107
S31508002F909561116201688A6822F0700242F0670240
S31508002FA08A609FE71AE0FFE702684C68C968156AF5
S31508002FB0166A26F001061662966925F00A0526F0B5
S31508002FC0F00646EA01112C439161146201688A6889
S31508002FD022F0700242F047028A6083E701688C6833
S31508002FE024F07004224342F007028A607AE77047A9
S31508002FF070B50446006801694FF0000511F0020F2C
S315080030001CBFC16811F0020F13D06FF002010161F5
S31508003010012020772068806910F0030F204602D02F
S31508003020FFF7E5FF04E000F0DDF8204600F0CCF9F4
S3150800303025772068016911F0040F1CBFC16811F0DB
S31508003040040F13D06FF00401016102202077206875
S31508003050806910F4407F204602D0FFF7C8FF04E0DD
S3150800306000F0C0F8204600F0AFF92577206801691E
S3150800307011F0080F1CBFC16811F0080F13D06FF0CC
S3150800308008010161042020772068C06910F0030F49
S31508003090204602D0FFF7ABFF04E000F0A3F8204675
S315080030A000F092F925772068016911F0100F1CBF0E
S315080030B0C16811F0100F13D06FF0100101610820DC
S315080030C020772068C06910F4407F204602D0FFF7B9
S315080030D08EFF04E000F086F8204600F075F92577A3
S315080030E02068016911F0010F1CBFC16811F0010FBA
S315080030F005D06FF001010161204600F067F92068EC
S31508003100016911F0800F1CBFC16811F0800F05D04E
S315080031106FF0800101612046FFF766FD20680169AE
S3150800312011F0400F1CBFC16811F0400F05D06FF0B9
S3150800313040010161204600F0D5F92068016911F0C7
S31508003140200F1ABFC16811F0200F70BD6FF0200163
S3150800315001612046BDE87040FFF747BD00B587B05E
S3150800316000210091019102910391049100681A4986
S3150800317002220123A0F1804CBCF5803C1BD0A0F1B3
S31508003180804CBCF5A23C1CBF07B000BD086840F0E7
S31508003190200008600868029300F02000059040208F
S315080031A0CDE900020320CDE9032069460B48FEF766
S315080031B029F807B000BD086840F0100008600868E4
S315080031C0694600F0100005904FF40050CDE9000262
S315080031D004930348EBE7000030380240001402402D
S315080031E000100240704700002DE9F041044690F8AF
S315080031F03C0000260D46012804BF0220BDE8F081E8
S31508003200012084F83C0082B1042A20D0554FDFF80B
S3150800321058C1082A2FD00C2A18BF01266ED00020C4
S3150800322084F83C003046BDE8F081206804F0AEFA28
S315080032302068816941F0080181612068816921F06F
S3150800324004018161206881692A69114311E02068B7
S3150800325001F040F92068816941F4006181612068C4
S31508003260816921F480618161206881692A6941EA5E
S3150800327002218161D3E72068016A21F48071016225
S31508003280016A4268C369D5F8008023F0730348EAE7
S315080032900303D5F8088021F4007141EA0821B842F1
S315080032A018BF604507D1D5F80C8021F4006141EAC2
S315080032B0082121F48061B84218BF604509D1D5F8C4
S315080032C014C022F4405242EA0C12D5F818C042EA59
S315080032D00C124260C3616A68C26301622068C169F0
S315080032E041F00801C1612068C16921F00401C1618A
S315080032F02068C1692A6941EA020131E02068016A49
S3150800330021F480510162026A4168C369D5F80080D8
S3150800331023F4E64343EA0823D5F8088022F400524A
S3150800332042EA0832B84218BF604505D1D5F814C03C
S3150800333021F4804141EA8C114160C36169680164E6
S3150800334002622068C16941F40061C1612068C169EF
S3150800335021F48061C1612068C1692A6941EA0221B4
S31508003360C1615CE70000014000040140002804BF79
S315080033700120704710B5044690F83D0028B9002092
S3150800338084F83C00204600F01EF8022084F83D0030
S31508003390211D206801F038F8012084F8460084F8D9
S315080033A03E0084F83F0084F8400084F8410084F821
S315080033B0420084F8430084F8440084F8450084F801
S315080033C03D00002010BD7047704700000068A0F15E
S315080033D08041B1F5803142D0B0F1804F45D0A0F19F
S315080033E08041B1F580613DD0A0F18041B1F5006121
S315080033F03ED0A0F18041B1F540613CD0A0F18041BA
S31508003400B1F580513AD0A0F18041B1F5A05138D03C
S31508003410A0F18041B1F5823136D0A0F18041B1F5F5
S31508003420A03134D0A0F18041B1F5A23132D0A0F15B
S315080034308041B1F5A43130D0A0F18041B1F5C05139
S315080034402ED0A0F18041B1F5E0512CD0A0F18041F9
S31508003450B1F5005118BF7047144840680047144832
S3150800346040680047134840680047134840680047CB
S3150800347012484068004712484068004711484068AB
S315080034800047114840680047104840680047104800
S31508003490406800470F48406800470F4840680047A3
S315080034A00E48406800470E484068004788020020DA
S315080034B020020020300200202802002038020020C6
S315080034C04002002048020020500200205802002036
S315080034D060020020680200207002002078020020A6
S315080034E080020020704738B5044690F83E00202830
S315080034F027D1002912BF002A012038BD94F83C00C4
S3150800350001281ED0012084F83C002063204601F0E3
S3150800351019F8030004D1206B012818BF012301D034
S31508003520184638BD206801684068009020680C304D
S3150800353050E8001F41F0100140E80012002AF5D1BA
S31508003540EEE7022038BD000070B502680546A2F114
S315080035508040B0F5883028D0A2F18040B0F5884088
S3150800356032D0A2F18040B0F590403CD0A2F1804024
S31508003570B0F5984046D0A2F18040B0F5A04050D0B2
S31508003580A2F18040B0F58A3018BF70BD2C4C04F10A
S315080035908400D4F808219047B4F8042104F1840182
S315080035A02846BDE87040FFF79EBF264C04F184000C
S315080035B0D4F808219047B4F8042104F18401284678
S315080035C0BDE87040FFF78FBF1F4C04F18400D4F8A4
S315080035D008219047B4F8042104F184012846BDE87F
S315080035E07040FFF780BF194C04F18400D4F8082115
S315080035F09047B4F8042104F184012846BDE87040D8
S31508003600FFF771BF124C04F18400D4F808219047E3
S31508003610B4F8042104F184012846BDE87040FFF798
S3150800362062BF0C4C04F18400D4F808219047B4F822
S31508003630042104F184012846BDE87040FFF753BF12
S315080036400C2A0020D0240020DC250020E8260020B3
S31508003650F42700200029002070470000F8B501680B
S3150800366004460868CA684B6910F00F0F4FF000054A
S3150800367069D003F0010C02F490765CEA060677D06E
S3150800368010F0010F18BF12F4807F03D0216C41F0AF
S315080036900101216410F0040F18BF13F0010F03D0C5
S315080036A0216C41F00201216410F0020F18BF13F0DB
S315080036B0010F03D0216C41F00401216410F0080FBA
S315080036C01CBF02F0200151EA0C0103D0216C41F025
S315080036D008012164216C002908BFF8BD10F0200FED
S315080036E01EBF12F0200F204604F038F92068406902
S315080036F0216CC0F3801011F0080F08BF002832D0E3
S31508003700204604F0A3F92068406910F0400F25D040
S31508003710206800F1140050E8001F21F0400140E83D
S315080037200012002AF4D1A06BC0B179490165A06BDB
S31508003730FDF748FB002808BFF8BDA06B016D01B076
S31508003740BDE8F040084710F0200F18BF12F0200F10
S315080037500ED02046BDE8F84004F000B92046FFF731
S315080037607BFFF8BD04E02046FFF776FF2564F8BD29
S31508003770D4F830C02023BCF1010F7DD110F0100F12
S3150800378018BF12F0100F7ED0086848680090486984
S3150800379010F0400F44D0A16B086840680004000C84
S315080037A01CBFA28D824298BFF8BDE085C869B0F5F6
S315080037B0807F2DD020680C3050E8001F21F48071DE
S315080037C040E80012002AF5D12068143050E8001F9E
S315080037D021F0010140E80012002AF5D120681430D2
S315080037E050E8001F21F0400140E80012002AF5D1F8
S315080037F084F83E30256320680C3050E8001F21F01D
S31508003800100140E80012002AF5D1A06BFDF787FAEF
S31508003810A08DE18D401A81B22046FFF795FEF8BDCE
S31508003820A08DE18D401A81B2E08D002814BF0029D1
S31508003830F8BD206800F10C0050E8002F22F49072C1
S3150800384040E8002CBCF1000FF3D12068143050E892
S31508003850002F22F0010240E8002CBCF1000FF4D141
S3150800386084F83E30256320680C3050E8002F22F09B
S31508003870100240E8002300E005E0002BF3D12046C3
S31508003880FFF762FEF8BD10F0800F18BF12F0800F28
S315080038902DD094F83D00212818BFF8BDA068B0F5D2
S315080038A0805F04BF20690028206A18D000F1010152
S315080038B02162216800784860E08CA0F101000004CC
S315080038C0000CE08418BFF8BD2068C16821F08001AB
S315080038D0C1602068C16841F04001C160F8BD008838
S315080038E0C0F308004860206A801C2062E4E710F0F4
S315080038F0400F14BF12F0400FF8BD2046CA6822F0E8
S315080039004002CA6084F83D3000F0E6F9F8BD0000D0
S31508003910217B0008002804BF0120704770B50446C3
S3150800392090F83D00002520B984F83C50204600F068
S3150800393023F8242084F83D002068C16821F400514A
S31508003940C160204603F08CFF2068016921F490418C
S3150800395001612068416921F02A0141612068C16836
S3150800396041F40051C1602564202084F83D0084F8A4
S315080039703E00002070BD00002DE9F04F87B00025FD
S3150800398000950195029503950495044602689B489F
S31508003990994903260715A2F180434FF0020A4FF012
S315080039A0070B4FF004084FF48039B3F588336DD010
S315080039B0A2F18043B3F5904300F0DA80A2F1804388
S315080039C0B3F58A331CBF07B0BDE8F08F0A6842F02A
S315080039D020020A60096801F020010591016841F09A
S315080039E0400101600068694600F0400005904FF408
S315080039F08440CDE9000A0820CDE903608048FDF738
S31508003A0001FCDFF804A27F484FF0206BCAF80000DB
S31508003A10CAE901B5CAE90357CAF81450CAF8248096
S31508003A204FF40030CAF81850CAE90750CAE90A65BF
S31508003A305046CAF83050FDF7C7FA002818BFFCF7F9
S31508003A40E4FCC4F838A0724E7048CAF83840C6E993
S31508003A50000B4020C6E90205C6E90475B561C6E94A
S31508003A60075930467562FDF7AFFA002818BFFCF70C
S31508003A70CCFC6663002205214720B463FDF7B0FE3F
S31508003A804720FDF79DFE07B0BDE8F08F0A6842F0B3
S31508003A9010020A60096801F010010591016841F0F9
S31508003AA002010160016801F002010591016841F017
S31508003AB0010101600068694600F001000590802058
S31508003AC0CDE9000ACDE9036B5248FDF79BFB4FF49D
S31508003AD00070CDE9000ACDE902566946CDF810B066
S31508003AE04D48FDF78FFBDFF838A14C484FF0006BC7
S31508003AF0CAF80000CAE901B5CAE90357CAF814505A
S31508003B00CAF824804FF44030CAF81850CAE907505A
S31508003B10CAE90A655046CAF83050FDF755FA002832
S31508003B2018BFFCF772FCC4F838A03F4E3D48CAF8E7
S31508003B303840C6E9000B4020C6E90205C6E9047507
S31508003B40B561C6E9075930467562FDF73DFA0028A2
S31508003B5018BFFCF75AFC6663002211462520B46399
S31508003B60FDF73EFE2520FDF72BFE07B0BDE8F08FDA
S31508003B702E490A6842F480220A60096801F4802105
S31508003B800591016841F0040101600068694600F08A
S31508003B90040005904FF44060CDE9000ACDE9036BB7
S31508003BA02348FDF72FFBDFF890A02248CAF800004B
S31508003BB04FF00060CAE90105CAE90357CAF814506C
S31508003BC0CAF82480CAF81850CAE90759CAE90A6522
S31508003BD05046CAF83050FDF7F7F9002818BFFCF729
S31508003BE014FCC4F838A0002211462720CAF8384029
S31508003BF0FDF7F6FD2720B6E7443802403038024084
S31508003C00001802402864024084080020A06402408C
S31508003C10E4080020000402400000024088640240D4
S31508003C2064070020B8640240C407002040380240F8
S31508003C3000080240286002402408002070477047A8
S31508003C4037B5044690F83D0020283BD10199002954
S31508003C5011BF002A012003B030BD94F83C000128AA
S31508003C6030D0012084F83C002162A284E284002539
S31508003C702564212084F83D00636B1448D863636B80
S31508003C8013481864636B1348D864606B134605655C
S31508003C902068D4F834C0021D6046FDF741FA216851
S31508003CA06FF04000086084F83C502068143050E8F3
S31508003CB0001F41F0800140E80012002AF5D103B048
S31508003CC0002030BD03B0022030BD0000317B000863
S31508003CD0437A0008FD77000870477047FEE7000042
S31508003CE0104810B50E4901600321416000214FF4C8
S31508003CF0C0228160C0E903124FF4A0024261017636
S31508003D00012242768276C17601774177FCF757FE23
S31508003D10002808BF10BDBDE81040FCF776BB0000C0
S31508003D2000640040A8020020104810B50E49016042
S31508003D300321416000214FF480228160C0E903120B
S31508003D404FF4E00242610176012242768276C1761C
S31508003D5001774177FCF733FE002808BF10BDBDE8A0
S31508003D601040FCF752BB000000680040D00200205B
S31508003D702D4808B5016841F400110160016801F495
S31508003D8000110091016841F4800101600068002279
S31508003D9000F48000009011460C20FDF721FD0C2050
S31508003DA0FDF70EFD002211460D20FDF719FD0D2029
S31508003DB0FDF706FD002211460F20FDF711FD0F2025
S31508003DC0FDF7FEFC002205213920FDF709FD392003
S31508003DD0FDF7F6FC002205213A20FDF701FD3A2001
S31508003DE0FDF7EEFC002211463B20FDF7F9FC3B20CF
S31508003DF0FDF7E6FC002211464420FDF7F1FC4420BD
S31508003E00FDF7DEFC002205214520FDF7E9FC4520EB
S31508003E10FDF7D6FC002211464620FDF7E1FCBDE879
S31508003E2008404620FDF7CCBC303802402DE9F04169
S31508003E3086B00020009001900290039004905248AA
S31508003E40016841F002010160016801F00201059173
S31508003E50016841F040010160016801F040010591E7
S31508003E60016841F001010160016801F00101059155
S31508003E70016841F008010160016801F00801059137
S31508003E80016841F004010160016801F0040105912F
S31508003E90016841F080010160016801F08001059127
S31508003EA0016841F020010160016801F020010591D7
S31508003EB0016841F0100101600068344E00F01000FE
S31508003EC00590012240213046FDF7B2FA304F012213
S31508003ED010213846FDF7ACFADFF8B8800122114602
S31508003EE04046FDF7A5FA01244020CDE900040294D6
S31508003EF0694630460394FDF785F909204FF4041501
S31508003F00CDE90005694602943046FDF77BF9102095
S31508003F10CDE900040226CDE9024669463846FDF792
S31508003F2071F93020CDE90005694602941A48FDF773
S31508003F3069F9CDE902460094694640460194FDF7C1
S31508003F4061F9002202210620FDF74AFC0620FDF74A
S31508003F5037FC002201210920FDF742FC0920FDF764
S31508003F602FFC002201210A20FDF73AFC0A20FDF762
S31508003F7027FC002201211720FDF732FC1720FDF748
S31508003F801FFC06B0BDE8F081303802400018024038
S31508003F900000024000040240000802400D4810B527
S31508003FA00B4901600C49416000214FF48042816051
S31508003FB0C0E9031241618161C1610162FDF744FAFA
S31508003FC0002808BF10BDBDE81040FCF71EBA000067
S31508003FD0005C0040F8020020801A0600104810B560
S31508003FE00E4901604FF4827141600021022281600E
S31508003FF0C0E9031201224261520282613822C0E9F5
S315080040000721416281620A21C162FEF7DDFC0028B0
S3150800401008BF10BDBDE81040FCF7F7B900300140F5
S315080040201804002010B588B000241948009401949B
S31508004030029403940494059414490694C0E9001460
S3150800404041F28731C0E9024104618461FEF74DFE01
S31508004050002818BFFCF7D9F90D48FFF787F900289B
S3150800406018BFFCF7D2F96020CDE9000402940022BB
S31508004070694607480494FFF7B7F8002818BFFCF705
S31508004080C4F90348FFF76AF808B010BD00440140B8
S315080040905006002010B596B000241094119412947E
S315080040A0139414941594089409940A940B940C94F4
S315080040B030480D940E940094019402940394049449
S315080040C0059406942A4907940160A721C0E90114BA
S315080040D041F28731C0E9031444618461FEF705FEA5
S315080040E0002818BFFCF791F94FF48050109010A9DA
S315080040F02048FEF7C5FE002818BFFCF786F91D48BC
S31508004100FFF734F9002818BFFCF77FF9149414A9AF
S3150800411018481594FEF79DFD002818BFFCF775F999
S315080041206020CDE908040A940B940C940D94082297
S3150800413008A910480E94FFF757F8002818BFFCF78F
S3150800414064F900944FF40050CDE9044002940194B8
S315080041500394694607480794FEF748FD002818BFE8
S31508004160FCF753F90348FEF7F9FF16B010BD000037
S31508004170000001403005002010B586B0002418481C
S3150800418000940194029403940494144905940160DC
S315080041905321C0E9011440F2E731C0E903148461F0
S315080041A0FEF7A3FD002818BFFCF72FF94FF480503F
S315080041B0009069460A48FEF763FE002818BFFCF718
S315080041C024F9049404A906480594FEF742FD00283C
S315080041D018BFFCF71AF906B010BD0000000400402D
S315080041E07805002010B586B000241848009401947C
S315080041F00294039404941449059401605321C0E978
S31508004200011440F2E731C0E903148461FEF76DFD3D
S31508004210002818BFFCF7F9F84FF48050009069465B
S315080042200A48FEF72DFE002818BFFCF7EEF804949E
S3150800423004A906480594FEF70CFD002818BFFCF7EC
S31508004240E4F806B010BD000000080040C0050020D4
S3150800425010B586B00024184800940194029403947B
S3150800426004941449059401605321C0E9011440F2ED
S31508004270E731C0E903148461FEF737FD002818BF4B
S31508004280FCF7C3F84FF48050009069460A48FEF7D9
S31508004290F7FD002818BFFCF7B8F8049404A90648E7
S315080042A00594FEF7D6FC002818BFFCF7AEF806B052
S315080042B010BD0000000C0040080600200C4810B590
S315080042C00A4901604FF4E1314160002181600C2206
S315080042D0C160C0E904128161C161FFF71BFB0028B8
S315080042E008BF10BDBDE81040FCF78FB800100140AC
S315080042F0980600200E4810B50C4901600D4941602A
S315080043004FF48051816000214FF48062C0E90312A6
S315080043100422C0E90521C161FFF7FCFA002808BF9D
S3150800432010BDBDE81040FCF770B80000004800401A
S31508004330DC060020A08601000C4810B50A49016079
S315080043404FF4E1314160002181600C22C160C0E96F
S3150800435004128161C161FFF7DDFA002808BF10BDAC
S31508004360BDE81040FCF751B80014014020070020B2
S3150800437010B500221049114800F089FB002818BF23
S31508004380FCF743F80E490D4800F08AFD002818BFCF
S31508004390FCF73BF80B49094800F045FA002818BF16
S315080043A0FCF733F8054800F098FD002808BF10BD53
S315080043B0BDE81040FCF729B8440100204409002054
S315080043C0F00000202C010020FEE7FEE70148FDF77B
S315080043D09DBB00004020002070477047FDF794B948
S315080043E00248016841F470010160704788ED00E0F9
S315080043F00148FEF7FDBD0000C00500200148FEF794
S31508004400F7BD000008060020F0B402682C4B2D4CBE
S315080044102D4D2E4EDFF8B8C0984218BFB0F1804F28
S3150800442007D0A04218BFA84203D0B04218BF6045C3
S3150800443004D14F6822F0700247EA0202984218BF78
S31508004440B0F1804F25D0A04218BFA84221D0B04273
S3150800445018BF60451DD0A0F18044B4F5A0341CBF38
S31508004460A0F18044B4F5A23413D0A0F18044B4F589
S31508004470A4341CBFA0F18044B4F5C05409D0A0F1FF
S315080044808044B4F5E0541CBFA0F18044B4F5005450
S3150800449003D1CC6822F4407222434C6922F0800290
S315080044A0224302608A68C2620A688262984212BF20
S315080044B06045096901634FF001014161F0BC70472D
S315080044C0000001400004004000080040000C0040C5
S315080044D00004014070B4026A22F010020262036A04
S315080044E04268D0F818C00C682CF4E64C4CEA042C48
S315080044F08C6823F0200343EA0413104C104DA042A5
S3150800450018BFA84206D1CE6823F0800343EA0613F3
S3150800451023F04003A04218BFA84207D14C6922F4F1
S31508004520406242EA84028C6942EA84024260C0F828
S3150800453018C049688163036270BC70470000014077
S315080045400004014037B582B01346039A8262838518
S31508004550002504460564222084F83E00A16B1B480A
S31508004560C863A16B1A480864A16B1A48C864A06B93
S3150800457005652068011DA06BFCF7D2FD206801685F
S315080045804068009084F83C5020680C3050E8001FC2
S3150800459041F4807140E80012002AF5D120681430F1
S315080045A050E8001F41F0010140E80012002AF5D149
S315080045B02068143050E8001F41F0400140E800121E
S315080045C0002AF5D105B0002030BD00009B7A00080E
S315080045D0297A0008FD7700080148FFF73FB8000070
S315080045E0980600200148FFF739B80000DC060020CD
S315080045F00148FFF733B8000020070020D0F8BC3286
S31508004600D0F8C422002B04BF0320704770B501EB15
S31508004610810C00EB8C0C0026DCF818404CB1C1EB81
S31508004620C10502EB8502556CB4FBF5F205FB124297
S3150800463082B1C3F81462D0F8C002D0F810C0BCF139
S31508004640000F05D00A4603F50471D3F80802E047BF
S31508004650002070BD00231A46CCF8186000F000FC54
S31508004660F6E770B5D0F8BC420546002C04BF032017
S3150800467070BD00F0D5FAC4F80C02D5F8C012D4F80B
S315080046800402CA6804F503719047002070BD70B52E
S315080046900446812100F019FA0025258701212046C4
S315080046A000F013FAA4F878518221204600F00DFA9A
S315080046B0A4F84C50A4F84E50D4F8BC0248B1D4F82B
S315080046C0C00240688047D4F8BC0200F0DBFDC4F89D
S315080046D0BC52002070BD10B5D0F8BC42002C04BFF7
S315080046E0032010BDD0F8C01200291CBF94F80002A0
S315080046F0FF2807D08B6894F8012221469847FF20A7
S3150800470084F80002002010BD0A2101800048704785
S3150800471018000020432101800048704768000020E7
S31508004720432101800048704724000020432101806E
S3150800473000487047AC0000202DE9F04104464FF4CC
S31508004740077000F0A1FD05004FF0000702BFC4F88E
S31508004750BC720220BDE8F081C4F8BC52207C4FF040
S315080047601008012660B3402302228121204600F06A
S31508004770BDFA2687402302220121204600F0B6FA18
S31508004780A4F87861A4F84E800823032282212046E3
S3150800479000F0ACFAA4F84C60D4F8C0020068804770
S315080047A0C5F81472C5F81872207CD5F80422D8B159
S315080047B040230121204600F0A5FA0020BDE8F0813B
S315080047C04FF4007302228121204600F08FFA2687D3
S315080047D04FF4007302220121204600F087FAA4F85C
S315080047E07861A4F84E80CFE74FF400730121204684
S315080047F000F088FAE1E710B5D0F8BC12002904BF2A
S31508004800032010BD027C002AD1F8042205D04023DB
S31508004810012100F077FA002010BD4FF40073012142
S3150800482000F070FAF7E700290EBF0320C0F8C0129F
S3150800483000207047D0F8BC0200280EBF0320C0F83D
S31508004840041200207047D0F8BC02002804BF0320D9
S315080048507047C0F81022C0F8081200207047F0B55B
S315080048600546D0F8BC72002083B00C468DF80000CF
S31508004870ADF804000646002F02BF032003B0F0BDC2
S31508004880207810F0600128D0202941D1E288E2B1D1
S3150800489010F0800F60780DD0D5F8C0128B683946B5
S315080048A09847E288072A88BF07223946284600F033
S315080048B096F832E087F80002A07987F80102E288C4
S315080048C03946284600F071F827E0D5F8C012607816
S315080048D000228B68214698471FE0607850B101286E
S315080048E01BD00A2810D00B2804BF95F89C02032871
S315080048F013D00DE095F89C02032809D1022201A9DC
S31508004900284600F06CF808E095F89C02032807D0C2
S315080049102146284600F03EF8032603B03046F0BD8F
S3150800492001226946284600F05AF8F6E710B5D0F88D
S31508004930BC120122002904BF032010BDD1F814328D
S315080049406BB90122C1F81422D1F81022C262D1F83B
S315080049501032D1F80822812100F082FA002210468E
S3150800496010BD10B5D0F8B822002A1CBF526890476F
S31508004970002010BD134610B50A46002100F0C2F902
S31508004980002010BD134610B50A46002100F068FA4B
S31508004990002010BD10B50446802100F046FA2046D6
S315080049A0BDE81040002100F040BA10B50323C0F856
S315080049B09432C0F858211346C0F85C210A460021F3
S315080049C000F0A0F9002010BD10B50521C0F894121A
S315080049D000231A46194600F095F9002010BD10B5B7
S315080049E00223C0F8943282611346C2610A46002146
S315080049F000F036FA002010BD10B50421C0F8941254
S31508004A0000231A46194600F02BFA002010BD30B4D0
S31508004A100025002804BF30BC70474FF0000C04780E
S31508004A2003463CB113F8014F0CF1010C0CF0FF0CD6
S31508004A30002CF7D1022303EB4C03138012784A5556
S31508004A406A1C03238B540378AA1C002B12BF00236D
S31508004A5030BC704710F801CB01F802C0521CD2B224
S31508004A608B54521C90F800C0D2B2BCF1000FF1D1A1
S31508004A7030BC704701004FF0000008BF704701299D
S31508004A8003D0022904BF012070470320704700287D
S31508004A9004BF032070470023C0F8B832C0F8C032FC
S31508004AA0C0F8CC32002918BFC0F8B412012180F82A
S31508004AB09C12027000F0B8B810B5D0F8C402FCF722
S31508004AC03FFFBDE81040FFF7D5BF10B5D0F8C402C8
S31508004AD0FCF710FFBDE81040FFF7CCBF70B51346D2
S31508004AE0044621B194F89C02032848D050E0D4F833
S31508004AF0941204F114000025022939D1D0E90221C3
S31508004B0091420DD2A2EB0102826019462046FFF7B8
S31508004B1039FF00231A461946204600F0F3F827E025
S31508004B2014D14068884211D3D4F8981288420DD21D
S31508004B30002211462046FFF725FF00231A4619468C
S31508004B402046C4F8985200F0DDF811E094F89C026B
S31508004B50032806D1D4F8B802C16800291CBF20462C
S31508004B6088478021204600F060F92046FFF72CFF91
S31508004B7094F8A002012808BF84F8A05208E0D4F8E7
S31508004B80B802426922B120469047002818BF70BD76
S31508004B90002070BD10B59446044621B194F89C02D5
S31508004BA0032824D02CE0D4F8941204F5AA7003291B
S31508004BB026D1D0E9023293420AD99A1A8260C0688D
S31508004BC0904298BF024661462046FFF7D3FE17E09B
S31508004BD094F89C02032806D1D4F8B8020169002982
S31508004BE01CBF204688472046FFF706FF08E0D4F892
S31508004BF0B802826922B120469047002818BF10BD26
S31508004C00002010BD0020704710B5012180F89C12C5
S31508004C10D0F8B82212B1526801799047002010BD29
S31508004C20D0F8C402FCF7BBBE10B5017841BB1549E4
S31508004C300222C1F80404C0F8C4124FF0A04008606C
S31508004C40042048600020C1E90320C1E90620086263
S31508004C504862C86208630846FDF75CFA002818BF70
S31508004C60FBF7D3FB80210748FCF7FFFD4022002114
S31508004C700448FCF7FEFD802201210248FCF7F9FDF5
S31508004C80002010BD4020002011F0800F01F07F01A8
S31508004C90D0F8C402C1EBC10100EB810014BF90F843
S31508004CA03E0090F8FE01704710B5D0F8B822002AE9
S31508004CB004BF032010BD90F89C32032B03D1126A5F
S31508004CC0002A18BF9047002010BD10B5D0F8B822AA
S31508004CD0002A04BF032010BD90F89C32032B03D191
S31508004CE0526A002A18BF9047002010BD10B59C468E
S31508004CF01346D0F8C4026246FCF75AFEBDE81040D7
S31508004D00FFF7B8BE10B5D0F8C402FCF780FEBDE8C0
S31508004D101040FFF7AFBE70B50125044680F89C52D7
S31508004D200020C4F894026060C4F8A402D4F8B8025B
S31508004D30002804BF032070BDD4F8BC1200291CBF8C
S31508004D404268002A03D04FF000012046904700220F
S31508004D50402311462046FFF7C9FF4026A4F86451B0
S31508004D603346002280212046C4F86061FFF7BEFF63
S31508004D70A5840020266270BD90F89C12042904BF01
S31508004D8090F89D1280F89C120020704710B5D0F854
S31508004D90B812002904BF032010BD90F89C22032AEC
S31508004DA003D1C969002918BF8847002010BD0174BE
S31508004DB00020704710B5D0F8C402FDF790FABDE898
S31508004DC01040FFF757BE10B5044600F2AA2000F0BF
S31508004DD050F80120C4F89402B4F8B002C4F8980256
S31508004DE094F8AA1211F01F000AD001280FD0022841
S31508004DF014D02046BDE8104001F0800100F015B837
S31508004E0004F2AA212046BDE8104000F069B804F271
S31508004E10AA212046BDE8104000F008BA04F2AA21EB
S31508004E202046BDE8104000F04BB910B5D0F8C402D2
S31508004E30FCF712FEBDE81040FFF71CBE10B5D0F80F
S31508004E40C402FDF767FABDE81040FFF713BE90F8F5
S31508004E509C1280F89D12042180F89C12002070474D
S31508004E6010B5D0F8C402FCF730FEBDE81040FFF7D5
S31508004E7001BE11F8012B027011F8012B42700B7854
S31508004E804A7843EA0222428011F8023F4A7843EA06
S31508004E90022282808B78C97843EA0121C180704753
S31508004EA038B504460020ADF80000002904BF0320E9
S31508004EB038BDC4F8B812C96A19B168468847C4F833
S31508004EC0CC02002038BD03460320D3F8B822002AB6
S31508004ED008BF7047126818461047FFF7AFBF0000B3
S31508004EE070B50A78002512F0600209D0202A18BF8A
S31508004EF0402A7DD1D0F8B822926890470546A2E0AC
S31508004F004A780A2A74D2DFE802F0ABCB96C3960831
S31508004F1005968B2802F0B2FB95E00446888800289F
S31508004F2004BFC888002843D14888802840D200F0AA
S31508004F307F0694F89C0203283AD084F89E6231468C
S31508004F402046FFF737FF2046FFF756FD002E0CBF19
S31508004F500120022084F89C0275E0584E89780025C5
S31508004F6004463170012908D980212046FFF75DFFE4
S31508004F7000212046FFF759FF11E094F89C02022809
S31508004F800FD0032824D080212046FFF74EFF0021AA
S31508004F902046FFF74AFF31782046FFF7E2FC032553
S31508004FA051E099B120466160FFF78DFF050008D0F2
S31508004FB080212046FFF739FF00212046FFF735FFFD
S31508004FC041E02046FFF718FD0320C3E7204664E0CA
S31508004FD0E9B160688842F9D0C1B22046FFF7C1FC42
S31508004FE0317820466160FFF76EFF0500EED000E0DD
S31508004FF021E080212046FFF718FF00212046FFF711
S3150800500014FF21792046FFF7ACFC0220A2E7022014
S3150800501084F89C0220466160FFF7A3FC20463CE02A
S31508005020C988012907D190F89C12012918BF0229BD
S315080050300BD003290FD004468021FFF7F6FE002186
S315080050402046FFF7F2FE284670BD00218160012246
S3150800505000F1080119E00122011DFFF7C0FCF2E783
S3150800506090F89C22012A19BF022A032AC988022914
S31508005070E1D14FF00101C160D0F8A41200291CBF8C
S315080050800321C160022200F10C01FFF7A8FCDAE750
S3150800509049880129D7D1C0F8A412FFF7ADFCD2E799
S315080050A090F89C22012A1CBF022A032AC3D14988E8
S315080050B0012908BF0021C6D1EDE70000280100201C
S315080050C02DE9F0410D46044628780026097910F0A6
S315080050D060000BD0202818BF402851D1D4F8B80258
S315080050E0294682682046904706469CE0687800284C
S315080050F03FD0012824D0032842D194F89C020228E4
S3150800510002D003280CD086E0002918BF802937D0A2
S315080051102046FFF78AFE80212046FFF786FE82E0BA
S31508005120688848B9002918BF802905D0E88800286A
S3150800513004BF2046FFF779FE2046FFF75DFC72E0C4
S3150800514094F89C02022802D0032805D063E00029BF
S3150800515018BF8029DCD15EE06888002863D111F089
S315080051607F0F1CBF2046FFF7A7FC2046FFF744FC2D
S31508005170B4E794F89C020027022802D0032818D026
S3150800518049E0002918BF802945D101F07F0000EBCE
S31508005190800011F0800F04EB800014BF00F11401A9
S315080051A000F5AA714FF0020220460F60FFF717FCC0
S315080051B039E001F00F0000EB800011F0800F04EBDE
S315080051C080000AD0808C30B301F07F0000EB8000AD
S315080051D004EB800000F114050AE0B0F86401D0B1D0
S315080051E001F07F0000EB800004EB800000F5AA7553
S315080051F0002918BF802907D02046FFF745FD00285B
S315080052001CBF0120286000D12F60022229462046B3
S31508005210FFF7E5FB07E080212046FFF706FE0021A1
S315080052202046FFF702FE3046BDE8F08170B5044619
S31508005230087800260D4610F060001CBF202840287C
S3150800524016D194F89C0201281CBF022803280FD106
S31508005250287901280CD8D4F8B802826820469047E5
S315080052600646E888304304BF2046FFF7C5FB07E03B
S3150800527080212046FFF7D9FD00212046FFF7D5FDFE
S31508005280304670BD7047000000487047201E002059
S3150800529010B40A784FF0010C02F00F034C780CFAA0
S315080052A003F3D0F81CC8012C0BD04CEA0343C0F812
S315080052B01C3800EB4210D0F8002B12F4004F20D017
S315080052C02CE09BB24CEA0303C0F81C3800EB4210F2
S315080052D0D0F8003913F4004F20D1D0F80039B1F8CE
S315080052E008C0C978CCF30A0C890443EA0C0341EADE
S315080052F08251194341F4004141F08051C0F8001928
S315080053000CE0D0F8002B0B89C978C3F30A031A43BB
S31508005310044B43EA81411143C0F8001B10BC00202E
S315080053207047000000800010D0F800196FF30A01DA
S31508005330C0F80019D0F8041841F48071C0F80418B0
S315080053400020704778B40323069E0025344ADDF80A
S3150800535010C00A9C0D99012E28D0C16841F0400161
S31508005360C16000950099491C0091914212D80169C3
S3150800537011F0004FF6D00095016941F00101016175
S315080053800099491C0091914204D8016911F0010F56
S31508005390F6D12B46816B002C0CBF41F4803121F4E9
S315080053A080318163BCF1010F36D12DE0846B24F482
S315080053B080348463C46824F0400424F48404C460FC
S315080053C0C46824F44014C460012903D1C16841F4B7
S315080053D08011C16000950099491C00919142E1D85D
S315080053E0016911F0004FF6D00095016941F00101FD
S315080053F001610099491C00919142D3D8016911F0C5
S31508005400010FF6D12B46CDE7816841F00601816090
S31508005410816841F020018160184678BC7047000019
S31508005420400D030010B491F801C00A78012300EB7F
S315080054304212BCF1010F2FD0D2F800CB1CF0004F5E
S315080054400BD0D2F800CB4CF0006CC2F800CBD2F8E7
S3150800545000CB4CF0804CC2F800CBD0F83CC80C7896
S3150800546004F00F0403FA04F42CEA044CC0F83CC810
S31508005470D0F81CC8097801F00F0103FA01F12CEAEB
S315080054800141C0F81C18D2F8000B1B490840C2F8A5
S31508005490000B10BC00207047D2F800C91CF0004F62
S315080054A00BD0D2F800C94CF0006CC2F800C9D2F88B
S315080054B000C94CF0804CC2F800C9D0F83CC80C783A
S315080054C004F00F0403FA04F4A4B22CEA040CC0F89E
S315080054D03CC8D0F81CC8097801F00F0103FA01F19D
S315080054E089B22CEA0101C0F81C18D2F80009034950
S315080054F00840C2F80009CCE70078F3EF007833ECEF
S31508005500D0F8001E21F00301C0F8001ED0F80418D8
