:020000040800F2
:10000000B04000204D020008293E00080F380008CB
:10001000253E000887060008C540000800000000D3
:100020000000000000000000000000002F3E00085B
:100030005D070008000000002D3E0008313E00086A
:1000400067020008670200086702000867020008EC
:1000500067020008670200085F07000867020008DF
:1000600067020008690700087307000867020008B4
:10007000CD060008DD06000867020008ED0600084E
:1000800067020008670200086702000867020008AC
:100090008D0600089D060008670200087D0700081D
:1000A000670200086702000867020008670200088C
:1000B00067020008670200084D3E0008670200085A
:1000C000670200086702000867020008670200086C
:1000D000670200086702000867020008A5400008E0
:1000E000670200086702000867020008670200084C
:1000F000670200086702000867020008670200083C
:1001000067020008670200085D3E000867020008F9
:10011000670200086702000867020008670200081B
:1001200067020008FD0600080D0700081D0700080B
:1001300067020008670200086702000867020008FB
:10014000AD060008BD060008670200086702000847
:100150002D0700083D0700084D070008B5400008BE
:1001600067020008670200086702000867020008CB
:10017000670200086702000867020008000000002C
:10018000670200086702000800F002F800F04EF86D
:100190000AA090E8000C82448344AAF10107DA45E2
:1001A00001D100F043F8AFF2090EBAE80F0013F0E6
:1001B000010F18BFFB1A43F001031847F078000045
:1001C000107900000A4410F8014B14F00F0508BF25
:1001D00010F8015B240908BF10F8014B6D1E05D013
:1001E00010F8013B6D1E01F8013BF9D1641E03D0EC
:1001F000641E01F8015BFBD19142E4D3704700001B
:100200000023002400250026103A28BF78C1FBD81F
:10021000520728BF30C148BF0B6070471FB507F0B9
:1002200080FB00F04BF91FBD10B510BD00F074F954
:100230001146FFF7F3FF07F0EBF900F092F903B472
:10024000FFF7F2FF03BC00F0F7F900000948804710
:1002500009480047FEE7FEE7FEE7FEE7FEE7FEE7A8
:10026000FEE7FEE7FEE7FEE704480549054A064BC0
:1002700070470000393E000889010008B03A0020AC
:10028000B0400020B03C0020B03C002053EA020CFB
:1002900000F069802DE9F04B4FF00006002B1FBFE6
:1002A000B3FA83F503FA05F424FA05F65E4012BFAB
:1002B0001643B2FA82F502FA05F4C5F120051EBF15
:1002C00022FA05FC44EA0C04203556EA044C4FEAB5
:1002D000144418BF641C4FF000084FF0000990420E
:1002E00071EB030C39D3002919BFB1FA81F701FA78
:1002F00007F6B0FA80F700FA07F6C7F120071EBF2D
:1003000020FA07FC46EA0C062037B6FBF4FCA7EB04
:100310000507103F07F01F0BCBF120060CFA0BFB73
:100320002CFA06F644BFB3460026202FA4BF5E4633
:100330004FF0000B5BEA060C08BF4FF0010B19EB06
:100340000B09ABFB027C48EB0608C01B06FB02CC8A
:100350000BFB03CC71EB0C01C1E70B460246414697
:100360004846BDE8F08B13B54FF000004FF0000198
:10037000AFF30080BDE81C407047032A40F2308094
:1003800010F0030C00F0158011F8013BBCF1020FD6
:10039000624498BF11F801CB00F8013B38BF11F857
:1003A000013BA2F1040298BF00F801CB38BF00F86E
:1003B000013B11F0030300F02580083AC0F00880EB
:1003C00051F8043B083A51F804CBA0E80810F5E7CF
:1003D000121D5CBF51F8043B40F8043BAFF30080B2
:1003E000D20724BF11F8013B11F801CB48BF11F827
:1003F000012B24BF00F8013B00F801CB48BF00F8F7
:10040000012B704710B5203AC0F00B80B1E81850AE
:10041000203AA0E81850B1E81850A0E81850BFF4EE
:10042000F5AF5FEA027C24BFB1E81850A0E818508D
:1004300044BF18C918C0BDE810405FEA827C24BFE1
:1004400051F8043B40F8043B08BF7047D20728BF6F
:1004500031F8023B48BF11F8012B28BF20F8023BBE
:1004600048BF00F8012B70474FF0000200B513465B
:1004700094469646203922BFA0E80C50A0E80C50C4
:10048000B1F12001BFF4F7AF090728BFA0E80C5075
:1004900048BF0CC05DF804EB890028BF40F8042B6E
:1004A00008BF704748BF20F8022B11F0804F18BFDB
:1004B00000F8012B704770477047704770B5064CC5
:1004C0007C44064D7D4403E0206820448047241D81
:1004D000AC42F9D170BD000008760000147600002F
:1004E0001FB584B000200A9C06AB04AA02A90094A0
:1004F000AFF3008018B1DDE9020108B010BD034878
:10050000204000F037F800200146F6E70000207C8C
:10051000004870474C3A00207546FFF7F9FFAE4699
:1005200005006946534620F00700854618B020B5FF
:10053000FFF79AFEBDE820404FF000064FF000079D
:100540004FF000084FF0000B21F00701AC46ACE87B
:10055000C009ACE8C009ACE8C009ACE8C0098D46E8
:10056000704710B50446AFF300802046BDE8104048
:10057000FFF765BE10B500F009F8BDE81040AFF315
:100580000080002801D000F057B8704710B502284D
:1005900003D0410103D50DA112E0002010BD0101DF
:1005A00001D50FA10CE0C10001D511A108E0810027
:1005B00001D512A104E0400001D513A100E0002103
:1005C00015A000F040F8012010BD0000496E7661D2
:1005D0006C6964204F7065726174696F6E00000011
:1005E000446976696465204279205A65726F00001B
:1005F0004F766572666C6F7700000000556E64651B
:1006000072666C6F77000000496E657861637420D4
:10061000526573756C7400005349474650453A2043
:1006200041726974686D657469632065786365708B
:1006300074696F6E3A20000001491820ABBEFEE7D6
:1006400026000200704770B505460C460A2000E0FF
:100650006D1C00F011F835B128780028F8D102E0BF
:10066000641C00F009F814B120780028F8D1BDE826
:1006700070400A20AFF3008008B569468DF800008D
:100680000320ABBE08BD00BFFEE7000010B5024866
:1006900000F08CFA10BD00006801002010B502487F
:1006A00000F084FA10BD00006801002010B5024877
:1006B00000F07CFA10BD00009001002010B5024847
:1006C00000F074FA10BD00009001002010B502483F
:1006D00000F014FE10BD00009006002010B5024886
:1006E00000F00CFE10BD00000C02002010B5024806
:1006F00000F004FE10BD00006C02002010B502489E
:1007000000F0FCFD10BD0000F006002010B502480E
:1007100000F0F4FD10BD00002403002010B50248D5
:1007200000F0ECFD10BD00008403002010B502486D
:1007300000F0E4FD10BD0000D005002010B5024817
:1007400000F0DCFD10BD00005007002010B502488D
:1007500000F0D4FD10BD000030060020704710B539
:10076000012000F0ABFF10BD10B5082000F0A6FF7F
:1007700010BD10B5102000F0A1FF10BD10B5202055
:1007800000F09CFF10BD72B600BFFEE710B5024638
:1007900092F82030012B01D0022B06D1106840695D
:1007A000084314686061002010BD506A40F4802046
:1007B00050620120F8E7F0B504460D461E4694F855
:1007C000207020688368A86800B900E000BF012F8E
:1007D00001D0022F7CD103F0806030B903F00060BB
:1007E00018B903F08050002873D0C3F301610229C7
:1007F00005D9606A40F4000060620120F0BD01206C
:1008000088403060A86860B9B5F800C0E86840EA80
:100810004C5C206800F5C07000EB0110C0F800C00F
:100820000FE0D5E901C040EACC00D5F80CC040EAA1
:100830000C00D4F800C00CF5C07C0CEB011CCCF80B
:100840000000D5F810C0206800F5C07000EB011062
:10085000C0F804C0287D01280ED1206800F5C070C2
:1008600000EB0110406840F4807C206800F5C07007
:1008700000EB0110C0F804C0D079000692F806C061
:1008800040EA0C4092F805C040EA0C2C10794CEA82
:10089000000C206800F5C07000EB0110C0F80CC01F
:1008A000D078000692F802C040EA0C4092F801C0ED
:1008B00040EA0C2092F800C040EA0C00D4F800C0D6
:1008C0000CF5C07C0CEB011CCCF80800206801E0A2
:1008D00016E00FE000F5C07000EB0110006840F07A
:1008E000010C206800F5C07000EB0110C0F800C0DA
:1008F000002083E7606A40F40010606201207DE719
:10090000606A40F480206062012077E7F0B5044619
:100910000A46216894F82050012D01D0022D7ED185
:10092000424901F50071086840F00100086008685C
:1009300020F47C5008600868566A40EA0620086087
:10094000107D00F01F06012000FA06F3C8699843E5
:10095000C861A1F50071D069C8B9D1F80C029843FB
:10096000C1F80C02908880B2968940EA064601F5EB
:100970001070576940F83760108880B2168940EAD5
:10098000064601F51070576900EBC7004660D06954
:10099000012819D1D1F80C021843C1F80C02908833
:1009A00080B2168840EA064601F51070576940F893
:1009B0003760908980B2168940EA064601F51070CA
:1009C000576900EBC7004660906928B9D1F8040266
:1009D0009843C1F8040204E0D1F804021843C1F8B6
:1009E0000402106928B9D1F814029843C1F814021E
:1009F00004E0D1F814021843C1F81402106A012867
:100A000004D1D1F81C021843C1F81C02D1F800022D
:100A100020F00100C1F800020020F0BDFFE7606A8D
:100A200040F4802060620120F7E70000006400408D
:100A3000704770B5044694F82050012D01D0022D66
:100A40007DD151B92068C06800F0030080B9606AA8
:100A500040F400106062012070BD2068006900F061
:100A6000030028B9606A40F4001060620120F3E7D7
:100A7000206800F5D87000EB0110006800F0040059
:100A80009060906840B9206800F5D87000EB0110C4
:100A90000068400D106007E0206800F5D87000EB9A
:100AA00001100068C0085060206800F5D87000EBA5
:100AB0000110006800F00200D060206800F5D870D6
:100AC00000EB0110406800F00F001061206800F595
:100AD000D87000EB0110406800F47F40000A90617C
:100AE000206800F5D87000EB01104068000C5061E0
:100AF000206800F5D87000EB01108068187020683D
:100B000000F5D87000EB0110806800F47F40000A07
:100B10005870206800F5D87000EB0110806800F470
:100B20007F00000C9870206800F5D87000EB011071
:100B30008068000ED870206800F5D87000E02FE0C3
:100B400000EB0110C0681871206800F5D87000EB48
:100B50000110C06800F47F40000A5871206800F559
:100B6000D87000EB0110C06800F47F00000C987191
:100B7000206800F5D87000EB0110C068000ED87135
:100B800031B92068C06840F020002668F06005E0B8
:100B90002068006940F020002668306100205BE793
:100BA000606A40F480206062012055E72DE9F05F23
:100BB00004460025206846692068D0F80490206823
:100BC00087682068D0F80CA02068D0F810B02068A2
:100BD000D0F8188006F00100002855D007F0010079
:100BE000C0B101202168886007F0020018B12046DA
:100BF00000F013FB0EE007F0040010B145F40065AF
:100C000008E007F0080010B145F4805502E02046E6
:100C100000F002FB07F48070C8B14FF480702168C7
:100C2000886007F4007018B1204600F0F8FA0EE072
:100C300007F4806010B145F4005508E007F4006047
:100C400010B145F4804502E0204600F0E7FA07F4D1
:100C50008030C8B14FF480302168886007F40030DC
:100C600018B1204600F0DDFA0EE007F4802010B144
:100C700045F4004508E007F4002010B145F4803544
:100C800002E0204600F0CCFA06F0080038B10AF085
:100C9000100020B145F4007510202168C86006F0EE
:100CA000040040B10AF0080028B108202168C8609B
:100CB000204600F01DFA06F0020038B12068C06836
:100CC00000F0030010B1204600F014FA06F04000D6
:100CD00038B10BF0100020B145F480651020216878
:100CE000086106F0200040B10BF0080028B1082090
:100CF00021680861204600F031FA06F0100038B192
:100D00002068006900F0030010B1204600F028FAC6
:100D100006F4003040B109F0100028B1102021681D
:100D20004860204600F048FA06F4803040B109F0EF
:100D3000080028B1082021684860204600F072FAB7
:100D400006F4004088B309F0040078B306F480701C
:100D500020B108F0010008B145F0010506F400706B
:100D600020B108F0020008B145F0020506F48060E9
:100D700020B108F0040008B145F0040506F4006055
:100D8000A0B108F0700088B108F07000402817D0BA
:100D900006DC10280BD020280CD0302819D10CE00C
:100DA000502810D0602814D110E01DE019E045F063
:100DB00008050FE045F010050CE045F0200509E0BE
:100DC00045F0400506E045F0800503E045F48075F8
:100DD00000E000BF00BF2068806920F0700021683B
:100DE00088610420216848602DB1606A28436062F0
:100DF0002046FFF71DFEBDE8F09F70B504460CB914
:100E0000012070BD94F8200010B9204600F0B0F821
:100E10002068006840F001002168086000F05AFD79
:100E200005460DE000F056FD401B0A2808D9606A0F
:100E300040F400306062052084F820000120E0E7E3
:100E40002068406800F001000028EBD020680068AE
:100E500020F002002168086000F03CFD05460DE02E
:100E600000F038FD401B0A2808D9606A40F40030C1
:100E70006062052084F820000120C2E720684068F5
:100E800000F002000028EBD1207E012806D1206866
:100E9000006840F080002168086005E02068006874
:100EA00020F0800021680860607E012806D120685B
:100EB000006840F040002168086005E02068006894
:100EC00020F0400021680860A07E012806D120683B
:100ED000006840F020002168086005E02068006894
:100EE00020F0200021680860E07E012806D12068FB
:100EF000006820F010002168086005E020680068A4
:100F000040F0100021680860207F012806D1206889
:100F1000006840F008002168086005E0206800686B
:100F200020F0080021680860607F012806D1206851
:100F3000006840F004002168086005E0206800684F
:100F400020F0040021680860D4E902010843216907
:100F50000843616908436168491E08432168C86104
:100F600000206062012084F82000002049E7000092
:100F700010B586B00446142101A8FFF775FA56494A
:100F80002068884249D155480068401C5349086090
:100F90000846006801280FD100BF0020009050488B
:100FA000006840F000704E4908600846006800F094
:100FB0000070009000BF00BF00BF002000904848B4
:100FC0001038006840F008004549103908600846AC
:100FD000006800F00800009000BF00BF03200190EF
:100FE0000220029000200390032004900920059025
:100FF00001A93C4800F070FB00221146142000F0CB
:1010000083FE142000F070FE00221146152000F02F
:101010007BFE152000F068FE5CE0334920688842C2
:1010200058D100BF002000902D48006840F080603B
:101030002B4908600846006800F08060009000BFFF
:1010400000BF26480068401C244908600846006824
:1010500001280FD100BF002000902148006840F017
:1010600000701F4908600846006800F0007000909A
:1010700000BF00BF00BF0020009019481038006872
:1010800040F002001649103908600846006800F078
:101090000200009000BF00BF60200190022002907B
:1010A00000200390032004900920059001A90F4817
:1010B00000F012FB00221146402000F025FE4020E7
:1010C00000F012FE00221146412000F01DFE4120DA
:1010D00000F00AFE06B010BD0064004004000020CD
:1010E00040380240000C024000680040000402400A
:1010F0007047000010B504461348007800B910BDD1
:101100001249206888420CD1114BA3F11C02002126
:101110002046FFF78EFC0E482038816A001D884764
:101120000FE00C49206888420BD10B4BA3F11C0245
:1011300000212046FFF77DFC07482038816A001D0A
:10114000884700BFDBE7000050010020006400403A
:10115000E8070020006800401408002070470000E5
:1011600010B504461049206888420CD10F4BA3F1FA
:101170001C0201212046FFF75CFC0C482038816AE4
:10118000001D88470FE00A49206888420BD1094BAF
:10119000A3F11C0201212046FFF74BFC0548203833
:1011A000816A001D884710BD00640040E8070020E8
:1011B0000068004014080020704770B5044694F899
:1011C0002000012822D1022084F820002068006835
:1011D00020F001002168086000F07CFB05460DE06E
:1011E00000F078FB401B0A2808D9606A40F4003000
:1011F0006062052084F82000012070BD20684068EE
:1012000000F001000028EBD16062F6E7606A40F46C
:10121000002060620120F0E7704770477047704718
:1012200070477047704770B50446A56D00F052FBDB
:10123000064694F83500022808D08020606500BF7B
:10124000002084F8340000BF012070BD20680068D1
:1012500020F01600216808602068406920F08000B6
:1012600021684861206C08B9A06C28B1206800682A
:1012700020F00800216808602068006820F0010064
:101280002168086010E000F025FB801B05280BD9C1
:1012900020206065032084F8350000BF002084F81A
:1012A000340000BF0320D0E72068006800F0010090
:1012B0000028E8D194F85C103F208840A860012005
:1012C00084F8350000BF002084F8340000BF00BF60
:1012D000BBE7014691F83500022803D0802048651D
:1012E00001207047052081F835000868006820F06B
:1012F00001000A6810600020F3E70000F8B504461A
:10130000002000908C4800684FF41651B0FBF1F7B4
:10131000A56D2E6894F85C1008208840304098B184
:101320002068006800F0040070B12068006820F0B8
:1013300004002168086094F85C1008208840A860C8
:10134000606D40F00100606594F85C1001208840F9
:10135000304068B12068406900F0800040B194F8E6
:101360005C1001208840A860606D40F0020060655C
:1013700094F85C1004208840304068B12068006810
:1013800000F0020040B194F85C1004208840A8608E
:10139000606D40F00400606594F85C101020884097
:1013A000304078B32068006800F0080050B394F82B
:1013B0005C1010208840A8602068006800F480203D
:1013C00080B12068006800F4002028B9206CC8B102
:1013D0002046216C884715E0A06C98B12046A16C8E
:1013E00088470FE02068006800F4807028B9206802
:1013F000006820F0080021680860206C10B12046C9
:10140000216C884794F85C102020884030400028E8
:1014100065D02068006800F0100000285FD094F8C4
:101420005C1020208840A86094F83500052828D159
:101430002068006820F01600216808602068406974
:1014400020F0800021684861206C08B9A06C28B1A8
:101450002068006820F008002168086094F85C109B
:101460003F208840A860012084F8350000BF00209C
:1014700084F8340000BF206D10B12046216D8847EC
:10148000F8BD2068006800F4802080B12068006802
:1014900000F4002028B9606C10B12046616C8847C8
:1014A0001DE0E06BD8B12046E16B884717E020686B
:1014B000006800F4807068B92068006820F01000AF
:1014C00021680860012084F8350000BF002084F8FE
:1014D000340000BFE06B10B12046E16B8847606DBF
:1014E00038B3606D00F00100F0B1052084F83500DC
:1014F0002068006820F001002168086000BF0098A3
:10150000401C0090B84200D905E02068006800F057
:1015100001000028F3D100BF012084F8350000BF8E
:10152000002084F8340000BFE06C10B12046E16C6C
:10153000884700BFA4E70000140000202DE9F04117
:101540000446002500F0C6F9074614B90120BDE89D
:10155000F081606A00B100BF022084F8350000BF4E
:10156000002084F8340000BF2068006820F00100EB
:10157000216808600AE000F0ADF9C01B052805D914
:1015800020206065032084F83500E0E720680068CB
:1015900000F001000028EED12068056821480540D0
:1015A000D4E901010843E1680843216908436169FE
:1015B0000843A1690843E1690843216A08430543D8
:1015C000606A042803D1D4E90B010843054320686D
:1015D00005602068456925F00705606A0543606A73
:1015E00004280DD1A06A0543E06A48B1204604F002
:1015F000FFFF28B140206065012084F83500A6E790
:1016000020684561204605F049F8064694F85C10CC
:101610003F208840B06000206065012084F83500DC
:10162000002094E73F8010F02DE9F04704460D4676
:1016300016461F464FF00008D4F8589000BF94F8A3
:101640003400012802D10220BDE8F087012084F88F
:10165000340000BF94F83500012825D1022084F819
:101660003500002060653B4632462946204604F09E
:10167000A9FF94F85C103F208840C9F80800206852
:10168000006840F0160021680860206C28B12068CE
:10169000006840F00800216808602068006840F099
:1016A00001002168086006E000BF002084F83400D3
:1016B00000BF4FF002084046C6E7704710B5044629
:1016C00004480068204020B1024804602046FFF72B
:1016D000F4FF10BD143C0140F8B502460B4600254E
:1016E000002400200021D5E0012606FA01F51E683D
:1016F00006EA0504AC4274D11E7906F00306012EF9
:1017000004D01E7906F00306022E13D190684F0014
:101710000326BE40B0434F00DE68BE4030439060B9
:10172000506801268E40B0431E79C6F300168E40E5
:10173000304350601E7906F00306032E09D0D068AE
:101740004F000326BE40B0434F009E68BE4030436A
:10175000D0601E7906F00306022E13D1CF0802F1E5
:10176000200656F827004E07F70E0F26BE40B0435E
:101770004F07FF0E1E69BE403043CF0802F120061E
:1017800046F8270010684F000326BE40B0431E797C
:1017900006F003064F00BE40304310605E6806F45A
:1017A0004036002E75D000BF002600963B4E3668AE
:1017B00046F48046394F3E603E46366806F4804621
:1017C000009600BF00BF364E8F0856F827008E07E0
:1017D000370F0F26BE40B043324EB24202D1002630
:1017E00024E056E0304EB24201D101261EE02F4ED9
:1017F000B24201D1022619E02D4EB24201D1032698
:1018000014E02C4EB24201D104260FE02A4EB2421F
:1018100001D105260AE0294EB24201D1062605E093
:10182000274EB24201D1072600E008268F073F0F5E
:10183000BE4030431A4E8F0846F82700214E3068CC
:10184000A0435E6806F4803606B120431D4E30602A
:10185000361D3068A0435E6806F4003606B12043AA
:10186000184E361D3060361D3068A0435E6806F4A1
:10187000801606B12043134E08363060361D30689E
:10188000A0435E6806F4001606B120430D4E0C36E8
:101890003060491C1029FFF427AFF8BD44380240DE
:1018A00008380140000002400004024000080240E5
:1018B000000C0240001002400014024000180240D8
:1018C000001C0240003C01400AB1816101E00B04B0
:1018D00083617047014800687047000008000020DD
:1018E00070B504460CB9012070BD94F83D0028B9CC
:1018F000002084F83C00204600F0DAF8242084F828
:101900003D002068006820F0010021680860206820
:10191000006840F40040216808602068006820F4F6
:1019200000402168086000F009FB05465C496068DA
:10193000884206D85B48854201D2012007E000209A
:1019400005E05948854201D2012000E0002001282D
:1019500000D1C9E75548B5FBF0F62068406820F093
:101960003F003043216848604D496068884201D893
:10197000701C07E04FF4967070434FF47A71B0FB1F
:10198000F1F0401C2168096A21F03F0108432168F9
:10199000086243496068884214D8681E616849003B
:1019A000B0FBF1F0401CC0F30B00042801D204206E
:1019B0003DE0681E61684900B0FBF1F0401CC0F3D7
:1019C0000B0034E0A06838B9681E616801EB410182
:1019D000B0FBF1F0401C0AE0681E616801EBC10237
:1019E00002EB0111B0FBF1F0401C40F48040C0F369
:1019F0000B0008B901201AE0A06848B9681E6168A8
:101A000001EB4101B0FBF1F0401CC0F30B000CE016
:101A1000681E616801EBC10202EB0111B0FBF1F03D
:101A2000401CC0F30B0040F4804040F400402168AB
:101A3000C9694CF6FF72914308432168C861D4E933
:101A4000070108432168096821F0C00108432168A3
:101A50000860D4E9031008432168896848F2FF321E
:101A60009143084321688860D4E90501084321684F
:101A7000C96821F0FF0108432168C8602068006838
:101A800040F001002168086000202064202084F8D4
:101A90003D000020206384F83E0000BF24E70000E2
:101AA000A086010080841E0000093D0040420F0016
:101AB00010B586B00446142101A8FEF7D5FC4949AB
:101AC000206888427ED100BF002000904648006810
:101AD00040F00400444908600846006800F0040033
:101AE000009000BF00BF00BF0020009008460068C3
:101AF00040F0010008600846006800F00100009016
:101B000000BF00BF481501901220029001200390F1
:101B1000032004900420059001A93448FFF7DCFD60
:101B20004FF4807001901220029001200390032056
:101B300004900420059001A92D48FFF7CDFD00BFBA
:101B40000020009028481030006840F4000026492A
:101B5000103108600846006800F40000009000BFE3
:101B600000BF2448244908604FF0C060486000214D
:101B700021488160C1604FF48061016100214161B1
:101B80008161C16101624162FFF7D8FC08B1FEF7D3
:101B9000FAFD00BF1848A063846300BF15483030C9
:101BA000164908604FF0C0604860402113488160CA
:101BB0000021C1604FF480610161002141618161B8
:101BC000C16100E00BE001624162FFF7B7FC08B1C0
:101BD000FEF7D9FD00BF09486063846300BF06B00B
:101BE00010BD0000005C0040303802400008024098
:101BF00000000240406002400C0200206C02002005
:101C0000034800680349097808440149086070479F
:101C1000080000201000002010B50D48006840F4B6
:101C200000700B4908600846006840F48060086056
:101C30000846006840F480700860032000F0A2F8B5
:101C40000F2000F007F800F02BF8002010BD000076
:101C5000003C024070B504460E4800784FF47A719B
:101C6000B1FBF0F00C490968B1FBF0F5284600F033
:101C700045FD08B1012070BD102C07D2002221467D
:101C8000501E00F041F80548046001E00120F2E731
:101C90000020F0E710000020140000200C000020BD
:101CA00008B500BF002000900E48006840F4804056
:101CB0000C4908600846006800F48040009000BFAE
:101CC00000BF00BF00200090081F006840F0805057
:101CD000091F08600846006800F08050009000BFAF
:101CE00000BF08BD4438024001460846002809DB11
:101CF00000F01F0301229A4043099B0003F1E023F7
:101D0000C3F8002100BF70472DE9F05F80460D4603
:101D10001646002705F074F8074639462A4633462A
:101D200001F00700C0F1070ABAF1040F02D94FF021
:101D3000040A01E0C0F1070AD14600F1040ABAF131
:101D4000070F02D24FF0000A01E0A0F1030AD446C7
:101D50004FF0010A0AFA09FAAAF1010A0AEA020A8C
:101D60000AFA0CFA4FF0010B0BFA0CFBABF1010B6A
:101D70000BEA030B4AEA0B042146404605F02CF817
:101D8000BDE8F09F00BF00F00702064B19684FF650
:101D9000FF031940044B0B4343EA0221014B196036
:101DA00000BF70470CED00E00000FA0570B5044676
:101DB0000D460CB9012070BD5848006800F00700BE
:101DC000A84209D255490D700846006800F0070086
:101DD000A84201D00120EEE7207800F0020002289E
:101DE0001DD1207800F00400042805D14C4800687B
:101DF00040F4E0504A490860207800F008000828C4
:101E000005D14748006840F46040454908604448AF
:101E1000006820F0F000A16808434149086020787C
:101E200000F00100A8B36068012807D13C480838D9
:101E30000068C0F34040B8B90120BCE760680228E0
:101E400002D06068032807D1354808380068C0F31D
:101E5000406048B90120AEE7314808380068C0F357
:101E6000400008B90120A6E72D48006820F00300D3
:101E7000616808432A490860FFF72CFD064609E01F
:101E8000FFF728FD801B41F28831884202D90320E8
:101E900091E707E02248006800F00C006168B0EBB1
:101EA000810FEDD11D48006800F00700A84209D954
:101EB0001A490D700846006800F00700A84201D0DA
:101EC000012078E7207800F00400042807D11448A6
:101ED000006820F4E050E168084311490860207868
:101EE00000F00800082808D10D48006820F4604080
:101EF000216940EAC1000A49086000F03FF808493A
:101F00000968C1F30311074A515CC84006490860DB
:101F100006480068FFF79EFE00204CE7003C0240A8
:101F200008380240707A0008140000200C000020DD
:101F300001480068704700001400002000B5FFF75A
:101F4000F7FF04490968C1F38221034A515CC84084
:101F500000BD000008380240807A000800B5FFF795
:101F6000E7FF04490968C1F34231034A515CC840A4
:101F700000BD000008380240807A00082DE9F047D3
:101F8000002400250026A1462548006800F00C002A
:101F900020B1042805D008283AD105E0DFF8849064
:101FA00039E0DFF8849036E01D48001F006800F03B
:101FB0003F041B48001F006800F4800078B11A48F5
:101FC0001749091F0968C1F38811A0FB0170014678
:101FD000224600233846FEF759F905460EE011481F
:101FE0000F49091F0968C1F38811A0FB0170014660
:101FF000224600233846FEF749F905460848001FE7
:102000000068C0F30140401C4600B5FBF6F902E051
:10201000DFF8109000BF00BF4846BDE8F087000021
:10202000083802400024F400001BB700F8B504464D
:102030000CB90120F8BD207800F00100002874D010
:10204000F948006800F00C0004280DD0F64800683C
:1020500000F00C00082813D1F348001F006800F4BA
:102060008000B0F5800F0BD1EF4808380068C0F34E
:102070004040002859D06068002856D10120D9E797
:1020800000BF6068B0F5803F08D1E74808380068B5
:1020900040F48030E449083908601EE06068B0F51B
:1020A000A02F0DD1E0480838006840F48020DE49B8
:1020B000083908600846006840F4803008600CE089
:1020C000D9480838006820F48030D74908390860BA
:1020D0000846006820F48020086000BF606890B166
:1020E000FFF7F8FB054606E0FFF7F4FB401B64280A
:1020F00001D903209EE7CC4808380068C0F340406F
:102100000028F1D011E0FFF7E5FB054606E0FFF7F8
:10211000E1FB401B642801D903208BE7C248083843
:102120000068C0F340400028F1D1207800F00200A0
:1021300002285FD1BC48006800F00C0058B1BA48D2
:10214000006800F00C0008281CD1B748001F006888
:1021500000F48000B0B9B44808380068C0F340000B
:1021600020B1E068012801D0012063E7AE480838BB
:10217000006820F0F800216940EAC100AA49083946
:10218000086037E0E06800B30120A8490860FFF765
:10219000A1FB054606E0FFF79DFB401B022801D985
:1021A000032047E7A04808380068C0F34000002833
:1021B000F1D09D480838006820F0F800216940EA15
:1021C000C10099490839086014E000209749086067
:1021D000FFF780FB054606E0FFF77CFB401B02286B
:1021E00001D9032026E7904808380068C0F3400072
:1021F0000028F1D1207800F0080008282CD160696F
:10220000A8B101208A490860FFF764FB054606E093
:10221000FFF760FB401B022801D903200AE7824830
:102220006C300068C0F340000028F1D014E00020BA
:102230007F490860FFF74EFB054606E0FFF74AFBC3
:10224000401B022801D90320F4E677486C3000686F
:10225000C0F340000028F1D1207800F004000428E9
:1022600070D1002770483830006800F0805090B975
:1022700000BF002000906C483830006840F080506B
:102280006949383108600846006800F080500090C5
:1022900000BF00BF01276748006800F48070B0B934
:1022A0006448006840F4807062490860FFF712FBE0
:1022B000054606E0FFF70EFB401B022801D903206C
:1022C000B8E65C48006800F480700028F2D000BFD7
:1022D000A068012808D154486830006840F0010027
:1022E0005149683108601DE0A06805280DD14E48AD
:1022F0006830006840F004004B49683108600846C7
:10230000006840F0010008600CE047486830006851
:1023100020F001004449683108600846006820F058
:102320000400086000BFA068A8B1FFF7D3FA054613
:1023300009E0FFF7CFFA401B41F28831884202D909
:10234000032077E626E0384868300068C0F3400094
:102350000028EED013E0FFF7BDFA054608E0FFF7CE
:10236000B9FA401B41F28831884201D9032061E665
:102370002D4868300068C0F340000028EFD1012FDD
:1023800007D129483830006820F08050264938317C
:10239000086000BFA069002845D02348006800F00D
:1023A0000C0008285DD0A069022845D100201F49F3
:1023B0000866FFF78FFA054606E0FFF78BFA401B29
:1023C000022801D9032035E6174808380068C0F311
:1023D00040600028F1D1D4E907010843616A40EA6E
:1023E00081110122A06AC2EB500041EA00412C2079
:1023F000005D41EA00600C49091F086001200B499B
:102400000866FFF767FA054606E0FFF763FA401B28
:10241000022801D903200DE6034808380068C0F3FC
:1024200040600028F1D049E00838024000004742EF
:10243000800E474200700040002021490866FFF7E7
:1024400049FA054606E0FFF745FA401B022801D984
:102450000320EFE51B480068C0F340600028F2D17C
:102460002CE0A069012800D1E4E51648001D0668AB
:10247000A069012820D006F48001E06981421BD1C7
:1024800006F03F01206A814216D147F6C070304005
:10249000616AB0EB811F0FD106F440310122A06ABE
:1024A000C2EB5000B1EB004F06D106F070612C205A
:1024B000005DB1EB006F01D00120BBE50020B9E564
:1024C000000047420038024010B504460CB9012014
:1024D00010BD606A38B96068B0F5827F00D105E050
:1024E0000021E16102E00021216161610021A1621E
:1024F00094F8510028B9002084F85000204600F0DC
:1025000047F8022084F851002068006820F040005D
:1025100021680860A08800F48270218901F40441D8
:102520000843A18901F400610843217C01F0020104
:102530000843217D01F001010843218B01F4007162
:102540000843217F01F0380108432021095D01F093
:1025500080010843218D01F400510843216808607F
:102560000421A06901EA104094F8241001F0100140
:102570000843216848602068C06920F40060216831
:10258000C86100206065012084F8510000209FE7A9
:1025900010B586B00446142101A8FDF765FF504927
:1025A000206888427ED100BF002000904D4800681E
:1025B00040F480504B4908600846006800F48050A1
:1025C000009000BF00BF00BF0020009045481438B5
:1025D000006840F00200434914390860084600686A
:1025E00000F00200009000BF00BF00BF002000907C
:1025F0000846006840F0010008600846006800F0E6
:102600000100009000BF00BF18200190022002903E
:1026100001200390032004900520059001A9324871
:10262000FFF75AF8802001900220029001200390C9
:10263000032004900520059001A92C48FFF74CF8D1
:102640002B482C4908604FF0C060486000212948A1
:102650008160C1604FF4806101610021416181614D
:10266000C1614FF440310162042141620321816262
:102670000021C1620163FEF761FF08B1FEF783F834
:1026800000BF1C48E064846300BF194818301A4931
:1026900008604FF0C0604860402117488160002109
:1026A000C16000E01AE04FF48061016100214161E6
:1026B0008161C1614FF40031016204214162032153
:1026C00081620021C1620163FEF738FF08B1FEF7A5
:1026D0005AF800BF0848A064846300BF06B010BD6C
:1026E0000030014044380240000402400000024033
:1026F00040640240240300208403002070B5044697
:102700002546681EB0F1807F01D301200FE0681ECE
:102710004FF0E02148610F214FF0FF3004F05CFBE7
:1027200000204FF0E021886107200861002070BD83
:102730007047704730B502460B4600BF92F83C0028
:10274000012801D1022030BD012082F83C0000BFE9
:10275000022082F83D00106844681068816824F007
:1027600070041868044310684460184D1068A8424B
:102770001BD01068B0F1804F17D0154D1068A842DB
:1027800013D0144D1068A8420FD0134D1068A84202
:102790000BD0124D1068A84207D0114D1068A84206
:1027A00003D0104D1068A84205D121F0800158686F
:1027B000014310688160012082F83D0000BF0020C5
:1027C00082F83C0000BF00BFBDE7000000000140F0
:1027D0000004004000080040000C004000040140DC
:1027E000004001400018004010B504460CB901201B
:1027F00010BD94F83D0028B9002084F83C00204624
:1028000000F026F8022084F83D00211D206801F028
:102810002DFB012084F8460000BF84F83E00012112
:102820003F200155402001554120015500BF00BF08
:10283000012084F8420043200155442001554520E1
:10284000015500BF012084F83D000020D0E70000C2
:1028500038B504463249206888420FD100BF0020B5
:1028600000903048006840F002002E490860084699
:10287000006800F00200009000BF4FE02A49206885
:10288000884218D100BF002000902648006840F020
:102890000400244908600846006800F00400009025
:1028A00000BF00BF002201211E20FFF72DFA1E20CD
:1028B000FFF71AFA32E01D492068884218D100BF9C
:1028C000002000901748006840F008001549086093
:1028D0000846006800F00800009000BF00BF00221A
:1028E00001213220FFF710FA3220FFF7FDF915E041
:1028F0000F492068884211D100BF0020009009488C
:10290000001D006840F400300649091D08600846B3
:10291000006800F40030009000BF00BF38BD000028
:10292000000400404038024000080040000C004015
:1029300000440140014691F83D00012801D00120EA
:102940007047022081F83D000868C06840F001002F
:102950000B68D8601A4B086898421BD00868B0F121
:10296000804F17D0174B0868984213D0164B086851
:1029700098420FD0154B086898420BD0144B08684A
:10298000984207D0134B0868984203D0124B08684E
:1029900098420CD10868806800F00702062A0CD023
:1029A0000868006840F001000B68186005E00868DE
:1029B000006840F001000B6818600020C0E70000CC
:1029C000000001400004004000080040000C0040EE
:1029D0000004014000400140001800402DE9F04192
:1029E00004460D46002700BF94F83C00012802D1A0
:1029F0000220BDE8F081012084F83C0000BF0220E5
:102A000084F83D002068866826F0770626F47F4625
:102A1000206886602868502833D00CDC202850D0ED
:102A200004DC00284BD0102851D149E0302849D08F
:102A300040284CD139E060282DD0702807D0B0F55F
:102A4000805F03D0B0F5005F41D10DE041E0D5E9F2
:102A500002136A68206801F075FA2068866846F0FB
:102A600077062068866034E0D5E902136A6820683A
:102A700001F068FA2068806840F48040216888602E
:102A800027E0EA686968206803F0C9FE50212068E1
:102A900003F0BCFE1DE0EA686968206803F0D2FE1E
:102AA0006021206803F0B2FE13E0EA6869682068DC
:102AB00003F0B5FE4021206803F0A8FE09E000BF46
:102AC00000BF00BF2968206803F0A0FE01E00127D5
:102AD00000BF00BF012084F83D0000BF002084F843
:102AE0003C0000BF384684E7704710B504462068B4
:102AF0000069C0F34000D8B12068C068C0F340004E
:102B0000B0B16FF0020021680861012020772068D1
:102B1000806900F0030018B12046FFF7E5FF05E0EB
:102B2000204600F0DFF8204600F093F900202077DF
:102B300020680069C0F38000D8B12068C068C0F385
:102B40008000B0B16FF00400216808610220207796
:102B50002068806900F4407018B12046FFF7C4FF78
:102B600005E0204600F0BEF8204600F072F9002093
:102B7000207720680069C0F3C000D8B12068C06821
:102B8000C0F3C000B0B16FF00800216808610420F4
:102B900020772068C06900F0030018B12046FFF7D5
:102BA000A3FF05E0204600F09DF8204600F051F913
:102BB0000020207720680069C0F30010D8B1206899
:102BC000C068C0F30010B0B16FF010002168086158
:102BD000082020772068C06900F4407018B12046B2
:102BE000FFF782FF05E0204600F07CF8204600F069
:102BF00030F9002020772068006900F0010058B10A
:102C00002068C06800F0010030B16FF00100216859
:102C10000861204600F01EF920680069C0F3C0106A
:102C200058B12068C068C0F3C01030B16FF08000A8
:102C3000216808612046FFF77BFD20680069C0F32A
:102C4000801058B12068C068C0F3801030B16FF0B8
:102C5000400021680861204600F0A4F9206800695E
:102C6000C0F3401058B12068C068C0F3401030B1C4
:102C70006FF02000216808612046FFF75AFD10BD63
:102C800010B586B00446142101A8FDF7EDFB1249EA
:102C9000206888421DD100BF002000900F480068C6
:102CA00040F020000D4908600846006800F0200050
:102CB000009000BF00BF4020019002200290012040
:102CC0000390022004900320059001A90448FEF718
:102CD00003FD06B010BD0000004401403038024042
:102CE0000014024070472DE9F04104460D46164697
:102CF000002700BF94F83C00012802D10220BDE863
:102D0000F081012084F83C0000BF36B1042E1BD0B6
:102D1000082E31D00C2E5ED145E02946206803F004
:102D2000D7FC2068806940F008002168886120682D
:102D3000806920F004002168886120688069296921
:102D400008432168886148E02946206801F006F9B7
:102D50002068806940F4006021688861206880698B
:102D600020F480602168886120688069296940EAD0
:102D700001202168886130E02946206803F0E0FCEA
:102D80002068C06940F008002168C8612068C069F7
:102D900020F004002168C8612068C06929690843DF
:102DA0002168C86119E02946206803F005FD206804
:102DB000C06940F400602168C8612068C06920F4DF
:102DC00080602168C8612068C069296940EA0120E3
:102DD0002168C86101E0012700BF00BF00BF0020DB
:102DE00084F83C0000BF384689E710B504460CB9AA
:102DF000012010BD94F83D0028B9002084F83C0063
:102E0000204600F025F8022084F83D00211D2068AE
:102E100001F02CF8012084F8460000BF84F83E0041
:102E200001213F200155402001554120015500BF9F
:102E300000BF012084F84200432001554420015581
:102E40004520015500BF012084F83D000020D0E757
:102E50007047704710B5044637492068884203D14F
:102E600036494868804766E02068B0F1804F03D15A
:102E70003349486880475EE032492068884203D180
:102E800031494868804756E030492068884203D17C
:102E90002F49486880474EE02E492068884203D178
:102EA0002D494868804746E02C492068884203D174
:102EB0002B49486880473EE02A492068884203D170
:102EC00029494868804736E028492068884203D16C
:102ED0002749486880472EE026492068884203D168
:102EE00025494868804726E024492068884203D164
:102EF0002349486880471EE022492068884203D160
:102F000021494868804716E020492068884203D15B
:102F10001F49486880470EE01E492068884203D157
:102F20001D494868804706E01C492068884202D154
:102F30001B494868804710BD00000140DC000020AC
:102F4000E400002000040040EC00002000080040E5
:102F5000F4000020000C0040FC00002000100040A5
:102F600004010020001400400C0100200004014076
:102F700014010020004001401C01002000440140D9
:102F800024010020004801402C01002000180040CE
:102F900034010020001C00403C01002000200040C3
:102FA000440100207047F8B504460E46174694F8D1
:102FB0003E00202836D106B10FB90120F8BD00BF70
:102FC00094F83C00012801D10220F7E7012084F8A1
:102FD0003C0000BF20633A463146204600F0FCFF2B
:102FE0000546EDB9206B012819D100BF00200090E3
:102FF00020680068009020684068009000BF00BF13
:1030000000BF00BF21680C3151E8001F41F01000E3
:1030100021680C3141E80002002AF3D100E00125CB
:103020002846CBE70220C9E770B504460D463C4967
:10303000206888420FD13B482946D0F8082200F585
:10304000827090473748B0F8042200F5827120461C
:10305000FFF7A9FF62E03449206888420FD1334866
:103060002946D0F8082200F5827090472F48B0F822
:10307000042200F582712046FFF795FF4EE02C49AF
:10308000206888420FD12B482946D0F8082200F545
:10309000827090472748B0F8042200F582712046DC
:1030A000FFF781FF3AE02449206888420FD1234886
:1030B0002946D0F8082200F5827090471F48B0F8E2
:1030C000042200F582712046FFF76DFF26E01C49BF
:1030D000206888420FD11B482946D0F8082200F505
:1030E000827090471748B0F8042200F5827120469C
:1030F000FFF759FF12E01449206888420ED11348A7
:103100002946D0F8082200F5827090470F48B0F8A1
:10311000042200F582712046FFF745FF70BD0000D4
:103120000010014020080020004400402C0A00202C
:1031300000480040380C0020004C0040440E0020A5
:103140000050004050100020001401405C1200208C
:10315000704700002DE9F84F044620680568206894
:10316000C668206847694FF00009CA4605F00F0994
:10317000B9F1000F0AD105F0200038B106F02000A7
:1031800020B1204603F0B0FCBDE8F88FB9F1000F84
:103190007CD007F0010018B906F49070002875D0B3
:1031A00005F0010030B106F4807018B1206C40F0D9
:1031B0000100206405F0040030B107F0010018B1EF
:1031C000206C40F00200206405F0020030B107F0EE
:1031D000010018B1206C40F00400206405F00800E4
:1031E00048B106F0200010B907F0010018B1206CBA
:1031F00040F008002064206C002846D005F0200034
:1032000028B106F0200010B1204603F06DFC2068C4
:103210004069C0F3801A206C00F0080010B9BAF1C0
:10322000000F2DD0204603F01BFD2068406900F000
:103230004000402820D100BF00BF2168143151E870
:10324000001F21F040002168143141E80002002AEB
:10325000F3D100BFA06B50B17548A16B0865A06B9E
:10326000FEF737F888B1A06B016D88470DE0204666
:10327000FFF76EFF09E009E02046FFF769FF04E071
:103280002046FFF765FF002020647DE7206B0128C2
:1032900076D105F01000002872D006F0100000284A
:1032A000FAD000BF002000902068006800902068DD
:1032B0004068009000BF00BF2068406900F04000F7
:1032C00040285ED1A06B006840681FFA80F8B8F112
:1032D000000F54D0A08D404551DDA4F82E80A06B86
:1032E000C069B0F5807F43D000BF00BF21680C31BA
:1032F00051E8001F21F4807021680C3141E8000280
:10330000002AF3D100BF00BF00BF2168143151E88B
:10331000001F21F001002168143141E80002002A59
:10332000F3D100BF00BF00BF2168143151E8001F76
:1033300021F040002168143141E80002002AF3D155
:1033400000BF202084F83E000020206300BF00BFA3
:1033500021680C3151E8001F21F0100021680C3168
:1033600041E80002002AF3D100BFA06BFDF75BFF2C
:10337000A08DE28D801A81B22046FFF755FE03E74B
:1033800040E0A08DE18D401A1FFA80F8E08DC0B3B7
:10339000B8F1000F35D000BF00BF21680C3151E8F3
:1033A000001F21F4907021680C3141E80002002ACE
:1033B000F3D100BF00BF00BF2168143151E8001FE6
:1033C00021F001002168143141E80002002AF3D104
:1033D00000BF202084F83E000020206300BF00BF13
:1033E00021680C3151E8001F21F0100021680C31D8
:1033F00041E80002002AF3D100BF41462046FFF712
:1034000013FEC1E605F0800030B106F0800018B16F
:10341000204603F0E5FBB7E605F0400030B106F0CA
:10342000400018B1204603F0BCFCADE600BFABE69F
:10343000C36D000810B504460CB9012010BDA06989
:1034400000B100E000BF94F83D0028B9002084F8E6
:103450003C00204600F028F8242084F83D00206835
:10346000C06820F400502168C860204603F026FAA6
:103470002068006920F49040216808612068406954
:1034800020F02A00216848612068C06840F400509C
:103490002168C86000202064202084F83D0084F862
:1034A0003E000020CAE7000010B586B00446142193
:1034B00001A8FCF7D9FFC549206888427ED100BF2A
:1034C00000200090C248006840F01000C049086029
:1034D0000846006800F01000009000BF00BF00BF69
:1034E00000200090BA481438006840F00200B84943
:1034F000143908600846006800F00200009000BF20
:1035000000BF00BF002000900846006840F00100A6
:1035100008600846006800F00100009000BF00BF8E
:10352000802001900220029000200390032004904C
:103530000720059001A9A748FEF7CEF84FF40070C8
:1035400001900220029000200390032004900720A5
:10355000059001A9A048FEF7BFF8A048A04908605F
:103560004FF00060486000219D488160C1604FF4C9
:1035700080610161002141618161C1614FF480314D
:10358000016204214162032181620021C162016361
:10359000FDF7D4FF08B1FDF7F6F800BF9048A0632F
:1035A000846300BF8D4830308E4908604FF0006062
:1035B000486040218B488160002100E01BE0C16031
:1035C0004FF480610161002141618161C1614FF46B
:1035D0008031016204214162032181620021C162C4
:1035E0000163FDF7ABFF08B1FDF7CDF800BF7D48E3
:1035F00060638463E8E07C492068884260D100BF52
:10360000002000907248001F006840F4802070493C
:10361000091F08600846006800F48020009000BF81
:1036200000BF00BF0020009069481438006840F0D7
:1036300004006749143908600846006800F0040077
:10364000009000BF00BF4FF4406001900220029044
:1036500000200390032004900720059001A96348EF
:10366000FEF73AF86248634908604FF0006048602E
:10367000002160488160C1604FF4806101610021D8
:1036800041618161C1614FF4803101620421416275
:10369000032181620021C1620163FDF74FFF08B180
:1036A000FDF771F800BF5348A063846300BF002298
:1036B00011462720FEF728FB2720FEF715FB83E0A5
:1036C0004D49206888427FD100BF002000904048CB
:1036D000006840F020003E4908600846006800F09D
:1036E0002000009000BF00BF00BF002000903848BD
:1036F0001438006840F04000354914390860084625
:10370000006800F04000009000BF00BF4FF484400C
:1037100001900220029000200390032004900820D2
:10372000059001A93548FDF7D7FF2C48603834498A
:10373000086080054860002131488160C1604FF415
:1037400080610161002141618161C1614FF40031FB
:10375000016204214162032181620021C16201638F
:10376000FDF7ECFE08B1FDF70EF800BF2448A0639A
:10377000846300BF19481830224908604FF0206068
:10378000486040211F4881600021C1604FF4806182
:103790000161002141618161C1614FF480310162A9
:1037A00000214162FDF7CAFE08B1FCF7ECFF00BF43
:1037B00014486063846300BF002205214720FEF7A0
:1037C000A3FA4720FEF790FA06B010BD00100140A2
:1037D0004438024000040240000002408864024075
:1037E000D0050020300600200048004000080240BC
:1037F000286002409006002000140140001802409A
:10380000F00600205007002070477047704700BF47
:10381000FEE7000010B50F480F490860032048601C
:1038200000210D488160C1604FF4C02101614FF457
:10383000A0014161002101760121417681760021BC
:10384000C17601774177FDF7D8FA08B1FCF79BFF05
:1038500010BD0000006400406801002010B50F4852
:103860000F4908600320486000210D488160C16055
:103870004FF4802101614FF4E001416100210176A4
:103880000121417681760021C17601774177FDF7EC
:10389000B4FA08B1FCF777FF10BD000000680040E3
:1038A0009001002008B500BF002000903248006859
:1038B00040F40010304908600846006800F4001029
:1038C000009000BF00BF00BF0020009008460068C5
:1038D00040F4800008600846006800F48000009012
:1038E00000BF00BF002211460C20FEF70DFA0C208D
:1038F000FEF7FAF9002211460D20FEF705FA0D2019
:10390000FEF7F2F9002211460F20FEF7FDF90F2015
:10391000FEF7EAF9002205213920FEF7F5F93920F2
:10392000FEF7E2F9002205213A20FEF7EDF93A20F0
:10393000FEF7DAF9002211463B20FEF7E5F93B20BD
:10394000FEF7D2F9002211464420FEF7DDF94420AB
:10395000FEF7CAF9002205214520FEF7D5F94520DA
:10396000FEF7C2F9002205214620FEF7CDF94620D8
:10397000FEF7BAF908BD00003038024000B587B044
:10398000142102A8FCF770FD00BF002001906748D9
:10399000006840F00200654908600846006800F0D1
:1039A0000200019000BF00BF00BF00200190084648
:1039B000006840F0400008600846006800F04000E1
:1039C000019000BF00BF00BF0020019008460068C2
:1039D00040F0010008600846006800F00100019016
:1039E00000BF00BF00BF002001900846006840F003
:1039F000080008600846006800F00800019000BF59
:103A000000BF00BF002001900846006840F004009D
:103A100008600846006800F00400019000BF00BF85
:103A200000BF002001900846006840F08000086058
:103A30000846006800F08000019000BF00BF00BF92
:103A4000002001900846006840F020000860084609
:103A5000006800F02000019000BF00BF012240215B
:103A60003348FDF731FF012210213248FDF72CFFCA
:103A7000012211463048FDF727FF40200290012027
:103A8000039004900220059002A92948FDF724FE26
:103A9000092002904FF4881003900120049002A99D
:103AA0002348FDF719FE1020029001200390049096
:103AB0000220059002A91F48FDF70EFE302002905B
:103AC0004FF4881003900120049002A91B48FDF7D1
:103AD00003FE01200290039004900220059002A9A9
:103AE0001548FDF7F9FD002202210620FEF70CF92A
:103AF0000620FEF7F9F8002201210920FEF704F95B
:103B00000920FEF7F1F8002201210A20FEF7FCF857
:103B10000A20FEF7E9F8002201211720FEF7F4F849
:103B20001720FEF7E1F807B000BD00003038024072
:103B30000018024000000240000402400008024059
:103B400010B50B480B4908600B4848600021094834
:103B50008160C1604FF48041016100214161816158
:103B6000C1610162FDF7BCFE08B1FCF70CFE10BD9F
:103B7000005C0040B8010020801A060010B50F4814
:103B80000F4908604FF48270486000210C48816042
:103B9000C160022101610121416149028161382135
:103BA000C16100210162416281620A21C162FEF7A6
:103BB0008BFC08B1FCF7E7FD10BD000000300140B0
:103BC000CC02002000B587B01C216846FCF74CFCF5
:103BD000154816490860002048600021134881609C
:103BE00041F28731C160002101618161FEF7FCFD76
:103BF00008B1FCF7C8FD0D48FFF7F7F808B1FCF76E
:103C0000C2FD6020009000200190029004900022EC
:103C100069460648FFF767F808B1FCF7B4FD0348AA
:103C2000FFF72EF807B000BD00440140BC0400209F
:103C300000B587B000200390049005900690019095
:103C4000029014481449086053204860002112482B
:103C5000816040F2E731C160002101618161FEF7BE
:103C6000C3FD08B1FCF78FFD4FF48050039003A90A
:103C70000948FEF7B3FE08B1FCF785FD002001906E
:103C8000029001A90448FEF755FD08B1FCF77BFD41
:103C900007B000BD00040040E403002000B587B079
:103CA0000020039004900590069001900290144823
:103CB000144908605320486000211248816040F296
:103CC000E731C160002101618161FEF78DFD08B11E
:103CD000FCF759FD4FF48050039003A90948FEF703
:103CE0007DFE08B1FCF74FFD00200190029001A974
:103CF0000448FEF71FFD08B1FCF745FD07B000BD05
:103D0000000800402C04002000B587B0002003907C
:103D100004900590069001900290144814490860A0
:103D20005320486000211248816040F2E731C160B1
:103D3000002101618161FEF757FD08B1FCF723FD09
:103D40004FF48050039003A90948FEF747FE08B1DD
:103D5000FCF719FD00200190029001A90448FEF72C
:103D6000E9FC08B1FCF70FFD07B000BD000C0040F6
:103D70007404002010B50B480B4908604FF4E13083
:103D80004860002108488160C16001610C214161E7
:103D900000218161C161FFF74DFB08B1FCF7F3FC25
:103DA00010BD0000001001400405002010B50C48B3
:103DB0000C4908600C4848604FF480510948816004
:103DC0000021C1604FF48061016104214161002143
:103DD0008161C161FFF72EFB08B1FCF7D4FC10BD77
:103DE0000048004048050020A086010010B50B489F
:103DF0000B4908604FF4E1304860002108488160B9
:103E0000C16001610C21416100218161C161FFF745
:103E100011FB08B1FCF7B7FC10BD00000014014015
:103E20008C05002000BFFEE700BFFEE7704770472B
:103E300010B5FDF7E5FE10BD0348006840F47000C2
:103E4000014908607047000088ED00E010B50248A5
:103E5000FEF74BFE10BD00002C04002010B50248F8
:103E6000FEF743FE10BD00007404002010B5026888
:103E7000294B98420ED0B0F1804F0BD0274B98427F
:103E800008D0274B984205D0264B984202D0264BAB
:103E9000984203D122F070024B681A431E4B98429D
:103EA00020D0B0F1804F1DD01C4B98421AD01C4B33
:103EB000984217D01B4B984214D01B4B984211D0FC
:103EC0001A4B98420ED01A4B98420BD0194B98427D
:103ED00008D0194B984205D0184B984202D0184B85
:103EE000984203D122F44072CB681A4322F0800337
:103EF0004C6943EA040202608B68C3620B68836208
:103F0000054B984202D0084B984201D10B690363DC
:103F10000123436110BD0000000001400004004087
:103F200000080040000C0040000401400040014037
:103F3000004401400048014000180040001C0040BF
:103F40000020004030B50C46816821F47F4142EAF0
:103F5000032525432943816030BD000030B5056A43
:103F600025F010050562026A4368846924F4E04480
:103F700024F440740D6844EA052422F020028D6880
:103F800042EA0512124DA84200D103E0114DA842A9
:103F900007D100BF22F08002CD6842EA051222F06C
:103FA00040020B4DA84202D00A4DA84209D123F489
:103FB000806323F400634D6943EA85038D6943EA16
:103FC0008503436084614D688563026230BD0000F3
:103FD000000001400004014077B581B00446154659
:103FE0000298A062A58500202064222084F83E006B
:103FF0002948A16BC8632948A16B08642848A16BB4
:10400000C8640020A16B086502AE32682368191DE0
:104010002B46A06BFDF708FB00BF00200090206836
:104020000068009020684068009000BF00BF00BF9B
:10403000002084F83C0000BF00BF00BF21680C31A5
:1040400051E8001F41F4807021680C3141E8000202
:10405000002AF3D100BF00BF00BF2168143151E82E
:10406000001F41F001002168143141E80002002ADC
:10407000F3D100BF00BF00BF2168143151E8001F19
:1040800041F040002168143141E80002002AF3D1D8
:1040900000BF002004B070BDF36C0008416C000844
:1040A0006D68000810B50248FFF754F810BD000015
:1040B0004805002010B50248FFF74CF810BD00007D
:1040C0008C05002000BFFEE7F0B587B006460C4621
:1040D00017461D4601940020029003900490059518
:1040E0006B463A4601A93046FCF765FB07B0F0BDC8
:1040F00002462C4B9A4228D10C2925D2DFE801F048
:104100002406080B0E111316191C1E2126481BE04D
:104110002548801C18E02448001D15E02248801D19
:1041200012E0224810E02148801C0DE01F48001DCD
:104130000AE01E48801D07E01D4805E01C48801C61
:1041400002E01B48001D00BF2BE01A4B9A4228D109
:104150000C2925D2DFE801F02406080B0E111316F6
:10416000191C1E2114481BE01348801C18E012483B
:10417000001D15E01048801D12E0104810E00F48A7
:10418000801C0DE00D48001D0AE00C48801D07E072
:104190000B4805E00A48801C02E00948001D00BFEA
:1041A00000BF704768010020280000202000002088
:1041B00030000020900100208000002078000020C6
:1041C00088000020B0EE401A431A02EE103AF8EED2
:1041D000C22A531A02EE103AB8EEC22A82EE823A8E
:1041E000F0EE431A70EEC12AB0EE412A01EEA22A87
:1041F000B0EE420A7047000000B593B0302107A826
:10420000FCF732F9142102A8FCF72EF900BF0020B8
:1042100001902448006840F0805022490860084618
:10422000006800F08050019000BF00BF00BF002078
:1042300001901D48006840F480401B490860084612
:10424000006800F48040019000BF00BF012007908B
:104250000004089002200D9041050E9106210F9157
:10426000A8211091022111910421129107A8FDF7B4
:10427000DDFE08B1FCF787FA0F20029002200390C0
:10428000002004904FF4A05005904FF48050069009
:10429000052102A8FDF78AFD08B1FCF774FA13B0F6
:1042A00000BD0000403802400070004070B5044678
:1042B0000D462146014800F01DFC70BDB01A0020DB
:1042C00010B5044640F203222068811A904222D0A1
:1042D00007DCF1280CD0A0F2012078B1012829D107
:1042E00012E001291DD0032922D0042922D120E087
:1042F00004F11C01104801F0B7FD1BE004F11C01A2
:104300000E4801F000FC15E004F11C010B48F430EC
:1043100001F0F9FB0EE004F11C01094801F0F3FB88
:1043200008E004F11C010648F43001F0ECFB01E068
:1043300000E000BF00BF10BDB4260020541B0020C9
:104340003C1D002010B504462068A0F2022005287C
:1043500023D2DFE800F0030910161C0004F11C0151
:104360000F4801F00BFB18E004F11C010C48F4307D
:1043700001F0C9FB11E004F11C010A4801F0C3FB84
:104380000BE004F11C01084801F012FE05E004F105
:104390001C01064801F00CFE00BF00BF10BD00006C
:1043A0009C23002084250020342000207C21002034
:1043B00010B522480068401C204908600846006883
:1043C000322807D1002008601D4800F0A5FB1D48D9
:1043D00001F06CF91A4864301949D1ED0E0AB3EEB8
:1043E000091A20EE810A00F5806181ED170A00BFED
:1043F0001349D1ED0D0AB3EE091A20EE810A00F53A
:10440000806181ED180A00BF9FED0F0A81ED190A46
:1044100000BF012180F8581400BF01F071FF00F0C7
:104420006FF80A480068401C0849086008460068A0
:10443000052801D10020086010BD000054010020B3
:10444000B01A00208C180020000000005801002045
:1044500010B503460A465C7814701C78547010BD81
:1044600070B504460D462146014801F015F970BDAE
:104470008C180020F0B58BB007460C4615461E463A
:10448000E01006900020079004F0020090B1012097
:104490000890C5F34F300190E80004F0030140EAB2
:1044A00041000290C6F34F300390062000EBC60097
:1044B00004900EE0002008900190680104F00201D1
:1044C00040EA0110029000200390102040EA4610BC
:1044D0000490C4F3800005900E200A9001200990FA
:1044E00001A93846FCF712FA08B1FCF74CF9384636
:1044F000FCF763FE02213846FCF748F90BB0F0BD2B
:1045000000B589B01C480068401C1B49086008467B
:104510000068092801D1002008600823174A40F2EA
:10452000FF111748FFF7D0FD0823164A99011448D8
:10453000FFF7CAFD0823144A40F2FF111348FFF7A2
:10454000C3FD0823124A99011048FFF7BDFD002062
:104550000390104804900420059000200690082045
:10456000079000200090019002AB6A4603A907481B
:10457000FCF721F909B000BDD80000202000002080
:104580006801002028000020780000209001002011
:10459000800000201B00000370B504460D46124940
:1045A0002068884212D11148046085624FF4FF638D
:1045B0004A1500212046FFF75DFF4FF4FF634FF4DB
:1045C00000720C212046FFF755FF0CE008492068D7
:1045D000884208D107480460856200231A46722188
:1045E0002046FFF747FF70BD00640040C807002069
:1045F00000680040F4070020374B02689A4203D15C
:10460000364A1060516066E00268B2F1804F03D113
:10461000334A106051605EE0324B02689A4203D127
:10462000314A1060516056E0304B02689A4203D123
:104630002F4A106051604EE02E4B02689A4203D11F
:104640002D4A1060516046E02C4B02689A4203D11B
:104650002B4A106051603EE02A4B02689A4203D117
:10466000294A1060516036E0284B02689A4203D113
:10467000274A106051602EE0264B02689A4203D10F
:10468000254A1060516026E0244B02689A4203D10B
:10469000234A106051601EE0224B02689A4203D107
:1046A000214A1060516016E0204B02689A4203D103
:1046B0001F4A106051600EE01E4B02689A4203D1FF
:1046C0001D4A1060516006E01C4B02689A4202D1FC
:1046D0001B4A10605160704700000140DC00002060
:1046E000E400002000040040EC000020000800402E
:1046F000F4000020000C0040FC00002000100040EE
:1047000004010020001400400C01002000040140BE
:1047100014010020004001401C0100200044014021
:1047200024010020004801402C0100200018004016
:1047300034010020001C00403C010020002000400B
:104740004401002010B511491148FFF725FF114918
:104750001148FFF721FF12221049114800F030F8EC
:1047600080221049104800F02BF810491048FFF73C
:1047700043FF9FED100A104800F01CFE0C48FEF7A6
:10478000D9F801200D49087010BD0000C142000891
:10479000680100204543000890010020AD42000858
:1047A00048050020614400088C050020B143000842
:1047B00074040020000000008C180020500100202C
:1047C00070B504460D4616463549206888420DD11D
:1047D00034480460C0F80852A0F80462B0F804221B
:1047E00000F582712046FEF7DEFB58E02E49206876
:1047F00088420DD12D480460C0F80852A0F8046228
:10480000B0F8042200F582712046FEF7CCFB46E0AA
:104810002749206888420DD126480460C0F8085214
:10482000A0F80462B0F8042200F582712046FEF779
:10483000BAFB34E02049206888420DD11F4804604B
:10484000C0F80852A0F80462B0F8042200F58271A2
:104850002046FEF7A8FB22E01949206888420DD1C6
:1048600018480460C0F80852A0F80462B0F80422A6
:1048700000F582712046FEF796FB10E01249206891
:1048800088420CD111480460C0F80852A0F80462B4
:10489000B0F8042200F582712046FEF784FB70BD5B
:1048A0000010014020080020004400402C0A002095
:1048B00000480040380C0020004C0040440E00200E
:1048C0000050004050100020001401405C120020F5
:1048D0002DE9F0410446206800F582752888002102
:1048E00040F2FF7700EA07020940104602F0CAFFD3
:1048F00000EE100AD4ED010A30EE600AD4ED020A8F
:1049000080EE201A84ED0B1AB5F80100C0F3CA023C
:104910000021104602F0B6FF00EE100AD4ED010AA5
:1049200030EE600AD4ED020A80EE201A84ED0C1AF3
:10493000D5F80100C0F38A320021104602F0A2FF30
:1049400000EE100AD4ED010A30EE600AD4ED020A3E
:1049500080EE201A84ED0D1AA888C0F34A020021C7
:10496000104602F08FFF00EE100AD4ED010A30EE7F
:10497000600AD4ED020A80EE201A84ED0E1A607CE3
:10498000C0F38110C3B26879C0F38110C2B204F1E0
:104990003C01204600F06EF8607CC0F30110C3B209
:1049A0006879C0F30110C2B204F13D01204600F065
:1049B00061F8B5F9060000EE100AB8EEC00ADFEDA6
:1049C0002C0A80EE201A84ED101AB5F9080000EECA
:1049D000100AB8EEC00ADFED260A80EE201A84ED38
:1049E000111AB5F90A0000EE100AB8EEC00ADFEDA0
:1049F000200A80EE201A84ED121A237E2A7B04F10D
:104A00004C01204600F0D8F8637E6A7B04F14D012A
:104A1000204600F0D1F8002610E0608B80B23041D3
:104A200000F00103E88980B2304100F0010204F196
:104A30004E008119204600F0BFF8761C102EECDBEA
:104A4000288A002140F2FF7700EA07020940104659
:104A500002F018FF00EE100AD4ED010A30EE600AF1
:104A6000D4ED020A80EE201A84ED181ABDE8F08118
:104A70000000004710B5012B04D0022B14D0032BEB
:104A800036D123E0012A04D0022A05D0032A09D115
:104A900005E000240C7005E004240C7002E0012401
:104AA0000C7000BF00BF23E0012A04D0022A05D009
:104AB000032A09D105E002240C7005E006240C70DD
:104AC00002E005240C7000BF00BF11E0012A04D0F1
:104AD000022A05D0032A09D105E002240C7005E062
:104AE00004240C7002E003240C7000BF00BF00BF60
:104AF00000BF10BD70B504460D46206A401C206200
:104B00002046FFF7E5FE206800F58271122204F1CD
:104B10000C00FBF777FC70BDD0E90812914203D17D
:104B2000002180F8281002E0012180F82810016A95
:104B300041627047144B0A689A4202D1134A0260DC
:104B400021E0134B0A689A4202D1124A02601AE02D
:104B5000114B0A689A4202D1104A026013E0104BCE
:104B60000A689A4202D10F4A02600CE00E4B0A68B2
:104B70009A4202D10D4A026005E00D4B0A689A4242
:104B800001D10C4A0260704700100140200800204B
:104B9000004400402C0A002000480040380C00204F
:104BA000004C0040440E00200050004050100020F7
:104BB000001401405C12002010B513B1012B18D174
:104BC0000BE012B1012A06D102E000240C7002E0D1
:104BD00001240C7000BF00BF0BE012B1012A06D106
:104BE00002E002240C7002E003240C7000BF00BF3E
:104BF00000BF00BF10BD80ED040A704710B5044629
:104C000094ED020AB5EEC00AF1EE10FA4FDD94ED14
:104C1000040AD4ED020AB4EEE00AF1EE10FA1EDD49
:104C2000D4ED020A94ED041A70EEC10AB0EE600AE7
:104C300002F024FDD4ED000AB4EEE00AF1EE10FA21
:104C400008DD94ED030AD4ED000A30EE200A84ED6D
:104C5000030AD2E094ED040A84ED030ACDE094ED5A
:104C6000040AD4ED020AB4EEE00AF1EE10FA18D20A
:104C7000D4ED020A94ED041A70EEC10AB0EE600A97
:104C800002F0FCFCD4ED010AB4EEE00AF1EE10FAF9
:104C900008DD94ED030AD4ED010A30EE600A84EDDC
:104CA000030AAAE094ED040A84ED030AA5E094ED5A
:104CB000020AB5EEC00AF1EE10FA4FD294ED040AE2
:104CC000D4ED020AB4EEE00AF1EE10FA1ED2D4EDF1
:104CD000020A94ED041A70EEC10AB0EE600A02F006
:104CE000CDFCD4ED000AB4EEE00AF1EE10FA08DDD6
:104CF00094ED030AD4ED000A30EE600A84ED030A55
:104D00007BE094ED040A84ED030A76E094ED040A56
:104D1000D4ED020AB4EEE00AF1EE10FA6DDDD4ED46
:104D2000020A94ED041A70EEC10AB0EE600A02F0B5
:104D3000A5FCD4ED010AB4EEE00AF1EE10FA08DDAC
:104D400094ED030AD4ED010A30EE200A84ED030A43
:104D500053E094ED040A84ED030A4EE094ED040A56
:104D6000D4ED020AB4EEE00AF1EE10FA1EDDD4ED45
:104D7000020A94ED041A70EEC10AB0EE600A02F065
:104D80007DFCD4ED000AB4EEE00AF1EE10FA08DD85
:104D900094ED030AD4ED000A30EE200A84ED030AF4
:104DA0002BE094ED040A84ED030A26E094ED040A56
:104DB000D4ED020AB4EEE00AF1EE10FA1DD2D4ED01
:104DC000020A94ED041A70EEC10AB0EE600A02F015
:104DD00055FCD4ED000AB4EEE00AF1EE10FA08DD5D
:104DE00094ED030AD4ED000A30EE600A84ED030A64
:104DF00003E094ED040A84ED030A94ED030A84EDC4
:104E0000020A10BD80ED000AC0ED010A704790ED66
:104E1000030A70479FED060A80ED020A9FED040A1F
:104E200080ED030A9FED020A80ED040A704700003E
:104E30000000000010B52DED028B82B00446002169
:104E40009FED885ADFED874A9FED864ADFED853A70
:104E50009FED853ADFED852A9FED842ADFED811AEB
:104E60009FED831ADFED7F0AB3EE0C0A04F1AC006C
:104E700002F022F904F1AC0001F096F800EE100AFD
:104E8000B8EE400AB0EE408A04F1AC0001F08CF8B4
:104E900000EE100AB8EE400AF0EE408A00219FEDC5
:104EA000715ADFED704A9FED6F4ADFED6E3A9FED6C
:104EB0006E3AF0EE482AB0EE682ADFED6A1A9FEDEE
:104EC0006D1ADFED6D0A9FED6D0A04F1FC0002F032
:104ED000F3F804F1AC0001F067F800EE100AB8EE48
:104EE000400AB0EE408A04F1AC0001F05DF800EE3B
:104EF000100AB8EE400AF0EE408A00219FED595AA0
:104F0000DFED584A9FED574ADFED563A9FED563A8E
:104F1000F0EE482AB0EE682ADFED521A9FED511AE2
:104F2000DFED570A9FED570A04F5A67002F0C4F8AA
:104F3000C4F8F0414FF400609FED530A03230522AB
:104F40005249009004F1AC0001F03EF800219FEDC1
:104F5000455ADFED444A9FED434ADFED423A9FED6B
:104F6000423ADFED422A9FED412ADFED3E1A9FEDE6
:104F7000481ADFED3C0A9FED470A04F5FA7002F08B
:104F80009BF804F5FA7001F00FF800EE100AB8EE85
:104F9000400AB0EE408A04F5FA7001F005F800EE20
:104FA000100AB8EE400AF0EE408A00219FED2D5A1B
:104FB000DFED2C4A9FED2B4ADFED2A3A9FED2A3A8E
:104FC000F0EE482AB0EE682ADFED261A9FED321A7D
:104FD000DFED290A9FED310A04F5117002F06CF83B
:104FE00004F5FA7000F0E0FF00EE100AB8EE400A97
:104FF000B0EE408A04F5FA7000F0D6FF00EE100A19
:10500000B8EE400AF0EE408A00219FED165ADFED1F
:10501000154A9FED144ADFED133A9FED133AF0EE77
:10502000482AB0EE682ADFED0F1A9FED0E1ADFED69
:10503000140A9FED1B0A04F5257002F03DF8C4F830
:10504000384340F655509FED100A032306220F49BE
:10505000009004F5FA7000F0B7FF02B0BDEC028BCF
:1050600010BD0000000000006F12833AE4CB9641AF
:105070008FC2F53CCDCCCC3D0050C34700401C4610
:105080000000C84214AE473F920A06429001002039
:105090000AD7233C0000844152499D390000FA455B
:1050A000CDCC4C3F70B504460021A160E160217475
:1050B00004F1AC05284600F0B7FFA0F1AC0400F500
:1050C000A475284600F0B0FF9FED110A80ED520A4A
:1050D000A0F5FA749FED0F0A80ED530A9FED0E0ABA
:1050E00080ED540A9FED0D0A80ED550A9FED0C0AE4
:1050F00080ED560A002084F850039FED0A0A84EDE3
:10510000D50A9FED080A84EDD60A204670BD00003E
:105110000080D4447CD920BF7CD9203F8FC2F5BD0C
:10512000CDCC4C3E0000000010B52DED028B0446A6
:10513000646503221146204601F06AFEB020045146
:105140000022042104F15C0001F062FE00219FEDC9
:10515000595ADFED584A9FED574ADFED563A9FED19
:10516000563ADFED562A9FED552ADFED521A9FED94
:10517000511ADFED500A9FED520A04F1B80001F018
:105180009BFF00BFB4F86E0100EE100AB8EE400AB3
:10519000B0EE408AB4F86E0100EE100AB8EE400A94
:1051A000F0EE408A00219FED435ADFED424A9FED29
:1051B000414ADFED403A9FED403AF0EE482AB0EE2A
:1051C000682ADFED3C1A9FED3B1ADFED3E0A9FEDAA
:1051D0003E0A04F5847001F06FFFDFED3C0A9FED9D
:1051E0003C0A02231A463B4904F1B80000F0D2FB06
:1051F00000BFB4F8620200EE100AB8EE400AB0EE4A
:10520000408A00219FED2B5ADFED2A4A9FED294A63
:10521000DFED283A9FED283AF0EE482A9FED2E2A3E
:10522000DFED241AB6EE001ADFED2C0A9FED2C0AF2
:1052300004F5FE7001F040FFDFED2A0AB7EE000A28
:1052400002230322234904F5D67000F011FD00BFAC
:10525000B4F8560300EE100AB8EE400AB0EE408AE9
:1052600000219FED145ADFED134A9FED124ADFED46
:10527000113A9FED113AF0EE482A9FED172ADFED23
:105280000D1AB6EE001ADFED150A9FED150A04F5AA
:105290003C7001F011FFDFED130AB7EE000A0223A4
:1052A00004220C4904F5287000F0E2FCBDEC028BEE
:1052B00010BD0000000000006F12833ADB0FC940F0
:1052C00000004842005043480080544500401C46BE
:1052D00000001042900100200000FA4400007A44CF
:1052E0000000F0420000804670B50446002184F8BA
:1052F000511084F8AD1004F1B805284601F0FAFE0B
:105300000546503001F0F6FE9FED260A00F15C05DF
:1053100080ED170A4FF40050288142F21070688126
:105320000020E86028612875032085F834009FED8F
:105330001E0A85ED0E0A9FED1C0A85ED0F0A9FEDF2
:105340001A0A85ED100A9FED180A85ED110AA5F5D8
:10535000B27405F1480000F0CBFCA0F5D674F4302F
:1053600000F0C6FCA0F5287442F22830A4F894039B
:1053700040F69800A4F8960340F2B720A4F89803EA
:105380009FED0A0A84EDE70A012084F8A0039FED4F
:10539000080A84EDE90A9FED050A84EDEA0A204631
:1053A00070BD00000000104200000000DB0FC9408B
:1053B00000002F4410B52DED028B0446B0EE408A5C
:1053C00004F5406080ED818AA5221249204600F054
:1053D00079F9114904F50970FFF7ACFB4FF431700E
:1053E0000451F6EE001AB0EE001AF2EE040AB2EE24
:1053F000040A04F5227000F0CBFF04F2FC60FFF712
:1054000019FDC4F80C4B04F65820FFF78DFEBDECD7
:10541000028B10BD8C0500204805002010B5044605
:10542000204600F093F900F509709FED220A80ED07
:10543000010A9FED210A80ED020A0021016241620A
:1054400080F82810A0F50970044600F5227001F0DC
:1054500055F8A0F5227400F27440FFF723FEA0F285
:10546000FC6400F55770FFF73FFFA0F658249FED4E
:10547000130A80EDEC0A9FED120A80EDED0A9FED14
:10548000110A80EDEE0A9FED0F0A80EDEF0AB7EEEC
:10549000000A80EDF00AB7EE000A80EDF10A9FEDF8
:1054A0000A0A80EDF20A9FED080A80EDF30A204611
:1054B00010BD000000008044000025446F12833AB4
:1054C0000AD7233C2FE3CD3AA69B443B70B5044654
:1054D000206800F5827528782179884200D070BD57
:1054E000B5F8050040F20322811A904272D019DC0F
:1054F000B0F5817F4AD00ADC012827D002282CD0C1
:10550000032832D0A0F20110002825D134E0B0F5F4
:10551000827F43D0A0F20510B8B3FC284BD0FD2801
:10552000F3D14FE0052974D008DC012959D00229B4
:105530005FD0032965D00429E7D16DE0062969D041
:10554000072968D0B1F5817FDFD193E01422E91DEE
:1055500004F11100FAF711FF9BE0B5F80700A4F879
:105560002500687A84F8270093E02222E91D04F1DF
:105570002800FAF702FF8CE0D5F80700C4F84A00CB
:10558000B5F80B00A4F84E0083E00CE0D5F8070056
:105590002065B5F80B00A4F854007AE0D5F80700B0
:1055A000C4F8560075E0B5F80700A4F85A00687A08
:1055B00084F85C006DE01D22E91D04F15D00FAF73E
:1055C000DCFE66E01222E91D04F17A00FAF7D5FE4E
:1055D0005FE0FFE71222E91D04F18C00FAF7CDFE2F
:1055E00057E0B5F80710A4F89E10697A84F8A01067
:1055F0004FE0B5F80710A320A4F8A110697A01556F
:1056000047E0B5F80710A4F8A410697A84F8A6104A
:105610003FE00DE015E01FE0D5F80710AF20C4F81B
:10562000A710D5F80B10C4F8AB10E97B015530E09A
:10563000D5F80710C4F8B010D5F80B10C4F8B410A2
:1056400027E004F18000D5F80710C4F8B810B5F8C9
:105650000B10A4F8BC101CE055F8071F04F1BE00A5
:10566000C4F8BE106968C4F8C2102989ED1FA4F8F7
:10567000C6100EE055F8071FD220C4F8C81069689C
:10568000C4F8CC102989A4F8D010A97AED1F0155CF
:1056900000BF00BF00BF22E770B504460D46A068FA
:1056A000401CA0602046FFF711FF70BDD0E9021238
:1056B000914202D10021017401E00121017481684D
:1056C000C160704710B5154C0B68A34202D1144B52
:1056D000036021E0134C0B68A34202D1124B03601C
:1056E0001AE0124C0B68A34202D1114B036013E085
:1056F000104C0B68A34202D10F4B03600CE00F4C1F
:105700000B68A34202D10E4B036005E00D4C0B6801
:10571000A34201D10C4B0360027110BD0010014087
:1057200020080020004400402C0A002000480040CF
:10573000380C0020004C0040440E00200050004077
:1057400050100020001401405C12002000218160F4
:10575000C16001744FF48072A0F8D320521CA0F8ED
:10576000DD20521CA0F8F420521CA0F81A21521C73
:10577000A0F86D214FF48872A0F8DE217047000078
:1057800010B50446204601F0B5FC0446503001F047
:10579000B1FCA0F15004503001F0ACFCA0F1A00429
:1057A000503000F06BFBA0F1F00400F5DE7000F06B
:1057B00065FBA0F52B7400F5DE7000F05FFBA0F533
:1057C0008D6400F5DE7000F059FBA0F2246400F552
:1057D000DE7000F053FBA0F5FC6400F5DE7000F015
:1057E0004DFBA0F69C1400F5DE7000F047FBA0F620
:1057F000583400F5DE7000F041FBA0F6145400F5BB
:10580000DE7000F03BFBA0F56D6441F28C0020449B
:1058100000F034FBA0F580548C3C0021C0F8C81186
:1058200080F8CC119FED0F0A80ED740A9FED0D0AF0
:1058300080ED750A9FED0B0A80ED760A9FED090A4F
:1058400080ED770A9FED070A80ED780A9FED050A43
:1058500080ED790A9FED030A04F5805080EDAD0AD2
:10586000204610BD000000007FB50446D4F8A0001B
:1058700000F1200503A92846FEF7EAFD02A9A81CAD
:10588000FEF7E6FD01A9281DFEF7E2FD6946A81D09
:10589000FEF7DEFDD420005BBDF80C10081A06B23E
:1058A000B4F8B410484200EBD071B6EB610F05DAE2
:1058B000DC200059401CDC2108510BE0B4F8B40096
:1058C00000EBD071B6EB610F04DDDC200059401E07
:1058D000DC210851DC200059B4F8B410BDF80C20CC
:1058E00000FB0121D820015194ED360AF8EEC00AE0
:1058F000B4F8B40000EE100AB8EE400A80EE801A48
:10590000B0EE000A21EE000ADFED190A20EE200AAF
:10591000D4ED2B0A80EE201A84ED311ABDF908006F
:1059200000EE100AB8EEC00ADFED120A20EE200ADF
:10593000D4ED2B0A80EE201A84ED321ABDF9040052
:1059400000EE100AB8EEC00A84ED330ABDF900007B
:1059500000EE100AB8EEC00ADFED070A30EE200AAA
:1059600084ED340ABDF80C10D42001517FBD000035
:10597000DB0F49405077D63D3393884370B50446DA
:105980000D46D4F8B800401CC4F8B8002046FFF714
:105990006BFF70BDF0B504460D4616461F460F4915
:1059A0002868884203D10E48C4F8A00006E00D49DB
:1059B0002868884202D10C48C4F8A00084F8A4608A
:1059C00084F8E07084ED2B0AC4ED2C0A3146284699
:1059D000FEF78EFBC4F8A800F0BD00000064004094
:1059E000C807002000680040F40700207FB5044687
:1059F000D4F8A00000F1200503A92846FEF728FDF1
:105A000002A9A81CFEF724FD01A9281DFEF720FD10
:105A10006946A81DFEF71CFDD420005BBDF80C10E4
:105A2000081A06B2B4F8B410484200EBD071B6EBD5
:105A3000610F05DADC200059401CDC2108510BE025
:105A4000B4F8B40000EBD071B6EB610F04DDDC20DC
:105A50000059401EDC210851DC200059B4F8B41074
:105A6000BDF80C2000FB0121D820015194ED360A2D
:105A7000F8EEC00AB4F8B40000EE100AB8EE400A1E
:105A800080EE801AB0EE000A21EE000ADFED190A5E
:105A900020EE200AD4ED2B0A80EE201A84ED311A74
:105AA000BDF9080000EE100AB8EEC00ADFED120AD8
:105AB00020EE200AD4ED2B0A80EE201A84ED321A53
:105AC000BDF9040000EE100AB8EEC00A84ED330AF6
:105AD000BDF9000000EE100AB8EEC00ADFED070ABB
