:020000040800F2
:10000000304E00206D0200088D540008354D000868
:1000100089540008CB0600081D7500080000000088
:10002000000000000000000000000000A3540008D1
:10003000D907000800000000A1540008A5540008DA
:10004000870200088702000887020008870200086C
:100050008702000887020008DB0700088702000803
:1000600087020008E5070008EF070008870200087C
:1000700049070008590700088702000869070008B7
:10008000870200088702000887020008870200082C
:10009000D1060008E106000887020008F9070008F9
:1000A000870200088702000887020008870200080C
:1000B0008702000887020008C15400088702000870
:1000C00087020008870200088702000887020008EC
:1000D00087020008FD560008870200080D57000837
:1000E00087020008870200088702000887020008CC
:1000F00087020008870200088702000887020008BC
:100100008702000887020008D1540008870200080F
:10011000870200088702000887020008870200089B
:100120008702000879070008890700089907000876
:10013000870200088702000887020008870200087B
:10014000F106000801070008870200089154000822
:10015000A9070008B9070008C90700081D570008CB
:10016000870200088702000887020008870200084B
:1001700087020008870200088702000800000000CC
:10018000870200088702000800F002F800F05EF81D
:100190000AA090E8000C82448344AAF10107DA45E2
:1001A00001D100F053F8AFF2090EBAE80F0013F0D6
:1001B000010F18BFFB1A43F0010318473C0D010063
:1001C0005C0D01000A444FF0000C10F8013B13F0E5
:1001D000070408BF10F8014B1D1108BF10F8015BA0
:1001E000641E05D010F8016B641E01F8016BF9D193
:1001F00013F0080F1EBF10F8014BAD1C0C1B09D1EA
:100200006D1E58BF01F801CBFAD505E014F8016B5B
:1002100001F8016B6D1EF9D59142D6D370470000ED
:100220000023002400250026103A28BF78C1FBD8FF
:10023000520728BF30C148BF0B6070471FB510F090
:100240008EFB00F04BF91FBD10B510BD00F085F915
:100250001146FFF7F3FF0FF0D1F800F0A3F903B454
:10026000FFF7F2FF03BC00F0B3F900000948804734
:1002700009480047FEE7FEE7FEE7FEE7FEE7FEE788
:10028000FEE7FEE7FEE7FEE704480549054A064BA0
:1002900070470000AD540008890100083048002074
:1002A000304E0020304A0020304A002053EA020C31
:1002B00000F069802DE9F04B4FF00006002B1FBFC6
:1002C000B3FA83F503FA05F424FA05F65E4012BF8B
:1002D0001643B2FA82F502FA05F4C5F120051EBFF5
:1002E00022FA05FC44EA0C04203556EA044C4FEA95
:1002F000144418BF641C4FF000084FF000099042EE
:1003000071EB030C39D3002919BFB1FA81F701FA57
:1003100007F6B0FA80F700FA07F6C7F120071EBF0C
:1003200020FA07FC46EA0C062037B6FBF4FCA7EBE4
:100330000507103F07F01F0BCBF120060CFA0BFB53
:100340002CFA06F644BFB3460026202FA4BF5E4613
:100350004FF0000B5BEA060C08BF4FF0010B19EBE6
:100360000B09ABFB027C48EB0608C01B06FB02CC6A
:100370000BFB03CC71EB0C01C1E70B460246414677
:100380004846BDE8F08B13B54FF000004FF0000178
:10039000AFF30080BDE81C407047032A40F2308074
:1003A00010F0030C00F0158011F8013BBCF1020FB6
:1003B000624498BF11F801CB00F8013B38BF11F837
:1003C000013BA2F1040298BF00F801CB38BF00F84E
:1003D000013B11F0030300F02580083AC0F00880CB
:1003E00051F8043B083A51F804CBA0E80810F5E7AF
:1003F000121D5CBF51F8043B40F8043BAFF3008092
:10040000D20724BF11F8013B11F801CB48BF11F806
:10041000012B24BF00F8013B00F801CB48BF00F8D6
:10042000012B704710B5203AC0F00B80B1E818508E
:10043000203AA0E81850B1E81850A0E81850BFF4CE
:10044000F5AF5FEA027C24BFB1E81850A0E818506D
:1004500044BF18C918C0BDE810405FEA827C24BFC1
:1004600051F8043B40F8043B08BF7047D20728BF4F
:1004700031F8023B48BF11F8012B28BF20F8023B9E
:1004800048BF00F8012B70474FF0000200B513463B
:1004900094469646203922BFA0E80C50A0E80C50A4
:1004A000B1F12001BFF4F7AF090728BFA0E80C5055
:1004B00048BF0CC05DF804EB890028BF40F8042B4E
:1004C00008BF704748BF20F8022B11F0804F18BFBB
:1004D00000F8012B704770477047704770B5064CA5
:1004E0007C44064D7D4403E0206820448047241D61
:1004F000AC42F9D170BD0000340A0100540A010079
:1005000010B500F00DF8006810BD10B5044600F0FD
:1005100007F8046010BD000000487047CC47002079
:1005200000487047CC4700201FB584B000200A9CCB
:1005300006AB04AA02A90094AFF3008018B1DDE96C
:10054000020108B010BD0348204000F039F8002037
:100550000146F6E70000207C70477546FFF7DCFF98
:10056000AE4605006946534620F00700854618B0A0
:1005700020B5FFF789FEBDE820404FF000064FF0A0
:1005800000074FF000084FF0000B21F00701AC46C8
:10059000ACE8C009ACE8C009ACE8C009ACE8C009E7
:1005A0008D46704710B50446AFF300802046BDE885
:1005B0001040FFF754BE002801D000F009B8704782
:1005C00010B500F025F8BDE81040FFF7F4BF0000BB
:1005D00001491820ABBEFEE72600020070B50546B3
:1005E0000C460A2000E06D1C00F068F835B1287850
:1005F0000028F8D102E0641C00F060F814B1207803
:100600000028F8D1BDE870400A2000F057B800007B
:1006100010B5022803D0410103D50DA112E000203E
:1006200010BD010101D50FA10CE0C10001D511A140
:1006300008E0810001D512A104E0400001D513A11A
:1006400000E0002115A0FFF7C9FF012010BD000048
:10065000496E76616C6964204F7065726174696F70
:100660006E000000446976696465204279205A650D
:10067000726F00004F766572666C6F770000000045
:10068000556E646572666C6F77000000496E657820
:1006900061637420526573756C740000534947465A
:1006A00050453A2041726974686D657469632065CC
:1006B0007863657074696F6E3A20000008B569460A
:1006C0008DF800000320ABBE08BD00BFFEE70000B0
:1006D00010B5024800F0A8FA10BD00004C0400203C
:1006E00010B5024800F0A0FA10BD00004C04002034
:1006F00010B5024800F098FA10BD00007404002004
:1007000010B5024800F090FA10BD000074040020FB
:100710002DE9F04104460D4600260A48D0F8BC7287
:10072000D7F8140210B10120BDE8F0812A46214615
:10073000044805F055F9034805F0EEF90646304641
:10074000F2E70000C82C002010B5024800F0FCFDC4
:1007500010BD0000BC09002010B5024800F0F4FDF7
:1007600010BD0000F004002010B5024800F0ECFDC0
:1007700010BD00005005002010B5024800F0E4FD57
:1007800010BD00001C0A002010B5024800F0DCFD7E
:1007900010BD00000806002010B5024800F0D4FD8E
:1007A00010BD00006806002010B5024800F0CCFD26
:1007B00010BD0000FC08002010B5024800F0C4FD88
:1007C00010BD00007C0A002010B5024800F0BCFDFE
:1007D00010BD00005C090020704710B5012000F03A
:1007E0003BFF10BD10B5082000F036FF10BD10B55E
:1007F000102000F031FF10BD10B5202000F02CFFBC
:1008000010BD72B600BFFEE710B5024692F8203068
:10081000012B01D0022B06D11068406908431468EF
:100820006061002010BD506A40F4802050620120B9
:10083000F8E7F0B504460D461E4694F8207020688F
:100840008368A86800B900E000BF012F01D0022F23
:100850007CD103F0806030B903F0006018B903F078
:100860008050002873D0C3F30161022905D9606A62
:1008700040F4000060620120F0BD0120884030603B
:10088000A86860B9B5F800C0E86840EA4C5C206828
:1008900000F5C07000EB0110C0F800C00FE0D5E912
:1008A00001C040EACC00D5F80CC040EA0C00D4F8F6
:1008B00000C00CF5C07C0CEB011CCCF80000D5F896
:1008C00010C0206800F5C07000EB0110C0F804C033
:1008D000287D01280ED1206800F5C07000EB0110C2
:1008E000406840F4807C206800F5C07000EB011087
:1008F000C0F804C0D079000692F806C040EA0C4067
:1009000092F805C040EA0C2C10794CEA000C2068E3
:1009100000F5C07000EB0110C0F80CC0D0780006E4
:1009200092F802C040EA0C4092F801C040EA0C2064
:1009300092F800C040EA0C00D4F800C00CF5C07C6E
:100940000CEB011CCCF80800206801E016E00FE079
:1009500000F5C07000EB0110006840F0010C206849
:1009600000F5C07000EB0110C0F800C0002083E764
:10097000606A40F40010606201207DE7606A40F424
:1009800080206062012077E7F0B504460A462168BE
:1009900094F82050012D01D0022D7ED1424901F55D
:1009A0000071086840F001000860086820F47C507D
:1009B00008600868566A40EA06200860107D00F06A
:1009C0001F06012000FA06F3C8699843C861A1F523
:1009D0000071D069C8B9D1F80C029843C1F80C0273
:1009E000908880B2968940EA064601F510705769F2
:1009F00040F83760108880B2168940EA064601F553
:100A00001070576900EBC7004660D069012819D102
:100A1000D1F80C021843C1F80C02908880B21688F5
:100A200040EA064601F51070576940F83760908932
:100A300080B2168940EA064601F51070576900EB4E
:100A4000C7004660906928B9D1F804029843C1F8FC
:100A5000040204E0D1F804021843C1F8040210694A
:100A600028B9D1F814029843C1F8140204E0D1F86F
:100A700014021843C1F81402106A012804D1D1F8F5
:100A80001C021843C1F81C02D1F8000220F001003A
:100A9000C1F800020020F0BDFFE7606A40F480204A
:100AA00060620120F7E7000000640040704770B505
:100AB000044694F82050012D01D0022D7DD151B96A
:100AC0002068C06800F0030080B9606A40F400103C
:100AD0006062012070BD2068006900F0030028B941
:100AE000606A40F4001060620120F3E7206800F5BE
:100AF000D87000EB0110006800F00400906090686E
:100B000040B9206800F5D87000EB01100068400D76
:100B1000106007E0206800F5D87000EB0110006855
:100B2000C0085060206800F5D87000EB0110006824
:100B300000F00200D060206800F5D87000EB0110D2
:100B4000406800F00F001061206800F5D87000EBDD
:100B50000110406800F47F40000A9061206800F5B1
:100B6000D87000EB01104068000C5061206800F55F
:100B7000D87000EB011080681870206800F5D870FC
:100B800000EB0110806800F47F40000A5870206874
:100B900000F5D87000EB0110806800F47F00000CB5
:100BA0009870206800F5D87000EB01108068000E86
:100BB000D870206800F5D87000E02FE000EB01103D
:100BC000C0681871206800F5D87000EB0110C0688B
:100BD00000F47F40000A5871206800F5D87000EBDF
:100BE0000110C06800F47F00000C9871206800F5C7
:100BF000D87000EB0110C068000ED87131B92068C0
:100C0000C06840F020002668F06005E020680069B8
:100C100040F020002668306100205BE7606A40F405
:100C200080206062012055E72DE9F05F0446002531
:100C3000206846692068D0F804902068876820689A
:100C4000D0F80CA02068D0F810B02068D0F8188038
:100C500006F00100002855D007F00100C0B10120C6
:100C60002168886007F0020018B1204600F00BFBF5
:100C70000EE007F0040010B145F4006508E007F04D
:100C8000080010B145F4805502E0204600F0FAFA61
:100C900007F48070C8B14FF480702168886007F451
:100CA000007018B1204600F0F0FA0EE007F4806002
:100CB00010B145F4005508E007F4006010B145F4A8
:100CC000804502E0204600F0DFFA07F48030C8B12A
:100CD0004FF480302168886007F4003018B1204656
:100CE00000F0D5FA0EE007F4802010B145F400457D
:100CF00008E007F4002010B145F4803502E02046FA
:100D000000F0C4FA06F0080038B10AF0100020B173
:100D100045F4007510202168C86006F0040040B159
:100D20000AF0080028B108202168C860204600F0B9
:100D30001DFA06F0020038B12068C06800F0030018
:100D400010B1204600F014FA06F0400038B10BF064
:100D5000100020B145F4806510202168086106F07C
:100D6000200040B10BF0080028B10820216808617C
:100D7000204600F029FA06F0100038B1206800691A
:100D800000F0030010B1204600F020FA06F4003015
:100D900040B109F0100028B11020216848602046B9
:100DA00000F040FA06F4803040B109F0080028B1A4
:100DB000082021684860204600F06AFA06F40040E6
:100DC00088B309F0040078B306F4807020B108F00D
:100DD000010008B145F0010506F4007020B108F0EB
:100DE000020008B145F0020506F4806020B108F069
:100DF000040008B145F0040506F40060A0B108F055
:100E0000700088B108F07000402817D006DC102868
:100E10000BD020280CD0302819D10CE0502810D04D
:100E2000602814D110E01DE019E045F008050FE03E
:100E300045F010050CE045F0200509E045F04005BF
:100E400006E045F0800503E045F4807500E000BF52
:100E500000BF2068806920F070002168886104204C
:100E6000216848602DB1606A284360622046FFF720
:100E70001DFEBDE8F09F70B504460CB9012070BDA1
:100E800094F8200010B9204600F0B0F820680068FF
:100E900040F001002168086000F0F4FC05460DE018
:100EA00000F0F0FC401B0A2808D9606A40F40030CA
:100EB0006062052084F820000120E0E72068406897
:100EC00000F001000028EBD02068006820F002004C
:100ED0002168086000F0D6FC05460DE000F0D2FC69
:100EE000401B0A2808D9606A40F40030606205207F
:100EF00084F820000120C2E72068406800F002006A
:100F00000028EBD1207E012806D12068006840F03F
:100F100080002168086005E02068006820F08000FB
:100F200021680860607E012806D12068006840F0D2
:100F300040002168086005E02068006820F040005B
:100F400021680860A07E012806D12068006840F072
:100F500020002168086005E02068006820F020007B
:100F600021680860E07E012806D12068006820F032
:100F700010002168086005E02068006840F010005B
:100F800021680860207F012806D12068006840F0B1
:100F900008002168086005E02068006820F008006B
:100FA00021680860607F012806D12068006840F051
:100FB00004002168086005E02068006820F0040053
:100FC00021680860D4E90201084321690843616986
:100FD00008436168491E08432168C86100206062B7
:100FE000012084F82000002049E7000010B586B0F9
:100FF0000446142101A8FFF747FA564920688842A1
:1010000049D155480068401C5349086008460068AB
:1010100001280FD100BF002000905048006840F028
:1010200000704E4908600846006800F000700090AB
:1010300000BF00BF00BF0020009048481038006883
:1010400040F008004549103908600846006800F083
:101050000800009000BF00BF032001900220029012
:1010600000200390032004900920059001A93C482A
:1010700000F000FB00221146142001F049F8142072
:1010800001F036F800221146152001F041F8152034
:1010900001F02EF85CE033492068884258D100BF47
:1010A000002000902D48006840F080602B490860C7
:1010B0000846006800F08060009000BF00BF26482E
:1010C0000068401C244908600846006801280FD1C8
:1010D00000BF002000902148006840F000701F49C8
:1010E00008600846006800F00070009000BF00BF74
:1010F00000BF0020009019481038006840F002003E
:101100001649103908600846006800F00200009097
:1011100000BF00BF602001900220029000200390D9
:10112000032004900920059001A90F4800F0A2FABD
:1011300000221146402000F0EBFF402000F0D8FFD5
:1011400000221146412000F0E3FF412000F0D0FFD3
:1011500006B010BD0064004004000020403802408A
:10116000000C02400068004000040240704700008C
:1011700010B504461049206888420CD10F4BA3F1EA
:101180001C0200212046FFF792FC0C482038816A9F
:10119000001D88470FE00A49206888420BD1094B9F
:1011A000A3F11C0200212046FFF781FC05482038EE
:1011B000816A001D884710BD00640040400B00207C
:1011C000006800406C0B00207047000010B504461A
:1011D0001049206888420CD10F4BA3F11C02012159
:1011E0002046FFF764FC0C482038816A001D8847C0
:1011F0000FE00A49206888420BD1094BA3F11C0279
:1012000001212046FFF753FC05482038816A001D64
:10121000884710BD00640040400B0020006800407B
:101220006C0B0020704770B5044694F8200001282C
:1012300022D1022084F820002068006820F00100FC
:101240002168086000F01EFB05460DE000F01AFB67
:10125000401B0A2808D9606A40F40030606205200B
:1012600084F82000012070BD2068406800F0010073
:101270000028EBD16062F6E7606A40F4002060620B
:101280000120F0E77047704770477047704770471C
:1012900070472DE9F0410446876D00F0F3FA0646E9
:1012A00094F835000025022806D08020606584F877
:1012B00034500120BDE8F0812068016821F016015A
:1012C00001602068416921F080014161206C08B90A
:1012D000A06C20B12068016821F00801016020683D
:1012E000016821F0010101600CE000F0CBFA801BE5
:1012F000052807D920206065032084F8350084F88C
:101300003450D7E720680068C007EED194F85C102D
:101310003F208840B860012084F8350084F83450BC
:101320000020C7E790F83510022903D080214165DD
:1013300001207047052180F835100068016821F010
:1013400001010160002070472DE9F84304464FF089
:101350000009CDF8009063484FF41651A56D006860
:10136000B0FBF1F72E6894F85C10082000FA01F148
:1013700031420FD021680A6852070BD50A6822F063
:1013800004020A6094F85C108840A860606D40F028
:101390000100606594F85C104FF0010808FA01F054
:1013A000304208D021684969090604D5A860606DFB
:1013B00040F00200606594F85C10042088403042E0
:1013C00008D021680968890704D5A860606D40F0DD
:1013D0000400606594F85C1010208840304218D0FA
:1013E00021680968090714D5A860206801684903C5
:1013F00004D50068000308D5A16C07E00168C905A1
:1014000003D4016821F008010160216C09B1204674
:10141000884794F85C1020208840304231D0216801
:101420000968C9062DD5A86094F8350005282068FC
:10143000016806D0490347D5006800031DD4616CDC
:101440001CE021F0160101602068416921F0800153
:101450004161206C08B9A06C20B12068016821F0BE
:101460000801016094F85C103F208840A86084F86F
:10147000358084F83490216D1FE0E16B09B120467E
:101480008847606D00282BD0606DC00714D0052000
:1014900084F835002068016821F00101016000989E
:1014A000401C0090B84203D820680068C007F6D1FD
:1014B00084F8358084F83490E16C002910D001B0B4
:1014C0002046BDE8F04308470168C905D5D4016846
:1014D00021F01001016084F8358084F83490CCE765
:1014E000BDE8F883140000202DE9F041044600F027
:1014F000C9F906465CB1022084F83500002584F85D
:1015000034502068016821F0010101600DE00120E4
:10151000BDE8F08100F0B6F9801B052805D9202030
:101520006065032084F83500F2E720680068C00792
:10153000F0D12268116820480140D4E90103184322
:10154000D4E903363343184363691843A369184346
:10155000E3691843236A18430843616A042903D1E5
:10156000D4E90B1319430843106020684069666A88
:1015700020F0070130460E43012704280CD1A06A51
:101580000643E06A40B120460BF022FD20B1402026
:10159000606584F83570BAE72068466120460BF034
:1015A00041FD94F85C203F2191408160656584F89D
:1015B00035700020ACE700003F8010F02DE9F041CD
:1015C0000446866D90F83400002501280DD00120D6
:1015D00084F8340094F835700020012F07D084F887
:1015E000340002252846BDE8F0810220FBE70227EF
:1015F00084F83570606520460BF0D6FC94F85C10DA
:101600003F208840B0602068016841F01601016009
:10161000206C20B12068016841F008010160206859
:10162000016841F001010160DCE7000070B504468B
:1016300000F028F906462546681C10B104480078D9
:10164000054400BF00F01EF9801BA842FAD370BD0C
:10165000100000207047000010B5044604480068E0
:10166000204020B1024804602046FFF7F3FF10BD80
:10167000143C0140F8B502460B460025002400202A
:101680000021D5E0012606FA01F51E6806EA0504E8
:10169000AC4274D11E7906F00306012E04D01E79E7
:1016A00006F00306022E13D190684F000326BE40B9
:1016B000B0434F00DE68BE40304390605068012662
:1016C0008E40B0431E79C6F300168E403043506002
:1016D0001E7906F00306032E09D0D0684F000326BA
:1016E000BE40B0434F009E68BE403043D0601E797C
:1016F00006F00306022E13D1CF0802F1200656F899
:1017000027004E07F70E0F26BE40B0434F07FF0ECF
:101710001E69BE403043CF0802F1200646F827007C
:1017200010684F000326BE40B0431E7906F0030642
:101730004F00BE40304310605E6806F44036002E15
:1017400075D000BF002600963B4E366846F48046B2
:10175000394F3E603E46366806F48046009600BF2C
:1017600000BF364E8F0856F827008E07370F0F261A
:10177000BE40B043324EB24202D1002624E056E0D1
:10178000304EB24201D101261EE02F4EB24201D1AD
:10179000022619E02D4EB24201D1032614E02C4E50
:1017A000B24201D104260FE02A4EB24201D10526F1
:1017B0000AE0294EB24201D1062605E0274EB24288
:1017C00001D1072600E008268F073F0FBE403043B7
:1017D0001A4E8F0846F82700214E3068A0435E68F5
:1017E00006F4803606B120431D4E3060361D306849
:1017F000A0435E6806F4003606B12043184E361D3D
:101800003060361D3068A0435E6806F4801606B16D
:101810002043134E08363060361D3068A0435E68A2
:1018200006F4001606B120430D4E0C363060491CFC
:101830001029FFF427AFF8BD4438024008380140B2
:10184000000002400004024000080240000C024078
:10185000001002400014024000180240001C024028
:10186000003C014010B5426921EA020302EA01048A
:1018700043EA0443836110BD0AB1816101E00B04B6
:10188000836170470148006870470000080000202D
:1018900070B504460CB9012070BD94F83D0028B91C
:1018A000002084F83C00204600F006FB242084F849
:1018B0003D002068006820F0010021680860206871
:1018C000006840F40040216808602068006820F447
:1018D00000402168086001F043FB05465C496068F0
:1018E000884206D85B48854201D2012007E00020EB
:1018F00005E05948854201D2012000E0002001287E
:1019000000D1C9E75548B5FBF0F62068406820F0E3
:101910003F003043216848604D496068884201D8E3
:10192000701C07E04FF4967070434FF47A71B0FB6F
:10193000F1F0401C2168096A21F03F010843216849
:10194000086243496068884214D8681E616849008B
:10195000B0FBF1F0401CC0F30B00042801D20420BE
:101960003DE0681E61684900B0FBF1F0401CC0F327
:101970000B0034E0A06838B9681E616801EB4101D2
:10198000B0FBF1F0401C0AE0681E616801EBC10287
:1019900002EB0111B0FBF1F0401C40F48040C0F3B9
:1019A0000B0008B901201AE0A06848B9681E6168F8
:1019B00001EB4101B0FBF1F0401CC0F30B000CE067
:1019C000681E616801EBC10202EB0111B0FBF1F08E
:1019D000401CC0F30B0040F4804040F400402168FC
:1019E000C9694CF6FF72914308432168C861D4E984
:1019F000070108432168096821F0C00108432168F4
:101A00000860D4E9031008432168896848F2FF326E
:101A10009143084321688860D4E90501084321689F
:101A2000C96821F0FF0108432168C8602068006888
:101A300040F001002168086000202064202084F824
:101A40003D000020206384F83E0000BF24E7000032
:101A5000A086010080841E0000093D0040420F0066
:101A60002DE9FC5F04460F4690469946DDE90CAB34
:101A70000E9EFFF707FF054694F83D00202870D121
:101A800019230122B049204600950BF01EFC10B12D
:101A90000220BDE8FC9F00BF94F83C00012801D162
:101AA0000220F6E7012084F83C0000BF20680068AF
:101AB00000F0010028B92068006840F001002168AA
:101AC00008602068006820F4006021680860222017
:101AD00084F83D00402084F83E0000202064C4F8D3
:101AE00024A0A4F82AB0608D20859848E0624B4677
:101AF000424639462046CDE900650BF0A7FA08B109
:101B00000120C6E7208D88B900BF00200190206821
:101B10004069019020688069019000BF00BF206883
:101B2000006840F400702168086040E0208D0128C2
:101B300018D12068006820F480602168086000BF28
:101B40000020019020684069019020688069019020
:101B500000BF00BF2068006840F400702168086082
:101B600025E0EFE0208D022816D12068006820F4DF
:101B70008060216808602068006840F40060216887
:101B8000086000BF00200190206840690190206833
:101B90008069019000BF0AE000BF0020019020682A
:101BA0004069019020688069019000BF00BFBAE0E1
:101BB000208D03287ED8208D012815D12A46314654
:101BC00020460BF021FC08B1012062E72068006983
:101BD000616A0870606A401C6062208D401E20852A
:101BE000608D401E60859EE0208D02282AD13346FC
:101BF00000225749204600950BF067FB08B10120F1
:101C000047E72068006840F4007021680860206899
:101C10000069616A0870606A401C6062208D401E25
:101C20002085608D401E608520680069616A0870AB
:101C3000606A401C6062208D401E2085608D401EC1
:101C4000608570E0334600224149204600950BF044
:101C50003CFB08B101201CE72068006820F480608C
:101C60002168086020680069616A0870606A401C29
:101C70006062208D401E2085608D401E6085334649
:101C800000223349204600950BF01FFB08B10120CC
:101C9000FFE62068006840F4007021680860206852
:101CA0000069616A0870606A401C6062208D401E95
:101CB000208500E010E0608D401E6085206800698E
:101CC000616A0870606A401C6062208D401E208539
:101CD000608D401E608526E02A46314620460BF086
:101CE00093FB08B10120D4E620680069616A08709E
:101CF000606A401C6062208D401E2085608D401E01
:101D0000608520684069C0F3800060B12068006988
:101D1000616A0870606A401C6062208D401E2085E8
:101D2000608D401E6085208D00287FF441AF20200B
:101D300084F83D00002084F83E0000BF84F83C0099
:101D400000BFA6E60220A4E6020010000000FFFF8C
:101D5000040001002DE9FC5F04460F4690469946B9
:101D6000DDE90CAB0E9EFFF78DFD054694F83D00B6
:101D700020287DD1192301224D49204600950BF0E2
:101D8000A4FA10B10220BDE8FC9F00BF94F83C000B
:101D9000012801D10220F6E7012084F83C0000BFB1
:101DA0002068006800F0010028B92068006840F051
:101DB0000100216808602068006820F40060216844
:101DC0000860212084F83D00402084F83E00002077
:101DD0002064C4F824A0A4F82AB0608D208535487A
:101DE000E0624B46424639462046CDE900650BF09D
:101DF000DDF908B10120C6E731E02A463146204628
:101E00000BF0D4FA50B1206C042805D1206800688A
:101E100040F40070216808600120B4E7606A00782F
:101E200021680861606A401C6062208D401E208528
:101E3000608D401E608520684069C0F3800070B1ED
:101E4000208D60B1606A007821680861606A401C7A
:101E50006062208D401E2085608D401E6085208D33
:101E60000028CAD12A46314620460BF071FA00E01C
:101E70001CE050B1206C042805D12068006840F4B3
:101E800000702168086001207DE72068006840F448
:101E9000007021680860202084F83D00002084F84C
:101EA0003E0000BF84F83C0000BF6CE702206AE7F8
:101EB000020010000000FFFF10B586B00446142198
:101EC00001A8FEF7E1FA4949206888427ED100BFA7
:101ED000002000904648006840F004004449086033
:101EE0000846006800F00400009000BF00BF00BF7B
:101EF000002000900846006840F001000860084695
:101F0000006800F00100009000BF00BF481501907C
:101F100012200290012003900320049004200590D9
:101F200001A93448FFF7A6FB4FF4807001901220FE
:101F3000029001200390032004900420059001A941
:101F40002D48FFF797FB00BF002000902848103075
:101F5000006840F400002649103108600846006817
:101F600000F40000009000BF00BF2448244908602E
:101F70004FF0C0604860002121488160C1604FF48B
:101F800080610161002141618161C1610162416241
:101F9000FFF7AAFA08B1FEF734FC00BF1848A063A7
:101FA000846300BF15483030164908604FF0C060A8
:101FB00048604021134881600021C1604FF4806176
:101FC0000161002141618161C16100E00BE00162BA
:101FD0004162FFF789FA08B1FEF713FC00BF094818
:101FE0006063846300BF06B010BD0000005C004069
:101FF00030380240000802400000024040600240C9
:10200000F0040020500500200348006803490978C7
:1020100008440149086070470800002010000020B3
:1020200010B50D48006840F400700B490860084680
:10203000006840F4806008600846006840F48070E2
:102040000860032000F0A2F80F2000F007F800F06D
:102050002BF8002010BD0000003C024070B5044683
:102060000E4800784FF47A71B1FBF0F00C49096822
:10207000B1FBF0F5284601F01EFD08B1012070BD4E
:10208000102C07D200222146501E00F041F80548CE
:10209000046001E00120F2E70020F0E710000020DA
:1020A000140000200C00002008B500BF00200090A4
:1020B0000E48006840F480400C49086008460068FB
:1020C00000F48040009000BF00BF00BF00200090DF
:1020D000081F006840F08050091F0860084600682B
:1020E00000F08050009000BF00BF08BD443802409F
:1020F00001460846002809DB00F01F0301229A4030
:1021000043099B0003F1E023C3F8002100BF70479F
:102110002DE9F05F80460D46164600270BF038FF8C
:10212000074639462A46334601F00700C0F1070A40
:10213000BAF1040F02D94FF0040A01E0C0F1070A16
:10214000D14600F1040ABAF1070F02D24FF0000A9B
:1021500001E0A0F1030AD4464FF0010A0AFA09FA95
:10216000AAF1010A0AEA020A0AFA0CFA4FF0010B74
:102170000BFA0CFBABF1010B0BEA030B4AEA0B0465
:10218000214640460BF0F0FEBDE8F09F00BF00F096
:102190000702064B19684FF6FF031940044B0B4327
:1021A00043EA0221014B196000BF70470CED00E0CB
:1021B0000000FA057047024610684162002070472F
:1021C000F0B5034615461868446A21B944EA05404B
:1021D0001E68B06219E01868806A04EB104400229F
:1021E00008E0186800F5827050F8220004EB1044F3
:1021F000501CC2B2481E9042F3D844EA0547186802
:1022000000F582704E1E40F826700020F0BD10B51B
:102210000446D4F8040403F049FE10BD70B504462A
:102220000D46C5EBC50304F13C0101EB8301CA680F
:102230002946D4F8040403F081FD70BD70B504464E
:102240000D46C5EBC50304F5FE7101EB8301CA68B9
:102250002946D4F8040403F0E2FD70BD10B504462D
:10226000D4F8040403F025FE10BD70B504460E46F4
:1022700006F0800080280AD106F00F00C0EBC001F4
:1022800004F13C0000EB81050120687009E006F0D4
:102290000F00C0EBC00104F5FE7000EB81050020CB
:1022A000687006F00F00287000BF94F8BC03012886
:1022B00001D1022070BD012084F8BC0300BF294673
:1022C000206804F065FA00BF002084F8BC0300BF5A
:1022D00000BFEFE770B504460E4606F00F006168D8
:1022E000884201D9012070BD06F0800080280AD103
:1022F00006F00F00C0EBC00104F13C0000EB8105CB
:102300000120687009E006F00F00C0EBC00104F581
:10231000FE7000EB8105002068700020A87006F0B8
:102320000F00287000BF94F8BC03012801D10220DF
:10233000D9E7012084F8BC0300BF2946206804F0D7
:102340000DFD00BF002084F8BC0300BF00BFCAE73A
:10235000024601F00F00C0EBC00302F5FE7000EB77
:102360008300806970472DE9F04705460E46904688
:102370001F464FF0000906F0800080280AD106F0C1
:102380000F00C0EBC00105F13C0000EB810401200F
:10239000607009E006F00F00C0EBC00105F5FE70AB
:1023A00000EB81040020607006F00F002070C4F87C
:1023B0000880E770607808B12078E080022F01D1B2
:1023C0000020207100BF95F8BC03012802D1022033
:1023D000BDE8F087012085F8BC0300BF21462868CE
:1023E00004F018F900BF002085F8BC0300BF484680
:1023F000EEE72DE9F04104460E461746984606F0F2
:102400000F00C0EBC00104F5FE7000EB8105EF602A
:10241000C5F814800020A861687006F00F002870CD
:102420002069012800D12F6106F00F0028B9227C15
:102430002946206804F06EFB04E0227C29462068CF
:1024400004F020FD0020BDE8F08170B504460D4683
:1024500005F00F006168884201D9012070BD05F0C8
:10246000800080280AD105F00F00C0EBC00104F104
:102470003C0000EB81060120707007E0C5EBC50150
:1024800004F5FE7000EB8106002070700120B07032
:1024900005F00F00307000BF94F8BC03012801D193
:1024A0000220DBE7012084F8BC0300BF314620682E
:1024B00004F09BFC05F00F0028B9217C04F5717233
:1024C000206804F013FC00BF002084F8BC0300BFA8
:1024D00000BFC3E72DE9F04104460E461746984673
:1024E00006F00F00C0EBC00104F13C0000EB8105D9
:1024F000EF60C5F814800020A8610120687006F024
:102500000F0028702069012800D12F6106F00F000C
:1025100028B9227C2946206804F0FCFA04E0227CD9
:102520002946206804F0AEFC0020BDE8F0812DE9CA
:10253000FE4F044620680290029D206804F091FE40
:1025400000287DD1206804F0CBFE08B9BDE8FE8FDD
:10255000206804F0C5FE00F00200022805D12068C2
:10256000406900F0020021684861206804F0B8FE6C
:1025700000F01000102846D12068806920F010007B
:10258000216888610298D0F8209009F00F00C0EB14
:10259000C00104F5FE7000EB810AC9F34340022834
:1025A0001AD147F6F07009EA000030B3C9F30A12F5
:1025B000DAF80C10029804F098FEC9F30A11DAF860
:1025C0000C000844CAF80C00C9F30A11DAF8180024
:1025D0000844CAF8180010E0C9F3434006280CD19B
:1025E000082204F57171029804F07FFEC9F30A1104
:1025F000DAF818000844CAF818002068806940F02A
:10260000100021688861206804F06AFE00F4002050
:10261000B0F5002F52D10026206804F031FE834629
:1026200049E00BF00100E8B3F1B2206804F04BFE82
:10263000804608F0010058B1012105F5306000E046
:1026400021E200EB46108160314620460BF00CF889
:1026500008F00800082809D1082105F5306000EBD2
:1026600046108160314620460AF0CCFF08F0100089
:10267000102805D1102105F5306000EB461081606F
:1026800008F02000202805D1202105F5306000EB5E
:102690004610816008F40050B0F5005F08D14FF497
:1026A000005100E004E005F5306000EB4610816069
:1026B000761C4FEA5B0BBBF1000FB2D1206804F02F
:1026C0000FFE00F48020B0F5802F7ED1206804F04A
:1026D000CDFD8346002683E00BF0010000287CD06E
:1026E000F1B2206804F0D6FD804608F00100F0B396
:1026F00006F00F0101208840019040F63400415956
:10270000019821EA000040F634014851012105F505
:10271000106000EB461081602069012824D1C6EBCF
:10272000C60104F13C0000EB8100C6EBC602C168A3
:1027300004F13C0000EB820080680144C6EBC60255
:1027400004F13C0000EB8200C1606EB9C6EBC6012B
:1027500004F13C0000EB8100406928B904F5717276
:102760000121206804F0C2FAF1B2204600E001E045
:10277000FFF754FD08F00800082805D1082105F5E9
:10278000106000EB4610816008F01000102805D1A1
:10279000102105F5106000EB4610816008F0400044
:1027A000402805D1402105F5106000EB46108160FE
:1027B00008F00200022805D1022105F5106000EBA7
:1027C0004610816008F0800001E00DE005E08028FF
:1027D00003D1314620460AF0B9FE761C4FEA5B0B66
:1027E000BBF1000F7FF478AF206804F079FD00F0B2
:1027F0000040B0F1004F1CD140F60400405920F0D9
:10280000010140F60400415194F8F403012807D176
:10281000002084F8F40300212046FFF7CBFC02E0FF
:10282000204600F063FA2068406900F0004021680B
:102830004861206804F054FD00F40060B0F5006FBA
:102840000ED140F60800405900F0010010B12046BA
:1028500000F0A4FA2068406900F400602168486133
:10286000206804F03DFD00F48050B0F5805F7DD11C
:1028700040F60400405920F0010140F604004151A7
:102880001021206804F0C0FC00273EE04FF67F31A5
:1028900005F5106000EB4710816005F5106000EB56
:1028A0004710006820F4001105F5106000EB471098
:1028B000016005F5106000EB4710006840F0006112
:1028C00005F5106000EB471001604FF67F3105F50C
:1028D000306000EB4710816005F5306000EB471079
:1028E000006820F4001105F5306000EB471001602E
:1028F00005F5306000EB4710006840F0006105F519
:10290000306000EB471001607F1C6068B842BDD8A2
:1029100040F61C00405940F0011140F61C004151A6
:10292000206B70B1D5F8840840F00B01C5F884180D
:1029300040F64400405940F00B0140F6440041513C
:102940000FE040F61400405942F22B01084340F6D4
:1029500014014851081F405940F00B014FF4016029
:102960004151D5F8000820F4FE6000E00DE0C5F804
:102970000008217C04F57172206804F0B7F9206822
:10298000406900F4805021684861206804F0A8FC88
:1029900000F40050B0F5005F17D1206803F0A2FEEC
:1029A000206804F04BFCE06000F0D4FA0090227B39
:1029B0002068009904F01CFD204600F07FF9206893
:1029C000406900F4005021684861206804F088FCE8
:1029D00000F00800082808D1204600F08EF9206891
:1029E000406900F0080021684861206804F078FC24
:1029F00000F48010B0F5801F0AD100263146204631
:102A000000F043F82068406900F4801021684861B4
:102A1000206804F065FC00F40010B0F5001F0AD136
:102A200000263146204600F039F82068406900F45D
:102A3000001021684861206804F052FC00F08040DA
:102A4000B0F1804F08D12046FFF7E1FB20684069D4
:102A500000F0804021684861206804F041FC00F0EB
:102A6000040004280FD12068D0F8049009F0040075
:102A7000042802D12046FFF7F1FB2068406840EAB5
:102A800009002168486000BF60E570B504460D4646
:102A90002946D4F8040403F075FA70BD70B50446F5
:102AA0000D462946D4F8040403F084FA70BD70B5CD
:102AB0008AB0044614B901200AB070BD266894F8A3
:102AC000BD0328B9002084F8BC03204600F0A2F81A
:102AD000032084F8BD03F06B00F4807008B9002176
:102AE0002161206804F00EF8282204F110016846E4
:102AF000FDF798FC94E80F0003F008FE20B10220D7
:102B000084F8BD030120D7E70021206804F01DFCF4
:102B1000002531E00121C5EBC50204F13C0000EBCA
:102B200082004170C5EBC50104F13C0000F8215062
:102B3000C5EBC50100EB8100C5800021C5EBC502D6
:102B400004F13C0000EB8200C170C5EBC50204F14A
:102B50003C0000EB82008160C5EBC50204F13C0043
:102B600000EB8200C160C5EBC50204F13C0000EB44
:102B700082004161681CC5B26068A842CAD80025BD
:102B80002AE00021C5EBC50204F5FE7000EB8200CF
:102B90004170C5EBC50104F5FE7000F8215000211D
:102BA000C5EBC50200EB8200C170C5EBC50204F5A0
:102BB000FE7000EB82008160C5EBC50204F5FE707B
:102BC00000EB8200C160C5EBC50204F5FE7000EBAE
:102BD00082004161681CC5B26068A842D1D8282231
:102BE00004F110016846FDF71DFC94E80F0003F0A6
:102BF00099FE20B1022084F8BD0301205CE700208B
:102C000084F83800012084F8BD03206803F078FEC2
:102C1000002051E710B586B00446142101A8FDF745
:102C200033FC2068B0F1A04F42D100BF00200090DB
:102C30002048006840F001001E490860084600680E
:102C400000F00100009000BF00BF4FF4C0500190A1
:102C50000220029000200390032004900A20059097
:102C600001A91548FEF706FD00BF1248001D0068C7
:102C700040F080000F49091D086000BF002000904F
:102C80000C481430006840F480400A491431086050
:102C90000846006800F48040009000BF00BF00BFFD
:102CA000002211464320FFF733FA4320FFF720FAB2
:102CB00006B010BD303802400000024070B5044636
:102CC0000125E06808B9002506E0E068022801D186
:102CD000012501E0FDF795FD2946D4F8040403F031
:102CE00008FAD4F8040403F0ADF970BD10B5044639
:102CF000D4F8040403F0DCF910BD10B50446D4F890
:102D0000040403F0E0F910BD70B504460D4600BFA1
:102D100094F8BC03012801D1022070BD012084F881
:102D2000BC0300BF84F838502946206804F041FBFA
:102D300000BF002084F8BC0300BF00BFEDE710B562
:102D4000044604F57171D4F8040403F0E9F910BDE8
:102D500070B50446256800BF94F8BC03012801D172
:102D6000022070BD012084F8BC0300BFA06A0128C6
:102D700006D1A069012803D0A86B40F48030A86375
:102D8000206804F021FA206803F0A8FD00BF0020AD
:102D900084F8BC0300BF00BFE3E7000010B50446A1
:102DA000D4F8040403F019FA2068D0F8000E40F0BB
:102DB00001002168C1F8000E206A28B103480068AC
:102DC00040F006000149086010BD000010ED00E071
:102DD00070B504460D460CB9012070BD5848006816
:102DE00000F00700A84209D255490D700846006856
:102DF00000F00700A84201D00120EEE7207800F0A3
:102E0000020002281DD1207800F00400042805D11A
:102E10004C48006840F4E0504A490860207800F0CF
:102E20000800082805D14748006840F4604045493B
:102E300008604448006820F0F000A1680843414958
:102E40000860207800F00100A8B36068012807D16D
:102E50003C4808380068C0F34040B8B90120BCE7DE
:102E60006068022802D06068032807D13548083816
:102E70000068C0F3406048B90120AEE73148083827
:102E80000068C0F3400008B90120A6E72D4800689B
:102E900020F00300616808432A490860FEF7F2FC4D
:102EA000064609E0FEF7EEFC801B41F288318842BD
:102EB00002D9032091E707E02248006800F00C00E7
:102EC0006168B0EB810FEDD11D48006800F007008C
:102ED000A84209D91A490D700846006800F0070099
:102EE000A84201D0012078E7207800F004000428EF
:102EF00007D11448006820F4E050E1680843114904
:102F00000860207800F00800082808D10D48006803
:102F100020F46040216940EAC1000A49086000F0DD
:102F20003FF808490968C1F30311074A515CC840DA
:102F30000649086006480068FFF790F800204CE753
:102F4000003C024008380240F40B01081400002045
:102F50000C000020014800687047000014000020A9
:102F600000B5FFF7F7FF04490968C1F38221034A5E
:102F7000515CC84000BD000008380240040C010844
:102F800000B5FFF7E7FF04490968C1F34231034A7E
:102F9000515CC84000BD000008380240040C010824
:102FA0002DE9F047002400250026A14625480068A9
:102FB00000F00C0020B1042805D008283AD105E023
:102FC000DFF8849039E0DFF8849036E01D48001F78
:102FD000006800F03F041B48001F006800F48000F8
:102FE00078B11A481749091F0968C1F38811A0FB75
:102FF00001700146224600233846FDF757F9054681
:103000000EE011480F49091F0968C1F38811A0FBA0
:1030100001700146224600233846FDF747F9054670
:103020000848001F0068C0F30140401C4600B5FB83
:10303000F6F902E0DFF8109000BF00BF4846BDE897
:10304000F0870000083802400024F400001BB7009D
:10305000F8B504460CB90120F8BD207800F0010055
:10306000002874D0F948006800F00C0004280DD046
:10307000F648006800F00C00082813D1F348001F40
:10308000006800F48000B0F5800F0BD1EF480838DD
:103090000068C0F34040002859D06068002856D12D
:1030A0000120D9E700BF6068B0F5803F08D1E7484C
:1030B0000838006840F48030E449083908601EE0B0
:1030C0006068B0F5A02F0DD1E0480838006840F4E2
:1030D0008020DE49083908600846006840F48030E6
:1030E00008600CE0D9480838006820F48030D749DF
:1030F000083908600846006820F48020086000BF96
:10310000606890B1FEF7BEFB054606E0FEF7BAFB2D
:10311000401B642801D903209EE7CC48083800688A
:10312000C0F340400028F1D011E0FEF7ABFB0546AC
:1031300006E0FEF7A7FB401B642801D903208BE7BC
:10314000C24808380068C0F340400028F1D1207818
:1031500000F0020002285FD1BC48006800F00C00BB
:1031600058B1BA48006800F00C0008281CD1B748D4
:10317000001F006800F48000B0B9B4480838006847
:10318000C0F3400020B1E068012801D0012063E7CE
:10319000AE480838006820F0F800216940EAC10014
:1031A000AA490839086037E0E06800B30120A8495F
:1031B0000860FEF767FB054606E0FEF763FB401B71
:1031C000022801D9032047E7A04808380068C0F367
:1031D00040000028F1D09D480838006820F0F80031
:1031E000216940EAC10099490839086014E00020CB
:1031F00097490860FEF746FB054606E0FEF742FBEE
:10320000401B022801D9032026E7904808380068AF
:10321000C0F340000028F1D1207800F00800082811
:103220002CD16069A8B101208A490860FEF72AFB09
:10323000054606E0FEF726FB401B022801D90320C5
:103240000AE782486C300068C0F340000028F1D0E3
:1032500014E000207F490860FEF714FB054606E0F5
:10326000FEF710FB401B022801D90320F4E6774843
:103270006C300068C0F340000028F1D1207800F0E5
:103280000400042870D1002770483830006800F02E
:10329000805090B900BF002000906C483830006822
:1032A00040F080506949383108600846006800F0F5
:1032B0008050009000BF00BF01276748006800F4FD
:1032C0008070B0B96448006840F48070624908605A
:1032D000FEF7D8FA054606E0FEF7D4FA401B0228AE
:1032E00001D90320B8E65C48006800F4807000282B
:1032F000F2D000BFA068012808D1544868300068A7
:1033000040F001005149683108601DE0A0680528BF
:103310000DD14E486830006840F004004B496831D8
:1033200008600846006840F0010008600CE047486B
:103330006830006820F001004449683108600846A0
:10334000006820F00400086000BFA068A8B1FEF784
:1033500099FA054609E0FEF795FA401B41F28831DB
:10336000884202D9032077E626E0384868300068B2
:10337000C0F340000028EED013E0FEF783FA0546C4
:1033800008E0FEF77FFA401B41F28831884201D9FC
:10339000032061E62D4868300068C0F34000002833
:1033A000EFD1012F07D129483830006820F0805034
:1033B00026493831086000BFA069002845D023485D
:1033C000006800F00C0008285DD0A069022845D1F3
:1033D00000201F490866FEF755FA054606E0FEF78D
:1033E00051FA401B022801D9032035E61748083856
:1033F0000068C0F340600028F1D1D4E90701084318
:10340000616A40EA81110122A06AC2EB500041EAE0
:1034100000412C20005D41EA00600C49091F086052
:1034200001200B490866FEF72DFA054606E0FEF777
:1034300029FA401B022801D903200DE60348083869
:103440000068C0F340600028F1D049E0083802402D
:1034500000004742800E4742007000400020214992
:103460000866FEF70FFA054606E0FEF70BFA401B6A
:10347000022801D90320EFE51B480068C0F3406033
:103480000028F2D12CE0A069012800D1E4E516481B
:10349000001D0668A069012820D006F48001E069BB
:1034A00081421BD106F03F01206A814216D147F6C6
:1034B000C0703040616AB0EB811F0FD106F440311B
:1034C0000122A06AC2EB5000B1EB004F06D106F01A
:1034D00070612C20005DB1EB006F01D00120BBE5D5
:1034E0000020B9E50000474200380240704770B53F
:1034F000040009D0606A002540B125616561A562BC
:1035000094F8510040B10CE0012070BD6068B0F546
:10351000827FF4D0E561F2E784F85050204600F055
:1035200045F8022084F851002068016821F040012C
:103530000160A088218900F4827001F404410843ED
:10354000A18901F400610843217C01F002010843D4
:10355000217D01F001010843218B01F40071084332
:10356000217F01F03801084394F8201001F0800118
:103570000843218D01F40051084321680860A069C7
:10358000042101EA104094F8241001F010010843CE
:10359000216848602068C16921F40061C1616565E6
:1035A000012084F85100002070BD000010B586B0E5
:1035B0000446142101A8FCF767FF5049206888429F
:1035C0007ED100BF002000904D48006840F480503C
:1035D0004B4908600846006800F48050009000BF26
:1035E00000BF00BF0020009045481438006840F03C
:1035F00002004349143908600846006800F00200E0
:10360000009000BF00BF00BF002000900846006887
:1036100040F0010008600846006800F001000090DA
:1036200000BF00BF182001900220029001200390EB
:10363000032004900520059001A93248FEF71AF8EE
:10364000802001900220029001200390032004902A
:103650000520059001A92C48FEF70CF82B482C49B1
:1036600008604FF0C0604860002129488160C16057
:103670004FF480610161002141618161C1614FF4BA
:103680004031016204214162032181620021C16253
:103690000163FDF729FF08B1FDF7B3F800BF1C482F
:1036A000E064846300BF194818301A4908604FF07D
:1036B000C06048604021174881600021C16000E07F
:1036C0001AE04FF480610161002141618161C161B3
:1036D0004FF4003101620421416203218162002123
:1036E000C1620163FDF700FF08B1FDF78AF800BF72
:1036F0000848A064846300BF06B010BD00300140DC
:10370000443802400004024000000240406402408D
:103710000806002068060020704770472DE9F84F22
:10372000044690F8500000270A9E1D4692468B469C
:103730004FF0010901280ED0012084F85000FEF757
:10374000A1F8804694F85100616801280CD0B1F5C9
:10375000827F07D102E00220BDE8F88FA16809B995
:10376000042801D00227C2E0BBF1000F27D0BAF134
:10377000000F24D01DB394F85100042802D0052076
:1037800084F8510000206065C4F838A0E587A5875B
:10379000C4F830B0E586A5862064606420680168BE
:1037A000490603D4016841F040010160E068B0F5CA
:1037B000006F606805D0E8B3012D46D07FE0012797
:1037C00095E008B1012D39D1206B21680088C860CF
:1037D000206B801C2063E08E401EE0862EE0206877
:1037E000816889070FD5E18E69B1B9F1010F0AD15E
:1037F000216B0988C160206B801C2063E08E401E15
:10380000E0864FF0000920688168C9070CD0E18F7D
:1038100051B1C068A16B0880A06B801CA063E08FD1
:10382000401EE0874FF00109FEF72CF8A0EB0800DE
:10383000B04200E009E001D3701C50D1E08E0028B6
:10384000CDD1E08F0028CAD13FE0206B21680078FD
:103850000873206B401C2063E08E401EE0862EE043
:103860002068816889070FD5E18E69B1B9F1010F30
:103870000AD1216B09780173206B401C2063E08E14
:10388000401EE0864FF0000920688168C9070CD00F
:10389000E18F51B1C068A16B0870A06B401CA063A0
:1038A000E08F401EE0874FF00109FDF7EBFFA0EB32
:1038B0000800B04202D3701C01D010E07EB1E08E4F
:1038C0000028CDD1E08F0028CAD14246314620469B
:1038D0000AF002F828B101272020606507E00327DD
:1038E00005E0A06818B92068C168806800900120D0
:1038F00084F85100002084F8500038462CE700007E
:103900002DE9F041044690F85000002601280DD022
:10391000012784F8507094F851000025D4F804C0B1
:1039200001280FD0BCF5827F0AD102E00220BDE859
:10393000F081D4F808C0BCF1000F01D1042801D0F7
:10394000022660E049B342B33BB394F85100042827
:1039500002D0052084F8510065652163A386E386C3
:10396000A263A387E3872564656494F85100042863
:1039700015D0E16C264808642648E16CC863E16C08
:103980002548C864E06C0565E38F2168A26B0C31A3
:10399000E06CFDF713FEE0B906E0012633E0E16CD0
:1039A0001E4808641E48E8E72068416841F00101AC
:1039B0004160A06C0564A06CC563A06CC564A06C7C
:1039C0000565E38E2268216B0C32A06CFDF7F6FDD5
:1039D00038B1606D40F010006065012684F85170C8
:1039E00011E020680168490603D4016841F04001F4
:1039F00001602068416841F0200141602068416811
:103A000041F00201416084F8505030468FE70000D9
:103A100045DA000831D90008E5D70008CDD80008FC
:103A200007D8000810B504461C49206888420ED10A
:103A30001B4A11895068FDF715FF1948B0F80A2193
:103A400000F18A01D0F810310A30984724E0154976
:103A5000206888420ED1144A11895068FDF702FF90
:103A60001148B0F80A2100F18A01D0F810310A306B
:103A7000984711E00D49206888420DD10C4A118900
:103A80005068FDF7EFFE0A48B0F80A2100F18A01FC
:103A9000D0F810310A30984710BD000000300140C6
:103AA000B40B002000380040C80C0020003C00404F
:103AB000DC0D0020704770B504462546681EB0F145
:103AC000807F01D301200FE0681E4FF0E0214861A4
:103AD0000F214FF0FF300AF047FA00204FF0E021AD
:103AE000886107200861002070BD7047704710B5DD
:103AF0000346002200BF93F83C00012801D10220B8
:103B000010BD012083F83C0000BF22F0FF00CC680C
:103B100040EA040222F440708C6840EA040222F475
:103B200080604C6840EA040222F400600C6840EABD
:103B3000040222F480500C6940EA040222F400508E
:103B40004C6940EA040222F48040CC6940EA040255
:103B50001868426400BF002083F83C0000BF00BF2B
:103B6000CEE7000030B502460B4600BF92F83C009D
:103B7000012801D1022030BD012082F83C0000BFA5
:103B8000022082F83D00106844681068816824F0C3
:103B900070041868044310684460184D1068A84207
:103BA0001BD01068B0F1804F17D0154D1068A84297
:103BB00013D0144D1068A8420FD0134D1068A842BE
:103BC0000BD0124D1068A84207D0114D1068A842C2
:103BD00003D0104D1068A84205D121F0800158682B
:103BE000014310688160012082F83D0000BF002081
:103BF00082F83C0000BF00BFBDE7000000000140AC
:103C00000004004000080040000C00400004014097
:103C1000004001400018004010B504460CB90120D6
:103C200010BD94F83D0028B9002084F83C002046DF
:103C300000F026F8022084F83D00211D206801F0E4
:103C40004FFC012084F8460000BF84F83E000121AB
:103C50003F200155402001554120015500BF00BFC4
:103C6000012084F84200432001554420015545209D
:103C7000015500BF012084F83D000020D0E700007E
:103C800038B504463E49206888420FD100BF002065
:103C900000903C48006840F001003A49086008463E
:103CA000006800F00100009000BF67E0364920681E
:103CB000884211D100BF002000903248001F0068E8
:103CC00040F002002F49091F08600846006800F014
:103CD0000200009000BF51E02C49206888421AD1B0
:103CE00000BF002000902748001F006840F004003B
:103CF0002449091F08600846006800F0040000908D
:103D000000BF00BF002201211E20FEF701FA1E2085
:103D1000FEF7EEF932E01E49206888421AD100BF52
:103D2000002000901748001F006840F00800154967
:103D3000091F08600846006800F00800009000BFF6
:103D400000BF002201213220FEF7E2F93220FEF707
:103D5000CFF913E00F49206888420FD100BF00203F
:103D600000900848006840F40030064908600846A2
:103D7000006800F40030009000BF00BF38BD0000B4
:103D800000000140443802400004004000080040A8
:103D9000000C004000440140014691F83D0001281C
:103DA00001D001207047022081F83D000868C068FA
:103DB00040F001000B68D8601A4B086898421BD08D
:103DC0000868B0F1804F17D0174B0868984213D09D
:103DD000164B086898420FD0154B086898420BD0D4
:103DE000144B0868984207D0134B0868984203D0D8
:103DF000124B086898420CD10868806800F00702EE
:103E0000062A0CD00868006840F001000B681860B2
:103E100005E00868006840F001000B6818600020A9
:103E2000C0E700000000014000040040000800401E
:103E3000000C004000040140004001400018004018
:103E40002DE9F04104460D46002700BF94F83C00E0
:103E5000012802D10220BDE8F081012084F83C0055
:103E600000BF022084F83D002068866826F07706AF
:103E700026F47F46206886602868502833D00CDC02
:103E8000202850D004DC00284BD0102851D149E024
:103E9000302849D040284CD139E060282DD07028F6
:103EA00007D0B0F5805F03D0B0F5005F41D10DE0E1
:103EB00041E0D5E902136A68206801F08EFB2068B2
:103EC000866846F077062068866034E0D5E90213FC
:103ED0006A68206801F081FB2068806840F48040B7
:103EE0002168886027E0EA686968206809F057FE61
:103EF0005021206809F04AFE1DE0EA6869682068E0
:103F000009F060FE6021206809F040FE13E0EA68D5
:103F10006968206809F043FE4021206809F036FEF8
:103F200009E000BF00BF00BF2968206809F02EFE2D
:103F300001E0012700BF00BF012084F83D0000BF61
:103F4000002084F83C0000BF384684E7704710B575
:103F5000044620680069C0F34000D8B12068C068FA
:103F6000C0F34000B0B16FF0020021680861012089
:103F700020772068806900F0030018B12046FFF721
:103F8000E5FF05E0204600F005F9204600F0B9F90C
:103F90000020207720680069C0F38000D8B1206835
:103FA000C068C0F38000B0B16FF004002168086100
:103FB000022020772068806900F4407018B1204604
:103FC000FFF7C4FF05E0204600F0E4F8204600F0CB
:103FD00098F90020207720680069C0F3C000D8B1AC
:103FE0002068C068C0F3C000B0B16FF0080021685D
:103FF0000861042020772068C06900F0030018B130
:104000002046FFF7A3FF05E0204600F0C3F8204656
:1040100000F077F90020207720680069C0F30010D5
:10402000D8B12068C068C0F30010B0B16FF01000C4
:1040300021680861082020772068C06900F440707A
:1040400018B12046FFF782FF05E0204600F0A2F8F5
:10405000204600F056F9002020772068006900F023
:10406000010058B12068C06800F0010030B16FF065
:10407000010021680861204600F0CAF92068006943
:10408000C0F3C01058B12068C068C0F3C01030B190
:104090006FF08000216808612046FFF726FD206848
:1040A0000069C0F3801058B12068C068C0F3801068
:1040B00030B16FF0400021680861204600F01AFA24
:1040C00020680069C0F3401058B12068C068C0F390
:1040D000401030B16FF02000216808612046FFF7E2
:1040E00005FD10BD10B586B00446142101A8FCF7EB
:1040F000CBF92349206888421ED100BF00200090E0
:104100002048006840F010001E490860084600681A
:1041100000F01000009000BF00BF4FF4005001906D
:10412000022002900020039004900120059001A934
:104130001548FDF79FFA21E01449206888421DD1F7
:1041400000BF002000900F48006840F020000D499B
:1041500008600846006800F02000009000BF00BF23
:104160004020019002200290012003900220049040
:104170000320059001A90648FDF77CFA06B010BDA2
:10418000000001403038024000100240004401406D
:104190000014024070472DE9F04104460D461646D2
:1041A000002700BF94F83C00012802D10220BDE89E
:1041B000F081012084F83C0000BF36B1042E1BD0F2
:1041C000082E31D00C2E5ED145E02946206809F03A
:1041D0003FFC2068806940F0080021688861206801
:1041E000806920F00400216888612068806929695D
:1041F00008432168886148E02946206801F0F8F901
:104200002068806940F400602168886120688069C6
:1042100020F480602168886120688069296940EA0B
:1042200001202168886130E02946206809F048FCB7
:104230002068C06940F008002168C8612068C06932
:1042400020F004002168C8612068C069296908431A
:104250002168C86119E02946206809F06DFC2068D2
:10426000C06940F400602168C8612068C06920F41A
:1042700080602168C8612068C069296940EA01201E
:104280002168C86101E0012700BF00BF00BF002016
:1042900084F83C0000BF384689E710B504460CB9E5
:1042A000012010BD94F83D0028B9002084F83C009E
:1042B000204600F025F8022084F83D00211D2068EA
:1042C00001F00EF9012084F8460000BF84F83E009A
:1042D00001213F200155402001554120015500BFDB
:1042E00000BF012084F842004320015544200155BD
:1042F0004520015500BF012084F83D000020D0E793
:104300007047704770B504460D4615B994F83E00E5
:104310000BE0042D02D13F20005D06E0082D02D104
:104320004020005D01E04120005D012801D0012016
:1043300070BD1DB9022084F83E000EE0042D03D1AB
:1043400002213F20015508E0082D03D10221402021
:10435000015502E002214120015501222946206831
:1043600001F02AF923492068884203D022492068B5
:10437000884201D1012000E0002028B12068406C73
:1043800040F40040216848641A49206888421BD0E4
:104390002068B0F1804F17D018492068884213D0A8
:1043A0001749206888420FD01649206888420BD0F0
:1043B00011492068884207D013492068884203D0F9
:1043C0001249206888420CD12068806800F00706F6
:1043D000062E0CD02068006840F0010021680860BB
:1043E00005E02068006840F00100216808600020B6
:1043F0009EE700000000014000040140000400406E
:1044000000080040000C004000400140001800403F
:1044100000682A49884201D129484CE0B0F1804F18
:1044200005D02849884205D12548103043E024486A
:10443000083040E02449884202D1214818303AE04F
:104440002249884202D11E48203034E02049884267
:1044500002D11B4828302EE01E49884202D118485C
:10446000303028E01C49884202D11548383022E01B
:104470001A49884202D1124840301CE0184988424B
:1044800002D10F48483016E01649884202D10C4844
:10449000503010E01449884202D1094858300AE0EF
:1044A0001249884202D10648603004E0104988422F
:1044B00003D103486830406800477047000001405E
:1044C000180200200004004000080040000C0040DA
:1044D0000010004000140040000401400040014072
:1044E000004401400048014000180040001C00400A
:1044F00000200040704738B5044690F83E00202860
:1045000022D181B17AB194F83C0001281CD001205D
:1045100084F83C002063204601F0A8F8002803D16D
:10452000216B012901D0012038BD21680A68496842
:10453000009121680C3151E8002F42F0100241E84F
:104540000023002BF5D138BD022038BD70B50446DC
:1045500000681D4A904204D11C4D2846D5F8082118
:1045600026E01B4A904204D11A4D2846D5F808216E
:104570001EE0194A904204D1184D2846D5F808216A
:1045800016E0174A904204D1164D2846D5F8082166
:104590000EE0154A904204D1144D2846D5F8082162
:1045A00006E0134A90420ED1124D2846D5F8082154
:1045B000843006469047B5F8042131462046BDE8D0
:1045C0007040FFF798BF70BD001001402C12002012
:1045D00000440040381300200048004044140020EC
:1045E000004C004050150020005000405C16002098
:1045F000001401406817002010B5044600684069A7
:1046000094F83D10C0F3C010212911D180B1206869
:10461000143050E8001F21F0800140E80012002A09
:10462000F5D1606B08B1FCF734FE204609F023FC9D
:104630002068406994F83E10C0F38010222911D1FF
:1046400080B12068143050E8001F21F0400140E89C
:104650000012002AF5D1A06B08B1FCF71AFE204623
:1046600009F0E2FB002010BD70470000F8B50168BA
:1046700004460868CA684B6910F00F0F4FF0000538
:1046800059D003F0010602F49077374365D0C10793
:1046900005D0D10503D5216C41F00101216441070A
:1046A00005D5D90703D0216C41F0020121648107AF
:1046B00005D5D90703D0216C41F00401216401071D
:1046C00007D502F02001314303D0216C41F00801ED
:1046D0002164216C00293AD0800604D5900602D5C9
:1046E000204609F02FFB20684069216CC0F3801040
:1046F000090700D460B3204609F096FB20684069A2
:10470000400621D52068143050E8001F21F04001F8
:1047100040E80012002AF5D1A06BA8B16C490165F0
:10472000A06BFCF7FFFD002811D0A06B016D01B05C
:10473000BDE8F040084783060FD593060DD5204607
:10474000BDE8F84009F0FEBA2046FFF78DFFF8BD3E
:104750002046FFF789FF2564F8BD266B2023012E34
:1047600079D1C60677D5D60675D508684868009011
:104770004869400640D5A16B086840680004000CF9
:10478000EAD0A28D8242E7D9E085C869B0F5807F82
:104790002DD020680C3050E8001F21F4807140E8D3
:1047A0000012002AF5D12068143050E8001F21F0D3
:1047B000010140E80012002AF5D12068143050E8C9
:1047C000001F21F0400140E80012002AF5D184F8D2
:1047D0003E30256320680C3050E8001F21F01001A6
:1047E00040E80012002AF5D1A06BFCF752FDA08D25
:1047F000E18D401A81B229E0A08DE18D401A81B28D
:10480000E08D0028A8D00029A6D020680C3050E800
:10481000002F22F4907240E80026002EF5D1206887
:10482000143050E8002F22F0010240E80026002E4C
:10483000F5D184F83E30256320680C3050E8002F15
:1048400022F0100240E80023002BF5D12046FFF7AC
:104850007DFEF8BDFFE705062BD5150629D594F892
:104860003D002128F5D1A068B0F5805F01D1206915
:10487000B0B1206A411C2162216800784860E08C58
:10488000401E0004000CE084E3D12068C16821F0E0
:104890008001C1602068C16841F04001C160D8E773
:1048A000206A0088C0F308004860206A801C2062EB
:1048B000E5E74006CDD55006CBD5CA68204622F0A4
:1048C0004002CA6084F83D3000F032FAC1E70000CF
:1048D00015DF000870B5040004D094F83D000025F1
:1048E00010B106E0012070BD84F83C50204600F075
:1048F00023F8242084F83D002068C16821F4005189
:10490000C160204609F098F92068016921F49041BE
:1049100001612068416921F02A0141612068C16874
:1049200041F40051C1602564202084F83D0084F8E2
:104930003E00002070BD000010B586B00446142172
:1049400001A8FBF7A1FDC749206888427ED100BFBE
:1049500000200090C448006840F01000C249086080
:104960000846006800F01000009000BF00BF00BFC4
:1049700000200090BC481438006840F00200BA499A
:10498000143908600846006800F00200009000BF7B
:1049900000BF00BF002000900846006840F0010002
:1049A00008600846006800F00100009000BF00BFEA
:1049B00080200190022002900020039003200490A8
:1049C0000720059001A9A948FCF754FE4FF4007098
:1049D0000190022002900020039003200490072001
:1049E000059001A9A248FCF745FEA248A24908602B
:1049F0004FF00060486000219F488160C1604FF423
:104A000080610161002141618161C1614FF44031E8
:104A1000016204214162032181620021C1620163BC
:104A2000FCF762FD08B1FBF7ECFE00BF9248A06303
:104A3000846300BF8F483030904908604FF00060B9
:104A4000486040218D488160002100E01FE0C16086
:104A50004FF480610161002141618161C1614FF4C6
:104A60008031016200214162FCF73EFD08B1FBF795
:104A7000C8FE00BF81486063846300BF0022114606
:104A80002520FDF745FB2520FDF732FBE8E07C49BA
:104A90002068884260D100BF002000907248001F4B
:104AA000006840F480207049091F086008460068CB
:104AB00000F48020009000BF00BF00BF00200090E5
:104AC00069481438006840F00400674914390860E8
:104AD0000846006800F00400009000BF00BF4FF4DB
:104AE0004060019002200290002003900320049077
:104AF0000720059001A96348FCF7BCFD62486349A3
:104B000008604FF000604860002160488160C1602B
:104B10004FF480610161002141618161C1614FF405
:104B20008031016204214162032181620021C1625E
:104B30000163FCF7D9FC08B1FBF763FE00BF5348E3
:104B4000A063846300BF002211462720FDF7E0FA2E
:104B50002720FDF7CDFA83E04D49206888427FD1B8
:104B600000BF002000904048006840F020003E490F
:104B700008600846006800F02000009000BF00BFF9
:104B800000BF0020009038481438006840F0400012
:104B90003549143908600846006800F0400000906C
:104BA00000BF00BF4FF4844001900220029000201B
:104BB0000390032004900820059001A93548FCF7D4
:104BC00059FD2C4860383449086080054860002150
:104BD00031488160C1604FF4806101610021416111
:104BE0008161C1614FF400310162042141620321FE
:104BF00081620021C1620163FCF776FC08B1FBF71A
:104C000000FE00BF2448A063846300BF1948183029
:104C1000224908604FF02060486040211F488160B1
:104C20000021C1604FF48061016100214161816117
:104C3000C1614FF48031016200214162FCF754FCF4
:104C400008B1FBF7DEFD00BF14486063846300BF5A
:104C5000002205214720FDF75BFA4720FDF748FABF
:104C600006B010BD0010014044380240000402406C
:104C70000000024088640240FC0800205C0900201B
:104C8000004800400008024028600240BC090020A3
:104C900000140140001802401C0A00207C0A002079
:104CA0007047704770B5044690F83D00202836D113
:104CB00091B38AB394F83C00012830D0012084F8E5
:104CC0003C002162A284E28400252564212084F82E
:104CD0003D00636B1348D863636B13481864636BC0
:104CE0001248D864606B134605652668606B321DF8
:104CF000FCF764FC21686FF04000086084F83C50C9
:104D00002068143050E8001F41F0800140E8001294
:104D1000002AF5D1002070BDFFE70120FBE702204B
:104D2000F9E7000025DF00081FDE0008EDDB0008C2
:104D30007047704700BFFEE710B50F480F49086085
:104D40000320486000210D488160C1604FF4C021FC
:104D500001614FF4A00141610021017601214176FA
:104D600081760021C17601774177FCF784F808B19C
:104D7000FBF747FD10BD0000006400404C0400201C
:104D800010B50F480F4908600320486000210D4806
:104D90008160C1604FF4802101614FF4E001416105
:104DA000002101760121417681760021C1760177CB
:104DB0004177FCF760F808B1FBF723FD10BD000058
:104DC000006800407404002008B500BF0020009077
:104DD0003248006840F40010304908600846006816
:104DE00000F40010009000BF00BF00BF0020009042
:104DF0000846006840F4800008600846006800F437
:104E00008000009000BF00BF002211460C20FDF77B
:104E10007FF90C20FDF76CF9002211460D20FDF7FB
:104E200077F90D20FDF764F9002211460F20FDF7F8
:104E30006FF90F20FDF75CF9002205213920FDF7FD
:104E400067F93920FDF754F9002205213A20FDF7D2
:104E50005FF93A20FDF74CF9002211463B20FDF79F
:104E600057F93B20FDF744F9002211464420FDF795
:104E70004FF94420FDF73CF9002205214520FDF7BC
:104E800047F94520FDF734F9002211464620FDF789
:104E90003FF94620FDF72CF908BD000030380240EC
:104EA00000B587B0142102A8FBF7EEFA00BF00207E
:104EB00001906E48006840F002006C4908600846A6
:104EC000006800F00200019000BF00BF00BF00209A
:104ED00001900846006840F04000086008460068FD
:104EE00000F04000019000BF00BF00BF0020019013
:104EF0000846006840F0010008600846006800F0BD
:104F00000100019000BF00BF00BF002001900846D3
:104F1000006840F0080008600846006800F00800DB
:104F2000019000BF00BF00BF00200190084600684C
:104F300040F0040008600846006800F0040001909A
:104F400000BF00BF00BF002001900846006840F08D
:104F5000800008600846006800F08000019000BFF3
:104F600000BF00BF002001900846006840F020000C
:104F700008600846006800F02000019000BF00BFF4
:104F800000BF002001900846006840F01000086053
:104F90000846006800F01000019000BF00BF012229
:104FA00040213348FCF768FC012210213148FCF70E
:104FB00063FC012211463048FCF75EFC4020029061
:104FC000012003900490059002A92948FCF752FBA8
:104FD000092002904FF4041003900120049002A9CC
:104FE0002348FCF747FB1020029001200390049017
:104FF0000220059002A91F48FCF73CFB30200290DC
:105000004FF4041003900120049002A91B48FCF700
:1050100031FB01200290039004900220059002A928
:105020001548FCF727FB002202210620FDF770F847
:105030000620FDF75DF8002201210920FDF768F840
:105040000920FDF755F8002201210A20FDF760F83C
:105050000A20FDF74DF8002201211720FDF758F82E
:105060001720FDF745F807B000BD000030380240BA
:105070000018024000000240000402400008024004
:1050800010B50B480B4908600B48486000210948DF
:105090008160C1604FF48041016100214161816103
:1050A000C1610162FCF7F4FB08B1FBF7AAFB10BD7C
:1050B000005C00409C040020801A060010B50F48D8
:1050C0000F4908604FF48270486000210C488160ED
:1050D000C1600221016101214161490281613821E0
:1050E000C16100210162416281620A21C162FEF751
:1050F000FEF908B1FBF785FB10BD00000030014050
:10510000B005002000B587B01C216846FBF7BCF94C
:105110001548164908600020486000211348816046
:1051200041F28731C160002101618161FEF774FDA8
:1051300008B1FBF766FB0D48FFF7AFF808B1FBF7C6
:1051400060FB6020009000200190029004900022FB
:1051500069460648FFF71FF808B1FBF752FB034802
:10516000FEF7C0FF07B000BD00440140E807002083
:1051700000B595B0002011901290139014900F90EC
:1051800010901C2108A8FBF77FF920216846FBF747
:105190007BF92B482B490860A7204860002129484B
:1051A000816041F28731C16000210161416181610B
:1051B000FEF732FD08B1FBF724FB4FF4805011904D
:1051C00011A92048FEF73CFE08B1FBF71AFB1D4869
:1051D000FFF763F808B1FBF714FB00200F90109065
:1051E0000FA91848FEF7BEFC08B1FBF70AFB6020C8
:1051F0000890002009900A900B900C900D900E9052
:10520000082208A90F48FEF7C6FF08B1FBF7F9FA14
:105210000020009001900290039004904FF4005001
:1052200005900020079069460648FEF760FC08B12B
:10523000FBF7E7FA0348FEF755FF15B000BD000085
:1052400000000140C806002000B587B00020039090
:10525000049005900690019002901448144908604B
:105260005320486000211248816040F2E731C1605C
:10527000002101618161FEF7CFFC08B1FBF7C1FAA3
:105280004FF48050039003A90948FEF7D9FD08B1F7
:10529000FBF7B7FA00200190029001A90448FEF73D
:1052A00061FC08B1FBF7ADFA07B000BD0004004097
:1052B0001007002000B587B00020039004900590EF
:1052C00006900190029014481449086053204860E9
:1052D00000211248816040F2E731C1600021016184
:1052E0008161FEF799FC08B1FBF78BFA4FF480500F
:1052F000039003A90948FEF7A3FD08B1FBF781FA63
:1053000000200190029001A90448FEF72BFC08B18F
:10531000FBF777FA07B000BD0008004058070020EF
:1053200000B587B00020039004900590069001908E
:105330000290144814490860532048600021124824
:10534000816040F2E731C160002101618161FEF7B7
:1053500063FC08B1FBF755FA4FF48050039003A9A2
:105360000948FEF76DFD08B1FBF74BFA00200190EC
:10537000029001A90448FEF7F5FB08B1FBF741FADA
:1053800007B000BD000C0040A007002010B50B487E
:105390000B4908604FF4E130486000210848816003
:1053A000C16001610C21416100218161C161FFF790
:1053B00091FA08B1FBF725FA10BD0000001001407A
:1053C0003008002010B50C480C4908600C484860B3
:1053D0004FF48051094881600021C1604FF4806121
:1053E00001610421416100218161C161FFF772FA0D
:1053F00008B1FBF706FA10BD004800407408002011
:10540000A086010010B50B480B4908604FF4E1304D
:105410004860002108488160C16001610C21416140
:1054200000218161C161FFF755FA08B1FBF7E9F985
:1054300010BD000000140140B808002010B5002283
:105440000D490E4800F037FC08B1FBF7DAF90C49BA
:105450000A4800F0FFFE08B1FBF7D3F909490748F5
:1054600000F0ABFA08B1FBF7CCF9044800F01CFFE0
:1054700008B1FBF7C6F910BDC4020020C82C0020FB
:105480003C0300201803002000BFFEE700BFFEE73A
:1054900010B50248FDF74BF810BD0000A4410020F4
:1054A0007047704710B5FCF7AFFD10BD03480068AA
:1054B00040F47000014908607047000088ED00E08A
:1054C00010B50248FEF743FD10BD0000580700204C
:1054D00010B50248FEF73BFD10BD0000A0070020FC
:1054E00010B50268294B98420ED0B0F1804F0BD016
:1054F000274B984208D0274B984205D0264B98421C
:1055000002D0264B984203D122F070024B681A4316
:105510001E4B984220D0B0F1804F1DD01C4B9842BA
:105520001AD01C4B984217D01B4B984214D01B4BDF
:10553000984211D01A4B98420ED01A4B98420BD079
:10554000194B984208D0194B984205D0184B9842F5
:1055500002D0184B984203D122F44072CB681A4310
:1055600022F080034C6943EA040202608B68C36244
:105570000B688362054B984202D0084B984201D1D8
:105580000B6903630123436110BD0000000001406B
:105590000004004000080040000C004000040140EE
:1055A0000040014000440140004801400018004014
:1055B000001C00400020004030B501F01F05012410
:1055C00004FA05F3046A9C430462046A01F01F05AF
:1055D00002FA05F52C43046230BD30B50C468168F3
:1055E00021F47F4142EA032525432943816030BDF0
:1055F00030B5056A25F010050562026A43688469C2
:1056000024F4E04424F440740D6844EA052422F0B4
:1056100020028D6842EA0512124DA84200D103E033
:10562000114DA84207D100BF22F08002CD6842EAA6
:10563000051222F040020B4DA84202D00A4DA842AA
:1056400009D123F4806323F400634D6943EA8503A1
:105650008D6943EA8503436084614D688563026216
:1056600030BD0000000001400004014038B58162F7
:1056700082850025134604460564222084F83E00F6
:10568000A26B1B48D063A26B1A481064A26B1A4825
:10569000D064A06B0A4605652168A06B091DFBF765
:1056A0008DFF206801684068009084F83C502068B5
:1056B0000C3050E8001F41F4807140E80012002ACD
:1056C000F5D12068143050E8001F41F0010140E896
:1056D0000012002AF5D12068143050E8001F41F074
:1056E000400140E80012002AF5D1002038BD00003A
:1056F00093DE000805DE0008EDDB000810B5024867
:10570000FEF7B4FF10BD00003008002010B50248BD
:10571000FEF7ACFF10BD00007408002010B5024871
:10572000FEF7A4FF10BD0000B80800202DE9F041ED
:1057300004460D46D4F8C472D4F8BC0210B9032054
:10574000BDE8F081D4F8BC6205EB850104F11400DA
:1057500000EB8100406808B305EB850104F11400FB
:1057600000EB8100C5EBC502416807F13C0000EB8E
:1057700082008068B1FBF0F200FB121070B90021CA
:1057800005EB850204F1140000EB82004160002368
:105790001A462946204600F02AFD0FE00020C6F8F0
:1057A0001402D4F8C002006940B1D6F80802D4F857
:1057B000C0122A460B6906F5047198470020BFE71E
:1057C00070B504460E46D4F8BC52D4F8BC0208B9F1
:1057D000032070BD3146204600F07BFBC5F80C026B
:1057E000D5F80402D4F8C012CA6805F503719047D1
:1057F0000020EEE770B504460D468121204600F0FA
:105800008AFA002121870121204600F084FA002134
:10581000A4F878118221204600F07DFA0021A4F836
:105820004C10A4F84E10D4F8BC0250B1D4F8C012F9
:1058300048688047D4F8BC0200F0E4FE0020C4F8B9
:10584000BC02002070BD70B50546D5F8BC420CB94D
:10585000032070BDD5F8C00278B194F80002FF288B
:105860000BD094F8012294F80002D5F8C0128B688E
:1058700021469847FF2084F800020020E9E7000055
:1058800001460A20088001487047000030030020CC
:10589000014643200880014870470000B8030020FB
:1058A000014643200880014870470000740300202F
:1058B000014643200880014870470000FC03002097
:1058C00070B504460E464FF4077000F09DFE054685
:1058D00025B90020C4F8BC02022070BDC4F8BC5237
:1058E000207CA0B94FF4007302228121204600F0F1
:1058F00079FB012121874B020222204600F072FB36
:105900000121A4F878111021A4F84E1012E04023D0
:1059100002228121204600F065FB012121874023DE
:105920000222204600F05EFB0121A4F8781110212C
:10593000A4F84E10082303228221204600F052FBD7
:105940000121A4F84C10D4F8C01208688047002048
:10595000C5F81402C5F81802207C40B94FF4007352
:1059600001212046D5F8042200F054FB06E0402334
:1059700001212046D5F8042200F04CFB0020ACE7C2
:1059800070B50446D4F8BC52D4F8BC0208B9032060
:1059900070BD207C40B94FF4007301212046D5F83A
:1059A000042200F037FB06E0402301212046D5F811
:1059B000042200F02FFB0020EAE7024609B9032089
:1059C0007047C2F8C0120020FAE702460B46D2F830
:1059D000BC1209B903207047C1F804320020FAE76D
:1059E00010B503460C46D3F8BC1209B9032010BD0C
:1059F000C1F80842C1F810220020F8E72DE9FC4167
:105A000005460C46D5F8BC62002001900090804607
:105A100016B90320BDE8FC81207800F0600078B35F
:105A200020286FD1E08818B3207800F0800098B16A
:105A3000E2886078D5F8C0128B6831469847E088D4
:105A4000072801D9072000E0E08807463A4631469A
:105A5000284600F0D2F812E0607886F80002A079BB
:105A600086F80102E2883146284600F0A5F806E0F3
:105A70006078D5F8C01200228B682146984748E02C
:105A8000FFE7607830B1012831D00A2813D00B2805
:105A90002ED121E095F89C02032805D10222694607
:105AA000284600F0AAF805E02146284600F078F8DC
:105AB0004FF0030823E095F89C02032805D101224A
:105AC00001A9284600F099F805E02146284600F093
:105AD00067F84FF0030812E095F89C02032805D000
