:020000040800F2
:10000000480F0020ED010008EB2E0008CD26000867
:10001000E92E000861050008353B000800000000DB
:10002000000000000000000000000000E52F0008B4
:100030002906000800000000BD2F000891350008C7
:10004000070200080702000807020008070200086C
:10005000070200080702000807020008070200085C
:10006000070200080702000807020008070200084C
:10007000070200080702000807020008070200083C
:1000800095050008F10500080702000807020008AE
:10009000650500087105000807020008070200084E
:1000A00007020008013600080702000807020008DE
:1000B0000D3600081936000807020008070200087C
:1000C00007020008070200080702000807020008EC
:1000D00007020008070200080702000807020008DC
:1000E00007020008070200080702000800000000DD
:1000F0000000000000000000000000000000000000
:1001000000000000000000000702000807020008CD
:10011000070200080702000807020008070200089B
:10012000070200080702000807020008070200088B
:10013000070200080000000000000000070200089D
:100140007D0500088905000807020008070200086D
:1001500000F002F800F03AF80AA090E8000C82449F
:100160008344AAF10107DA4501D100F02FF8AFF27C
:10017000090EBAE80F0013F0010F18BFFB1A43F085
:1001800001031847346E0000546E0000103A24BF7B
:1001900078C878C1FAD8520724BF30C830C144BFEC
:1001A00004680C607047000000230024002500262E
:1001B000103A28BF78C1FBD8520728BF30C148BFCA
:1001C0000B6070471FB51FBD10B510BD00F05AF988
:1001D0001146FFF7F7FF04F01DF900F078F903B4BA
:1001E000FFF7F2FF03BC00F07BF9000009488047ED
:1001F00009480047FEE7FEE7FEE7FEE7FEE7FEE709
:10020000FEE7FEE7FEE7FEE704480549054A064B20
:1002100070470000FD350008510100084809002022
:10022000480F0020480B0020480B002053EA020C26
:1002300000F069802DE9F04B4FF00006002B1FBF46
:10024000B3FA83F503FA05F424FA05F65E4012BF0B
:100250001643B2FA82F502FA05F4C5F120051EBF75
:1002600022FA05FC44EA0C04203556EA044C4FEA15
:10027000144418BF641C4FF000084FF0000990426E
:1002800071EB030C39D3002919BFB1FA81F701FAD8
:1002900007F6B0FA80F700FA07F6C7F120071EBF8D
:1002A00020FA07FC46EA0C062037B6FBF4FCA7EB65
:1002B0000507103F07F01F0BCBF120060CFA0BFBD4
:1002C0002CFA06F644BFB3460026202FA4BF5E4694
:1002D0004FF0000B5BEA060C08BF4FF0010B19EB67
:1002E0000B09ABFB027C48EB0608C01B06FB02CCEB
:1002F0000BFB03CC71EB0C01C1E70B4602464146F8
:100300004846BDE8F08B13B54FF000004FF00001F8
:10031000AFF30080BDE81C407047032A40F23080F4
:1003200010F0030C00F0158011F8013BBCF1020F36
:10033000624498BF11F801CB00F8013B38BF11F8B7
:10034000013BA2F1040298BF00F801CB38BF00F8CE
:10035000013B11F0030300F02580083AC0F008804B
:1003600051F8043B083A51F804CBA0E80810F5E72F
:10037000121D5CBF51F8043B40F8043BAFF3008012
:10038000D20724BF11F8013B11F801CB48BF11F887
:10039000012B24BF00F8013B00F801CB48BF00F857
:1003A000012B704710B5203AC0F00B80B1E818500F
:1003B000203AA0E81850B1E81850A0E81850BFF44F
:1003C000F5AF5FEA027C24BFB1E81850A0E81850EE
:1003D00044BF18C918C0BDE810405FEA827C24BF42
:1003E00051F8043B40F8043B08BF7047D20728BFD0
:1003F00031F8023B48BF11F8012B28BF20F8023B1F
:1004000048BF00F8012B70474FF0000200B51346BB
:1004100094469646203922BFA0E80C50A0E80C5024
:10042000B1F12001BFF4F7AF090728BFA0E80C50D5
:1004300048BF0CC05DF804EB890028BF40F8042BCE
:1004400008BF704748BF20F8022B11F0804F18BF3B
:1004500000F8012B704770477047704710B500F0E7
:1004600009F8006810BD10B5044600F003F80460F8
:1004700010BD000000487047E408002000487047A5
:10048000E40800207546FFF7F9FFAE46050069460F
:10049000534620F00700854618B020B5FFF7B4FE9C
:1004A000BDE820404FF000064FF000074FF0000875
:1004B0004FF0000B21F00701AC46ACE8C009ACE8F6
:1004C000C009ACE8C009ACE8C0098D46704710B55A
:1004D0000446AFF300802046BDE81040FFF77FBE22
:1004E00001491820ABBEFEE726000200704700005D
:1004F00010B5194CD4E90101884203D102211748F3
:1005000003F0CBFDD4E93F01884203D10221134817
:1005100003F0C3FD04F5197003C8884203D102211A
:100520000E4803F0BAFD04F5BC7003C8884203D13D
:1005300002210A4803F0B1FD6068A060D4F8FC0015
:10054000C4F80001D4F86402C4F86802D4F8780151
:10055000C4F87C0110BD0000B4020020080800208F
:10056000FEE70000014800F035BA000060000020FE
:10057000014800F02FBA000060000020014800F0A0
:1005800029BA000088000020014800F023BA0000CA
:100590008800002010B5104800F037FD01281AD05F
:1005A0000E4801F0ADFF0C480D4A01684FF40010F1
:1005B000914202D90B49086002E00949803948603C
:1005C0000021094802F0A4F8BDE810405A2207496A
:1005D000024802F06BB810BD2C020020E40100209C
:1005E0008000024004040240B4080020880100207A
:1005F000014800F00DBD00007002002030B590F8F9
:1006000040500124AC40C56B6C6004686360436873
:10061000102B04D0036899600068C26030BD036885
:100620009A600068C16030BD704772B6FEE7000096
:1006300010B503461046002B01D0084C0AE04FF6D7
:10064000FF7010BD13F8012B4240D2B234F81220D3
:1006500082EA1020491E4A1CF4D110BD286D000802
:1006600010B5054C03E010F8013B5340E25C491E15
:100670004B1CF8D1104610BD286C000890F82020C3
:10068000012A07D0022A05D0416A41F48021416243
:1006900001207047006842690A43426100207047A8
:1006A000F0B590F820500468A468012D07D0022D01
:1006B00005D0416A41F4802141620120F0BD04F07F
:1006C000806504F00066354301D1E50053D5C4F3DD
:1006D00001640125A5401D608B684FF4C0759BB176
:1006E000CE6805EB041733434E6843EAC603066839
:1006F000F3514FF4C273076803EB04130E69FE5005
:10070000097D012909D00DE00E88CB6805EB04179F
:1007100043EA46530668F351EBE70168CE5846F4C6
:100720008076CE501179D379567941EA0361937975
:100730001B0443EA062319434FF4C676036806EB0D
:10074000041699511178D37841EA0361937852786D
:100750001B0443EA022211434FF4C473026803EB03
:100760000413D150006805EB0411425842F0010215
:1007700042500020F0BD416A41F400114162012065
:10078000F0BD000010B590F82020012A07D0022A01
:1007900005D0416A41F480214162012010BD3C48EE
:1007A00000F50070026842F001020260026822F463
:1007B0007C52026002684B6A42EA032202600A7DB0
:1007C00002F01F0301229A40C3699343C361A0F55D
:1007D0000070CB69B3B9D0F80C329343C0F80C3237
:1007E0008C894B6864F31F434C6900EBC404C4F864
:1007F00040320C890B6864F31F434C6900EBC4045E
:10080000C4F84432CB69012B16D1D0F80C32134313
:10081000C0F80C320C884B6864F31F434C6900EB42
:10082000C404C4F840320C89CB6864F31F434C699C
:1008300000EBC404C4F844328B697BB1D0F80432B5
:100840001343C0F804320B6973B1D0F81432134368
:10085000C0F81432096A01290CD010E0D0F8043233
:100860009343C0F80432EEE7D0F814329343C0F853
:100870001432EFE7D0F81C121143C0F81C12D0F864
:10088000001221F00101C0F80012002010BD00008C
:1008900000640040704770B590F82040012C07D0EC
:1008A000022C05D0416A41F480214162012070BDD3
:1008B00021B104682469A4072AD003E00468E4682D
:1008C000A4071FD04FF4D874056804EB01142D5908
:1008D00005F0040595600DB305682D59ED085560C8
:1008E00005682C5904F00204D4604FF4DA740568EA
:1008F00004EB01142E5906F00F06082E13D3082519
:10090000156114E0416A41F400114162012070BD9B
:10091000416A41F400114162012070BD05682D5902
:100920006D0D1560DCE72D5905F00F0515610568A3
:100930002D59C5F30725956105682C59240C546180
:100940004FF4DC72046802EB0112A4581C700468B6
:10095000A458240A5C700468A458240C9C70046891
:10096000A258120EDA704FF4DE72046802EB011224
:10097000A4581C710468A458240A5C710468A45823
:10098000240C9C710468A258120EDA7131B100680F
:10099000016941F020010161002070BD0068C1685B
:1009A00041F02001C160F7E70246002092F82010D4
:1009B000012901D002290CD111688A68520100D5A1
:1009C00001208A68120100D5401C8968C90000D541
:1009D000401C70472DE9F05F0546002428684669F1
:1009E000D0F804908768D0F80CA0D0F810B0D0F8F8
:1009F0001880F10748D0F90714D001218160B807A9
:100A000003D5284600F0D8FA0CE0780702D54FF459
:100A1000006407E0380702D54FF4805402E028460E
:100A200000F0C9FAF80516D529684FF4807088607F
:100A3000B80503D5284600F0C1FA0CE0780502D5C8
:100A400044F4005407E0380502D544F4804402E041
:100A5000284600F0B2FAF80316D529684FF4803022
:100A60008860B80303D5284600F0AAFA0CE07803A2
:100A700002D544F4004407E0380302D544F480343E
:100A800002E0284600F09BFA300707D55FEACA600B
:100A900004D544F4007429681020C86070074FF032
:100AA000080707D55FEA0A7004D52868C76028469A
:100AB00000F0D4F9B00706D52868C068800702D0D6
:100AC000284600F0CDF9700607D55FEACB6004D563
:100AD00044F48064296810200861B00607D55FEAF5
:100AE0000B7004D528680761284600F0F7F9F00676
:100AF00006D528680069800702D0284600F0F0F982
:100B0000B00308D55FEAC96005D5296810204860A0
:100B1000284600F023FAF00307D55FEA097004D5F0
:100B200028684760284600F04CFA300446D55FEA52
:100B3000497040D5F00504D55FEAC87001D044F093
:100B40000104B00504D55FEA887001D544F00204C1
:100B5000700504D55FEA487001D544F004043005FF
:100B600029D518F0700F26D008F07000402815D055
:100B700006DC102809D020280AD0302816D10AE037
:100B800050280ED0602811D10EE044F008040DE08A
:100B900044F010040AE044F0200407E044F040046C
:100BA00004E044F0800401E044F480742868816922
:100BB00021F070018161296804204860002C05D073
:100BC000686A204368622846FFF764FEBDE8F09F2C
:100BD00070B50446002C03D094F8200010B104E056
:100BE000012070BD204600F09DF82068016841F0AA
:100BF0000101016000F0D6FC054605260CE000F07E
:100C0000D1FC401B0A2807D9606A40F400306062BA
:100C100084F82060012070BD20684068C007EED0D5
:100C20002068016821F00201016000F0BBFC05466C
:100C30000CE000F0B7FC401B0A2807D9606A40F4BA
:100C40000030606284F82060012070BD2068406838
:100C50008007EED4207E01283FD02068016821F073
:100C600080010160607E01283DD02068016821F08C
:100C700040010160A07E01283BD02068016821F07E
:100C800020010160E07E012839D02068016841F030
:100C900010010160207F012837D02068016821F011
:100CA00008010160607F012835D02068016821F0CB
:100CB00004010160D4E902010843D4E9041211439C
:100CC00008436168491E08432168C86100206062CA
:100CD000012084F82000002070BD2068016841F0E8
:100CE00080010160BEE72068016841F040010160B9
:100CF000C0E72068016841F020010160C2E7206878
:100D0000016821F010010160C4E72068016841F02A
:100D100008010160C6E72068016841F00401016034
:100D2000C8E70000F0B585B0002101910291039160
:100D3000049102684448434F444C0168022503264D
:100D4000491C434BBA423DD10160012907D1D86902
:100D500040F00070D861D86900F000700090986988
:100D600040F008009861986900F0080000904FF486
:100D70008070019001A9204600F014FB4FF400712F
:100D800001910295049601A9204600F00BFB314920
:100D9000486820F4C04040F0E06040F48040486083
:100DA00000221146142000F06BFC142000F05AFCC5
:100DB00000221146152000F063FC152000F052FCC3
:100DC00005B0F0BD244FBA42FAD1DA6942F0806230
:100DD000DA61DA6902F0806200920160012907D1CC
:100DE000D86940F00070D861D86900F000700090B8
:100DF000986940F008009861986900F00800009038
:100E00004FF48050019001A9204600F0CBFA4FF436
:100E1000005101910295049601A9204600F0C2FA02
:100E200000221146402000F02BFC402000F01AFC6C
:100E300000221146412000F023FC412000F012FC6A
:100E4000BEE700000064004000000020000C0140EC
:100E500000100240000001400068004070470000A0
:100E600010B58AB00446184884421CD101AB03AACD
:100E70000021FFF710FD039801AA81B2134801F089
:100E800065FD134801F0F8FD124801F0F5FD104929
:100E90000398B039D1F85011884204D10C4801A907
:100EA000A03002F03DFF0C4884420BD101AB03AAF5
:100EB0000021FFF7F0FC0598042803D101A904984C
:100EC00004F070FB0AB010BD600000202005002077
:100ED00064030020CC04002088000020704700003C
:100EE00010B58AB00446184884421CD101AB03AA4D
:100EF0000121FFF7D0FC039801AA81B2134801F049
:100F000025FD134801F0B8FD124801F0B5FD104968
:100F10000398B039D1F85011884204D10C4801A986
:100F2000A03002F0FDFE0C4884420BD101AB03AAB5
:100F30000121FFF7B0FC0598042803D101A904980A
:100F400004F030FB0AB010BD600000202005002036
:100F500064030020CC04002088000020704770B596
:100F6000044694F82000012805D0606A40F400206F
:100F70006062012070BD022084F8200020680168B2
:100F800021F00101016000F00DFB05460DE000F0CD
:100F900009FB401B0A2808D9606A40F400306062EF
:100FA000052084F82000012070BD20684068C0073B
:100FB000EDD1606270BD70477047704770477047F1
:100FC0007047704710B590F821100022022905D013
:100FD0000421816380F82020012010BD01680B6886
:100FE00023F00E030B6001680B6823F001030B6014
:100FF00090F84030C46B012101FA03F3636080F87C
:10100000211080F82020104610BD90F82100704774
:101010002DE9F05FC16B0A6801680B68046C4FF042
:10102000040E0EFA04FE9A4D9A4E9B4FDFF86CC2E6
:10103000DFF86C82DFF86C92DFF86CA2DFF86CB23C
:101040001EEA020F7BD05FEA437E78D50A689206DB
:1010500003D40A6822F004020A60DFF848E24FF481
:10106000806201680EF1140E1301140271452DD92E
:10107000A94201D1042225E0B14201D1402221E060
:10108000B9421FD0614501D11A461BE0414501D14B
:10109000224617E0494502D14FF4800212E0514543
:1010A00001D104220EE0594501D140220AE07F4DD2
:1010B0001435A94206D07D4A2832914201D11A4600
:1010C00000E022467849091F0A6032E0A94201D1B6
:1010D00004222BE0B14201D1402227E0B94225D0C1
:1010E000614501D11A4621E0414501D122461DE06A
:1010F000494502D14FF4800218E0714502D14FF00A
:10110000806213E0514501D104220FE0594501D11D
:1011100040220BE0654D1435A94207D0634A2832BE
:10112000914202D11A4601E009E0224658490839A5
:101130004A60C16A00296FD0BDE8F05F08474FF0F0
:10114000020E0EFA04FE1EEA020F74D05FEA837EDE
:101150007FD50A68920606D40A6822F00A020A605D
:10116000012180F82110DFF83CE14FF400720168A2
:101170000EF1140E1301140271452DD9A94201D1AB
:10118000022225E0B14201D1202221E0B9421FD044
:10119000614501D11A461BE0414501D1224617E0C5
:1011A000494502D14FF4001212E0514501D102220B
:1011B0000EE0594501D120220AE03C4D1435A942E8
:1011C00006D03A4A2832914201D11A4600E022461E
:1011D0003549091F0A6033E0A94201D102222CE0FF
:1011E000B14201D1202228E0B94226D0614501D187
:1011F0001A4622E0414501D122461EE0494502D16E
:101200004FF4001219E0714502D14FF0007214E062
:10121000514502D1022210E038E0594501D1202287
:101220000BE0224D1435A94207D0204A28329142C2
:1012300002D11A4601E00CE02246154908394A60FD
:10124000002180F82010816A00291FD0BDE8F05FDE
:1012500008470825A540154218D01A0716D50A6870
:1012600022F00E020A6090F84020C36B012101FABF
:1012700002F25A60816380F82110002180F820106A
:10128000016B002902D0BDE8F05F0847BDE8F09F80
:10129000080002401C0002403000024044000240AE
:1012A000580002406C000240080402401C04024046
:1012B00030B500280DD01B4B0168142299420AD288
:1012C000194B0B44B3FBF2F292000264174AC2635B
:1012D0000BE0012030BD134B5B420B44B3FBF2F239
:1012E000920002640F4A083AC2630222001D42774C
:1012F0000A6843F6F0739A43D0E900342343D0E9F7
:1013000002452C43234304692343446923438469EE
:10131000234313430B60002141630122427701778D
:10132000002030BD08040240F8FFFDBF000002406D
:1013300070B50446002594F8200001280CD0012047
:1013400084F8200094F821600020012E06D084F853
:1013500020000225284670BD022070BD022684F8B8
:101360002160A0632068066826F00106066020461A
:10137000FFF744F9E06A28B12068016841F00E01E6
:10138000016009E02068016821F004010160206823
:10139000016841F00A0101602068016841F0010123
:1013A0000160D7E72DE9F84F00240023DFF8C4914E
:1013B0004FF00F08A9F1040B09F1040AABF1040E78
:1013C000D1E00127A7403A40BA4275D1DFF8A8C161
:1013D0004D68A5EB0C0665452BD00DDC032D34D0F4
:1013E00005DC35B3012D19D0022D2FD11BE0112DB5
:1013F00016D0122D2AD119E0B6F5881F19D006DCB7
:10140000B6F5803F15D0B6F5801F1FD111E0B6F5B7
:10141000001F0ED0B6F5041F18D10AE0CB6815E006
:10142000CB681B1D12E0CB6808330FE0CB680C3390
:101430000CE08B6823B1012B04D00823476105E041
:10144000042303E00823076100E00023FF2A01D8FA
:10145000054601E000F1040502D84FEA840603E0E6
:10146000A4F108064FEA86062F6808FA06FC27EA68
:101470000C0703FA06F647EA06072F604D68ED00F1
:1014800070D53E4DAE6946F00106AE61AD6905F01E
:10149000010500953A4D24F003067719BE68A507AB
:1014A0002D0F08FA05FC26EA0C06DFF8D8C06045C7
:1014B00003D14FF0000C17E054E0DFF8CCC06045DA
:1014C00002D14FF0010C0FE0DFF8C0C0604502D13F
:1014D0004FF0020C08E0DFF8B8C0604502D14FF0D1
:1014E000030C01E04FF0040C0CFA05FC4CEA060C6E
:1014F000C7F808C04D68ED0205D5D9F8005015436E
:10150000C9F8005004E0D9F800509543C9F80050DC
:101510004D68AD0205D5DAF800501543CAF8005001
:1015200004E0DAF800509543CAF800504D68AD0366
:1015300005D5DBF800501543CBF8005004E0DBF88C
:1015400000509543CBF800504D68ED0305D5DEF80B
:1015500000501543CEF8005004E0DEF800509543EB
:10156000CEF80050641C0A6832FA04F57FF429AF03
:10157000BDE8F88F0804014000001110001002407F
:101580000000014000080140000C01400010014033
:1015900000140140002A01D0016170470904016173
:1015A0007047000001488068704700000400002078
:1015B000024881680278114481607047040000206D
:1015C00010B50748016841F010010160032000F0E8
:1015D00077F80F2000F006F800F026F8002010BD84
:1015E0000020024070B504460D4D4FF47A71287802
:1015F000B1FBF0F00B490968B1FBF0F000F0B2FB71
:1016000008B1012070BD102C07D200222146501EC7
:1016100000F036F86C60002070BD012070BD000045
:10162000040000201000002008B50C48816941F03A
:1016300001018161816901F001010091C16941F0FD
:101640008051C161C06900F0805000900449486831
:1016500020F0E06040F00070486008BD00100240DB
:1016600000000140002809DB00F01F020121914029
:101670004009800000F1E020C0F800117047000030
:10168000F0B40D460D4B1B68C3F30223C3F10704EE
:10169000042C00D90424191D072901D2002300E0DD
:1016A000DB1E012606FA04F1491E294099409E409E
:1016B000761E16403143F0BC02F089BA0CED00E012
:1016C00000F00701054A10684FF6FF03184040EA92
:1016D0000120034908431060704700000CED00E052
:1016E0000000FA052DE9F04704460D46002C17D0FE
:1016F000DFF83081D8F8000000F00700A84211D2CE
:10170000D8F8000020F007002843C8F80000D8F8F7
:10171000000000F00700A84204D00120BDE8F087D7
:101720000120FBE72068404E810712D5400703D512
:10173000706840F4E06070602078000703D570683E
:1017400040F4605070607068A16820F0F0000843B9
:1017500070602078C0072CD06068012806D002286D
:1017600009D0316889070BD40120D7E73168890394
:1017700006D40120D2E73168890101D40120CDE7E8
:10178000716821F0030101437160FFF70BFF074609
:1017900041F2883906E0FFF705FFC01B484501D933
:1017A0000320BBE77068616800F00C00B0EB810FAC
:1017B000F1D1D8F8000000F00700A8420ED9D8F8FF
:1017C000000020F007002843C8F80000D8F8000007
:1017D00000F00700A84201D001209FE720784007D1
:1017E00005D57068E16820F4E060084370602078F7
:1017F000000706D57068216920F4605040EAC100F6
:10180000706000F03FF87168084AC1F30311515C41
:10181000C8400749086007480068FFF7E3FE00205A
:101820007CE700000020024000100240106C00081D
:1018300010000020080000200148006870470000E8
:101840001000002000B5FFF7F7FF04494968044A7B
:10185000C1F30221515CC84000BD000000100240ED
:10186000206C000800B5FFF7E7FF04494968044A07
:10187000C1F3C221515CC84000BD0000001002400D
:10188000206C00082DE9F0411D4B59681D4801F0FE
:101890000C02042A2ED0082A2CD11B48C1F3834203
:1018A000845CC80328D5D86A174900F00F000E31B0
:1018B000085CD96AC90316D5D96AC1F30312521C50
:1018C000D96AC1F30321891CA2FB0023A1FB0417E1
:1018D0000C4D0026A1FB050C07FB05C501FB0651BD
:1018E000FEF7A4FC03E007496143B1FBF0F00D2CC7
:1018F00000D14008BDE8F08104486043FAE70000E9
:101900000010024000127A00F26B000800093D004E
:101910002DE9F84F0446002C0ED02078F84DC00772
:101920005ED06868C0F3810001280BD06868C0F3FE
:101930008100022803D00CE00120BDE8F88F686820
:10194000C00306D5286880034AD5A068A8BB01203B
:10195000F3E7A068B0F5803F11D0A8B1B0F5A02F93
:101960001BD0286820F480302860286820F480206C
:101970002860A06830B3FFF715FE06461EE0286811
:1019800040F480302860F4E7286820F48030286034
:10199000286820F480202860EBE7286840F4802045
:1019A0002860286840F480302860E2E7FFF7FAFDFD
:1019B000801B642802D90320BFE711E02868800358
:1019C000F4D50DE0FFF7EEFD064606E0FFF7EAFD71
:1019D000801B642801D90320AFE728688003F5D471
:1019E0002078C84E80074FF0010A4FF0000746D517
:1019F000686810F00C0F07D06868C0F381000228F7
:101A000012D16868C0030FD42868800704D56069C4
:101A1000012801D0012090E72868A16920F0F80092
:101A200040EAC10028602AE06069C0B1C6F800A0A1
:101A3000FFF7B8FD804607E0FFF7B4FDA0EB080014
:101A4000022801D9032078E728688007F4D52868A0
:101A5000A16920F0F80040EAC10028600FE037607B
:101A6000FFF7A0FD804607E0FFF79CFDA0EB080014
:101A7000022801D9032060E728688007F4D4207881
:101A8000000727D5A048E169A1B1C0F800A0FFF781
:101A900089FD804607E0FFF785FDA0EB08000228DE
:101AA00001D9032049E7686A8007F4D5012001F0D5
:101AB00087FA0FE00760FFF775FD804607E0FFF744
:101AC00071FDA0EB0800022801D9032035E7686A00
:101AD0008007F4D4207840077AD54FF00008E869F1
:101AE000C00009D4E86940F08050E861E86900F07E
:101AF000805000904FF00108DFF810B2DBF80000D2
:101B0000C00515D4DBF8000040F48070CBF800006D
:101B1000FFF748FD814607E0FFF744FDA0EB090011
:101B2000642801D9032008E7DBF80000C005F3D5DD
:101B30002069012812D0B0B105281DD0286A20F0F4
:101B400001002862286A20F004002862206941F21E
:101B5000883B30B3FFF726FD81461EE0286A40F03F
:101B600001002862F2E7286A20F001002862286A52
:101B700020F004002862E9E7286A40F004002862A7
:101B8000286A40F001002862E0E7FFF70BFDA0EBB8
:101B90000900584501D90320CFE6286A8007F4D50B
:101BA0000FE0FFF7FFFC814608E0FFF7FBFCA0EB2E
:101BB0000900584502D90320BFE609E0286A8007DA
:101BC000F3D4B8F1010F03D1E86920F08050E86147
:101BD000E06A78B36968C90309D56968C1F381010E
:101BE000022904D1E96AC90301D50120A5E602282A
:101BF00008D0E86A20F48030E862B766FFF7D2FCCC
:101C0000804641E02868C00007D5E86A616B00F0B3
:101C1000F000884201D001208FE6B766FFF7C2FCD2
:101C2000804608E0FFF7BEFCA0EB0800642802D95C
:101C3000032082E62BE028680001F3D4E86A616B98
:101C400020F0F0000843E862E86A216B20F470603D
:101C50000843E862C6F868A0FFF7A4FC804607E0E6
:101C6000FFF7A0FCA0EB0800642801D9032064E67C
:101C700028680001F4D50AE0FFF794FCA0EB080007
:101C8000642801D9032058E628680001F4D4206AAA
:101C9000F0B36968C1F38101022950D0022804D051
:101CA0003766FFF77FFC044645E03766FFF77AFCAE
:101CB000074606E0FFF776FCC01B022801D9032087
:101CC0003BE628688001F5D4606AB0F5803F09D111
:101CD000E86A61680843E862E86AE16820F00F009A
:101CE0000843E862D4E909010843696821F47411E2
:101CF00008436860C6F860A0FFF754FC04460FE094
:101D00000010024000004242800442420070004045
:101D100026E0FFF747FC001B022801D903200CE650
:101D200028688001F5D51BE0FFF73CFC001B02286A
:101D300001D9032001E628688001F5D410E00128CC
:101D40000CD06868626A00F48031914204D1A16AC3
:101D500000F47010884203D00120EEE50120ECE58C
:101D60000020EAE510B5401EB0F1807F01D30120CC
:101D700010BD4FF0E02460610F21601701F027FFD4
:101D80000020A06107202061002010BD704770472F
:101D900010B590F83C20012A22D0012280F83C2086
:101DA000CA6800238C6822F4407222434C6822F4F3
:101DB000806222430C6822F4006222430C6922F400
:101DC000805222434C6922F400522243C96922F412
:101DD00080420A4301684A6480F83C30002010BD0C
:101DE000022010BD70B590F83C20012A28D00126B1
:101DF00080F83C60022280F83D20026853689468B5
:101E000023F070050B682B4353600E4B02689A4217
:101E10000BD0B2F1804F08D00B4B9A4205D00B4B40
:101E20009A4202D00A4B9A4204D124F080034968B6
:101E3000194391603C30467000210170002070BD54
:101E4000022070BD002C014000040040000800404A
:101E5000000C004010B50446002C03D094F83D005F
:101E600010B107E0012010BD002084F83C0020469E
:101E700000F016F8022084F83D00211D206801F0D2
:101E8000D1FB01203D3460726070A070E070207161
:101E90006071A071E07120722070002010BD000000
:101EA00008B50068204A2149904211D1886940F460
:101EB00000608861886900F400600090002211468B
:101EC0001920FFF7DDFBBDE808401920FFF7CABB6A
:101ED000B0F1804F14D0164A904223D1C86940F027
:101EE0000200C861C86900F002000090002211469B
:101EF0001D20FFF7C5FBBDE808401D20FFF7B2BB62
:101F0000C86940F00100C861C86900F00100009094
:101F1000002201211C20FFF7B3FBBDE808401C2074
:101F2000FFF7A0BB08BD0000002C014000100240DC
:101F30000004004090F83D10012901D001207047B5
:101F4000022180F83D100168CA6842F00102CA60AF
:101F500000680F4988420BD0B0F1804F08D00D497E
:101F6000884205D00C49884202D00C49884209D1E8
:101F7000816801F00701062908D0016841F00101DC
:101F8000016003E0016841F0010101600020704739
:101F9000002C01400004004000080040000C0040FC
:101FA00070B50446002594F83C00012817D001269E
:101FB00084F83C60022084F83D002068826822F0AA
:101FC000770222F47F4282600868502838D00DDC06
:101FD000202853D005DC90B3102811D14EE0022008
:101FE00070BD30284AD040280AD13DE0602831D069
:101FF00070280CD0B0F5805F03D0B0F5005F12D030
:1020000001253C34667000202070284670BDCB68E6
:10201000D1E90121206801F04EFB2068816841F080
:1020200077018160EDE7CB68D1E90121206801F0FB
:1020300042FB2068816841F480418160E1E71DE056
:10204000CA684968206801F0FFFB5021206801F050
:102050003CFBD6E7CA684968206801F006FC6021AD
:10206000206801F032FBCCE7CA684968206801F0BB
:10207000EBFB4021206801F028FBC2E72268014603
:10208000104601F022FBBCE7704770B5044620689B
:1020900001694FF00005C943890716D4C168C943D7
:1020A000890712D4E91E0161012020772068806928
:1020B000800703D02046FFF7E7FF05E0204600F049
:1020C000C1F8204600F051F9257720680169C9431D
:1020D000490718D4C168C943490714D46FF00401F3
:1020E0000161022020772068806910F4407F03D0CE
:1020F0002046FFF7C9FF05E0204600F0A3F8204680
:1021000000F033F9257720680169C943090717D41E
:10211000C168C943090713D46FF0080101610420A5
:1021200020772068C069800703D02046FFF7ACFF06
:1021300005E0204600F086F8204600F016F92577E5
:1021400020680169C943C90618D4C168C943C906D2
:1021500014D46FF010010161082020772068C06955
:1021600010F4407F03D02046FFF78EFF05E02046A5
:1021700000F068F8204600F0F8F82577206801693B
:10218000C943C90708D1C168C943C90704D1891E19
:102190000161204600F080F920680169C943090601
:1021A00009D4C168C943090605D46FF080010161F3
:1021B0002046FFF7EBFD20680169C943490609D4B1
:1021C000C168C943490605D46FF04001016120464A
:1021D00000F094F920680169C94389060BD4C168ED
:1021E000C943890607D46FF0200101612046BDE88C
:1021F0007040FFF7CCBD70BD00B585B000210191E6
:1022000002910391049100680B49884212D10B4856
:10221000816941F004018161806900F0040000904F
:102220004FF48060019002200290049001A90448BC
:10223000FFF7B8F805B000BD002C014000100240C7
:1022400000080140704770B504460D46002694F81A
:102250003C0001280FD0012084F83C006AB1042A18
:102260001FD0082A32D00C2A44D00126002084F83E
:102270003C00304670BD022070BD2946206801F048
:102280002DFA2068816941F0080181612068816927
:1022900021F004018161206881692A69114381610B
:1022A000E4E72946206801F049FA2068816941F491
:1022B000006181612068816921F480618161206809
:1022C00081692A6941EA02218161CFE729462068B4
:1022D00001F066FA2068C16941F00801C161206817
:1022E000C16921F00401C1612068C1692A691143F3
:1022F000C161BBE72946206801F082FA2068C16904
:1023000041F40061C1612068C16921F48061C1614B
:102310002068C1692A6941EA0221C161A6E710B5B6
:102320000446002C03D094F83D0010B107E00120D2
:1023300010BD002084F83C00204600F015F8022073
:1023400084F83D00211D206801F06CF901203D3426
:1023500060726070A070E07020716071A071E071B7
:1023600020722070002010BD7047704710B50446E1
:10237000002909D004290AD008290BD094F841007B
:1023800001280AD0012010BD94F83E00F8E794F827
:102390003F00F5E794F84000F2E7022051B304292A
:1023A0002BD008292CD084F841000122206801F0AC
:1023B00075F918492068884203D1426C42F4004202
:1023C0004264206888420BD0B0F1804F08D0124997
:1023D000884205D01149884202D01149884212D161
:1023E000816801F00701062911D0016841F001015F
:1023F00001600CE084F83E00D7E784F83F00D4E7A2
:1024000084F84000D1E7016841F00101016000203B
:1024100010BD0000002C01400004004000080040F6
:10242000000C004030B504460D46002229462068C5
:1024300001F034F9174941F2111320689A108842CB
:1024400009D1016A194206D1016A114203D1416CD6
:1024500021F4004141642068016A194206D1016AF1
:10246000114203D1016821F00101016001203DB159
:10247000042D08D0082D09D084F84100002030BD7B
:1024800084F83E00FAE784F83F00F7E784F840005C
:10249000F4E70000002C014070B505461449286897
:1024A0000026144C884212D100F09EFDA16862689B
:1024B00001EB4100C0EBC11002EBC000E060521C18
:1024C0006260B2F57A7F02D16660491CA16028681B
:1024D000B0F1804F0BD12068401C2060064801F00D
:1024E000E4FD2068642802D9FEF702F8266070BD7A
:1024F00000040040140000200808002070477047C6
:1025000010B5044620684069C0F3C01094F841102B
:10251000212911D180B12068143050E8001F21F02A
:10252000800140E80012002AF5D1A06B08B1FEF747
:1025300049FD204601F049FA20684069C0F3801047
:1025400094F84210222911D180B12068143050E84B
:10255000001F21F0400140E80012002AF5D1E06B95
:1025600008B1FEF72FFD204601F008FA002010BD4B
:10257000704770B50446002C04D094F84100002543
:1025800010B106E0012070BD84F84050204600F0F4
:1025900023F8242084F841002068C16821F4005108
:1025A000C160204601F020FA2068016921F49041C1
:1025B00001612068416921F02A0141612068C168F8
:1025C00041F40051C1606564202084F8410084F822
:1025D00042006563002070BD2DE9F04186B00446DD
:1025E000002502950395049505952B49206888429E
:1025F0004FD12A48C16941F40031C161C16901F478
:1026000000310191816941F004018161806900F02C
:102610000400019004200290022003900320059002
:102620001F4E02A93046FEF7BDFE0820029003951A
:10263000049502A93046FEF7B5FE1B4E19483060DE
:102640007560B5608027F76035617561B5614FF4DD
:102650000058C6F81C803046FEF72AFE08B1FDF788
:10266000E4FFE66374620F480F4E14304436306066
:1026700010207060B560F76035617561B561C6F8AE
:102680001C803046FEF714FE08B1FDF7CEFFA663AE
:10269000746206B0BDE8F0810044004000100240C2
:1026A000000801406C0002402C02002090F84230EB
:1026B000202B01D00220704721B11AB100230363FF
:1026C00001F0EEB9012070477047704740F68C2545
:1026D0000E4C207B1A2803D10A20294601F0B2FBB8
:1026E000207B1B2803D10920294601F0ABFB207B6E
:1026F0001C2803D10820294601F0A4FB207B1D28BB
:10270000E7D10720294601F09DFBE2E7B402002053
:102710002DE9F84F4B482D2249490090FDF7FDFD6A
:102720000025DFF820B1DFF82081ABF12D0BD94671
:1027300009F15C0A1BF80500A52874D10BEB050410
:102740000521204601F018FA01286CD1A0796179A1
:1027500041EA0027A078617841EA0026A7F50070D9
:1027600001381CD1204606F1090101F0E5F9B0B1AC
:1027700014F8070F89F85E00607889F85F006088B8
:10278000A9F86000A088A9F86200E088A9F86400B0
:102790002089A9F866006089E41FA9F86A00A7F5F6
:1027A000007002382AD1204606F1090101F0C4F96F
:1027B00020B334F8070FA9F86C006088A9F86E0000
:1027C0006268C9F870202089A9F87400E089E41FC4
:1027D000A9F8760098F80000401CC0B288F8000004
:1027E000052802D1002088F800001046D8F804100F
:1027F00003F014FFDAF81400C8F80400A7F500701D
:10280000073810D1204606F1090101F095F950B1C1
:10281000607A89F878000B48D4F80A1053300160C8
:1028200001208AF81D0007482D222D380099FDF758
:1028300074FD6D1C2DB22D2DFFF67CAFBDE8F88F19
:10284000880100205908002058000020074B064A44
:102850001A60C0F88C11064800214160082202610C
:102860008160C160017570479D4500082C00002003
:10287000B00600207CB506460C461546002D03D058
:102880000021012D31D000E001210022114327D089
:102890006E3434F81A1C080A8DF800008DF8011007
:1028A000608A000A8DF80200A07C8DF80300E08F9A
:1028B000000A8DF8040094F83E008DF80500B4F885
:1028C0006A00000A8DF8060094F86A008DF8070087
:1028D000D4F81E0133686E3C6A464FF40071984785
:1028E0002DB10021022D2ED002E00122CEE70121E0
:1028F0000020014326D004F5907434F81C1C080A0B
:102900008DF800008DF80110208A000A8DF8020071
:10291000207C8DF80300A08F000A8DF8040094F845
:102920003C008DF80500B4F86800000A8DF8060038
:1029300094F868008DF807003368E06E6A4640F24C
:10294000FF1198477CBD0120D3E7000010B5054C6E
:10295000D0F88C31636000F007F808B1012010BD99
:10296000002010BD2C00002010B5C9B2002904D0F1
:102970000023082902D9012401E001230024234374
:1029800001D0012010BD5378147843EA042301EBF1
:10299000410404EBC10100EB81046380D07891789D
:1029A00040EA0120A0805079117940EA0120E080BE
:1029B00090792072608800F013F82061608800F040
:1029C0001FF8E060B4F9060000F034F803F05AFE96
:1029D000A061A088A082207AE061002010BD0000E4
:1029E00010B503F0A3FE044903F056FDBDE8104006
:1029F000024903F0E3BE000000F8FF450000B443C5
:102A000010B503F093FE084903F046FD03F0A4FC63
:102A1000064A074B03F090F9012204F07EF8BDE866
:102A2000104002F0C1BE000000F8FF451F85EB51C9
:102A3000B81E094010B503F061FE6FF00D0104F0FF
:102A40009AF8BDE81040014903F0B8BE0000A0416B
:102A500010B503F081FC4FF03332034B03F06CF9F7
:102A6000BDE8104002F0A0BE3333D33F0B46828B4B
:102A7000017B806800F090B810B50446204600F055
:102A80000DF8E06C401CE064B4F9240003F036FE5D
:102A9000216903F001FD606310BD00002DE9F041E4
:102AA0000446207BA16800EB400202EBC00002223A
:102AB00002EB80028D5E2584042202EB80028F5E91
:102AC000A784062202EB80000E5EE684304603F007
:102AD000E0F84FF033321D4B03F02EF903F0AAF863
:102AE00080462063304603F009FE6FF00D0104F0CC
:102AF00042F8174903F062FEA064B4F92200281AD4
:102B000010F5805F02DCE16A491CE162B0F5805F8C
:102B100002DBE06A401EE062E06A05EB4030A06242
:102B2000384603F0EBFD2669314603F0B5FC6063DF
:102B3000404603F0E3FD314603F040FE616803F0D8
:102B400045FF60646584BDE8F08100003333D33F06
:102B50000000A0410A7B02738A6882600B690361EE
:102B60004B6843600B68036009681046FFF76EBE50
:102B700070B5044608461546A083FFF75BFFA061C9
:102B8000FFF766FF216903F019FE606129462046C0
:102B9000BDE87040FFF76ABF30B40C4DD0F88C41EF
:102BA0006C6001EB410404EBC10400EB840422855A
:102BB000002B09D10522B1FBF2F1491CCAB2014632
:102BC000284630BCFFF756BE30BC70472C000020B2
:102BD00010B50F480D49016004214160002181605A
:102BE000C1604FF480220261D2004261017601226D
:102BF00042768176C17601774177FDF7E9FF0028BB
:102C000003D0BDE81040FDF710BD10BD00640040CA
:102C10006000002010B50F480D490160042141609B
:102C200000218160C1604FF40032026152014261B3
:102C30000176012242768276C17601774177FDF7EF
:102C4000C7FF002803D0BDE81040FDF7EEBC10BD63
:102C5000006800408800002008B50D48416941F037
:102C600001014161406900F001000090002211461D
:102C70001020FEF705FD1020FEF7F4FC002211469F
:102C80001120FEF7FDFCBDE808401120FEF7EABC6C
:102C90000010024010B586B000200290039004900E
:102CA00005901648816941F020018161816901F038
:102CB00020010191816941F004018161816901F084
:102CC00004010191816941F008018161806900F08E
:102CD000080001900A4C002203212046FEF75AFC0E
:102CE000032102910121039102210491059102A97E
:102CF0002046FEF757FB06B010BD00000010024052
:102D0000000C014010B596B0002412941394149452
:102D10001594109411941C2109A8FDF775FB20212E
:102D200001A8FDF771FB2948274901602421416072
:102D3000846040F2E731C1600461446180218161B7
:102D4000FFF788F808B1FDF770FC4FF4805012903F
:102D500012A91E48FFF724F908B1FDF766FC1B48CD
:102D6000FFF7DDFA08B1FDF760FC1094119410A98B
:102D70001648FFF737F808B1FDF757FC60200990B7
:102D80000A940B940C940D940E940F94082209A9A4
:102D90000E48FFF758FA08B1FDF747FC019402947A
:102DA0000394049405944FF400500690089401A9EC
:102DB0000648FEF7EDFF08B1FDF737FC0348FFF7C3
:102DC0001BFA16B010BD0000002C0140B00000201E
:102DD00010B586B0002402940394049405940094E2
:102DE000019413484FF080410160472141608460A5
:102DF00040F2E731C16004618461FFF72BF808B14C
:102E0000FDF713FC4FF48050029002A90848FFF729
:102E1000C7F808B1FDF709FC00940194694604481D
:102E2000FEF7E0FF002801D0FDF7FFFB06B010BD64
:102E3000F800002010B586B0002402940394049496
:102E4000059400940194144812490160482141609E
:102E500084604FF47A71C16004618461FEF7FAFF07
:102E600008B1FDF7E2FB4FF48050029002A90A4836
:102E7000FFF796F808B1FDF7D8FB00940194694676
:102E80000548FEF7AFFF002801D0FDF7CEFB06B0E6
:102E900010BD0000000400404001002010B5114C9E
:102EA0000F4820604FF4E13060600020A060E060D7
:102EB00020610C216161A061E0612046FFF759FBB0
:102EC00008B1FDF7B2FB2068C16841F01001C16094
:102ED00004495A22BDE810405C390248FFF7E6BBBE
:102EE00000440040E4010020FEE7FEE770B5044620
:102EF000B4F92250002D16D0A06A081A454394F860
:102F000026000541A162204600F01CF82844B4F9CF
:102F10001410814201DA084608E0B4F91610814223
:102F200004DD084602E0204600F00CF800B270BD57
:102F3000018881804188C180018C418400218160A9
:102F40008162704770B5B0F91440B0F91650B0F90D
:102F500004604E43B0F90630002B0BD04B4382681F
:102F6000D118002909DA002A0CDD002B0ADD6FF0E8
:102F7000004107E0002181600FE0002A02DA002B07
:102F800000DA0D49C2688A4201DA826005E002690E
:102F90008A4201DD826000E08160827F8168007F7B
:102FA000114106418A19A24201DD224602E0AA42ED
:102FB00000DA2A4610B270BD0100008070470000A0
:102FC00008B507494FF4FA520968B1FBF2F14143E1
:102FD000009100BF0098411E0091FAD208BD000088
:102FE000100000207047000010B50F48807B0028BB
:102FF0000AD00D4800F0BEF80B4800F0B6FABDE864
:103000001040094800F098B8084C0022114620688A
:10301000B030FFF7ADFD20680022BDE8104011463A
:1030200000F50670FFF7A4BDB402002024000020C4
:1030300010B500F0E7FE034800F0A6F8BDE8104028
:1030400002F088BAB40200202DE9F0410746B7F536
:10305000000F02DA0020BDE8F0814FF0FF31384662
:1030600003F089FD05461349384603F0A7FB0646E1
:1030700086F000442946284603F0A0FB394603F0B9
:10308000A5FC80460121284603F075FD0146404617
:1030900003F002FA294603F08EFC0546314640460D
:1030A00003F058FCE6D32046414603F053FCE1D33D
:1030B0002846D0E76F12833A0021064A52F8313091
:1030C000834201D100207047491C0429F6DB03200C
:1030D00070470000E006002010B5C0210248FDF74F
:1030E00093F9002010BD0000180700200021074AB6
:1030F00002EBC1031B79834202D152F831007047C1
:10310000491C0429F4DB002070470000E006002081
:103110000021084A52F8313023B1491C0429F9DB57
:103120000120704742F8310002EBC101007B0871B9
:1031300000207047E006002010B504462046FFF747
:10314000BBFF08B1032010BDD4F8C40003F09AFA05
:1031500001B2002204F1B000FFF70AFDD4F82C02FE
:1031600003F090FA01B2002204F50670FFF700FDAB
:10317000002010BD10B50246104600F0C5F91046FB
:1031800000F0C0F8002010BD2DE9F0418EB00446DB
:1031900020212948FDF738F9204600F059F94FF071
:1031A00082400D90254F0B9701258DF83050002659
:1031B0000A96DFF88C80CDF8248009A904F1B000CC
:1031C000FFF7C8FC1F480890069702208DF81C00E6
:1031D0000596CDF8108004A904F50670FFF7BAFC37
:1031E00041F2D750208004F5A870074600F074FD26
:1031F0008DF804508DF805608DF808600D20009062
:103200006946384600F0A5FDA802C4F80401042070
:1032100084F808018002C4F80C011D202073657336
:10322000A5732046FFF774FF18B101200EB0BDE86A
:10323000F0810020FAE70000E006002020050020D1
:10324000600000200000604110B50446F834A06F13
:10325000A064174909682165626D891AE26F801AB6
:10326000B0FBF1F054F8140C03F00CFA6064F83C75
:1032700004F5A87000F078FD9C34D4F8AC00C4F8D4
:10328000B000A06C03F0FEF92060A06D03F0FAF925
:10329000A060D4F8B40104F5B4746060A06C03F0CD
:1032A000F1F92060A06D03F0EDF9A060002010BDE1
:1032B00020000020D0F84021D0F80C11B2FBF1F32F
:1032C00001FB1322C0F8182190F81031002B02D115
:1032D0008A1AC0F8182100F5C87050F8782CC2EB93
:1032E0004232B2FBF1F140F8781C50F8541C40F81F
:1032F0007C1C816F0165416FC164C16F4165002015
:10330000704700002DE9F04704462046FFF7D4FE41
:1033100010B10320BDE8F087B4F9800194F90D10D5
:103320004843B4F98211411A04F5D870FFF7DEFD65
:10333000C4F8F801207C41F6FF7638B1B4F91400E6
:10334000B4F91810411AE07B80B35AE094F90D509B
:10335000681E03F0D3F94FF0FF37394603F00BFC3A
:10336000DFF8DC80414603F029FA8246B4F9140004
:10337000B4F91810401A03F0C1F98146514603F020
:1033800025FB03F07FF9002801DB014601E0C0F1D5
:103390000001A6EB010201DB014601E0C0F10001E2
:1033A0008A4204DD002806DA404204E01DE00028DD
:1033B00000DA4042301A03F0A1F92249884201DDC7
:1033C0006842607394F90D00401E03F097F9394686
:1033D00003F0D1FB414603F0F1F90146484603F002
:1033E000F5FA03F04FF90146ADE7701A884203DAA7
:1033F000A1F5F851FF3904E088194242914200DA00
:10340000014611480288521A428004F11C00FFF75D
:103410006DFDE082B4F91A10411A04F14800FFF77B
:1034200065FD44F8900F00F07BFF0848006800F04D
:1034300081FE206803F062F9606300206AE7000003
:1034400000F07F4500F0FF4440000020D807002036
:1034500070B5044604F11C0058210546FCF7D4FF62
:10346000582104F5C270FCF7CFFF0A20283424F855
:103470000C0C062020820220A082002161834FF4E0
:10348000FA6222814FF6300262814FF4C8722284C0
:103490000122A28732226284E08741F65832A28656
:1034A0004EF2A842E28641F28832E2625242226340
:1034B0004FF4AF72A4F88821A4F8A4016422A4F800
:1034C0008A21A4F8A601A4F8A801A4F8AE114FF42B
:1034D0007A50A4F89C014CF28010A4F89E014FF49D
:1034E0007A70C4F894014042C4F89801283C2846F8
:1034F000FFF71EFD04F14800FFF71AFD04F5D87030
:10350000BDE87040FFF714BD018881824188A0F8B2
:10351000801100207047B0F818110183B0F8141121
:103520004183B0F8DC11A0F8821100207047002917
:1035300002D0012905D102E00021C17301E001217F
:10354000C17300207047002902D0012905D102E093
:103550000021017401E00121017400207047018005
:103560000020704741800020704710B50446204677
:10357000FFF7A2FD08B1032010BD2046FFF764FE4F
:103580002046FFF797FE2046FFF7C5FF002010BD3D
:10359000FEF70EB870B594B0382106A8FCF734FFDA
:1035A000142101A8FCF730FF012506952804089096
:1035B000002409940B95079402260E960F904FF461
:1035C000E0101090119406A8FEF7A2F908B1FDF7DB
:1035D0002CF80F200190029603944FF48060049021
:1035E0000594022101A8FEF77DF808B1FDF71DF84A
:1035F0000148056714B070BD0000424270470000EA
:103600000148FEF742BD0000B00000200148FEF76F
:103610003CBD0000F80000200148FEF736BD000068
:1036200040010020F0B50268184C194D194E1A4F90
:103630004FF0804CA04207D0604505D0A84203D08F
:10364000B04201D0B84203D122F070034A681A4355
:10365000A04207D0604505D0A84203D0B04201D0B7
:10366000B84203D122F44073CA681A434B6922F06E
:1036700080021A4302608A68C2620A688262A042BB
:1036800001D10969016301214161F0BD002C0140B4
:103690000004004000080040000C004010B501F09C
:1036A0001F0101238B40046A9C430462036A8A4021
:1036B0001343036210BD10B5846824F47F4442EACA
:1036C00003220A432243826010BD826822F0700206
:1036D0000A4342F0070181607047000030B5026A7A
:1036E000036A23F0010303624368846924F07004D1
:1036F00024F003050C682C4322F002058A682A4353
:103700000D4DA84206D122F00802CD6845EA020517
:1037100025F0040209D123F4807323F400734D696A
:1037200045EA03058B6943EA050343608461496800
:103730004163026230BD0000002C014030B5036AD5
:10374000026A22F0100202624268846924F4E044B2
:1037500024F440740D6844EA052423F020038D68A6
:1037600043EA05130D4DA84206D123F08003CD682E
:1037700043EA051323F0400309D122F4806222F4C6
:1037800000624D6942EA85028D6942EA8502426023
:10379000846149688163036230BD0000002C0140F0
:1037A00030B5026A036A23F4807303624368C46914
:1037B00024F0700424F003050C682C4322F40072FA
:1037C0008D6842EA05220D4DA84206D122F400621E
:1037D000CD6842EA052222F4806209D123F48053A5
:1037E00023F400534D6943EA05138D6943EA051339
:1037F0004360C4614968C163026230BD002C01406E
:1038000030B5036A026A22F4805202624268C469D7
:1038100024F4E04424F440740D6844EA052423F4BD
:1038200000538D6843EA0533064DA84204D122F4C3
:1038300080424D6942EA85124260C4614968016470
:10384000036230BD002C014010B5036A046A24F005
:1038500001040462846924F0F00444EA021423F0B1
:103860000A020A438461026210BD10B5036A046A49
:1038700024F010040462846924F4704444EA02329F
:1038800023F0A00343EA01118261016210BD70B50B
:10389000446A20684069C0F3C01094F841100025C4
:1038A000212904D118B1E584204600F08EF8206863
:1038B0004069C0F3801094F84210222904D118B155
:1038C000E585204600F05AF8606C40F01000606416
:1038D0002046FEF74DFE70BD10B50146486A0968E6
:1038E00009684FF0000389062ED4C38501680C31A6
:1038F00051E8002F22F4807241E80024002CF5D119
:103900000168143151E8002F22F0010241E800243F
:10391000002CF5D10168143151E8002F22F040024B
:1039200041E80024002CF5D1202180F84210016BE1
:10393000012909D101680C3151E8002F22F0100251
:1039400041E80024002CF5D14363016B012902D02A
:10395000FEF7BAFE10BD818DFEF7D1FD10BD10B58A
:10396000406A01214163016B012902D0FEF7ADFEDF
:1039700010BD818D4908FEF7C2FD10BD01680C31F4
:1039800051E8002F22F4907241E80023002BF5D17A
:103990000168143151E8002F22F0010241E80023B0
:1039A000002BF5D1016B012909D101680C3151E8D7
:1039B000002F22F0100241E80023002BF5D1202136
:1039C00080F8421000210163704701680C3151E812
:1039D000002F22F0C00241E80023002BF5D1202166
:1039E00080F841107047000070B5044620680169F6
:1039F000E26821F4405111430161A168206901434B
:103A0000606901432068C26841F20C639A430A432B
:103A1000C26020684169A26921F44071114341618B
:103A20001E492068884202D1FDF71CFF01E0FDF726
:103A300009FF00EBC00101EB0010616864228900FE
:103A4000B0FBF1F3B3FBF2F36FF018067343B0FB76
:103A5000F1F5B0FBF1F605EB8305322303EB051519
:103A6000B5FBF2F5B6FBF2F605F0F00505EB061531
:103A7000B0FBF1F6B0FBF1F0B0FBF2F06FF0180123
:103A8000484306EB800003EB0010B0FBF2F0216826
:103A900000F00F002844886070BD0000003801402D
:103AA00037B582B004461346039AA262A38500206C
:103AB0006064222184F84210E56B1B49A962E56B22
:103AC0001A49E962E56B1A492963E16B4863216889
:103AD000E06B091DFDF72CFC20680168406801902F
:103AE000206948B120680C3050E8001F41F4807113
:103AF00040E80012002AF5D12068143050E8001F79
:103B000041F0010140E80012002AF5D1206814308C
:103B100050E8001F41F0400140E80012002AF5D1B2
:103B200005B0002030BD0000D93800085F3900081A
:103B30008F380008FEE7000030B505460C46002D22
:103B400001D0022C01D8002030BD0A48A11E0288F5
:103B50002846FCF76DFD2919C2B211F8023C9A42C1
:103B600006D111F8011CB1EB102F01D1012030BD9D
:103B7000002030BD5400002030B505460C46002D15
:103B800001D0022C01D8002030BDFF22611E284642
:103B9000FCF766FD291911F8011C814201D10120B1
:103BA00030BD002030BD490050EAC12018BF0420BC
:103BB0004A0D18BF40F0010040F2FF72B2EB515FB6
:103BC00008BF40F00200012808BF05207047090720
:103BD000090E002804DB00F1E02080F80014704793
:103BE00000F00F0000F1E02080F8141D70472DE96F
:103BF000F0414F1E00EBC7010446D1E90001154614
:103C00001E4637F006020DD02A46334602F094F8DD
:103C10007F1E04EBC703D3E9002301F0F7FD37F063
:103C20000602F1D1022F25D0042F13D0062F18BF82
:103C3000BDE8F0812A46334602F07EF8D4E90A2333
:103C400001F0E4FD2A46334602F076F8D4E9082371
:103C500001F0DCFD2A46334602F06EF8D4E9062373
:103C600001F0D4FD2A46334602F066F8D4E9042375
:103C700001F0CCFD2A46334602F05EF8D4E9022377
:103C800001F0C4FD2A46334602F056F8D4E9002379
:103C9000BDE8F04101F0BABD0022134610460149CB
:103CA00001F070BE0000F03F01F0B0BD00221346ED
:103CB0001046114601F066BE40F2013200204FF07E
:103CC000E04102F02ABF0000024A0020110702F082
:103CD00024BF000001FDFFFF074A064911600749A4
:103CE000C160074800214160082202618160C16013
:103CF00001757047B14500083800002060000020C1
:103D0000C80600201CB50246D1E90403CDE9000332
:103D10000888146883B2C8686A461946A0471CBD63
:103D2000826A521C8262AFF300800A68826149682D
:103D3000C161817E012903D0C07E40B1012070475E
:103D4000016A4162D0F81B10016200207047002018
:103D500070470A7902714A7942710A7A02720968D7
:103D6000016000207047000082B00A4AC1685160BB
:103D70000421017401784174012181740099C0F813
:103D800013109DF80410C1750146104602B0FFF7EC
:103D9000B9BF000038000020401A904201D2002034
:103DA00070470120704730B40A46D0E903310468F7
:103DB0001846A44630BC604730B40A46D0E9033107
:103DC00044681846A44630BC6047083000F0AFB9DC
:103DD0000FB410B504461C2203A92046FCF7E2FAF2
:103DE00040206077044820610448E0600448A060F7
:103DF00010BC5DF814FB0000314500083D4500088B
:103E00008145000810B58CB00B480A9008220B4978
:103E10000068836AADF81830C06AADF81A0008A8C7
:103E200019C88DE819000392DDE906230448FFF75D
:103E3000CFFF0CB010BD0000B000002000512502E3
:103E400008080020024A136898621068C16370472E
:103E5000B000002038B5044669462046FFF7B5FF9C
:103E6000206A00990D1A142229460020FFF794FFBA
:103E7000C0B1142229464FF4C870FFF78DFFB0B1CE
:103E8000142229464FF46170FFF786FFA0B1142277
:103E9000294640F21450FFF77FFF002801D140204F
:103EA000607738BD0321204600F0BCF838BD0821FA
:103EB000204600F0B7F838BD0121204600F0E4F8B4
:103EC00038BD38B5044669462046FFF77EFF206AB4
:103ED00000990D1A142229460020FFF75DFFC0B19A
:103EE000142229464FF49670FFF756FFB0B1142202
:103EF00029464FF42F70FFF74FFFA0B11422294637
:103F00004FF47A70FFF748FF002801D14020607716
:103F100038BD0321204600F085F838BD0821204631
:103F200000F080F838BD0121204600F0ADF838BD22
:103F300038B5044669462046FFF747FF206A0099D6
:103F40000D1A142229460020FFF726FFC0B11422C3
:103F500029464FF49670FFF71FFFB0B1142229468F
:103F60004FF41670FFF718FFA0B1142229464FF442
:103F70007A70FFF711FF002801D14020607738BD2B
:103F80000721204600F04EF838BD0421204600F0FD
:103F900049F838BD0121204600F076F838BD38B523
:103FA000044669462046FFF710FF206A00990D1A63
:103FB000142229460020FFF7EFFEF8B1142229460B
:103FC0004FF49670FFF7E8FEE8B1142229464FF44B
:103FD000FA70FFF7E1FED8B1142229464FF4617060
:103FE000FFF7DAFEC8B11422294640F21450FFF759
:103FF000D3FE002801D14020607738BD0321204640
:1040000000F010F838BD0521204600F00BF838BD4F
:104010000A21204600F006F838BD0121204600F0B4
:1040200033F838BD70B50446084600F10B01182975
:1040300001D3022070BD01F02CFE02460B460F4852
:104040000F4900F0D5FA00220E4B01F075FE01F089
:10405000ABFB0546A1882068B0FBF1F002F066FBDF
:10406000294602F019FA02F029FB81B2E18004F13D
:104070000800BDE87040FFF79FBE00006379D99249
:104080008FF3F03F00807B40002903D0012901D04D
:10409000022070470830FFF786BE427F8A4202D96D
:1040A0004177002070470120704770B50446607F5B
:1040B000A17F88420AD0402808D000212046FFF77F
:1040C000E3FF04F120012046FFF77FFE627F052A0F
:1040D00020D005DC6AB1012A17D0022A04D122E0DF
:1040E000062A1CD0402A0AD00125607FA077E8B2BA
:1040F00070BD01212046FFF7C7FF0546F5E7012106
:104100002046FFF7C1FF0546EFE72046FFF747FFD0
:104110000546EAE72046FFF7D4FE0546E5E72046D8
:10412000FFF798FEE1E72046FFF702FFDDE7826830
:10413000084610472DE9F14F82B0554CB4F93C6266
:10414000304601F0A6FD534A534B01F0F5FD01F056
:104150002BFB0546DFF84481DFF844A13046D4F854
:10416000F87101F096FD8B4681464E4A4E4B01F0A8
:10417000E3FD4A465B4601F0DFFD064601910298E9
:1041800002F0EAF80B4602463046019901F0FAFFC8
:104190000022464B01F03AFB01F006FB02F0DCF88E
:1041A0004246534601F0C8FD8A460646394A3A4B14
:1041B0004846594601F0C0FD01F0F6FA014602F00A
:1041C000FDFA02F0C9F83246534601F0DBFF002F3A
:1041D0002EDD464601F0E8FAFEF736FF294602F0EA
:1041E000F5FB02F0B9F83246314B01F0CBFB01F0A0
:1041F000DBFA0546D4F8F80102F080FA294602F00D
:10420000A9FA07D8D4F8F80102F078FAC4F82C0219
:10421000BDE8FE8F2748854202DDC4F82C02F7E78F
:10422000284602F02FFA02F069FAC4F82C02EFE7F0
:10423000464601F0B9FAFEF707FF014685F0004057
:1042400002F0C4FB02F088F83246194B01F09AFBE9
:1042500001F0AAFA0546D4F8F80102F04FFA29460F
:1042600002F078FB06D8D4F8F80102F047FAC4F857
:104270002C02CDE71048854202D9C4F82C02C7E7CA
:10428000284602F0FFF902F039FAC4F82C02BFE721
:10429000B40200209C78ADDA49C0C03E335215719B
:1042A0003F82A03EFCAFED507880833E0000F03F9F
:1042B0003F82903E00007A4600007AC630B5039CEB
:1042C0000025056045608560C560E5071CD05D0977
:1042D00045EA42120260C90041EAC3214160610718
:1042E00002D54FF4FF61C160610606D540F2FF714F
:1042F0008160C16841F47841C160E10603D58168FD
:1043000041F47841816030BDA207FCD549010160CC
:1043100041606107F7D54FF6E0718160C16030BD43
:104320002DE9F05F3148D0F8F80101F0B2FC044605
:104330000D462F4A2F4B01F0FFFC22462B4601F081
:10434000FBFC064629480F46B0F9800101F0A1FCAC
:1043500004460D46284A294B01F0EEFC0022284B6A
:1043600001F0EAFC22462B4601F0E6FC0022244B39
:1043700001F0E2FC80461D488946B0F93C0200F09D
:1043800023FE01F086FC824618488B46B0F9800176
:1043900001F07FFC0446154821F00045D0F8F801F3
:1043A00001F077FC174A184B01F0C6FC22462B4659
:1043B00001F0C2FC0022124B01F0BEFC52465B46EB
:1043C00001F0BAFC42464B4601F020FA32463B4629
:1043D00001F01CFA00220D4B01F018FA01F0E4F98B
:1043E0000B4908628861BDE8F09F0000B40200201C
:1043F000FCAFED507880833E335215713F82803E92
:1044000000002C409C78ADDA49C0C03E0000F03F6F
:10441000D8070020FDF7D4F8FFF7BCF8FEF73AFC08
:10442000FEF71AFCFEF7D4FBFEF7F4FBFEF702FDE5
:10443000FEF768FCFEF732FDFEF7CAFC00F030F82C
:104440001248FCF78CFD1248FCF789FD02210F4849
:10445000FCF714F902210E48FCF710F910210B4863
:10446000FCF70CF910210A48FCF708F9FEF7E0FD0B
:104470000848FDF75FFD0848FDF75CFD0748FDF7BC
:1044800059FD08210348FDF771FFFEE76000002099
:1044900088000020B0000020F8000020400100202B
:1044A00070B5A0B001241E9400251B951C951D9489
:1044B0001A95062600231A4640F2012116A80096F6
:1044C000FFF7FCFE00231A4640F2022116A80096D0
:1044D000FFF7F4FE16A91448FCF754F914940720CA
:1044E000119012951394109400231A460D210CA8D4
:1044F0000096FFF7E3FE0CA90B48FCF743F90A947A
:104500000895099406950F20079005200023009038
:104510001A461D2102A8FFF7D1FE02A90348FCF7A5
:1045200031F920B070BD000060000020880000203C
:1045300010B50446FDF736F8206010BD0368DA6256
:10454000032300290AD004290ED0082912D0B2FB77
:10455000F3F1006849000164C8B27047B2FBF3F19F
:10456000006849004163F7E7B2FBF3F100684900D6
:104570008163F1E7B2FBF3F100684900C163EBE747
:1045800010B5002A03D0012A04D0022010BDFDF787
:10459000EDFE01E0FDF746FFC0B210BD024B196011
:1045A000024B0149FCF77CB8B0060020280000202F
:1045B000024B1960024B0149FCF772B8C806002093
:1045C0003400002070B50446154607484160204677
:1045D000FCF7EAF90028FAD02A462046BDE87040E8
:1045E000024B0149FCF75CB800070020480000209E
:1045F0002DE9F04D1D460C4698B0174621F00041BC
:1046000023F00043002814BF4FF0010C4FF0000CC2
:104610000CEB440CFE4A0CEB02064FEA620C6645BA
:104620002BD33E0018BF012606EB45061644F94A77
:10463000964222D3F84A53EA070C02D0944205D19D
:1046400048B918B000201146BDE8F08D002808BF19
:104650004FF0000C01D04FF0010C0CEB440212F5AE
:10466000001F0AD8002F14BF4FF0010C4FF0000CB0
:104670000CEB450212F5001F07D918B03A462B463D
:104680002146BDE8F04DFFF70FBB0022DFF88CA3F9
:10469000002CB8BF534526DADFF884C36345A8BFB2
:1046A000022220DADFF870C39C451CDCDFF874C3FB
:1046B0000CEB235CBCF1140F08DDCCF1340627FAB7
:1046C00006FC0CFA06F6BE420DD108E05FB9CCF14B
:1046D000140623FA06FC0CFA06F69E4203D10CF0EF
:1046E0000102C2F1020251EA000C19D1002D17DAC1
:1046F000002C18BF022A01D0012A07D00220FBF7A4
:10470000B2FE18B0BDE8F04DFFF7C6BA0220FBF7C5
:10471000AAFEFFF7C1FA18B081F00041BDE8F08DA4
:10472000B7F1000C6CD1534525D104F1804212F54C
:10473000801201BF00280020B74918B008BFBDE8AB
:10474000F08DB548884207DC002DA1BF60462946A0
:1047500018B0BDE8F08D07E0281E05DA80F00041B2
:1047600018B06046BDE8F08DAF497944D1E9000149
:1047700018B0BDE8F08DDFF8A0C2634525D1002D4B
:104780001FDA19B1514512D1D8B909E0002840F01B
:10479000EC82A24A214618B062F31E01BDE8F08DFA
:1047A0000020214618B060F31E01BDE8F08D08DA44
:1047B00018B02346BDE8F04D02460020614601F0E6
:1047C000E1B818B02146BDE8F08D514518DAB5F1D1
:1047D000804F0DD0A5F1005CBCF1FF5C10D1B4F1AD
:1047E000000C0DDB18B06146BDE8F04D00F0F8BBE1
:1047F000234618B00246BDE8F04D194601F09CBAB8
:10480000060024F0004C3BD1D9B1514533D1002CE6
:1048100006DD002DA1BF0020514618B0BDE8F08D87
:10482000002C01DD002D1BDB002C13DA002D11DB29
:10483000012A4FF0000014BF78497C4918B0BDE848
:10484000F08D022A18BF002C0AD0012A08D1002CB2
:1048500006DA0AE0002CB8BF002D11DA012A04D0D4
:10486000002018B00146BDE8F08D18B000204FF0D0
:104870000041BDE8F08DA1F14050B0F17F601AD049
:10488000012000EBE47050EA020421D0624C521E79
:104890004FF0000B104304BF4FF0000B644C654811
:1048A00083427CDD644A654893421FDD884217DB02
:1048B000002D25DB37E0002C00DA4AB1022A0CBFBC
:1048C00001204FF0FF3018B0BDE8F04D01F0E1B924
:1048D0000120FBF7C8FD18B0BDE8F04DFFF7E6B9C1
:1048E0004D4A8A4202DC002D0ADC1CE0814202DAD9
:1048F000002D18DA04E0484B994220DD002D12DD2E
:104900000220FBF7B0FDFFF7D7F905460E4600225F
:1049100053465846214601F00FFA18B066F31E01BF
:104920002846BDE8F08D0220FBF79DFDFFF7CCF98E
:104930000A46214618B062F31E01BDE8F08D002240
:104940003046614601F01EFC80460E466FF00102C3
:1049500002F0E3F84FF05532394B01F021FB4246AB
:10496000334601F0E9F90022364B01F019FB82468B
:104970004246334604911046194601F0DDF952468D
:10498000049B01F0D9F98A4600904FF0C0422E4BAB
:104990004046314601F0D0F92C4A2B4B00E027E08D
:1049A000CDE906015146009801F0C6F98246019111
:1049B000274A284B4046314601F0BEF95246019B3A
:1049C00001F0E0FB82460B4602460591DDE9060157
:1049D00000F01CFFDDE9062300268846304601F082
:1049E000D1FB5246059B01F0DBFA024600F07EB98E
:1049F0000020B1F5801F07DA35223046614602F00B
:104A00008CF806466FF0340000EB215024E00000E3
:104A1000FFFF1F00FFFF0F000000F03F0000F07FCE
:104A20000000404301FCFFFF422800000000F0FFAF
:104A30000000F0BF0000E0410000F043FFFFEF3F47
:104A40005555D53F0000E03F4715F73FFE822B65E7
:104A500044DF5DF80BAE543EA0F2FF300190C1F38D
:104A6000130040F07F6141F040510291FE498842BD
:104A7000D8BF002004DDFD498142C8BF012001DD0F
:104A80000D9008E000200D900198401C01900298C4
:104A9000A0F5801002900299F54878440B910D9989
:104AA00000EBC100D0E900230F9330460A920B9926
:104AB00001F068FBCDE90601DDE90A2130460F9BD4
:104AC00000F0A4FE02460B460020EA4900F05AFF1F
:104AD000059102460B460090DDE9060101F02CF934
:104AE0001490E5488A464FF000087844029900681F
:104AF00012904FF0005040EA61010D980F9B01EBBE
:104B0000804000F5002109910A9A129801F03AFBC1
:104B100032460B9B01F044FA4246534601F00CF931
:104B20000646029140465146099B129A01F004F94B
:104B3000DDE9062301F034FA3246029B01F022FB44
:104B4000059B009A01F0F8F80091149A04905346DE
:104B50001046194601F0F0F806460246C7480B46D3
:104B6000029106217844FFF742F8CDE90510029B37
:104B700032461046194601F0DFF8DDE9053201F052
:104B8000DBF805910646534640461946149A00F054
:104B90003DFE009B049A01F0CFF83246059B00F0E1
:104BA00035FECDE90510424653461046194601F040
:104BB000C3F80022B24B02910A9000F027FEDDE913
:104BC000053200F023FE0E464246AD4B404601F052
:104BD000D9FA029B0A9A01F0D5FADDE9053201F013
:104BE000DFF9424602910A9033461046514601F0E1
:104BF000A3F8CDE906015346149A02990A9801F0E8
:104C00009BF88A460290334642460099049801F088
:104C100093F85346029A00F0F9FD82460B4602468D
:104C20000591DDE9060100F0F1FDDDE90623002034
:104C30008846064601F0A6FA5246059B01F0B0F9F7
:104C4000824609914FF060428E4B3046414601F05A
:104C500073F8049006918C4A8A4B5046099901F0EA
:104C60006BF882460291894A894B3046414601F0F1
:104C700063F85246029B00F0C9FD864B7B440D9AB7
:104C800003EBC203D3E9002300F0C0FD0E900791AF
:104C9000019800F0FEFF0591DDE9061382460E9AA9
:104CA000049800F0B3FD7C4A7A440D9B02EBC303E9
:104CB000D3E900230093029200F0A8FD5246059B21
:104CC00000F0A4FD0026884652463046059B01F0C0
:104CD00059FA009B029A01F055FA069B049A01F0DA
:104CE00051FA079B0E9A01F05BF9024600200B4631
:104CF00002903846294601F01FF8824601912B4662
:104D000038461946029A01F03DFA3246434601F010
:104D100013F85246019B00F079FD07468A46324659
:104D200043462946029801F007F805460E463A46E2
:104D3000534600F06BFD594A8846914221DBA8EBAF
:104D4000020353EA000210D12A46334601F01AFA50
:104D5000CDE90401524A534B3846514600F056FD06
:104D6000DDE9042301F0E6F821D20220FBF77BFB0A
:104D7000FEF7A2FF0A46214618B062F31E01BDE805
:104D8000F08D494B28F000429A4210D3474A08EB75
:104D9000020353EA00027FF4C6AD2A46334601F00F
:104DA000F1F93A46534601F0C5F87FF6BCAD002252
:104DB000019228F000403E493E4A01EB20518242D8
:104DC00023DA481C4FF4801121FA00F040443A4A9B
:104DD000C0F30A517A44394BA1F2FF31CB4020EAAB
:104DE0000303C0F3130040F48010C1F11401C84064
:104DF00012680190B8F1000FBCBF404201902846F4
:104E0000314601F0BFF905460E462A46334638467C
:104E1000514600F0FBFC4FF000084246284B40464C
:104E2000059100F089FFCDE90601264A264B404650
:104E3000059900F081FF009102902A4633464046D2
:104E4000059901F09FF93A46534601F0A9F81F4A27
:104E50001F4B00F071FF009B029A00F0D7FC074641
:104E6000884602460B4635E08E9803007AB60B0062
:104E70008A2400000000F03FC2240000F02300005C
:104E80000000084009C7EE3FFD033ADCF5015B1462
:104E9000E02F3EBEC82200008C220000000090409F
:104EA000FE822B654715973C00CC904000346F3F45
:104EB00001FCFFFF0000E03FD8210000FFFF0F00D2
:104EC000432EE63F396CA80C615C20BEEF39FAFE38
:104ED000422EE63FDDE9060100F098FCDDE90623FD
:104EE00005460E4601F04EF93A46434601F058F8A1
:104EF0000F462A46334600901046194600F01CFF24
:104F0000824602462E4888460B4605217844FEF725
:104F10006EFE5246434600F00FFF2A46334601F02C
:104F20003FF880468A463B4628463146009A00F0C4
:104F300003FF3B46009A00F069FC069100900022B6
:104F40004FF080434046514601F01CF90F460C904B
:104F5000424653462846314600F0EEFE3B460C9A48
:104F600000F010FD069B009A01F00CF92A4633462A
:104F700001F008F90022134B01F012F805460198E0
:104F80000E4601EB00510815002810DC284631467A
:104F9000019A01F0C2FDFEF706FE042808BFFEF7E5
:104FA00093FE28463146019A01F0B7FD05460B46AF
:104FB00018B02A4658462146BDE8F04D00F0BCBE68
:104FC000782000000000F03F002802DD4FF00100D3
:104FD000704702D14FF0000070474FF0FF3070472C
:104FE0002DE9F04106460F4600F0E6FF041E0D468F
:104FF00018BF0120284320F00040C0F17F6000F17D
:10500000E040C00F0ED0301C18BF0120384320F004
:105010000040C0F17F6000F1E040C00F04BF0120FC
:10502000FBF721FA20462946BDE8F0810FB42DE9AF
:10503000F04188B0074688469DF842109DF84340ED
:10504000DDF845000690DDF849000790002504953D
:1050500005958DF81010BDF81800ADF81400BDF8D6
:105060001A00ADF81200404600F060FA0290059870
:1050700000902A461748049B029900F023FA06463E
:10508000049505958DF81040BDF81C00ADF814008E
:10509000BDF81E00ADF812002146404600F046FA69
:1050A0000290059800902A460A48049B029900F055
:1050B00009FA46EA0020ADF842001F208DF84400AE
:1050C0000E2210A93846FBF728F908B0BDE8F00118
:1050D0005DF814FB180700200FB410B51F218DF8E0
:1050E00014100A4A08E001EB410404AB02EBC404CB
:1050F0000B44247A5C71491C0829F4DB0E2204A9B4
:10510000FBF70BF910BC5DF814FB0000180700203A
:105110000FB470B505461F208DF81C00BDF81A00AD
:10512000002813D0002406A82044417919B1417900
:10513000144800F0B0F9641C082CF4DB0E2206A918
:105140002846FBF7EAF870BC5DF814FB08240D4E06
:10515000BDF81A10C4F1080080F00202114206D016
:1051600000EB400006EBC0001821FBF74DF9641E70
:10517000E4B2002CECD10E2206A92846FBF7CDF8AC
:10518000E1E70000180700200FB430B58DB00546E8
:105190000C469DF84A200A929DF84B100B91012A6B
:1051A00006D0022A12D0032A1ED0042A39D12AE0BE
:1051B00007911C2204F12C016846FBF7F3F81C341C
:1051C0000FCC00F040F8CDE908012AE007911C223D
:1051D00004F158016846FBF7E5F848340FCC00F0BD
:1051E00032F8CDE908011CE007911C2204F5CA71D0
:1051F0006846FBF7D7F804F5C2740FCC00F023F82B
:10520000CDE908010DE007911C2204F5E071684624
:10521000FBF7C8F804F5D8740FCC00F014F8CDE90A
:1052200008010898CDF84D000998CDF851001F20CD
:105230008DF84C000E2212A92846FBF76EF80DB02F
:1052400030BC5DF814FB0FB41FB511980022029218
:105250000392099901910A99009101280ED0022820
:1052600015D003281CD004282BD0002002900390D6
:10527000DDE9020104B010BC5DF814FBBDF82C00A0
:10528000ADF80800BDF82E00ADF80A00F0E7BDF853
:105290001C00ADF80800BDF83400ADF80A00E7E7DF
:1052A000BDF81E00ADF80800BDF83600ADF80A00E4
:1052B000BDF80400ADF80C00BDF80000ADF80E001C
:1052C000D6E7BDF83A00ADF80800BDF83E00ADF8ED
:1052D0000A00CDE70FB470B506460D461F208DF8C5
:1052E0001C000DF11A00C4B221782846FEF72BF9F4
:1052F00061782846FEF71BF90020A8730E2206A944
:105300003046FBF70AF870BC5DF814FB0FB470B5BB
:1053100006460D461F208DF81C000DF11A00C4B280
:1053200021782846FEF70FF961782846FEF7FFF846
:105330000120A8730E2206A93046FAF7EEFF70BCD2
:105340005DF814FB0FB41FB5044608469DF82230E3
:1053500002939DF823200392DDF825100091DDF8DB
:1053600029100191012B06D0022B09D0032B0CD060
:10537000042B15D10FE069461C3000F01CF80FE03B
:105380006946483000F017F80AE0694600F5C27037
:1053900000F011F804E0694600F5D87000F00BF851
:1053A0001F208DF824000E2208A92046FAF7B5FF29
:1053B0001FBC5DF814FB1CB5002400940194012A65
:1053C00009D0022A0CD0032A0FD0042A16D00020BC
:1053D000009001901CBD0A8882824988C1821CBD50
:1053E0000A888280498881831CBD0A88C2804A88D5
:1053F000C2838A888281C98801821CBD0A8842844E
:105400004988C1841CBD00000FB47CB506460D461A
:1054100003208DF82400DDF825000090DDF8290038
:1054200001900D4C01982060BDF800102846FEF751
:1054300096F8BDF802102846FEF794F80020CDF843
:105440002900A069CDF825000E2208A93046FAF7F8
:1054500064FF7CBC5DF814FBD8070020002101EB41
:10546000410200EBC202127C22B1491C0829F6DB82
:1054700008207047C8B27047002202EB420300EBDD
:10548000C3031B7C8B4201D101207047521C082AA8
:10549000F3DB0820704710B5002202EB420300EB5B
:1054A000C3031B7C8B4208D102EB420100EBC1001D
:1054B0001821FAF7A9FF002010BD521C082AECDBC6
:1054C000052010BD0FB4F0B505462846FFF7C6FF0E
:1054D0000446082C28D09DF820102846FFF7CCFF62
:1054E000BDF8221001230A4608280FD000EB400027
:1054F00005EBC00006AC0830F0CCF0C01838418095
:1055000002B903710420F0BC5DF814FB04EB440005
:1055100005EBC00006AC0830F0CCF0C01838418074
:1055200002B903710020EEE70320ECE7012907D060
:10553000022908D0032908D0042909D00020704787
:1055400000F5C17070471830704700F51270704751
:10555000E03070470948084901600949416009483D
:105560000021016041600822026104228260C16062
:105570000175FDF7B1BD0000C54500084C000020D5
:1055800088000020000700201FB51368CDF8053003
:105590005268CDF80920CDF801100E226946FAF7BD
:1055A000BCFE1FBD00B58BB00A4676494B685B1C3C
:1055B0004B60014603A8FFF7E7FF03A80FC8CDE93A
:1055C0000923CDE907019DF81D00FDF78FFD68B1A6
:1055D0009DF820000B2859D00BDC00287ED0012834
:1055E0007DD0032869D00A2809D138E002200BB009
:1055F00000BD0C2874D0112803D0122818D0022026
:10560000F5E79DF81D00FDF771FD01460998009032
:10561000BDF82800ADF80400DDE9072303A8FFF773
:10562000B3FD03A80FC8CDE90923CDE90701A3E025
:105630009DF81D00FDF75AFD014609980090BDF840
:105640002800ADF80400DDE9072303A8FFF77AFE80
:1056500003A80FC8CDE90923CDE907018CE09DF827
:105660001D00FDF743FD014609980090BDF8280094
:10567000ADF80400DDE9072303A8FFF7D7FC03A872
:105680000FC8CDE90923CDE9070175E09DF81D009C
:10569000FDF72CFD014609980090BDF82800ADF8F3
:1056A0000400DDE9072303A8FFF732FD03A80FC8B4
:1056B000CDE90923CDE907015EE09DF81D00FDF766
:1056C00015FD014609980090BDF82800ADF80400CA
:1056D000DDE9072303A8FFF797FE02E008E01EE0DC
:1056E00034E003A80FC8CDE90923CDE9070143E061
:1056F0009DF81D00FDF7FAFC014609980090BDF8E1
:105700002800ADF80400DDE9072303A8FFF7E2FD58
:1057100003A80FC8CDE90923CDE907012CE09DF8C6
:105720001D00FDF7E3FC014609980090BDF8280034
:10573000ADF80400DDE9072303A8FFF7E7FD03A8A0
:105740000FC8CDE90923CDE9070115E09DF81D003B
:10575000FDF7CCFC014609980090BDF82800ADF893
:105760000400DDE9072303A8FFF7B6FC03A80FC870
:10577000CDE90923CDE9070107A9034800F006F8A0
:10578000002034E7B40200204C00002038B50C465D
:1057900061788DF80010D0E90053621D1846009919
:1057A000A847207038BD000021F00042A2F16052ED
:1057B000B2F5801F01F0004328BFD2F17F6C0BD9F6
:1057C0005FEA001C43EAC20242EB507018BF704708
:1057D00028BF20F001007047B2F5801FBCBF1846FB
:1057E00070474FEA410C1CF5001F02D2084601F039
:1057F000ACB870B500F04AFB00000089FFF7F6BFB7
:105800004FF00040A0F580007047000010B591EA0D
:10581000030F48BF83F0004300F1BC84841A71EB8E
:10582000030C05D2121943EB0C03001B61EB0C01B6
:10583000DFF824E14FEA1154A4EB135C1EEA430F96
:1058400018BF9EEA445F73D023EA0E03DCF1200EFA
:1058500021EA045143F4801332D322FA0CFE10EBF8
:105860000E0023FA0CFE41EB0E01CCF1200E03FAE0
:105870000EFE10EB0E0051F10001B1F5801FCCF1CE
:10588000200E32D201EB045112FA0EF2BDE81040A4
:1058900058BF7047401C38BF5FEA420218BF7047CC
:1058A000002814BF20F0010041F100014FEA41033C
:1058B00013F5001F38BF7047A1F1C04100F034BBA1
:1058C000012A43EB0302ACF1200CDCF11F0E32BFC6
:1058D0004FF0000E23FA0CF310EB030041EB0451E0
:1058E000B4EB115FD0D0A1EB045101F58011490850
:1058F0005FEA300001EB04510ED350F1000038BFD5
:1059000012FA0EFE08D1BDE81040C9E7401C38BFAE
:105910005FEA4202CAD1C3E7BDE810404FEA410343
:1059200013F5001F38BF7047A1F1C04100F0FCBA69
:105930009EEA445F08D011EA5E0FBDE8104004BF44
:1059400001F0004100207047BDE8104070B500F044
:105950009DFA00BF64FBBE3E0000E0FF02494FF02D
:10596000000001F0A8B800BF0000F87F491058BF40
:10597000C1F140415B1058BFC3F140438B42EFF38C
:10598000008070472DE9C04130B4DFF8A0C23CEA86
:10599000111418BF3CEA131400F0EC8081EA0305EF
:1059A0001CEA111444EAD57418BF1CEA131500F060
:1059B000C780A4EB05044FF0004545EAC12145EA44
:1059C000C32341EA505143EA525304F17F74994290
:1059D00004F500344FEAC0204FEAC22208BF9042CB
:1059E00000F09C804FEA13650FF24016765D4FEA97
:1059F000134506FB05F7C7F1807706FB07F74FEA6B
:105A0000D737A7FB03687642C8F58038A7FB06CED8
:105A100038BFA8F1010807FB08E64FF0000EA6FB0F
:105A2000028CE6FB03CEDCF1000CCEF1004E38BF59
:105A3000AEF1010EA6FB0C584FF000074FF0000529
:105A4000E6FB0E87A1FB08C6A0FB07CE16EB0E06F1
:105A500045F10005E1FB076515F1E04E7EBFA4F5B9
:105A600080345FEA46066D4116F1800745F1000576
:105A70004FEA17274FEA066647EA0567A6F1DE46B2
:105A8000B6F1805F4FEA15251FD9384624F0010C86
:105A900005EBC471BCF1FE6F01EB0C1102D8F0BC38
:105AA000BDE8008124425CBF01F5801E9EEAC47FF0
:105AB00002D4F0BCBDE80081244238D4F0BCA1F18E
:105AC000C041BDE8004100F02FBA4FEAD22242EABD
:105AD00043524FEAD323A7FB02864FEAD02040EA85
