:020000040800F2
:10000000D00E0020ED0100084F2D00089D250008AE
:100010004D2D0008CF0400087539000800000000CD
:10002000000000000000000000000000492E000851
:100030009505000800000000212E0008DB330008B1
:10004000070200080702000807020008070200086C
:10005000070200080702000807020008070200085C
:10006000070200080702000807020008070200084C
:10007000070200080702000807020008070200083C
:10008000010500085D0500080702000807020008D6
:10009000D1040008DD040008070200080702000878
:1000A000070200084D340008070200080702000894
:1000B0000702000859340008070200080702000878
:1000C00007020008070200080702000807020008EC
:1000D00007020008070200080702000807020008DC
:1000E00007020008070200080702000800000000DD
:1000F0000000000000000000000000000000000000
:1001000000000000000000000702000807020008CD
:10011000070200080702000807020008070200089B
:10012000070200080702000807020008070200088B
:10013000070200080000000000000000070200089D
:10014000E9040008F5040008070200080702000897
:1001500000F002F800F03AF80AA090E8000C82449F
:100160008344AAF10107DA4501D100F02FF8AFF27C
:10017000090EBAE80F0013F0010F18BFFB1A43F085
:10018000010318472C5A00004C5A0000103A24BFB3
:1001900078C878C1FAD8520724BF30C830C144BFEC
:1001A00004680C607047000000230024002500262E
:1001B000103A28BF78C1FBD8520728BF30C148BFCA
:1001C0000B6070471FB51FBD10B510BD00F046F99C
:1001D0001146FFF7F7FF03F077FD00F064F903B471
:1001E000FFF7F2FF03BC00F06BF9000009488047FD
:1001F00009480047FEE7FEE7FEE7FEE7FEE7FEE709
:10020000FEE7FEE7FEE7FEE704480549054A064B20
:10021000704700004934000851010008D008002050
:10022000D00E0020D00A0020D00A002053EA020C91
:1002300000F069802DE9F04B4FF00006002B1FBF46
:10024000B3FA83F503FA05F424FA05F65E4012BF0B
:100250001643B2FA82F502FA05F4C5F120051EBF75
:1002600022FA05FC44EA0C04203556EA044C4FEA15
:10027000144418BF641C4FF000084FF0000990426E
:1002800071EB030C39D3002919BFB1FA81F701FAD8
:1002900007F6B0FA80F700FA07F6C7F120071EBF8D
:1002A00020FA07FC46EA0C062037B6FBF4FCA7EB65
:1002B0000507103F07F01F0BCBF120060CFA0BFBD4
:1002C0002CFA06F644BFB3460026202FA4BF5E4694
:1002D0004FF0000B5BEA060C08BF4FF0010B19EB67
:1002E0000B09ABFB027C48EB0608C01B06FB02CCEB
:1002F0000BFB03CC71EB0C01C1E70B4602464146F8
:100300004846BDE8F08B13B54FF000004FF00001F8
:10031000AFF30080BDE81C407047032A40F23080F4
:1003200010F0030C00F0158011F8013BBCF1020F36
:10033000624498BF11F801CB00F8013B38BF11F8B7
:10034000013BA2F1040298BF00F801CB38BF00F8CE
:10035000013B11F0030300F02580083AC0F008804B
:1003600051F8043B083A51F804CBA0E80810F5E72F
:10037000121D5CBF51F8043B40F8043BAFF3008012
:10038000D20724BF11F8013B11F801CB48BF11F887
:10039000012B24BF00F8013B00F801CB48BF00F857
:1003A000012B704710B5203AC0F00B80B1E818500F
:1003B000203AA0E81850B1E81850A0E81850BFF44F
:1003C000F5AF5FEA027C24BFB1E81850A0E81850EE
:1003D00044BF18C918C0BDE810405FEA827C24BF42
:1003E00051F8043B40F8043B08BF7047D20728BFD0
:1003F00031F8023B48BF11F8012B28BF20F8023B1F
:1004000048BF00F8012B70474FF0000200B51346BB
:1004100094469646203922BFA0E80C50A0E80C5024
:10042000B1F12001BFF4F7AF090728BFA0E80C50D5
:1004300048BF0CC05DF804EB890028BF40F8042BCE
:1004400008BF704748BF20F8022B11F0804F18BF3B
:1004500000F8012B7047704770477047754600F0F1
:100460002BF8AE4605006946534620F00700854646
:1004700018B020B5FFF7C8FEBDE820404FF00006D9
:100480004FF000074FF000084FF0000B21F007017C
:10049000AC46ACE8C009ACE8C009ACE8C009ACE8BF
:1004A000C0098D46704710B50446AFF30080204662
:1004B000BDE81040FFF793BE004870477008002069
:1004C00001491820ABBEFEE7260002007047FEE798
:1004D000014800F035BA000084000020014800F017
:1004E0002FBA000084000020014800F029BA000063
:1004F000AC000020014800F023BA0000AC0000204E
:1005000010B5104800F037FD01281AD00E4801F050
:100510005FFF0C480D4A01684FF40010914202D968
:100520000B49086002E00949803948600021094808
:1005300002F056F8BDE810405A220749024802F07E
:100540001DB810BD08020020C0010020800002403C
:10055000040402404008002064010020014800F02B
:100560000DBD00004C02002030B590F84050012431
:10057000AC40C56B6C60046863604368102B04D0AA
:10058000036899600068C26030BD03689A600068C3
:10059000C16030BD704772B6FEE7000010B503467B
:1005A0001046002B01D0084C0AE04FF6FF7010BD3A
:1005B00013F8012B4240D2B234F8122082EA102004
:1005C000491E4A1CF4D110BDB059000810B5054CA5
:1005D00003E010F8013B5340E25C491E4B1CF8D18C
:1005E000104610BDB058000890F82020012A07D00E
:1005F000022A05D0416A41F48021416201207047FE
:10060000006842690A43426100207047F0B590F8E3
:1006100020500468A468012D07D0022D05D0416A3E
:1006200041F4802141620120F0BD04F0806504F0B6
:100630000066354301D1E50053D5C4F301640125BB
:10064000A5401D608B684FF4C0759BB1CE6805EB6B
:10065000041733434E6843EAC6030668F3514FF468
:10066000C273076803EB04130E69FE50097D01296C
:1006700009D00DE00E88CB6805EB041743EA46531A
:100680000668F351EBE70168CE5846F48076CE5009
:100690001179D379567941EA036193791B0443EACE
:1006A000062319434FF4C676036806EB04169951E6
:1006B0001178D37841EA0361937852781B0443EAB6
:1006C000022211434FF4C473026803EB0413D150A8
:1006D000006805EB0411425842F00102425000202C
:1006E000F0BD416A41F4001141620120F0BD0000FB
:1006F00010B590F82020012A07D0022A05D0416ABF
:1007000041F480214162012010BD3C4800F5007099
:10071000026842F001020260026822F47C52026028
:1007200002684B6A42EA032202600A7D02F01F035C
:1007300001229A40C3699343C361A0F50070CB695D
:10074000B3B9D0F80C329343C0F80C328C894B68A3
:1007500064F31F434C6900EBC404C4F840320C89B5
:100760000B6864F31F434C6900EBC404C4F84432C3
:10077000CB69012B16D1D0F80C321343C0F80C32E0
:100780000C884B6864F31F434C6900EBC404C4F845
:1007900040320C89CB6864F31F434C6900EBC404FE
:1007A000C4F844328B697BB1D0F804321343C0F8EB
:1007B00004320B6973B1D0F814321343C0F8143209
:1007C000096A01290CD010E0D0F804329343C0F834
:1007D0000432EEE7D0F814329343C0F81432EFE756
:1007E000D0F81C121143C0F81C12D0F8001221F0EE
:1007F0000101C0F80012002010BD0000006400409C
:10080000704770B590F82040012C07D0022C05D01D
:10081000416A41F480214162012070BD21B1046828
:100820002469A4072AD003E00468E468A4071FD061
:100830004FF4D874056804EB01142D5905F0040534
:1008400095600DB305682D59ED08556005682C5964
:1008500004F00204D4604FF4DA74056804EB011468
:100860002E5906F00F06082E13D30825156114E043
:10087000416A41F400114162012070BD416A41F4B6
:1008800000114162012070BD05682D596D0D156084
:10089000DCE72D5905F00F05156105682D59C5F3E5
:1008A0000725956105682C59240C54614FF4DC72BE
:1008B000046802EB0112A4581C700468A458240AAE
:1008C0005C700468A458240C9C700468A258120E32
:1008D000DA704FF4DE72046802EB0112A4581C7146
:1008E0000468A458240A5C710468A458240C9C7100
:1008F0000468A258120EDA7131B10068016941F042
:1009000020010161002070BD0068C16841F0200134
:10091000C160F7E70246002092F82010012901D0BB
:1009200002290CD111688A68520100D501208A6819
:10093000120100D5401C8968C90000D5401C7047D1
:100940002DE9F05F0546002428684669D0F8049038
:100950008768D0F80CA0D0F810B0D0F81880F10754
:1009600048D0F90714D001218160B80703D5284683
:1009700000F0D8FA0CE0780702D54FF4006407E0E5
:10098000380702D54FF4805402E0284600F0C9FA37
:10099000F80516D529684FF480708860B80503D52E
:1009A000284600F0C1FA0CE0780502D544F4005462
:1009B00007E0380502D544F4804402E0284600F000
:1009C000B2FAF80316D529684FF480308860B8036E
:1009D00003D5284600F0AAFA0CE0780302D544F4C7
:1009E000004407E0380302D544F4803402E028468E
:1009F00000F09BFA300707D55FEACA6004D544F4DB
:100A0000007429681020C86070074FF0080707D5E8
:100A10005FEA0A7004D52868C760284600F0D4F958
:100A2000B00706D52868C068800702D0284600F0C5
:100A3000CDF9700607D55FEACB6004D544F4806435
:100A4000296810200861B00607D55FEA0B7004D54D
:100A500028680761284600F0F7F9F00606D52868EF
:100A60000069800702D0284600F0F0F9B00308D5ED
:100A70005FEAC96005D5296810204860284600F063
:100A800023FAF00307D55FEA097004D528684760A8
:100A9000284600F04CFA300446D55FEA497040D54C
:100AA000F00504D55FEAC87001D044F00104B00538
:100AB00004D55FEA887001D544F00204700504D5BE
:100AC0005FEA487001D544F00404300529D518F0D8
:100AD000700F26D008F07000402815D006DC1028D2
:100AE00009D020280AD0302816D10AE050280ED08C
:100AF000602811D10EE044F008040DE044F0100429
:100B00000AE044F0200407E044F0400404E044F02C
:100B1000800401E044F480742868816921F0700148
:100B20008161296804204860002C05D0686A204350
:100B300068622846FFF764FEBDE8F09F70B5044682
:100B4000002C03D094F8200010B104E0012070BD07
:100B5000204600F09DF82068016841F00101016025
:100B600000F0E8FC054605260CE000F0E3FC401B25
:100B70000A2807D9606A40F40030606284F8206077
:100B8000012070BD20684068C007EED02068016871
:100B900021F00201016000F0CDFC05460CE000F000
:100BA000C9FC401B0A2807D9606A40F40030606223
:100BB00084F82060012070BD206840688007EED472
:100BC000207E01283FD02068016821F0800101606B
:100BD000607E01283DD02068016821F0400101605D
:100BE000A07E01283BD02068016821F0200101602F
:100BF000E07E012839D02068016841F010010160D1
:100C0000207F012837D02068016821F008010160A9
:100C1000607F012835D02068016821F0040101605F
:100C2000D4E902010843D4E904121143084361687E
:100C3000491E08432168C86100206062012084F8D1
:100C40002000002070BD2068016841F08001016033
:100C5000BEE72068016841F040010160C0E72068FC
:100C6000016841F020010160C2E72068016821F0BD
:100C700010010160C4E72068016841F008010160CB
:100C8000C6E72068016841F004010160C8E7000080
:100C9000F0B585B0002101910291039104910268A1
:100CA0004448434F444C016802250326491C434BEA
:100CB000BA423DD10160012907D1D86940F00070E6
:100CC000D861D86900F000700090986940F0080081
:100CD0009861986900F0080000904FF480700190CE
:100CE00001A9204600F026FB4FF400710191029506
:100CF000049601A9204600F01DFB3149486820F404
:100D0000C04040F0E06040F480404860002211465E
:100D1000142000F07DFC142000F06CFC0022114631
:100D2000152000F075FC152000F064FC05B0F0BD46
:100D3000244FBA42FAD1DA6942F08062DA61DA69A4
:100D400002F0806200920160012907D1D86940F069
:100D50000070D861D86900F000700090986940F088
:100D600008009861986900F0080000904FF48050E6
:100D7000019001A9204600F0DDFA4FF400510191E5
:100D80000295049601A9204600F0D4FA00221146EB
:100D9000402000F03DFC402000F02CFC00221146D9
:100DA000412000F035FC412000F024FCBEE70000AB
:100DB0000064004000000020000C014000100240D0
:100DC00000000140006800407047000010B58AB084
:100DD0000446184884421CD101AB03AA0021FFF746
:100DE00010FD039801AA81B2134801F017FD1348C2
:100DF00001F0AAFD124801F0A7FD10490398A83997
:100E0000D1F84011884204D10C4801A9983002F071
:100E10001FFE0C4884420BD101AB03AA0021FFF74F
:100E2000F0FC0598042803D101A9049803F016FBEF
:100E30000AB010BD84000020DC040020380300202C
:100E400090040020AC0000207047000010B58AB06C
:100E50000446184884421CD101AB03AA0121FFF7C4
:100E6000D0FC039801AA81B2134801F0D7FC1348C3
:100E700001F06AFD124801F067FD10490398A83996
:100E8000D1F84011884204D10C4801A9983002F0F1
:100E9000DFFD0C4884420BD101AB03AA0121FFF70F
:100EA000B0FC0598042803D101A9049803F0D6FAF0
:100EB0000AB010BD84000020DC04002038030020AC
:100EC00090040020AC000020704770B5044694F8F0
:100ED0002000012805D0606A40F4002060620120F3
:100EE00070BD022084F820002068016821F0010113
:100EF000016000F01FFB05460DE000F01BFB401BEE
:100F00000A2808D9606A40F400306062052084F83D
:100F10002000012070BD20684068C007EDD16062EC
:100F200070BD704770477047704770477047704793
:100F300010B590F821100022022905D00421816308
:100F400080F82020012010BD01680B6823F00E03FB
:100F50000B6001680B6823F001030B6090F84030D0
:100F6000C46B012101FA03F3636080F8211080F85B
:100F70002020104610BD90F8210070472DE9F05F49
:100F8000C16B0A6801680B68046C4FF0040E0EFA1E
:100F900004FE9A4D9A4E9B4FDFF86CC2DFF86C82CC
:100FA000DFF86C92DFF86CA2DFF86CB21EEA020F79
:100FB0007BD05FEA437E78D50A68920603D40A683C
:100FC00022F004020A60DFF848E24FF48062016810
:100FD0000EF1140E1301140271452DD9A94201D14D
:100FE000042225E0B14201D1402221E0B9421FD0C4
:100FF000614501D11A461BE0414501D1224617E067
:10100000494502D14FF4800212E0514501D104223A
:101010000EE0594501D140220AE07F4D1435A94226
:1010200006D07D4A2832914201D11A4600E022467C
:101030007849091F0A6032E0A94201D104222BE05D
:10104000B14201D1402227E0B94225D0614501D10A
:101050001A4621E0414501D122461DE0494502D111
:101060004FF4800218E0714502D14FF0806213E026
:10107000514501D104220FE0594501D140220BE036
:10108000654D1435A94207D0634A2832914202D1F6
:101090001A4601E009E02246584908394A60C16A07
:1010A00000296FD0BDE8F05F08474FF0020E0EFA3E
:1010B00004FE1EEA020F74D05FEA837E7FD50A68C1
:1010C000920606D40A6822F00A020A60012180F81A
:1010D0002110DFF83CE14FF4007201680EF1140EAC
:1010E0001301140271452DD9A94201D1022225E034
:1010F000B14201D1202221E0B9421FD0614501D186
:101100001A461BE0414501D1224617E0494502D16C
:101110004FF4001212E0514501D102220EE0594570
:1011200001D120220AE03C4D1435A94206D03A4AAA
:101130002832914201D11A4600E022463549091F62
:101140000A6033E0A94201D102222CE0B14201D170
:10115000202228E0B94226D0614501D11A4622E07A
:10116000414501D122461EE0494502D14FF400120B
:1011700019E0714502D14FF0007214E0514502D1DF
:10118000022210E038E0594501D120220BE0224D27
:101190001435A94207D0204A2832914202D11A467A
:1011A00001E00CE02246154908394A60002180F828
:1011B0002010816A00291FD0BDE8F05F084708258C
:1011C000A540154218D01A0716D50A6822F00E025B
:1011D0000A6090F84020C36B012101FA02F25A60C4
:1011E000816380F82110002180F82010016B002914
:1011F00002D0BDE8F05F0847BDE8F09F080002405C
:101200001C000240300002404400024058000240EE
:101210006C000240080402401C04024030B5002863
:101220000DD01B4B0168142299420AD2194B0B4472
:10123000B3FBF2F292000264174AC2630BE0012092
:1012400030BD134B5B420B44B3FBF2F292000264DD
:101250000F4A083AC2630222001D42770A6843F629
:10126000F0739A43D0E900342343D0E902452C437C
:101270002343046923434469234384692343134379
:101280000B6000214163012242770177002030BDCD
:1012900008040240F8FFFDBF0000024070B504469C
:1012A000002594F8200001280CD0012084F82000AB
:1012B00094F821600020012E06D084F82000022539
:1012C000284670BD022070BD022684F82160A0630C
:1012D0002068066826F0010606602046FFF744F9FC
:1012E000E06A28B12068016841F00E01016009E060
:1012F0002068016821F0040101602068016841F064
:101300000A0101602068016841F001010160D7E72E
:1013100070B5044600F00EF90546601C02D0044882
:101320000078044400F006F9401BA042FAD370BDD7
:10133000040000202DE9F84F00240023DFF8C491B9
:101340004FF00F08A9F1040B09F1040AABF1040EE8
:10135000D1E00127A7403A40BA4275D1DFF8A8C1D1
:101360004D68A5EB0C0665452BD00DDC032D34D064
:1013700005DC35B3012D19D0022D2FD11BE0112D25
:1013800016D0122D2AD119E0B6F5881F19D006DC27
:10139000B6F5803F15D0B6F5801F1FD111E0B6F528
:1013A000001F0ED0B6F5041F18D10AE0CB6815E077
:1013B000CB681B1D12E0CB6808330FE0CB680C3301
:1013C0000CE08B6823B1012B04D00823476105E0B2
:1013D000042303E00823076100E00023FF2A01D86B
:1013E000054601E000F1040502D84FEA840603E057
:1013F000A4F108064FEA86062F6808FA06FC27EAD9
:101400000C0703FA06F647EA06072F604D68ED0061
:1014100070D53E4DAE6946F00106AE61AD6905F08E
:10142000010500953A4D24F003067719BE68A5071B
:101430002D0F08FA05FC26EA0C06DFF8D8C0604537
:1014400003D14FF0000C17E054E0DFF8CCC060454A
:1014500002D14FF0010C0FE0DFF8C0C0604502D1AF
:101460004FF0020C08E0DFF8B8C0604502D14FF041
:10147000030C01E04FF0040C0CFA05FC4CEA060CDE
:10148000C7F808C04D68ED0205D5D9F800501543DE
:10149000C9F8005004E0D9F800509543C9F800504D
:1014A0004D68AD0205D5DAF800501543CAF8005072
:1014B00004E0DAF800509543CAF800504D68AD03D7
:1014C00005D5DBF800501543CBF8005004E0DBF8FD
:1014D00000509543CBF800504D68ED0305D5DEF87C
:1014E00000501543CEF8005004E0DEF8005095435C
:1014F000CEF80050641C0A6832FA04F57FF429AF74
:10150000BDE8F88F080401400000111000100240EF
:101510000000014000080140000C014000100140A3
:1015200000140140002A01D00161704709040161E3
:1015300070470000014880687047000004000020E8
:1015400002488168027811448160704704000020DD
:1015500010B50748016841F010010160032000F058
:1015600077F80F2000F006F800F026F8002010BDF4
:101570000020024070B504460D4D4FF47A71287872
:10158000B1FBF0F00B490968B1FBF0F000F0B2FBE1
:1015900008B1012070BD102C07D200222146501E38
:1015A00000F036F86C60002070BD012070BD0000B6
:1015B000040000201000002008B50C48816941F0AB
:1015C00001018161816901F001010091C16941F06E
:1015D0008051C161C06900F08050009004494868A2
:1015E00020F0E06040F00070486008BD001002404C
:1015F00000000140002809DB00F01F02012191409A
:101600004009800000F1E020C0F8001170470000A0
:10161000F0B40D460D4B1B68C3F30223C3F107045E
:10162000042C00D90424191D072901D2002300E04D
:10163000DB1E012606FA04F1491E294099409E400E
:10164000761E16403143F0BC02F0CDB90CED00E03F
:1016500000F00701054A10684FF6FF03184040EA02
:101660000120034908431060704700000CED00E0C2
:101670000000FA052DE9F04704460D46002C17D06E
:10168000DFF83081D8F8000000F00700A84211D23E
:10169000D8F8000020F007002843C8F80000D8F868
:1016A000000000F00700A84204D00120BDE8F08748
:1016B0000120FBE72068404E810712D5400703D583
:1016C000706840F4E06070602078000703D57068AF
:1016D00040F4605070607068A16820F0F00008432A
:1016E00070602078C0072CD06068012806D00228DE
:1016F00009D0316889070BD40120D7E73168890305
:1017000006D40120D2E73168890101D40120CDE758
:10171000716821F0030101437160FFF70BFF074679
:1017200041F2883906E0FFF705FFC01B484501D9A3
:101730000320BBE77068616800F00C00B0EB810F1C
:10174000F1D1D8F8000000F00700A8420ED9D8F86F
:10175000000020F007002843C8F80000D8F8000077
:1017600000F00700A84201D001209FE72078400741
:1017700005D57068E16820F4E06008437060207867
:10178000000706D57068216920F4605040EAC10066
:10179000706000F03FF87168084AC1F30311515CB2
:1017A000C8400749086007480068FFF7E3FE0020CB
:1017B0007CE700000020024000100240985800081A
:1017C0001000002008000020014800687047000059
:1017D0001000002000B5FFF7F7FF04494968044AEC
:1017E000C1F30221515CC84000BD0000001002405E
:1017F000A858000800B5FFF7E7FF04494968044A04
:10180000C1F3C221515CC84000BD0000001002407D
:10181000A85800082DE9F0411D4B59681D4801F0FA
:101820000C02042A2ED0082A2CD11B48C1F3834273
:10183000845CC80328D5D86A174900F00F000E3120
:10184000085CD96AC90316D5D96AC1F30312521CC0
:10185000D96AC1F30321891CA2FB0023A1FB041751
:101860000C4D0026A1FB050C07FB05C501FB06512D
:10187000FEF7DCFC03E007496143B1FBF0F00D2CFF
:1018800000D14008BDE8F08104486043FAE7000059
:101890000010024000127A007A58000800093D004A
:1018A0002DE9F84F0446002C0ED02078F84DC007E3
:1018B0005ED06868C0F3810001280BD06868C0F36F
:1018C0008100022803D00CE00120BDE8F88F686891
:1018D000C00306D5286880034AD5A068A8BB0120AC
:1018E000F3E7A068B0F5803F11D0A8B1B0F5A02F04
:1018F0001BD0286820F480302860286820F48020DD
:101900002860A06830B3FFF715FE06461EE0286881
:1019100040F480302860F4E7286820F480302860A4
:10192000286820F480202860EBE7286840F48020B5
:101930002860286840F480302860E2E7FFF7FAFD6D
:10194000801B642802D90320BFE711E028688003C8
:10195000F4D50DE0FFF7EEFD064606E0FFF7EAFDE1
:10196000801B642801D90320AFE728688003F5D4E1
:101970002078C84E80074FF0010A4FF0000746D587
:10198000686810F00C0F07D06868C0F38100022867
:1019900012D16868C0030FD42868800704D5606935
:1019A000012801D0012090E72868A16920F0F80003
:1019B00040EAC10028602AE06069C0B1C6F800A012
:1019C000FFF7B8FD804607E0FFF7B4FDA0EB080085
:1019D000022801D9032078E728688007F4D5286811
:1019E000A16920F0F80040EAC10028600FE03760EC
:1019F000FFF7A0FD804607E0FFF79CFDA0EB080085
:101A0000022801D9032060E728688007F4D42078F1
:101A1000000727D5A048E169A1B1C0F800A0FFF7F1
:101A200089FD804607E0FFF785FDA0EB080002284E
:101A300001D9032049E7686A8007F4D5012001F045
:101A4000F1F90FE00760FFF775FD804607E0FFF74B
:101A500071FDA0EB0800022801D9032035E7686A70
:101A60008007F4D4207840077AD54FF00008E86961
:101A7000C00009D4E86940F08050E861E86900F0EE
:101A8000805000904FF00108DFF810B2DBF8000042
:101A9000C00515D4DBF8000040F48070CBF80000DE
:101AA000FFF748FD814607E0FFF744FDA0EB090082
:101AB000642801D9032008E7DBF80000C005F3D54E
:101AC0002069012812D0B0B105281DD0286A20F065
:101AD00001002862286A20F004002862206941F28F
:101AE000883B30B3FFF726FD81461EE0286A40F0B0
:101AF00001002862F2E7286A20F001002862286AC3
:101B000020F004002862E9E7286A40F00400286217
:101B1000286A40F001002862E0E7FFF70BFDA0EB28
:101B20000900584501D90320CFE6286A8007F4D57B
:101B30000FE0FFF7FFFC814608E0FFF7FBFCA0EB9E
:101B40000900584502D90320BFE609E0286A80074A
:101B5000F3D4B8F1010F03D1E86920F08050E861B7
:101B6000E06A78B36968C90309D56968C1F381017E
:101B7000022904D1E96AC90301D50120A5E602289A
:101B800008D0E86A20F48030E862B766FFF7D2FC3C
:101B9000804641E02868C00007D5E86A616B00F024
:101BA000F000884201D001208FE6B766FFF7C2FC43
:101BB000804608E0FFF7BEFCA0EB0800642802D9CD
:101BC000032082E62BE028680001F3D4E86A616B09
:101BD00020F0F0000843E862E86A216B20F47060AE
:101BE0000843E862C6F868A0FFF7A4FC804607E057
:101BF000FFF7A0FCA0EB0800642801D9032064E6ED
:101C000028680001F4D50AE0FFF794FCA0EB080077
:101C1000642801D9032058E628680001F4D4206A1A
:101C2000F0B36968C1F38101022950D0022804D0C1
:101C30003766FFF77FFC044645E03766FFF77AFC1E
:101C4000074606E0FFF776FCC01B022801D90320F7
:101C50003BE628688001F5D4606AB0F5803F09D181
:101C6000E86A61680843E862E86AE16820F00F000A
:101C70000843E862D4E909010843696821F4741152
:101C800008436860C6F860A0FFF754FC04460FE004
:101C900000100240000042428004424200700040B6
:101CA00026E0FFF747FC001B022801D903200CE6C1
:101CB00028688001F5D51BE0FFF73CFC001B0228DB
:101CC00001D9032001E628688001F5D410E001283D
:101CD0000CD06868626A00F48031914204D1A16A34
:101CE00000F47010884203D00120EEE50120ECE5FD
:101CF0000020EAE510B5401EB0F1807F01D301203D
:101D000010BD4FF0E02460610F21601701F06BFE01
:101D10000020A06107202061002010BD704770479F
:101D200010B590F83C20012A22D0012280F83C20F6
:101D3000CA6800238C6822F4407222434C6822F463
:101D4000806222430C6822F4006222430C6922F470
:101D5000805222434C6922F400522243C96922F482
:101D600080420A4301684A6480F83C30002010BD7C
:101D7000022010BD70B590F83C20012A28D0012621
:101D800080F83C60022280F83D2002685368946825
:101D900023F070050B682B4353600E4B02689A4288
:101DA0000BD0B2F1804F08D00B4B9A4205D00B4BB1
:101DB0009A4202D00A4B9A4204D124F08003496827
:101DC000194391603C30467000210170002070BDC5
:101DD000022070BD002C01400004004000080040BB
:101DE000000C004010B50446002C03D094F83D00D0
:101DF00010B107E0012010BD002084F83C0020460F
:101E000000F016F8022084F83D00211D206801F042
:101E100029FB01203D3460726070A070E070207179
:101E20006071A071E07120722070002010BD000070
:101E300008B50068154A1649904211D1886940F4E6
:101E400000608861886900F40060009000221146FB
:101E50001920FFF7DDFBBDE808401920FFF7CABBDA
:101E60000C4A904211D1C86940F00200C861C869AB
:101E700000F002000090002211461D20FFF7C8FB71
:101E8000BDE808401D20FFF7B5BB08BD002C014090
:101E9000001002400004004090F83D10012901D0DC
:101EA00001207047022180F83D100168CA6842F0A5
:101EB0000102CA6000680F4988420BD0B0F1804F20
:101EC00008D00D49884205D00C49884202D00C49FF
:101ED000884209D1816801F00701062908D001680C
:101EE00041F00101016003E0016841F0010101607E
:101EF00000207047002C0140000400400008004012
:101F0000000C004070B50446002594F83C00012800
:101F100017D0012684F83C60022084F83D00206838
:101F2000826822F0770222F47F428260086850289B
:101F300038D00DDC202853D005DC90B3102811D107
:101F40004EE0022070BD30284AD040280AD13DE042
:101F5000602831D070280CD0B0F5805F03D0B0F588
:101F6000005F12D001253C346670002020702846A6
:101F700070BDCB68D1E90121206801F0BCFA20686E
:101F8000816841F077018160EDE7CB68D1E90121FB
:101F9000206801F0B0FA2068816841F480418160D6
:101FA000E1E71DE0CA684968206801F06DFB502137
:101FB000206801F0AAFAD6E7CA684968206801F0EB
:101FC00074FB6021206801F0A0FACCE7CA68496878
:101FD000206801F059FB4021206801F096FAC2E721
:101FE00022680146104601F090FABCE7704770B5D0
:101FF0000446206801694FF00005C943890716D4DB
:10200000C168C943890712D4E91E01610120207704
:1020100020688069800703D02046FFF7E7FF05E0CE
:10202000204600F0C1F8204600F051F925772068DD
:102030000169C943490718D4C168C943490714D481
:102040006FF004010161022020772068806910F49C
:10205000407F03D02046FFF7C9FF05E0204600F08F
:10206000A3F8204600F033F9257720680169C943B9
:10207000090717D4C168C943090713D46FF00801D1
:102080000161042020772068C069800703D02046C2
:10209000FFF7ACFF05E0204600F086F8204600F090
:1020A00016F9257720680169C943C90618D4C168A3
:1020B000C943C90614D46FF01001016108202077CC
:1020C0002068C06910F4407F03D02046FFF78EFFE0
:1020D00005E0204600F068F8204600F0F8F8257783
:1020E00020680169C943C90708D1C168C943C90744
:1020F00004D1891E0161204600F046F9206801697B
:10210000C943090609D4C168C943090605D46FF05B
:10211000800101612046FFF701FE20680169C94383
:10212000490609D4C168C943490605D46FF0400186
:102130000161204600F04AF920680169C943890617
:102140000BD4C168C943890607D46FF0200101612F
:102150002046BDE87040FFF7E2BD70BD00B585B018
:102160000021019102910391049100680B4988427A
:1021700012D10B48816941F004018161806900F04E
:10218000040000904FF480600190022002900490BF
:1021900001A90448FFF7CEF805B000BD002C0140AE
:1021A0000010024000080140704770B504460D461B
:1021B000002694F83C0001280FD0012084F83C0050
:1021C0006AB1042A1FD0082A32D00C2A44D0012632
:1021D000002084F83C00304670BD022070BD2946C6
:1021E000206801F09BF92068816941F00801816154
:1021F0002068816921F004018161206881692A6970
:1022000011438161E4E72946206801F0B7F92068AD
:10221000816941F4006181612068816921F48061F4
:102220008161206881692A6941EA02218161CFE7E1
:102230002946206801F0D4F92068C16941F00801FD
:10224000C1612068C16921F00401C1612068C169D0
:102250002A691143C161BBE72946206801F0F0F902
:102260002068C16941F40061C1612068C16921F43D
:102270008061C1612068C1692A6941EA0221C161A6
:10228000A6E710B50446002C03D094F83D0010B129
:1022900007E0012010BD002084F83C00204600F03B
:1022A00015F8022084F83D00211D206801F0DAF8BD
:1022B00001203D3460726070A070E0702071607128
:1022C000A071E07120722070002010BD704770472F
:1022D00010B50446002909D004290AD008290BD0DA
:1022E00094F8410001280AD0012010BD94F83E0066
:1022F000F8E794F83F00F5E794F84000F2E7022091
:1023000051B304292BD008292CD084F84100012294
:10231000206801F0E3F818492068884203D1426C34
:1023200042F400424264206888420BD0B0F1804FF2
:1023300008D01249884205D01149884202D011497B
:10234000884212D1816801F00701062911D0016885
:1023500041F0010101600CE084F83E00D7E784F809
:102360003F00D4E784F84000D1E7016841F0010163
:102370000160002010BD0000002C0140000400405E
:1023800000080040000C004010B500680D4988426C
:1023900016D100F05BFD00F077FD0B4A506800EBB2
:1023A0004001C1EBC013116801EBC3039360491CEA
:1023B0001160B1F57A7F03D100211160401C50609B
:1023C00010BD0000002C0140140000207047704731
:1023D00010B5044620684069C0F3C01094F841105D
:1023E000212911D180B12068143050E8001F21F05C
:1023F000800140E80012002AF5D1A06B08B1FEF779
:1024000097FD204601F001FA20684069C0F3801072
:1024100094F84210222911D180B12068143050E87C
:10242000001F21F0400140E80012002AF5D1E06BC6
:1024300008B1FEF77DFD204601F0C0F9002010BD77
:10244000704770B50446002C04D094F84100002574
:1024500010B106E0012070BD84F84050204600F025
:1024600023F8242084F841002068C16821F4005139
:10247000C160204601F0D8F92068016921F490413B
:1024800001612068416921F02A0141612068C16829
:1024900041F40051C1606564202084F8410084F853
:1024A00042006563002070BD2DE9F04186B004460E
:1024B000002502950395049505952B4920688842CF
:1024C0004FD12A48C16941F40031C161C16901F4A9
:1024D00000310191816941F004018161806900F05E
:1024E0000400019004200290022003900320059034
:1024F0001F4E02A93046FEF71DFF082002900395EB
:10250000049502A93046FEF715FF1B4E19483060AE
:102510007560B5608027F76035617561B5614FF40E
:102520000058C6F81C803046FEF778FE08B1FEF76A
:1025300032F8E66374620F480F4E14304436306050
:1025400010207060B560F76035617561B561C6F8DF
:102550001C803046FEF762FE08B1FEF71CF8A66349
:10256000746206B0BDE8F0810044004000100240F3
:10257000000801406C0002400802002090F8423040
:10258000202B01D00220704721B11AB10023036330
:1025900001F0A6B9012070477047704740F68C25BE
:1025A0000E4C20791A2803D10A20294601F088FA16
:1025B00020791B2803D10920294601F081FA2079CE
:1025C0001C2803D10820294601F07AFA20791D2819
:1025D000E7D10720294601F073FAE2E790020020D4
:1025E0002DE9F84F4B482D2249490090FDF795FE03
:1025F0000025DFF820B1DFF82081ABF12D0BD946A3
:1026000009F15C0A1BF80500A52874D10BEB050441
:102610000521204601F0D0F901286CD1A07961791B
:1026200041EA0027A078617841EA0026A7F500700A
:1026300001381CD1204606F1090101F09DF9B0B125
:1026400014F8070F89F85E00607889F85F006088E9
:10265000A9F86000A088A9F86200E088A9F86400E1
:102660002089A9F866006089E41FA9F86A00A7F527
:10267000007002382AD1204606F1090101F07CF9E8
:1026800020B334F8070FA9F86C006088A9F86E0031
:102690006268C9F870202089A9F87400E089E41FF5
:1026A000A9F8760098F80000401CC0B288F8000035
:1026B000052802D1002088F800001046D8F8041040
:1026C00002F010FEDAF81400C8F80400A7F5007054
:1026D000073810D1204606F1090101F04DF950B13B
:1026E000607A89F878000B48D4F80A1053300160FA
:1026F00001208AF81D0007482D222D380099FDF78A
:102700000CFE6D1C2DB22D2DFFF67CAFBDE8F88FB1
:1027100064010020E50700207C000020074B064AEA
:102720001A60C0F88C11064800214160082202613D
:102730008160C16001757047D93D00082400002008
:102740006C0600207CB506460C461546002D03D0CD
:102750000021012D31D000E001210022114327D0BA
:102760006E3434F81A1C080A8DF800008DF8011038
:10277000608A000A8DF80200A07C8DF80300E08FCB
:10278000000A8DF8040094F83E008DF80500B4F8B6
:102790006A00000A8DF8060094F86A008DF80700B8
:1027A000D4F81E0133686E3C6A464FF400719847B6
:1027B0002DB10021022D2ED002E00122CEE7012111
:1027C0000020014326D004F5907434F81C1C080A3C
:1027D0008DF800008DF80110208A000A8DF80200A3
:1027E000207C8DF80300A08F000A8DF8040094F877
:1027F0003C008DF80500B4F86800000A8DF806006A
:1028000094F868008DF807003368E06E6A4640F27D
:10281000FF1198477CBD0120D3E7000010B5054C9F
:10282000D0F88C31636000F007F808B1012010BDCA
:10283000002010BD2400002010B5C9B2002904D02A
:102840000023082902D9012401E0012300242343A5
:1028500001D0012010BD5378147843EA042301EB22
:10286000410404EBC10100EB81046380D0789178CE
:1028700040EA0120A0805079117940EA0120E080EF
:1028800090792072608800F013F82061608800F071
:102890001FF8E060B4F9060000F034F802F056FDCD
:1028A000A061A088A082207AE061002010BD000015
:1028B00010B502F07FFD044902F052FCBDE8104063
:1028C000024902F0BFBD000000F8FF450000B4431C
:1028D00010B502F06FFD084902F042FC02F0A0FBC7
:1028E000064A074B02F07EF9012202F05AFFBDE8CA
:1028F000104001F0AFBE000000F8FF451F85EB510E
:10290000B81E094010B502F03DFD6FF00D0102F058
:1029100076FFBDE81040014902F094BD0000A041DF
:1029200010B502F07DFB4FF03332034B02F05AF941
:10293000BDE8104001F08EBE3333D33F0B46828B8F
:10294000017B806800F08CB810B50446204600F08A
:1029500009F8B4F9240002F015FD216902F000FC29
:10296000606310BD2DE9F0410446207BA16800EBB7
:10297000400202EBC000022202EB80028D5E258441
:10298000042202EB80028F5EA784062202EB800005
:102990000E5EE684304602F0D2F84FF033321D4B23
:1029A00002F020F902F09CF880462063304602F0E5
:1029B000E9FC6FF00D0102F022FF174902F042FD21
:1029C000A064B4F92200281A10F5805F02DCE16AE5
:1029D000491CE162B0F5805F02DBE06A401EE06204
:1029E000E06A05EB4030A062384602F0CBFC266975
:1029F000314602F0B5FB6063404602F0C3FC31464D
:102A000002F020FD616802F025FE60646584BDE887
:102A1000F08100003333D33F0000A0410A7B0273F2
:102A20008A6882600B6903614B6843600B680360CE
:102A300009681046FFF772BE70B504460846154691
:102A4000A083FFF75FFFA061FFF76AFF216902F033
:102A5000F9FC606129462046BDE87040FFF76EBF73
:102A600030B40C4DD0F88C416C6001EB410404EBA8
:102A7000C10400EB84042285002B09D10522B1FB9F
:102A8000F2F1491CCAB20146284630BCFFF75ABED3
:102A900030BC70472400002010B50F480D4901607C
:102AA0000421416000218160C1604FF480220261F5
:102AB000D20042610176012242768176C1760177A9
:102AC0004177FEF73BF8002803D0BDE81040FDF742
:102AD00062BD10BD006400408400002010B50F48A6
:102AE0000D4901600421416000218160C1604FF403
:102AF0000032026152014261017601224276827601
:102B0000C17601774177FEF719F8002803D0BDE8B8
:102B10001040FDF740BD10BD00680040AC00002033
:102B200008B50D48416941F001014161406900F07B
:102B300001000090002211461020FEF769FD1020D0
:102B4000FEF758FD002211461120FEF761FDBDE899
:102B500008401120FEF74EBD0010024010B586B0AF
:102B6000002002900390049005901648816941F07E
:102B700020018161816901F020010191816941F0A9
:102B800004018161816901F004010191816941F0D1
:102B900008018161806900F0080001900A4C002260
:102BA00003212046FEF7BEFC03210291012103917F
:102BB00002210491059102A92046FEF7BBFB06B055
:102BC00010BD000000100240000C014010B596B08E
:102BD00000241294139414941594109411941C21AD
:102BE00009A8FDF711FC202101A8FDF70DFC2948DB
:102BF0002749016047214160846040F2E731C160AC
:102C00000461446180218161FFF7ECF808B1FDF7B0
:102C1000C2FC4FF48050129012A91E48FFF772F9BF
:102C200008B1FDF7B8FC1B48FFF72BFB08B1FDF717
:102C3000B2FC1094119410A91648FFF79BF808B144
:102C4000FDF7A9FC602009900A940B940C940D9454
:102C50000E940F94082209A90E48FFF7A6FA08B1AE
:102C6000FDF799FC019402940394049405944FF4A5
:102C700000500690089401A90648FFF751F808B1E2
:102C8000FDF789FC0348FFF769FA16B010BD000094
:102C9000002C0140D400002010B586B0002402941E
:102CA000039404940594009401941448124901601B
:102CB0004821416084604FF47A71C160046184618D
:102CC000FFF790F808B1FDF766FC4FF480500290D2
:102CD00002A90A48FFF716F908B1FDF75CFC009459
:102CE000019469460548FFF745F8002801D0FDF733
:102CF00052FC06B010BD0000000400401C01002082
:102D000010B5114C0F4820604FF4E1306060002096
:102D1000A060E06020610C216161A061E06120465B
:102D2000FFF78FFB08B1FDF736FC2068C16841F062
:102D30001001C16004495A22BDE810405C390248C4
:102D4000FFF71CBC00440040C0010020FEE7FEE786
:102D500070B50446B4F92250002D16D0A06A081AA6
:102D6000454394F826000541A162204600F01CF876
:102D70002844B4F91410814201DA084608E0B4F995
:102D80001610814204DD084602E0204600F00CF8EF
:102D900000B270BD018881804188C180018C41846E
:102DA000002181608162704770B5B0F91440B0F9BC
:102DB0001650B0F904604E43B0F90630002B0BD02A
:102DC0004B438268D118002909DA002A0CDD002B58
:102DD0000ADD6FF0004107E0002181600FE0002A6A
:102DE00002DA002B00DA0D49C2688A4201DA8260F9
:102DF00005E002698A4201DD826000E08160827F35
:102E00008168007F114106418A19A24201DD2246F4
:102E100002E0AA4200DA2A4610B270BD010000802A
:102E20007047000008B507494FF4FA520968B1FB32
:102E3000F2F14143009100BF0098411E0091FAD287
:102E400008BD0000100000207047000010B50848C1
:102E5000807900280AD0064800F0B8F8044800F04D
:102E6000A9FABDE81040024800F08CB810BD00007F
:102E70009002002010B5034800F0B2F8BDE8104001
:102E800001F0C4BA90020020014801F009BA000024
:102E9000900200202DE9F0410746B7F5000F02DA55
:102EA0000020BDE8F0814FF0FF31384602F0A7FC6A
:102EB00005461349384602F0C5FA064686F0004436
:102EC0002946284602F0BEFA394602F0C3FB804686
:102ED0000121284602F093FC0146404602F040F9E9
:102EE000294602F0ACFB05463146404602F076FB2F
:102EF000E6D32046414602F071FBE1D32846D0E7F5
:102F00006F12833A0021064A52F83130834201D1D0
:102F100000207047491C0429F6DB0320704700009D
:102F20009C06002010B5C0210248FDF76DFA002074
:102F300010BD0000D40600200021074A02EBC103A7
:102F40001B79834202D152F831007047491C042991
:102F5000F4DB0020704700009C0600200021084A96
:102F600052F8313023B1491C0429F9DB01207047A4
:102F700042F8310002EBC10100790871002070476E
:102F80009C06002010B504462046FFF7BBFF08B1A1
:102F9000032010BDD4F8BC0002F0D8F901B2002221
:102FA00004F1A800FFF748FD074890F8200048B159
:102FB000D4F8140202F0CAF901B2002204F500703C
:102FC000FFF73AFD002010BD9407002010B502461F
:102FD000104600F0BEF9104600F0BEF8002010BD0B
:102FE0002DE9F0418EB0044620212848FDF70CFA67
:102FF000204600F053F926480D90264F0B970125E7
:103000008DF8305000260A96DFF88C80CDF82480A9
:1030100009A904F1A800FFF701FD204808900697D0
:1030200002208DF81C000596CDF8108004A904F547
:103030000070FFF7F3FC41F6CB10208004F5A07080
:10304000074600F0E1FC8DF804508DF805608DF81E
:1030500008600D2000906946384600F00FFDA80278
:10306000C4F8F400052084F8F8008002C4F8FC00DD
:103070001D2020716571A5712046FFF76FFF18B103
:1030800001200EB0BDE8F0810020FAE79C06002088
:1030900000002041DC040020840000202CA0994185
:1030A00010B50446E834A06FA0641749096821658B
:1030B000626D891AE26F801AB0FBF1F054F80C0CC3
:1030C00002F044F96064E83C04F5A07000F0E0FC14
:1030D0009434D4F8A400C4F8A800A06C02F036F927
:1030E0002060A06D02F032F9A060D4F8A40104F5CC
:1030F000AC746060A06C02F029F92060A06D02F051
:1031000025F9A060002010BD1C000020FC30426B9F
:103110000168B2FBF1F301FB1322C2600379FC38B2
:10312000002B02D18A1AC0F8082100F5BC7050F8B3
:10313000702CC2EB4232B2FBF1F140F8701C50F837
:103140004C1C40F8741C816F0165416FC164C16FF4
:1031500041650020704700002DE9F04704462046F5
:10316000FFF7D0FE10B10320BDE8F087B4F9680185
:1031700094F905104843B4F96A11411A04F5CC706A
:10318000FFF7E6FDC4F8E0014248C06901F048FFDE
:1031900000F09EFCD4F8E00102F0F4F8C4F8140248
:1031A000207A41F6FF7638B1B4F90C00B4F910106A
:1031B000411AE07980B359E094F90550681E02F095
:1031C000E1F84FF0FF37394602F019FBDFF8C8800D
:1031D000414602F037F98246B4F90C00B4F91010F8
:1031E000401A02F0CFF88146514602F033FA02F05D
:1031F000ADF8002801DB014601E0C0F10001A6EBBB
:10320000010201DB014601E0C0F100018A4204DD58
:10321000002806DA404204E01CE0002800DA4042C0
:10322000301A40F6CC41884201DD6842607194F961
:103230000500401E02F0A6F8394602F0E0FA4146C9
:1032400002F000F90146484601F016FF02F07EF850
:103250000146AEE7701A884203DAA1F5F851FF394A
:1032600004E088194242914200DA014604F1140058
:10327000FFF76EFDE081B4F91210411A04F140002D
:10328000FFF766FD44F8880F02F07CF860630020C9
:103290006AE700009407002000F07F4570B50446FF
:1032A00004F1140058210546FDF7AEF8582104F545
:1032B000B670FDF7A9F80720203424F80C0C06207E
:1032C00020820121A182002060834FF4FA622281D2
:1032D0004FF6300262814FF4C8722284A187052123
:1032E00061840221E18741F27072A2864EF690025B
:1032F000E2864FF4C862E262524222634822A4F896
:103300007821A4F894111422A4F87A21A4F8961133
:10331000A4F89801A4F89E014FF47A50A4F88C0107
:103320004CF28010A4F88E014FF47A70C4F8840136
:103330004042C4F88801203C2846FFF72BFD04F1E9
:103340004000FFF727FD04F5CC70BDE87040FFF7A3
:1033500021BD018881814188A0F868110020704753
:10336000B0F808110182B0F804114182B0F8C4111C
:10337000A0F86A1100207047002902D0012905D168
:1033800002E00021C17101E00121C17100207047FC
:10339000002902D0012905D102E00021017201E0DB
:1033A0000121017200207047018000207047418098
:1033B0000020704710B504462046FFF7A3FD08B172
:1033C000032010BD2046FFF76BFE2046FFF79EFE50
:1033D0002046FFF7C5FF002010BDFEF7B1B8000082
:1033E00070B594B0382106A8FDF70EF8142101A895
:1033F000FDF70AF801250695280408900024099491
:103400000B95079402260E960F904FF4E010109043
:10341000119406A8FEF744FA08B1FDF7BCF80F2096
:103420000190029603944FF4806004900594022169
:1034300001A8FEF71FF908B1FDF7ADF801480567CF
:1034400014B070BD00004242704700000148FEF712
:10345000CEBD0000D40000200148FEF7C8BD00002A
:103460001C010020F0B50268184C194D194E1A4F76
:103470004FF0804CA04207D0604505D0A84203D051
:10348000B04201D0B84203D122F070034A681A4317
:10349000A04207D0604505D0A84203D0B04201D079
:1034A000B84203D122F44073CA681A434B6922F030
:1034B00080021A4302608A68C2620A688262A0427D
:1034C00001D10969016301214161F0BD002C014076
:1034D0000004004000080040000C004010B501F05E
:1034E0001F0101238B40046A9C430462036A8A40E3
:1034F0001343036210BD10B5846824F47F4442EA8C
:1035000003220A432243826010BD826822F07002C7
:103510000A4342F0070181607047000030B5026A3B
:10352000036A23F0010303624368846924F0700492
:1035300024F003050C682C4322F002058A682A4314
:103540000D4DA84206D122F00802CD6845EA0205D9
:1035500025F0040209D123F4807323F400734D692C
:1035600045EA03058B6943EA0503436084614968C2
:103570004163026230BD0000002C014030B5036A97
:10358000026A22F0100202624268846924F4E04474
:1035900024F440740D6844EA052423F020038D6868
:1035A00043EA05130D4DA84206D123F08003CD68F0
:1035B00043EA051323F0400309D122F4806222F488
:1035C00000624D6942EA85028D6942EA85024260E5
:1035D000846149688163036230BD0000002C0140B2
:1035E00030B5026A036A23F4807303624368C469D6
:1035F00024F0700424F003050C682C4322F40072BC
:103600008D6842EA05220D4DA84206D122F40062DF
:10361000CD6842EA052222F4806209D123F4805366
:1036200023F400534D6943EA05138D6943EA0513FA
:103630004360C4614968C163026230BD002C01402F
:1036400030B5036A026A22F4805202624268C46999
:1036500024F4E04424F440740D6844EA052423F47F
:1036600000538D6843EA0533064DA84204D122F485
:1036700080424D6942EA85124260C4614968016432
:10368000036230BD002C014010B5036A046A24F0C7
:1036900001040462846924F0F00444EA021423F073
:1036A0000A020A438461026210BD10B5036A046A0B
:1036B00024F010040462846924F4704444EA023261
:1036C00023F0A00343EA01118261016210BD70B5CD
:1036D000446A20684069C0F3C01094F84110002586
:1036E000212904D118B1E584204600F08EF8206825
:1036F0004069C0F3801094F84210222904D118B117
:10370000E585204600F05AF8606C40F010006064D7
:103710002046FEF795FE70BD10B50146486A09685F
:1037200009684FF0000389062ED4C38501680C3167
:1037300051E8002F22F4807241E80024002CF5D1DA
:103740000168143151E8002F22F0010241E8002401
:10375000002CF5D10168143151E8002F22F040020D
:1037600041E80024002CF5D1202180F84210016BA3
:10377000012909D101680C3151E8002F22F0100213
:1037800041E80024002CF5D14363016B012902D0EC
:10379000FEF702FF10BD818DFEF719FE10BD10B5BA
:1037A000406A01214163016B012902D0FEF7F5FE59
:1037B00010BD818D4908FEF70AFE10BD01680C316D
:1037C00051E8002F22F4907241E80023002BF5D13C
:1037D0000168143151E8002F22F0010241E8002372
:1037E000002BF5D1016B012909D101680C3151E899
:1037F000002F22F0100241E80023002BF5D12021F8
:1038000080F8421000210163704701680C3151E8D3
:10381000002F22F0C00241E80023002BF5D1202127
:1038200080F841107047000070B5044620680169B7
:10383000E26821F4405111430161A168206901430C
:10384000606901432068C26841F20C639A430A43ED
:10385000C26020684169A26921F44071114341614D
:103860001E492068884202D1FDF7C4FF01E0FDF740
:10387000B1FF00EBC00101EB001061686422890018
:10388000B0FBF1F3B3FBF2F36FF018067343B0FB38
:10389000F1F5B0FBF1F605EB8305322303EB0515DB
:1038A000B5FBF2F5B6FBF2F605F0F00505EB0615F3
:1038B000B0FBF1F6B0FBF1F0B0FBF2F06FF01801E5
:1038C000484306EB800003EB0010B0FBF2F02168E8
:1038D00000F00F002844886070BD000000380140EF
:1038E00037B582B004461346039AA262A38500202E
:1038F0006064222184F84210E56B1B49A962E56BE4
:103900001A49E962E56B1A492963E16B486321684A
:10391000E06B091DFDF7C2FC20680168406801905A
:10392000206948B120680C3050E8001F41F48071D4
:1039300040E80012002AF5D12068143050E8001F3A
:1039400041F0010140E80012002AF5D1206814304E
:1039500050E8001F41F0400140E80012002AF5D174
:1039600005B0002030BD0000193700089F3700085F
:10397000CF360008FEE7000030B505460C46002DA6
:1039800001D0022C01D8002030BD0A48A11E0288B7
:103990002846FCF703FE2919C2B211F8023C9A42EC
:1039A00006D111F8011CB1EB102F01D1012030BD5F
:1039B000002030BD7800002030B505460C46002DB3
:1039C00001D0022C01D8002030BDFF22611E284604
:1039D000FCF7FCFD291911F8011C814201D10120DD
:1039E00030BD002030BD0907090E002804DB00F1BE
:1039F000E02080F80014704700F00F0000F1E02094
:103A000080F8141D70470000074A064911600749F5
:103A1000C160074800214160082202618160C160E5
:103A200001757047ED3D0008300000208400002043
:103A3000840600201CB50246D1E90403CDE9000349
:103A40000888146883B2C8686A461946A0471CBD36
:103A5000AFF300800A6882614968C161817E0129F3
:103A600003D0C07E40B101207047016A4162D0F8A6
:103A70001B10016200207047002070470A79027114
:103A80004A7942710A7A027209680160002070471F
:103A900082B00A4AC16851600421017401784174FE
:103AA000012181740099C0F813109DF80410C175AC
:103AB0000146104602B0FFF7BDBF000030000020F5
:103AC000024A136898621068C1637047D4000020EE
:103AD0002DE9F84F80468946DFF844A1BAF924025F
:103AE00001F02DF883464F4A4F4B009101F07AF8D0
:103AF0004E4A04460D46C2E90801009F5E465846FC
:103B000039464B4A4B4B01F06DF832463B4601F0CB
:103B100069F842464B4601F099F9474A474B00F095
:103B2000CBFD424AC2E90A01DAF8E021DFF8109140
:103B3000444B002A36DD4A46DFF8F08001F052F8A7
:103B400006460F4622462B462046294601F04AF8F3
:103B500032463B4601F07AF900F07CFDFFF79AF916
:103B600001F05EFAD8E9082301F070F94A46364BB5
:103B700000F05EFEC8E90201D8E90601C8E90001CB
:103B80000022324B01F02CF905D24FF47A50CAF8DA
:103B9000E001BDE8F88FD8E9060100F0A1FFCAF8FE
:103BA000E001F6E74A46DFF8848001F01BF806469C
:103BB0000F4622462B462046294601F013F832468E
:103BC0003B4601F043F900F045FDFFF763F901F0D2
:103BD00027FAC8E90201D8E9082381F0004101F081
:103BE00035F9C8E904014FF0FF3201F0DAFD4A4629
:103BF000174B00F01DFEC8E90601C8E900010022CC
:103C0000144B00F0B3FF03D21348CAF8E001C0E739
:103C1000D8E9060100F064FFCAF8E001B9E7000046
:103C20009002002042462F7110FAC63E4800002044
:103C300019E44FD0FD07BE3EA4703D0AD7A335C09E
:103C400020CDC017126FBE3E126FAE3E0040CF4077
:103C5000126F9E3E0040CFC080C1FFFF70B5049C34
:103C60004FF00005E6071ED05E0946EA42120260E8
:103C7000C90041EAC32141608560C560610702D582
:103C80004FF4FF61C160610606D540F2FF718160AB
:103C9000C16841F47841C160E10603D5816841F40F
:103CA0007841816070BDA207FCD549010160416087
:103CB000610704D54FF6E0718160C16070BD2107D6
:103CC000FCD58560C56070BDFDF742FCFFF788FB41
:103CD000FEF744FFFEF724FFFEF7DEFEFEF7FEFED2
:103CE000FEF7DAFFFEF772FFFFF70AF800F02AF896
:103CF0001148FDF7EAF81148FDF7E7F802210E48F0
:103D0000FCF772FC02210D48FCF76EFC10210A48FA
:103D1000FCF76AFC10210948FCF766FCFFF7AAF8DB
:103D20000748FEF7B9F808210548FEF7D1FA042044
:103D3000FDF7EEFAFBE7000084000020AC00002055
:103D4000D400002070B58CB001250A95002407949A
:103D5000089409950694062600231A4640F201218C
:103D600002A80096FFF77AFF02A91948FCF7C0FCE9
:103D7000079500231A4640F2022102A80096FFF799
:103D80006DFF02A91248FCF7B3FC069502200790CC
:103D900000231A460D2102A80096FFF75FFF02A933
:103DA0000B48FCF7A5FC06950F2007900520002383
:103DB00000901A461D2102A8FFF750FF02940394B9
:103DC0000494059402A90348FCF792FC0CB070BD62
:103DD00084000020AC000020024B1960024B014916
:103DE000FCF714BC6C06002020000020024B196078
:103DF000024B0149FCF70ABC840600202C0000207D
:103E000070B504461546074841602046FCF782FD20
:103E10000028FAD02A462046BDE87040024B0149EE
:103E2000FCF7F4BBBC0600203C0000200FB42DE9D9
:103E3000F04188B0074688469DF842109DF84340FF
:103E4000DDF845000690DDF849000790002504954F
:103E500005958DF81010BDF81800ADF81400BDF8E8
:103E60001A00ADF81200404600F0BBFA0290059827
:103E700000902A461748049B029900F07EFA0646F5
:103E8000049505958DF81040BDF81C00ADF81400A0
:103E9000BDF81E00ADF812002146404600F0A1FA20
:103EA0000290059800902A460A48049B029900F067
:103EB00064FA46EA0020ADF842001F208DF8440065
:103EC0000E2210A93846FCF728FA08B0BDE8F00128
:103ED0005DF814FBD40600200FB410B51F218DF837
:103EE00014100A4A08E001EB410404AB02EBC404DD
:103EF0000B44247A5C71491C0829F4DB0E2204A9C6
:103F0000FCF70BFA10BC5DF814FB0000D40600208F
:103F10000FB470B505461F208DF81C00BDF81A00BF
:103F2000002813D0002406A82044417919B1417912
:103F3000144800F00BFA641C082CF4DB0E2206A9CE
:103F40002846FCF7EAF970BC5DF814FB08240D4E16
:103F5000BDF81A10C4F1080080F00202114206D028
:103F600000EB400006EBC0001821FCF74DFA641E80
:103F7000E4B2002CECD10E2206A92846FCF7CDF9BC
:103F8000E1E70000D40600200FB430B58DB005463F
:103F90000C469DF84A200A929DF84B100B91012A7D
:103FA00006D0022A12D0032A1ED0042A39D12AE0D0
:103FB00007911C2204F124016846FCF7F3F914343C
:103FC0000FCC00F040F8CDE908012AE007911C224F
:103FD00004F150016846FCF7E5F940340FCC00F0DD
:103FE00032F8CDE908011CE007911C2204F5BE71EE
:103FF0006846FCF7D7F904F5B6740FCC00F023F847
:10400000CDE908010DE007911C2204F5D471684642
:10401000FCF7C8F904F5CC740FCC00F014F8CDE926
:1040200008010898CDF84D000998CDF851001F20DF
:104030008DF84C000E2212A92846FCF76EF90DB03F
:1040400030BC5DF814FB0FB41FB51198002202922A
:104050000392099901910A99009101280ED0022832
:1040600015D003281CD004282BD0002002900390E8
:10407000DDE9020104B010BC5DF814FBBDF82C00B2
:10408000ADF80800BDF82E00ADF80A00F0E7BDF865
:104090001C00ADF80800BDF83400ADF80A00E7E7F1
:1040A000BDF81E00ADF80800BDF83600ADF80A00F6
:1040B000BDF80400ADF80C00BDF80000ADF80E002E
:1040C000D6E7BDF83A00ADF80800BDF83E00ADF8FF
:1040D0000A00CDE70FB470B506460D461F208DF8D7
:1040E0001C000DF11A00C4B221782846FFF750F9E0
:1040F00061782846FFF740F90020A8710E2206A932
:104100003046FCF70AF970BC5DF814FB0FB470B5CB
:1041100006460D461F208DF81C000DF11A00C4B292
:1041200021782846FFF734F961782846FFF724F90B
:104130000120A8710E2206A93046FCF7EEF870BCEB
:104140005DF814FB0FB41FB5044608469DF82230F5
:1041500002939DF823200392DDF825100091DDF8ED
:1041600029100191012B06D0022B09D0032B0CD072
:10417000042B15D10FE06946143000F01CF80FE055
:104180006946403000F017F80AE0694600F5B6705D
:1041900000F011F804E0694600F5CC7000F00BF86F
:1041A0001F208DF824000E2208A92046FCF7B5F840
:1041B0001FBC5DF814FB1CB5002400940194012A77
:1041C00009D0022A0CD0032A0FD0042A16D00020CE
:1041D000009001901CBD0A8882824988C1821CBD62
:1041E0000A888280498881831CBD0A88C2804A88E7
:1041F000C2838A888281C98801821CBD0A88428460
:104200004988C1841CBD00000FB47CB506460D462C
:1042100003208DF82400DDF825000090DDF829004A
:1042200001900E4C0198E061BDF800102846FFF7A0
:10423000BBF8BDF802102846FFF7B9F80849E06955
:10424000884202D0012084F820000E2208A93046BE
:10425000FCF763F87CBC5DF814FB000094070020B9
:1042600000A9DFC7002101EB410200EBC202127C72
:1042700022B1491C0829F6DB08207047C8B27047F4
:10428000002202EB420300EBC3031B7C8B4201D1F3
:1042900001207047521C082AF3DB082070470000F9
:1042A0002DE9FF4100798DF801001E208DF80400F2
:1042B0000024244E244D04EB440106EBC100037C92
:1042C00023B14288012A05D0521E42802878022854
:1042D0001DD029E0077917B936F831209AB12A782C
:1042E0008068EC460CEB4218007888F805000CEB6F
:1042F0004200837027B936F83100401E26F831009D
:10430000521C2A70E2E71821FCF77EF8DEE70E481F
:104310006946083000F090F90020CDF80500CDF88E
:104320000900ADF802002870641C082CC3DB287853
:10433000002804D004486946083000F07DF904B034
:10434000BDE8F081D40600203800002010B500221E
:1043500002EB420300EBC3031B7C8B4208D102EB50
:10436000420100EBC1001821FCF74EF8002010BDFF
:10437000521C082AECDB052010BD0FB4F0B5054631
:104380002846FFF76FFF0446082C28D09DF8201020
:104390002846FFF775FFBDF8221001230A460828BA
:1043A0000FD000EB400005EBC00006AC0830F0CCAD
:1043B000F0C01838418002B903710420F0BC5DF8E8
:1043C00014FB04EB440005EBC00006AC0830F0CC55
:1043D000F0C01838418002B903710020EEE70320D5
:1043E000ECE7012907D0022908D0032908D00429C5
:1043F00009D00020704700F5B57070471030704745
:1044000000F50C707047D830704700000948084923
:1044100001600949416009480021016041600822AA
:10442000026104228260C1600175FEF77BBD00005D
:10443000013E000840000020AC000020BC06002027
:104440001FB51368CDF805305268CDF80920CDF8B6
:1044500001100E226946FBF760FF1FBD00B58BB04F
:104460000A46014603A8FFF7EBFF03A80FC8CDE9F2
:104470000923CDE907019DF81D00FEF75DFD68B138
:104480009DF820000B2859D00BDC00287ED0012895
:104490007DD0032869D00A2809D138E002200BB06A
:1044A00000BD0C2874D0112803D0122818D0022087
:1044B000F5E79DF81D00FEF73FFD014609980090C5
:1044C000BDF82800ADF80400DDE9072303A8FFF7D5
:1044D0005BFD03A80FC8CDE90923CDE90701A3E0DF
:1044E0009DF81D00FEF728FD014609980090BDF8D3
:1044F0002800ADF80400DDE9072303A8FFF722FE3A
:1045000003A80FC8CDE90923CDE907018CE09DF888
:104510001D00FEF711FD014609980090BDF8280026
:10452000ADF80400DDE9072303A8FFF77FFC03A82B
:104530000FC8CDE90923CDE9070175E09DF81D00FD
:10454000FEF7FAFC014609980090BDF82800ADF886
:104550000400DDE9072303A8FFF7DAFC03A80FC86E
:10456000CDE90923CDE907015EE09DF81D00FEF7C6
:10457000E3FC014609980090BDF82800ADF804005E
:10458000DDE9072303A8FFF73FFE02E008E01EE095
:1045900034E003A80FC8CDE90923CDE9070143E0C2
:1045A0009DF81D00FEF7C8FC014609980090BDF873
:1045B0002800ADF80400DDE9072303A8FFF78AFD12
:1045C00003A80FC8CDE90923CDE907012CE09DF828
:1045D0001D00FEF7B1FC014609980090BDF82800C7
:1045E000ADF80400DDE9072303A8FFF78FFD03A85A
:1045F0000FC8CDE90923CDE9070115E09DF81D009D
:10460000FEF79AFC014609980090BDF82800ADF825
:104610000400DDE9072303A8FFF75EFC03A80FC829
:10462000CDE90923CDE9070107A9024800F004F804
:10463000002034E74000002038B50C4661788DF842
:104640000010D0E90053621D18460099A847207059
:1046500038BD000021F00042A2F16052B2F5801F87
:1046600001F0004328BFD2F17F6C0BD95FEA001C38
:1046700043EAC20242EB507018BF704728BF20F0D7
:1046800001007047B2F5801FBCBF184670474FEA63
:10469000410C1CF5001F02D2084600F09ABF70B50D
:1046A00000F04AFB00000089FFF7F6BF4FF0004022
:1046B000A0F580007047000010B591EA030F48BFD5
:1046C00083F0004300F1CA83841A71EB030C05D216
:1046D000121943EB0C03001B61EB0C01DFF824E122
:1046E0004FEA1154A4EB135C1EEA430F18BF9EEA75
:1046F000445F73D023EA0E03DCF1200E21EA04515B
:1047000043F4801332D322FA0CFE10EB0E0023FA8E
:104710000CFE41EB0E01CCF1200E03FA0EFE10EB65
:104720000E0051F10001B1F5801FCCF1200E32D204
:1047300001EB045112FA0EF2BDE8104058BF704769
:10474000401C38BF5FEA420218BF7047002814BF00
:1047500020F0010041F100014FEA410313F5001F71
:1047600038BF7047A1F1C04100F034BB012A43EBD0
:104770000302ACF1200CDCF11F0E32BF4FF0000E33
:1047800023FA0CF310EB030041EB0451B4EB115F7F
:10479000D0D0A1EB045101F5801149085FEA300047
:1047A00001EB04510ED350F1000038BF12FA0EFE97
:1047B00008D1BDE81040C9E7401C38BF5FEA42029B
:1047C000CAD1C3E7BDE810404FEA410313F5001F0B
:1047D00038BF7047A1F1C04100F0FCBA9EEA445FC7
:1047E00008D011EA5E0FBDE8104004BF01F000419F
:1047F00000207047BDE8104070B500F09DFA00BF82
:1048000064FBBE3E0000E0FF02494FF0000000F0F4
:1048100096BF00BF0000F87F491058BFC1F140416A
:104820005B1058BFC3F140438B42EFF300807047E9
:104830002DE9C04130B4DFF8A0C23CEA111418BF22
:104840003CEA131400F0EC8081EA03051CEA111421
:1048500044EAD57418BF1CEA131500F0C780A4EB16
:1048600005044FF0004545EAC12145EAC32341EA6A
:10487000505143EA525304F17F74994204F50034D5
:104880004FEAC0204FEAC22208BF904200F09C804D
:104890004FEA13650FF24016765D4FEA134506FBAB
:1048A00005F7C7F1807706FB07F74FEAD737A7FB75
:1048B00003687642C8F58038A7FB06CE38BFA8F15A
:1048C000010807FB08E64FF0000EA6FB028CE6FB92
:1048D00003CEDCF1000CCEF1004E38BFAEF1010E7C
:1048E000A6FB0C584FF000074FF00005E6FB0E87C3
:1048F000A1FB08C6A0FB07CE16EB0E0645F100058E
:10490000E1FB076515F1E04E7EBFA4F580345FEA58
:1049100046066D4116F1800745F100054FEA17275D
:104920004FEA066647EA0567A6F1DE46B6F1805F04
:104930004FEA15251FD9384624F0010C05EBC47148
:10494000BCF1FE6F01EB0C1102D8F0BCBDE8008198
:1049500024425CBF01F5801E9EEAC47F02D4F0BCF5
:10496000BDE80081244238D4F0BCA1F1C041BDE8CB
:10497000004100F02FBA4FEAD22242EA43524FEAF6
:10498000D323A7FB02864FEAD02040EA415007FB21
:1049900003661EEA0E0F4FEAD12105FB026658BFDF
:1049A000A6EB0056B6EB00564FEA520E4EEAC37E17
:1049B00018EB0E0E56EB530EBDD518EB02085E41F8
:1049C0007F1C55F10005B6E74FF480154FF0000746
:1049D0004FF000064FF00008ADE7F0BC4FF00000CC
:1049E00001F1C04101F00041BDE8008111EA0C1F56
:1049F0000CEA131500D00CE013EA0C1F00F0258020
:104A00004FF00000F0BC81EA030101F00041BDE875
:104A10000081F0BCBDE8004181EA030100F0DAB991
:104A2000F0BCBDE8004170B500F086F9097EFC3E9F
:104A300000F007B881EA03014FF0000001F00041E7
:104A4000704781EA030100F0C5B9F0BCBDE8004140
:104A50004FF0000021497047FFFDFBF9F7F5F4F234
:104A6000F0EEEDEBE9E8E6E4E3E1E0DEDDDBDAD809
:104A7000D7D5D4D3D1D0CFCDCCCBCAC8C7C6C5C467
:104A8000C2C1C0BFBEBDBCBBBAB9B8B7B6B5B4B37E
:104A9000B2B1B0AFAEADACABAAA9A8A8A7A6A5A469
:104AA000A3A3A2A1A09F9F9E9D9C9C9B9A9999982D
:104AB0009797969595949393929191908F8F8E8ED0
:104AC0008D8C8C8B8B8A898988888787868585845D
:104AD00084838382828181800000FF070000F87F49
:104AE0004FEA41034FEA5353A3F58063D3F11E030A
:104AF000C8BFD3F1210C0CDD4FF0004242EAC122C5
:104B000042EA505232FA03FC8CEAE17CACEBE170F1
:104B10007047102BC4BF0020704703F5787CBCF1B0
:104B2000FF3F04D06FF0004282EA2100704770B569
:104B300000F002F94992248000207047F2E710F05B
:104B4000004248BF4042B0FA80F310FA03F10AD0A5
:104B5000C3F11D0303F580634FEA415002EB03529A
:104B600002EBD12170474FF00000704751EA030C6F
:104B700017D41CF5801F58BFBCF5801F00F10680BC
:104B8000994218BF704708BF9042704707D711F588
:104B9000801F58BF13F5801F19D49942704789426E
:104BA00070471CF5801F08D5BCF5801FF7D58B42D8
:104BB00018BF704708BF824270474FF4001C1CEBBF
:104BC000410F38BF1CEB430F01D28B42704770B5C9
:104BD00000F0B2F8922449004FF000514FF080539A
:104BE000FFF71ABEDFF848C170B51CEA111E1EBFE0
:104BF0001CEA13159EEA0C0F95EA0C0F00F06F806B
:104C000081EA030423EA4C134EEAD47E21EA4C11D4
:104C100041F4801143F48013AE44A1FB024CA0FB8D
:104C20000365AEF17F7E361955EB0C05A1FB034CF5
:104C30004CF10003A0FB021C16EB0C06654153F17E
:104C40000003094218BF46F0010613F4007F0BD1A0
:104C50004FEA03314FEA0530340341EA155140EA87
:104C600016506FF003020AE04FEAC3214FEAC52055
:104C7000F40241EA555140EA56506FF0020202EB4D
:104C80002E4201EB025585EACE710AD05FEA440C50
:104C900018BF24F0004450F1000041F1000120EA67
:104CA000D47040F2FE7C624500D270BDA84214BFB1
:104CB0004FF080444FF04044002E08BF0024BEF166
:104CC000806FA8BFA1F1C041BDE8704080F2828032
:104CD0004FF0000001F1C04101F0004170479EEA31
:104CE0000C0F0CEA131518BF95EA0C0F06D04FF005
:104CF000000081EA030E0EF0004170BD00F01CF8C8
:104D00008900013E00F007B800F009B84FEA430CF3
:104D10005FEA5C5C08D081EA030100F05BB84FEA0F
:104D2000410C5FEA5C5CF6D14FF00000014970472E
:104D30000000FF070000F87F0EF1020E2EF0030EB8
:104D40005EF8046B364205D4012A43EB030515F5E2
:104D5000001F12D8012841EB010C1CF5001F0CD8D4
:104D60000ED14FEAD17C15F5001F0CEB4C0C0CF169
:104D7000020C08BF4CEBD37C04E04FF0080C01E0C0
:104D80004FEAD37C0CEB4C0526FA05F606F0070635
:104D9000B6F1040C06D20EEB860CBDE870404CF068
:104DA000010C6047DFE80CF0090B02024FF00041F4
:104DB0004FF00000A1F5002170BD194610460128F2
:104DC00051EB010418BFD4F5001484BF002001F09A
:104DD000004170BD0808A0F500114FEA310170478D
:104DE00053EA010C17D41CF5801F58BFBCF5801F77
:104DF00000F106808B4218BF704708BF824270479F
:104E000007D713F5801F58BF11F5801F19D48B42A7
:104E100070479B4270471CF5801F08D5BCF5801F6A
:104E2000F7D5994218BF704708BF904270474FF4BA
:104E3000001C1CEB430F38BF1CEB410F01D2994201
:104E400070470FB40CBC03BCFFF7C1BE10B591EAAC
:104E5000030F48BF83F000433FF536AC841A71EB73
:104E6000030C07D212198CF0004C43EB0C03001B0F
:104E700061EB0C01DFF8A4E14FEA1154A4EB135CE1
:104E80001EEA430F18BF9EEA445F00F0B08023EA99
:104E90006E03524221EA0451C3EB6E0338BF5B1E1E
:104EA000DCF1200E25D322FA0CFE10EB0E0043FAA3
:104EB0000CFE41EB0E01CCF1200E03FA0EFE10EBBE
:104EC0000E0051F10001CCF1200E29D412FA0EF29D
:104ED00001EB0451BDE8104058BF7047401C1CBF97
:104EE000B2F1004F704700280CBF491C20F00100B0
:104EF000704712EB020E43EB030218BF4FF0010E96
:104F00004EEA4202ACF1200CDCF11E0E54D943FAF9
:104F10000CFE10EB0E0051F1FF31CCF11E0ED5D579
:104F20000EF1010E12FA0EFE404141EB010101EBC0
:104F3000445C5FEA5C5C10D910EBDE7001EB04515D
:104F400038BFBEF1004FBDE8104018BF70470028C1
:104F50000CBF491C20F00100704730D24FEAD42C1E
:104F600011F5001124F400641BD0B1FA81F20B3A60
:104F7000A41AA41ED2F12003914030FA03F319437E
:104F8000904001EBCC71002C01EB0451BDE81040C6
:104F9000A8BF704701F1C0414FF0000001F000418F
:104FA0007047B0FA80F310FA03F100D110BDE41A93
:104FB000173C4805C90AE4E701EB045110BD49104C
:104FC00001EB0451BDE810404FEA300002E04FF021
:104FD000000170474A0008BF0042F8D0B2F5001F38
:104FE00028BF704701F000414FF0000070479EEA73
:104FF000445F07D011EA5E0FBDE8104004BF0021F6
:1050000000207047BDE8104070B5FFF795FE00BF67
:1050100040DFF63E83F00041104670470000E0FF9D
:1050200043004FEAD30C4FEA3C0C43401FBF4007FC
:105030000CF1605113F0FE4F70471CF0006F03D16C
:1050400000200CF0004170470CF0004343EA507020
:1050500010B540EACC0000F076FA00BF00000092E4
:105060004FEA0001FFF7B6BE4FF000414FF00000DD
:10507000A1F500217047000090EA010F48BF81F0C0
:10508000004100F1EE82421A3CBF801A89184FEAB3
:10509000D0524FF07F4C1CEA410FA2EBD15318BF06
:1050A0009CEA026F00F03B804FF0004C4CEA00207D
:1050B0004CEA012121FA03FC10EB0C0C1ED202F188
:1050C000FF325FEA1C2040EBC25038BF70471CF033
:1050D0007F0F4FEA400C18BFBCF17F4F38BF7047BD
:1050E000C3F12003994008BF20F00100BCF17F4FBD
:1050F00038BF7047A0F1C04000F06BBA4FEA3C00E7
:10510000000A40EBC25028BF1CF0FF0F4FEA400CD2
:10511000E6D018BFBCF17F4F38BF7047EAE79CEA82
:10512000026F05D010EA5C0F08BF00F00040704726
:1051300010B500F008FA00BF64FBBE3E014800F065
:10514000FEBA00BF0000C07F401058BFC0F1404011
:10515000491058BFC1F140418142EFF300807047D0
:105160004FF47F0C1CEAD0121EBF1CEAD11392EA46
:105170000C0F93EA0C0F00F0858090EA010F48BFF6
:1051800042F4807240F4000C41F400002CF07F41A6
:1051900020F07F4000B58142A2EB03020FF2081C11
:1051A000ACEB504EC0F100009EF800E04FEA4E0E0E
:1051B00000FB0EFC38BF49004FEA2C1C02F5FA0236
:1051C0000CFB0EF34FEACE1E4FEA112C4FEAC12121
:1051D0000EEB635E42EB22420EFB0CFC4FEA1C53CB
:1051E00000FB03114FEA112C4FEA01310EFB0CFCBE
:1051F0004FEADC4C00FB0C11C14228BF09184CEBF4
:1052000003335DF804EB10EB410143EBC250B2F500
:105210007C0F38BF704729D512F0F00F1CBF00F18A
:10522000C04000F0004070470081828384858687FB
:1052300088898B8C8D8E8F919293959697999A9C55
:105240009D9FA0A2A3A5A7A8AAACAEB0B2B3B5B7C4
:10525000B9BCBEC0C2C5C7C9CCCED1D4D7D9DCDF9A
:10526000E2E6E9ECF0F3F7FAFE0000004FEA400C4A
:105270000CF1807CBCF17E4F28BF7047B0F1C0407C
:1052800000F0A7B990EA010F0CEAD11348BF42F42D
:105290008072624538BF634507D213F47F0F16D082
:1052A00080EA010000F00040704710B500F04BF9B3
:1052B000097EFC3E00F005B880EA010000F00040E5
:1052C000704780EA010000F0004000F082B912F45B
:1052D0007F0F04BF0248704780EA010000F079B9EF
:1052E0000000C07F50EA010C00F113801CF5000F94
:1052F00058BFBCF5000F01D48842704707D710F59E
:10530000000F58BF11F5000F15D48842704789422D
:1053100070471CF5000F04D5BCF5000FF7D581428E
:1053200070474FF0807C1CEB400F38BF1CEB410FE7
:1053300001D28142704710B500F005F9922449006E
:105340004FF000504FF08051FFF7FEBE41000B0EB2
:10535000D3F19E0208D950F400034FEA032323FA45
:1053600002F048BF4042704710B500F0ECF800BFB3
:1053700049922480002070476FF0004282EA2000AA
:105380007047000010F0004148BF4042B0FA80F37F
:1053900010FA03F2C3F19D030BD051EAC35101EBA4
:1053A0001220530638BF704700F1010008BF20F0FB
:1053B00001007047B0FA80F310FA03F2C3F19D03C5
:1053C0000AD0D90501EB1220530638BF704700F10F
:1053D000010008BF20F001007047000050EA010CF6
:1053E00000F113801CF5000F58BFBCF5000F01D46D
:1053F0008842704707D710F5000F58BF11F5000F0E
:1054000015D488427047894270471CF5000F04D5B7
:10541000BCF5000FF7D5814270474FF0807C1CEB44
:10542000400F38BF1CEB410F01D28142704710B5CD
:1054300000F089F8922449004FF000504FF080515D
:10544000FFF782BE4FF47F0C1CEAD0121EBF1CEA8D
:10545000D11392EA0C0F93EA0C0F00F0478090EA08
:10546000010F48BF42F480724FF0004C4CEA00201C
:105470004CEA012102EB0302A0FB0113A2F500029A
:10548000002918BF43F001035B0028BF4FEA330334
:1054900042EB22425FEA132C4CEBC2502EBFBCEB16
:1054A000436FB2F57C0F70474FEA036CBCF1004FBD
:1054B00008BF20F00100B2F57C0F38BF70470BD554
:1054C00082F0FF0212F5803FC8BF704700F1C04074
:1054D000D8BF00F00040704700F5000C5FEA4C0CAC
:1054E00048BF7047B0F1C04000F073B890EA010FB8
:1054F0000CEAD11348BF42F48072624538BF63455D
:1055000004D280EA010000F00040704710B500F0BE
:105510001AF800BF8900013E00F007B800F009B892
:105520005FEA410C5FEA1C6C08D080EA010000F0E1
:1055300050B85FEA400C5FEA1C6CF6D14FF00040B7
:10554000A0F5800070470EF1020E2EF0030E5EF8FB
:10555000044B244204D44FEA4102B2F17F4F11D8E8
:105560004FEA4003B3F17F4F0CD80ED14FEAD07C05
:10557000B2F17F4F0CEB4C0C0CF1020C08BF4CEB62
:10558000D17C04E04FF0080C01E04FEAD17C0CEB39
:105590004C0324FA03F404F00704B4F1040C06D21B
:1055A0000EEB840CBDE810404CF0010C6047DFE8C6
:1055B0000CF0070802024FF00040A0F5800010BD7B
:1055C0000846420018BFD2F1807288BF00F0004048
:1055D00010BDFF2141EAD050C005704751EA000CD0
:1055E00000F113801CF5000F58BFBCF5000F01D46B
:1055F0008142704707D711F5000F58BF10F5000F13
:1056000015D481427047894270471CF5000F04D5BC
:10561000BCF5000FF7D5884270474FF0807C1CEB3B
:10562000410F38BF1CEB400F01D28842704780EA1F
:10563000010081EA000180EA0100FFF7F8BE80F076
:10564000004090EA010F7FF51EAD81F0004100F0AF
:1056500008B8000090EA010F48BF81F000413FF513
:1056600012AD421A04D882F00042A0EB02001144AD
:105670004FEAD0524FF07F4C1CEA410FA2EBD153BE
:1056800018BF9CEA026F4AD04FF0004C4CEA002051
:105690004CEA012121FA03FCB0EB0C0C0FD412F000
:1056A000FE0F36D05FEA4C001DD5001240EBC25011
:1056B00038BF70471CF03F0F18BF70470BE0A2F1D6
:1056C00001025FEA1C2040EBC25038BF70471CF05B
:1056D0007F0F18BF7047C3F12003994014BF401ECD
:1056E00020F00100704780084FEA122308BF70477E
:1056F000B0FA80FCA2EB0C02CCF1280C60FA0CF0A2
:1057000093EA122F04BF00EBC25070474FEAC370F8
:105710007047130A5FEADC1008BF7047F6E79CEA9F
:10572000026F04D010EA5C0F08BF0020704710B56C
:10573000FFF709FF40DFF63E81F0004070470CF0B4
:105740000F03092B08BF082000F07F800A2B0BD025
:10575000082B18BF704708BF1CF0400F0AD04FF04D
:1057600000004FF0000170471CF0400F18BF4FF0D1
:10577000004070471CF0100F08D020F0704300F07C
:105780007F4242EAD3014FEA4370704700F0604025
:1057900021F07F4242EA000201F07F4040EA72704D
:1057A00070474FF0FF0C4CF4E06C1CEA11531CBF27
:1057B0009CEA030C9445C2BFDA4201EB02517047E8
:1057C000002B0DD0BCF1000F0FD0002A01F00041DA
:1057D000A4BF41F0E04141F07F614FF0000070470D
:1057E00001F000414FF00000704750EA01334FF0E4
:1057F0009B0C18BF4CF0806C7FF406A870474FF0EC
:10580000FF0212EAD0521CBF92F0FF038B42C2BFCC
:10581000D14200EBC1507047002A0AD0002B0BD0B8
:10582000002900F00040A4BF40F0FE4040F400001A
:10583000704700F00040704743024FF00B0C18BF58
:105840004CF0806C7FF47AAC70471CF4801F11D050
:105850001CF4E02F03D06FEACC31490070474FF0C1
:105860004050EFF3008222F0704242EA000282F3DD
:10587000008870474FF000007047000004050607DD
:10588000080900000000000D0102030405060708D6
:10589000090A0B0C0D0E0F100000000000000000A4
:1058A00001020304060708090000000001020304C6
:1058B000005EBCE2613FDD83C29C7E20A3FD1F41F0
:1058C0009DC3217FFCA2401E5F01E3BD3E6082DCE0
:1058D000237D9FC1421CFEA0E1BF5D0380DE3C62D0
:1058E000BEE0025CDF81633D7C22C09E1D43A1FFC0
:1058F0004618FAA427799BC584DA3866E5BB5907B0
:10590000DB856739BAE406581947A5FB7826C49A9F
:10591000653BD987045AB8E6A7F91B45C6987A248F
:10592000F8A6441A99C7257B3A6486D85B05E7B97F
:105930008CD2306EEDB3510F4E10F2AC2F7193CD6F
:10594000114FADF3702ECC92D38D6F31B2EC0E505F
:10595000AFF1134DCE90722C6D33D18F0C52B0EE4F
:10596000326C8ED0530DEFB1F0AE4C1291CF2D733F
:10597000CA947628ABF517490856B4EA6937D58B2F
:105980005709EBB536688AD495CB2977F4AA48161F
:10599000E9B7550B88D6346A2B7597C94A14F6A80F
:1059A000742AC896154BA9F7B6E80A54D7896B35FF
:1059B0000000891112239B322446AD573665BF740F
:1059C000488CC19D5AAFD3BE6CCAE5DB7EE9F7F8BF
:1059D0008110080193331A22A5562C47B7753E64EF
:1059E000C99C408DDBBF52AEEDDA64CBFFF976E89F
:1059F00002218B30100299132667AF763444BD55CF
:105A00004AADC3BC588ED19F6EEBE7FA7CC8F5D97E
:105A100083310A2091121803A7772E66B5543C45AE
:105A2000CBBD42ACD99E508FEFFB66EAFDD874C95E
:105A300004428D5316619F702004A9153227BB368E
:105A40004CCEC5DF5EEDD7FC6888E1997AABF3BA3E
:105A500085520C4397711E60A1142805B3373A266E
:105A6000CDDE44CFDFFD56ECE9986089FBBB72AA1E
:105A700006638F7214409D512225AB343006B9174E
:105A80004EEFC7FE5CCCD5DD6AA9E3B8788AF19BFE
:105A900087730E6295501C41A3352A24B11638072E
:105AA000CFFF46EEDDDC54CDEBB962A8F99A708BDE
:105AB000088481951AA793B62CC2A5D33EE1B7F00E
:105AC0004008C919522BDB3A644EED5F766DFF7CBE
:105AD000899400859BB712A6ADD224C3BFF136E0EE
